{"contracts/EIP7702AutoForwarder.sol":{"EIP7702AutoForwarder":{"abi":[{"inputs":[],"name":"AlreadyInitialized","type":"error"},{"inputs":[],"name":"ExecutionFailed","type":"error"},{"inputs":[],"name":"ForwardFailed","type":"error"},{"inputs":[],"name":"LengthMismatch","type":"error"},{"inputs":[],"name":"NoTokenBalance","type":"error"},{"inputs":[],"name":"TokenTransferFailed","type":"error"},{"inputs":[],"name":"Unauthorized","type":"error"},{"inputs":[],"name":"ZeroAddress","type":"error"},{"anonymous":false,"inputs":[{"indexed":true,"internalType":"address","name":"forwardTarget","type":"address"},{"indexed":true,"internalType":"address","name":"gasSponsor","type":"address"},{"indexed":false,"internalType":"bool","name":"autoForward","type":"bool"}],"name":"ConfigUpdated","type":"event"},{"anonymous":false,"inputs":[{"indexed":true,"internalType":"address","name":"from","type":"address"},{"indexed":true,"internalType":"address","name":"to","type":"address"},{"indexed":false,"internalType":"uint256","name":"amount","type":"uint256"}],"name":"ETHForwarded","type":"event"},{"anonymous":false,"inputs":[{"indexed":true,"internalType":"address","name":"from","type":"address"},{"indexed":false,"internalType":"uint256","name":"amount","type":"uint256"}],"name":"ETHReceived","type":"event"},{"anonymous":false,"inputs":[{"indexed":true,"internalType":"address","name":"to","type":"address"},{"indexed":false,"internalType":"uint256","name":"value","type":"uint256"},{"indexed":false,"internalType":"bytes","name":"data","type":"bytes"}],"name":"Executed","type":"event"},{"anonymous":false,"inputs":[{"indexed":true,"internalType":"address","name":"forwardTarget","type":"address"},{"indexed":true,"internalType":"address","name":"gasSponsor","type":"address"}],"name":"Initialized","type":"event"},{"anonymous":false,"inputs":[{"indexed":true,"internalType":"address","name":"token","type":"address"},{"indexed":true,"internalType":"address","name":"to","type":"address"},{"indexed":false,"internalType":"uint256","name":"amount","type":"uint256"}],"name":"TokenSwept","type":"event"},{"stateMutability":"payable","type":"fallback"},{"inputs":[],"name":"autoForwardEnabled","outputs":[{"internalType":"bool","name":"","type":"bool"}],"stateMutability":"view","type":"function"},{"inputs":[{"internalType":"address","name":"to","type":"address"},{"internalType":"uint256","name":"value","type":"uint256"},{"internalType":"bytes","name":"data","type":"bytes"}],"name":"execute","outputs":[{"internalType":"bytes","name":"","type":"bytes"}],"stateMutability":"nonpayable","type":"function"},{"inputs":[{"internalType":"address[]","name":"targets","type":"address[]"},{"internalType":"uint256[]","name":"values","type":"uint256[]"},{"internalType":"bytes[]","name":"calldatas","type":"bytes[]"}],"name":"executeBatch","outputs":[],"stateMutability":"nonpayable","type":"function"},{"inputs":[],"name":"forwardAllETH","outputs":[],"stateMutability":"nonpayable","type":"function"},{"inputs":[],"name":"forwardTarget","outputs":[{"internalType":"address","name":"","type":"address"}],"stateMutability":"view","type":"function"},{"inputs":[],"name":"gasSponsor","outputs":[{"internalType":"address","name":"","type":"address"}],"stateMutability":"view","type":"function"},{"inputs":[],"name":"getBalance","outputs":[{"internalType":"uint256","name":"","type":"uint256"}],"stateMutability":"view","type":"function"},{"inputs":[],"name":"getConfig","outputs":[{"internalType":"address","name":"_forwardTarget","type":"address"},{"internalType":"address","name":"_gasSponsor","type":"address"},{"internalType":"bool","name":"_autoForwardEnabled","type":"bool"},{"internalType":"bool","name":"_initialized","type":"bool"}],"stateMutability":"view","type":"function"},{"inputs":[{"internalType":"address","name":"token","type":"address"}],"name":"getTokenBalance","outputs":[{"internalType":"uint256","name":"","type":"uint256"}],"stateMutability":"view","type":"function"},{"inputs":[{"internalType":"address","name":"_forwardTarget","type":"address"},{"internalType":"address","name":"_gasSponsor","type":"address"},{"internalType":"bool","name":"_autoForward","type":"bool"}],"name":"initialize","outputs":[],"stateMutability":"nonpayable","type":"function"},{"inputs":[],"name":"initialized","outputs":[{"internalType":"bool","name":"","type":"bool"}],"stateMutability":"view","type":"function"},{"inputs":[],"name":"nonce","outputs":[{"internalType":"uint256","name":"","type":"uint256"}],"stateMutability":"view","type":"function"},{"inputs":[],"name":"prepareRevoke","outputs":[],"stateMutability":"nonpayable","type":"function"},{"inputs":[{"internalType":"bool","name":"_enabled","type":"bool"}],"name":"setAutoForward","outputs":[],"stateMutability":"nonpayable","type":"function"},{"inputs":[{"internalType":"address","name":"_target","type":"address"}],"name":"setForwardTarget","outputs":[],"stateMutability":"nonpayable","type":"function"},{"inputs":[{"internalType":"address","name":"_sponsor","type":"address"}],"name":"setGasSponsor","outputs":[],"stateMutability":"nonpayable","type":"function"},{"inputs":[{"internalType":"address","name":"to","type":"address"},{"internalType":"uint256","name":"value","type":"uint256"},{"internalType":"bytes","name":"data","type":"bytes"},{"internalType":"bytes","name":"signature","type":"bytes"}],"name":"sponsoredExecute","outputs":[{"internalType":"bytes","name":"","type":"bytes"}],"stateMutability":"nonpayable","type":"function"},{"inputs":[{"internalType":"address","name":"token","type":"address"}],"name":"sweepToken","outputs":[],"stateMutability":"nonpayable","type":"function"},{"inputs":[{"internalType":"address","name":"token","type":"address"},{"internalType":"address","name":"to","type":"address"}],"name":"sweepTokenTo","outputs":[],"stateMutability":"nonpayable","type":"function"},{"inputs":[{"internalType":"address[]","name":"tokens","type":"address[]"}],"name":"sweepTokens","outputs":[],"stateMutability":"nonpayable","type":"function"},{"inputs":[{"internalType":"address[]","name":"tokens","type":"address[]"},{"internalType":"address","name":"to","type":"address"}],"name":"sweepTokensTo","outputs":[],"stateMutability":"nonpayable","type":"function"},{"inputs":[{"internalType":"address","name":"_forwardTarget","type":"address"},{"internalType":"address","name":"_gasSponsor","type":"address"},{"internalType":"bool","name":"_autoForward","type":"bool"}],"name":"updateConfig","outputs":[],"stateMutability":"nonpayable","type":"function"},{"stateMutability":"payable","type":"receive"}],"evm":{"bytecode":{"linkReferences":{},"object":"6080604052348015600e575f5ffd5b50611ee88061001c5f395ff3fe608060405260043610610138575f3560e01c806375e68502116100aa578063affed0e01161006e578063affed0e0146104f6578063b425ef831461050b578063b61d27f61461051f578063c3f909d41461053e578063e4bbb5a814610594578063ef44de42146105b35761025d565b806375e685021461044f57806376405b931461046e578063909b19d91461048d5780639463f7a6146104ac578063a94cc1a0146104d85761025d565b80633aecd0e3116100fc5780633aecd0e31461038857806347d5e3ae146103a757806347e1da2a146103c6578063537244c6146103e55780636d3e4481146104045780636edfcd23146104185761025d565b806312065fe0146102d9578063158ef93e146102fa5780631be195601461032a578063327370341461034957806337a9ba94146103695761025d565b3661025d57600154600160a01b900460ff16801561015f57505f546001600160a01b031615155b801561016a57505f34115b15610225575f80546040516001600160a01b039091169034908381818185875af1925050503d805f81146101b9576040519150601f19603f3d011682016040523d82523d5f602084013e6101be565b606091505b50509050806101e05760405163096dc0e160e01b815260040160405180910390fd5b5f546040513481526001600160a01b039091169033907fba3e71c2881efe881d169a722215ae66587e85bf64bcc507f2904a7345afeba09060200160405180910390a3005b60405134815233907fbfe611b001dfcd411432f7bf0d79b82b4b2ee81511edac123a3403c357fb972a9060200160405180910390a25b005b600154600160a01b900460ff16801561027f57505f546001600160a01b031615155b801561028a57505f34115b1561025b575f80546040516001600160a01b039091169034908381818185875af1925050503d805f81146101b9576040519150601f19603f3d011682016040523d82523d5f602084013e6101be565b3480156102e4575f5ffd5b50475b6040519081526020015b60405180910390f35b348015610305575f5ffd5b5060015461031a90600160a81b900460ff1681565b60405190151581526020016102f1565b348015610335575f5ffd5b5061025b6103443660046119d4565b6105d2565b348015610354575f5ffd5b5060015461031a90600160a01b900460ff1681565b348015610374575f5ffd5b5061025b610383366004611a04565b610715565b348015610393575f5ffd5b506102e76103a23660046119d4565b6107d8565b3480156103b2575f5ffd5b5061025b6103c13660046119d4565b610846565b3480156103d1575f5ffd5b5061025b6103e0366004611a90565b6108ca565b3480156103f0575f5ffd5b5061025b6103ff3660046119d4565b610ac5565b34801561040f575f5ffd5b5061025b610b65565b348015610423575f5ffd5b50600154610437906001600160a01b031681565b6040516001600160a01b0390911681526020016102f1565b34801561045a575f5ffd5b5061025b610469366004611b2f565b610c90565b348015610479575f5ffd5b5061025b610488366004611b60565b610dc2565b348015610498575f5ffd5b5061025b6104a7366004611b7b565b610e48565b3480156104b7575f5ffd5b506104cb6104c6366004611bf8565b611001565b6040516102f19190611c6f565b3480156104e3575f5ffd5b505f54610437906001600160a01b031681565b348015610501575f5ffd5b506102e760025481565b348015610516575f5ffd5b5061025b6112f3565b34801561052a575f5ffd5b506104cb610539366004611ca4565b6113ee565b348015610549575f5ffd5b505f54600154604080516001600160a01b039384168152928216602084015260ff600160a01b83048116151591840191909152600160a81b90910416151560608201526080016102f1565b34801561059f575f5ffd5b5061025b6105ae366004611a04565b6114eb565b3480156105be575f5ffd5b5061025b6105cd366004611cfa565b6115e4565b3330148015906105ed57506001546001600160a01b03163314155b80156105f95750333214155b15610616576040516282b42960e81b815260040160405180910390fd5b5f546001600160a01b031661063e5760405163d92e233d60e01b815260040160405180910390fd5b6040516370a0823160e01b81523060048201525f906001600160a01b038316906370a0823190602401602060405180830381865afa158015610682573d5f5f3e3d5ffd5b505050506040513d601f19601f820116820180604052508101906106a69190611d4a565b9050805f036106c857604051633dbd9b6d60e11b815260040160405180910390fd5b5f546106df9083906001600160a01b031683611792565b5f546040518281526001600160a01b03918216918416905f516020611e735f395f51905f52906020015b60405180910390a35050565b3330148015906107255750333214155b15610742576040516282b42960e81b815260040160405180910390fd5b6001600160a01b0383166107695760405163d92e233d60e01b815260040160405180910390fd5b5f80546001600160a01b038086166001600160a01b0319909216821790925560018054841515600160a01b026001600160a81b03199091169386169384171790556040515f516020611e935f395f51905f52906107cb90851515815260200190565b60405180910390a3505050565b6040516370a0823160e01b81523060048201525f906001600160a01b038316906370a0823190602401602060405180830381865afa15801561081c573d5f5f3e3d5ffd5b505050506040513d601f19601f820116820180604052508101906108409190611d4a565b92915050565b3330148015906108565750333214155b15610873576040516282b42960e81b815260040160405180910390fd5b600180546001600160a01b0319166001600160a01b03838116918217928390555f54604051600160a01b90940460ff161515845291929116905f516020611e935f395f51905f52906020015b60405180910390a350565b3330148015906108da5750333214155b156108f7576040516282b42960e81b815260040160405180910390fd5b84831415806109065750828114155b15610927576040516001621398b960e31b0319815260040160405180910390fd5b5f5b85811015610abc575f87878381811061094457610944611d61565b905060200201602081019061095991906119d4565b6001600160a01b031686868481811061097457610974611d61565b9050602002013585858581811061098d5761098d611d61565b905060200281019061099f9190611d75565b6040516109ad929190611db8565b5f6040518083038185875af1925050503d805f81146109e7576040519150601f19603f3d011682016040523d82523d5f602084013e6109ec565b606091505b5050905080610a0e57604051632b3f6d1160e21b815260040160405180910390fd5b878783818110610a2057610a20611d61565b9050602002016020810190610a3591906119d4565b6001600160a01b03167fcaf938de11c367272220bfd1d2baa99ca46665e7bc4d85f00adb51b90fe1fa9f878785818110610a7157610a71611d61565b90506020020135868686818110610a8a57610a8a611d61565b9050602002810190610a9c9190611d75565b604051610aab93929190611dc7565b60405180910390a250600101610929565b50505050505050565b333014801590610ad55750333214155b15610af2576040516282b42960e81b815260040160405180910390fd5b6001600160a01b038116610b195760405163d92e233d60e01b815260040160405180910390fd5b5f80546001600160a01b0319166001600160a01b03838116918217909255600154604051600160a01b820460ff16151581529216915f516020611e935f395f51905f52906020016108bf565b333014801590610b8057506001546001600160a01b03163314155b8015610b8c5750333214155b15610ba9576040516282b42960e81b815260040160405180910390fd5b5f546001600160a01b0316610bd15760405163d92e233d60e01b815260040160405180910390fd5b475f819003610bdd5750565b5f80546040516001600160a01b039091169083908381818185875af1925050503d805f8114610c27576040519150601f19603f3d011682016040523d82523d5f602084013e610c2c565b606091505b5050905080610c4e5760405163096dc0e160e01b815260040160405180910390fd5b5f546040518381526001600160a01b039091169030907fba3e71c2881efe881d169a722215ae66587e85bf64bcc507f2904a7345afeba090602001610709565b565b333014801590610cab57506001546001600160a01b03163314155b8015610cb75750333214155b15610cd4576040516282b42960e81b815260040160405180910390fd5b6001600160a01b038116610cfb5760405163d92e233d60e01b815260040160405180910390fd5b6040516370a0823160e01b81523060048201525f906001600160a01b038416906370a0823190602401602060405180830381865afa158015610d3f573d5f5f3e3d5ffd5b505050506040513d601f19601f82011682018060405250810190610d639190611d4a565b9050805f03610d8557604051633dbd9b6d60e11b815260040160405180910390fd5b610d90838383611792565b816001600160a01b0316836001600160a01b03165f516020611e735f395f51905f52836040516107cb91815260200190565b333014801590610dd25750333214155b15610def576040516282b42960e81b815260040160405180910390fd5b60018054821515600160a01b90810260ff60a01b1983168117938490555f546040516001600160a01b0392831694831694909417949116925f516020611e935f395f51905f52926108bf920460ff161515815260200190565b333014801590610e6357506001546001600160a01b03163314155b8015610e6f5750333214155b15610e8c576040516282b42960e81b815260040160405180910390fd5b5f546001600160a01b0316610eb45760405163d92e233d60e01b815260040160405180910390fd5b5f5b81811015610ffc575f838383818110610ed157610ed1611d61565b9050602002016020810190610ee691906119d4565b6040516370a0823160e01b81523060048201526001600160a01b0391909116906370a0823190602401602060405180830381865afa158015610f2a573d5f5f3e3d5ffd5b505050506040513d601f19601f82011682018060405250810190610f4e9190611d4a565b90508015610ff357610f91848484818110610f6b57610f6b611d61565b9050602002016020810190610f8091906119d4565b5f546001600160a01b031683611792565b5f546001600160a01b0316848484818110610fae57610fae611d61565b9050602002016020810190610fc391906119d4565b6001600160a01b03165f516020611e735f395f51905f5283604051610fea91815260200190565b60405180910390a35b50600101610eb6565b505050565b60605f7f8b320d3f82cb30ceac499bfb603ebdd270ad1f5e27a1cbe7a0dc0bdcadb6c38a5f1b88888888604051611039929190611db8565b60405190819003812060025461107b959493926020019485526001600160a01b0393909316602085015260408401919091526060830152608082015260a00190565b6040516020818303038152906040528051906020012090505f61116c604080518082018252601481527322a4a81b9b981920baba37a337b93bb0b93232b960611b6020918201528151808301835260018152603160f81b9082015281517fc2f8787176b8ac6bf7215b4adcc1e069bf4ab82d9ab1df05a57a91d425935b6e818301527f7ef4872878b04ee4262301fdfc75f3b60aa572501746f630bab1db203d799002818401527fc89efdaa54c0f20c7adf612882df0950f5a951637e0307cdcb4c672f298b8bc66060820152466080808301919091528351808303909101815260a0909101909252815191012090565b60405161190160f01b60208201526022810191909152604281018390526062016040516020818303038152906040528051906020012090505f6111e48287878080601f0160208091040260200160405190810160405280939291908181526020018383808284375f9201919091525061187e92505050565b90506001600160a01b03811661120c576040516282b42960e81b815260040160405180910390fd5b60028054905f61121b83611e10565b91905055505f5f8b6001600160a01b03168b8b8b60405161123d929190611db8565b5f6040518083038185875af1925050503d805f8114611277576040519150601f19603f3d011682016040523d82523d5f602084013e61127c565b606091505b50915091508161129f57604051632b3f6d1160e21b815260040160405180910390fd5b8b6001600160a01b03167fcaf938de11c367272220bfd1d2baa99ca46665e7bc4d85f00adb51b90fe1fa9f8c8c8c6040516112dc93929190611dc7565b60405180910390a29b9a5050505050505050505050565b3330148015906113035750333214155b15611320576040516282b42960e81b815260040160405180910390fd5b5f546001600160a01b03161580159061133857505f47115b15610c8e575f80546040516001600160a01b039091169047908381818185875af1925050503d805f8114611387576040519150601f19603f3d011682016040523d82523d5f602084013e61138c565b606091505b50509050806113ae5760405163096dc0e160e01b815260040160405180910390fd5b5f546040514781526001600160a01b039091169030907fba3e71c2881efe881d169a722215ae66587e85bf64bcc507f2904a7345afeba0906020016108bf565b60603330148015906114005750333214155b1561141d576040516282b42960e81b815260040160405180910390fd5b5f5f866001600160a01b031686868660405161143a929190611db8565b5f6040518083038185875af1925050503d805f8114611474576040519150601f19603f3d011682016040523d82523d5f602084013e611479565b606091505b50915091508161149c57604051632b3f6d1160e21b815260040160405180910390fd5b866001600160a01b03167fcaf938de11c367272220bfd1d2baa99ca46665e7bc4d85f00adb51b90fe1fa9f8787876040516114d993929190611dc7565b60405180910390a29695505050505050565b3330148015906114fb5750333214155b15611518576040516282b42960e81b815260040160405180910390fd5b600154600160a81b900460ff16156115425760405162dc149f60e41b815260040160405180910390fd5b6001600160a01b0383166115695760405163d92e233d60e01b815260040160405180910390fd5b5f80546001600160a01b0319166001600160a01b03858116918217835560018054600160a81b9287166001600160a81b03199091168117600160a01b871515021760ff60a81b191692909217905560405190927f3cd5ec01b1ae7cfec6ca1863e2cd6aa25d6d1702825803ff2b7cc95010fffdc291a3505050565b3330148015906115ff57506001546001600160a01b03163314155b801561160b5750333214155b15611628576040516282b42960e81b815260040160405180910390fd5b6001600160a01b03811661164f5760405163d92e233d60e01b815260040160405180910390fd5b5f5b8281101561178c575f84848381811061166c5761166c611d61565b905060200201602081019061168191906119d4565b6040516370a0823160e01b81523060048201526001600160a01b0391909116906370a0823190602401602060405180830381865afa1580156116c5573d5f5f3e3d5ffd5b505050506040513d601f19601f820116820180604052508101906116e99190611d4a565b905080156117835761172285858481811061170657611706611d61565b905060200201602081019061171b91906119d4565b8483611792565b826001600160a01b031685858481811061173e5761173e611d61565b905060200201602081019061175391906119d4565b6001600160a01b03165f516020611e735f395f51905f528360405161177a91815260200190565b60405180910390a35b50600101611651565b50505050565b604080516001600160a01b038481166024830152604480830185905283518084039091018152606490920183526020820180516001600160e01b031663a9059cbb60e01b17905291515f928392908716916117ed9190611e28565b5f604051808303815f865af19150503d805f8114611826576040519150601f19603f3d011682016040523d82523d5f602084013e61182b565b606091505b509150915081158061185957505f81511180156118595750808060200190518101906118579190611e3e565b155b156118775760405163022e258160e11b815260040160405180910390fd5b5050505050565b5f81516041146118d55760405162461bcd60e51b815260206004820152601860248201527f496e76616c6964207369676e6174757265206c656e677468000000000000000060448201526064015b60405180910390fd5b6020820151604083015160608401515f1a601b8110156118fd576118fa601b82611e59565b90505b8060ff16601b1415801561191557508060ff16601c14155b156119545760405162461bcd60e51b815260206004820152600f60248201526e496e76616c696420762076616c756560881b60448201526064016118cc565b604080515f81526020810180835288905260ff831691810191909152606081018490526080810183905260019060a0016020604051602081039080840390855afa1580156119a4573d5f5f3e3d5ffd5b5050604051601f190151979650505050505050565b80356001600160a01b03811681146119cf575f5ffd5b919050565b5f602082840312156119e4575f5ffd5b6119ed826119b9565b9392505050565b8015158114611a01575f5ffd5b50565b5f5f5f60608486031215611a16575f5ffd5b611a1f846119b9565b9250611a2d602085016119b9565b91506040840135611a3d816119f4565b809150509250925092565b5f5f83601f840112611a58575f5ffd5b50813567ffffffffffffffff811115611a6f575f5ffd5b6020830191508360208260051b8501011115611a89575f5ffd5b9250929050565b5f5f5f5f5f5f60608789031215611aa5575f5ffd5b863567ffffffffffffffff811115611abb575f5ffd5b611ac789828a01611a48565b909750955050602087013567ffffffffffffffff811115611ae6575f5ffd5b611af289828a01611a48565b909550935050604087013567ffffffffffffffff811115611b11575f5ffd5b611b1d89828a01611a48565b979a9699509497509295939492505050565b5f5f60408385031215611b40575f5ffd5b611b49836119b9565b9150611b57602084016119b9565b90509250929050565b5f60208284031215611b70575f5ffd5b81356119ed816119f4565b5f5f60208385031215611b8c575f5ffd5b823567ffffffffffffffff811115611ba2575f5ffd5b611bae85828601611a48565b90969095509350505050565b5f5f83601f840112611bca575f5ffd5b50813567ffffffffffffffff811115611be1575f5ffd5b602083019150836020828501011115611a89575f5ffd5b5f5f5f5f5f5f60808789031215611c0d575f5ffd5b611c16876119b9565b955060208701359450604087013567ffffffffffffffff811115611c38575f5ffd5b611c4489828a01611bba565b909550935050606087013567ffffffffffffffff811115611c63575f5ffd5b611b1d89828a01611bba565b602081525f82518060208401528060208501604085015e5f604082850101526040601f19601f83011684010191505092915050565b5f5f5f5f60608587031215611cb7575f5ffd5b611cc0856119b9565b935060208501359250604085013567ffffffffffffffff811115611ce2575f5ffd5b611cee87828801611bba565b95989497509550505050565b5f5f5f60408486031215611d0c575f5ffd5b833567ffffffffffffffff811115611d22575f5ffd5b611d2e86828701611a48565b9094509250611d419050602085016119b9565b90509250925092565b5f60208284031215611d5a575f5ffd5b5051919050565b634e487b7160e01b5f52603260045260245ffd5b5f5f8335601e19843603018112611d8a575f5ffd5b83018035915067ffffffffffffffff821115611da4575f5ffd5b602001915036819003821315611a89575f5ffd5b818382375f9101908152919050565b83815260406020820152816040820152818360608301375f818301606090810191909152601f909201601f1916010192915050565b634e487b7160e01b5f52601160045260245ffd5b5f60018201611e2157611e21611dfc565b5060010190565b5f82518060208501845e5f920191825250919050565b5f60208284031215611e4e575f5ffd5b81516119ed816119f4565b60ff818116838216019081111561084057610840611dfc56fe115d7b5114b5954762cc233b141a7c777a8f79d93f50af7216d645c87fb4883e8f77097880cbeed821b47f9836e06b28a74d72de99667426584d993fe4f56e80a26469706673582212200f5b56c933b427281ff98c5cab944657649901064ba834d8b8766174e0f575e764736f6c634300081b0033","opcodes":"PUSH1 0x80 PUSH1 0x40 MSTORE CALLVALUE DUP1 ISZERO PUSH1 0xE JUMPI PUSH0 PUSH0 REVERT JUMPDEST POP PUSH2 0x1EE8 DUP1 PUSH2 0x1C PUSH0 CODECOPY PUSH0 RETURN INVALID PUSH1 0x80 PUSH1 0x40 MSTORE PUSH1 0x4 CALLDATASIZE LT PUSH2 0x138 JUMPI PUSH0 CALLDATALOAD PUSH1 0xE0 SHR DUP1 PUSH4 0x75E68502 GT PUSH2 0xAA JUMPI DUP1 PUSH4 0xAFFED0E0 GT PUSH2 0x6E JUMPI DUP1 PUSH4 0xAFFED0E0 EQ PUSH2 0x4F6 JUMPI DUP1 PUSH4 0xB425EF83 EQ PUSH2 0x50B JUMPI DUP1 PUSH4 0xB61D27F6 EQ PUSH2 0x51F JUMPI DUP1 PUSH4 0xC3F909D4 EQ PUSH2 0x53E JUMPI DUP1 PUSH4 0xE4BBB5A8 EQ PUSH2 0x594 JUMPI DUP1 PUSH4 0xEF44DE42 EQ PUSH2 0x5B3 JUMPI PUSH2 0x25D JUMP JUMPDEST DUP1 PUSH4 0x75E68502 EQ PUSH2 0x44F JUMPI DUP1 PUSH4 0x76405B93 EQ PUSH2 0x46E JUMPI DUP1 PUSH4 0x909B19D9 EQ PUSH2 0x48D JUMPI DUP1 PUSH4 0x9463F7A6 EQ PUSH2 0x4AC JUMPI DUP1 PUSH4 0xA94CC1A0 EQ PUSH2 0x4D8 JUMPI PUSH2 0x25D JUMP JUMPDEST DUP1 PUSH4 0x3AECD0E3 GT PUSH2 0xFC JUMPI DUP1 PUSH4 0x3AECD0E3 EQ PUSH2 0x388 JUMPI DUP1 PUSH4 0x47D5E3AE EQ PUSH2 0x3A7 JUMPI DUP1 PUSH4 0x47E1DA2A EQ PUSH2 0x3C6 JUMPI DUP1 PUSH4 0x537244C6 EQ PUSH2 0x3E5 JUMPI DUP1 PUSH4 0x6D3E4481 EQ PUSH2 0x404 JUMPI DUP1 PUSH4 0x6EDFCD23 EQ PUSH2 0x418 JUMPI PUSH2 0x25D JUMP JUMPDEST DUP1 PUSH4 0x12065FE0 EQ PUSH2 0x2D9 JUMPI DUP1 PUSH4 0x158EF93E EQ PUSH2 0x2FA JUMPI DUP1 PUSH4 0x1BE19560 EQ PUSH2 0x32A JUMPI DUP1 PUSH4 0x32737034 EQ PUSH2 0x349 JUMPI DUP1 PUSH4 0x37A9BA94 EQ PUSH2 0x369 JUMPI PUSH2 0x25D JUMP JUMPDEST CALLDATASIZE PUSH2 0x25D JUMPI PUSH1 0x1 SLOAD PUSH1 0x1 PUSH1 0xA0 SHL SWAP1 DIV PUSH1 0xFF AND DUP1 ISZERO PUSH2 0x15F JUMPI POP PUSH0 SLOAD PUSH1 0x1 PUSH1 0x1 PUSH1 0xA0 SHL SUB AND ISZERO ISZERO JUMPDEST DUP1 ISZERO PUSH2 0x16A JUMPI POP PUSH0 CALLVALUE GT JUMPDEST ISZERO PUSH2 0x225 JUMPI PUSH0 DUP1 SLOAD PUSH1 0x40 MLOAD PUSH1 0x1 PUSH1 0x1 PUSH1 0xA0 SHL SUB SWAP1 SWAP2 AND SWAP1 CALLVALUE SWAP1 DUP4 DUP2 DUP2 DUP2 DUP6 DUP8 GAS CALL SWAP3 POP POP POP RETURNDATASIZE DUP1 PUSH0 DUP2 EQ PUSH2 0x1B9 JUMPI PUSH1 0x40 MLOAD SWAP2 POP PUSH1 0x1F NOT PUSH1 0x3F RETURNDATASIZE ADD AND DUP3 ADD PUSH1 0x40 MSTORE RETURNDATASIZE DUP3 MSTORE RETURNDATASIZE PUSH0 PUSH1 0x20 DUP5 ADD RETURNDATACOPY PUSH2 0x1BE JUMP JUMPDEST PUSH1 0x60 SWAP2 POP JUMPDEST POP POP SWAP1 POP DUP1 PUSH2 0x1E0 JUMPI PUSH1 0x40 MLOAD PUSH4 0x96DC0E1 PUSH1 0xE0 SHL DUP2 MSTORE PUSH1 0x4 ADD PUSH1 0x40 MLOAD DUP1 SWAP2 SUB SWAP1 REVERT JUMPDEST PUSH0 SLOAD PUSH1 0x40 MLOAD CALLVALUE DUP2 MSTORE PUSH1 0x1 PUSH1 0x1 PUSH1 0xA0 SHL SUB SWAP1 SWAP2 AND SWAP1 CALLER SWAP1 PUSH32 0xBA3E71C2881EFE881D169A722215AE66587E85BF64BCC507F2904A7345AFEBA0 SWAP1 PUSH1 0x20 ADD PUSH1 0x40 MLOAD DUP1 SWAP2 SUB SWAP1 LOG3 STOP JUMPDEST PUSH1 0x40 MLOAD CALLVALUE DUP2 MSTORE CALLER SWAP1 PUSH32 0xBFE611B001DFCD411432F7BF0D79B82B4B2EE81511EDAC123A3403C357FB972A SWAP1 PUSH1 0x20 ADD PUSH1 0x40 MLOAD DUP1 SWAP2 SUB SWAP1 LOG2 JUMPDEST STOP JUMPDEST PUSH1 0x1 SLOAD PUSH1 0x1 PUSH1 0xA0 SHL SWAP1 DIV PUSH1 0xFF AND DUP1 ISZERO PUSH2 0x27F JUMPI POP PUSH0 SLOAD PUSH1 0x1 PUSH1 0x1 PUSH1 0xA0 SHL SUB AND ISZERO ISZERO JUMPDEST DUP1 ISZERO PUSH2 0x28A JUMPI POP PUSH0 CALLVALUE GT JUMPDEST ISZERO PUSH2 0x25B JUMPI PUSH0 DUP1 SLOAD PUSH1 0x40 MLOAD PUSH1 0x1 PUSH1 0x1 PUSH1 0xA0 SHL SUB SWAP1 SWAP2 AND SWAP1 CALLVALUE SWAP1 DUP4 DUP2 DUP2 DUP2 DUP6 DUP8 GAS CALL SWAP3 POP POP POP RETURNDATASIZE DUP1 PUSH0 DUP2 EQ PUSH2 0x1B9 JUMPI PUSH1 0x40 MLOAD SWAP2 POP PUSH1 0x1F NOT PUSH1 0x3F RETURNDATASIZE ADD AND DUP3 ADD PUSH1 0x40 MSTORE RETURNDATASIZE DUP3 MSTORE RETURNDATASIZE PUSH0 PUSH1 0x20 DUP5 ADD RETURNDATACOPY PUSH2 0x1BE JUMP JUMPDEST CALLVALUE DUP1 ISZERO PUSH2 0x2E4 JUMPI PUSH0 PUSH0 REVERT JUMPDEST POP SELFBALANCE JUMPDEST PUSH1 0x40 MLOAD SWAP1 DUP2 MSTORE PUSH1 0x20 ADD JUMPDEST PUSH1 0x40 MLOAD DUP1 SWAP2 SUB SWAP1 RETURN JUMPDEST CALLVALUE DUP1 ISZERO PUSH2 0x305 JUMPI PUSH0 PUSH0 REVERT JUMPDEST POP PUSH1 0x1 SLOAD PUSH2 0x31A SWAP1 PUSH1 0x1 PUSH1 0xA8 SHL SWAP1 DIV PUSH1 0xFF AND DUP2 JUMP JUMPDEST PUSH1 0x40 MLOAD SWAP1 ISZERO ISZERO DUP2 MSTORE PUSH1 0x20 ADD PUSH2 0x2F1 JUMP JUMPDEST CALLVALUE DUP1 ISZERO PUSH2 0x335 JUMPI PUSH0 PUSH0 REVERT JUMPDEST POP PUSH2 0x25B PUSH2 0x344 CALLDATASIZE PUSH1 0x4 PUSH2 0x19D4 JUMP JUMPDEST PUSH2 0x5D2 JUMP JUMPDEST CALLVALUE DUP1 ISZERO PUSH2 0x354 JUMPI PUSH0 PUSH0 REVERT JUMPDEST POP PUSH1 0x1 SLOAD PUSH2 0x31A SWAP1 PUSH1 0x1 PUSH1 0xA0 SHL SWAP1 DIV PUSH1 0xFF AND DUP2 JUMP JUMPDEST CALLVALUE DUP1 ISZERO PUSH2 0x374 JUMPI PUSH0 PUSH0 REVERT JUMPDEST POP PUSH2 0x25B PUSH2 0x383 CALLDATASIZE PUSH1 0x4 PUSH2 0x1A04 JUMP JUMPDEST PUSH2 0x715 JUMP JUMPDEST CALLVALUE DUP1 ISZERO PUSH2 0x393 JUMPI PUSH0 PUSH0 REVERT JUMPDEST POP PUSH2 0x2E7 PUSH2 0x3A2 CALLDATASIZE PUSH1 0x4 PUSH2 0x19D4 JUMP JUMPDEST PUSH2 0x7D8 JUMP JUMPDEST CALLVALUE DUP1 ISZERO PUSH2 0x3B2 JUMPI PUSH0 PUSH0 REVERT JUMPDEST POP PUSH2 0x25B PUSH2 0x3C1 CALLDATASIZE PUSH1 0x4 PUSH2 0x19D4 JUMP JUMPDEST PUSH2 0x846 JUMP JUMPDEST CALLVALUE DUP1 ISZERO PUSH2 0x3D1 JUMPI PUSH0 PUSH0 REVERT JUMPDEST POP PUSH2 0x25B PUSH2 0x3E0 CALLDATASIZE PUSH1 0x4 PUSH2 0x1A90 JUMP JUMPDEST PUSH2 0x8CA JUMP JUMPDEST CALLVALUE DUP1 ISZERO PUSH2 0x3F0 JUMPI PUSH0 PUSH0 REVERT JUMPDEST POP PUSH2 0x25B PUSH2 0x3FF CALLDATASIZE PUSH1 0x4 PUSH2 0x19D4 JUMP JUMPDEST PUSH2 0xAC5 JUMP JUMPDEST CALLVALUE DUP1 ISZERO PUSH2 0x40F JUMPI PUSH0 PUSH0 REVERT JUMPDEST POP PUSH2 0x25B PUSH2 0xB65 JUMP JUMPDEST CALLVALUE DUP1 ISZERO PUSH2 0x423 JUMPI PUSH0 PUSH0 REVERT JUMPDEST POP PUSH1 0x1 SLOAD PUSH2 0x437 SWAP1 PUSH1 0x1 PUSH1 0x1 PUSH1 0xA0 SHL SUB AND DUP2 JUMP JUMPDEST PUSH1 0x40 MLOAD PUSH1 0x1 PUSH1 0x1 PUSH1 0xA0 SHL SUB SWAP1 SWAP2 AND DUP2 MSTORE PUSH1 0x20 ADD PUSH2 0x2F1 JUMP JUMPDEST CALLVALUE DUP1 ISZERO PUSH2 0x45A JUMPI PUSH0 PUSH0 REVERT JUMPDEST POP PUSH2 0x25B PUSH2 0x469 CALLDATASIZE PUSH1 0x4 PUSH2 0x1B2F JUMP JUMPDEST PUSH2 0xC90 JUMP JUMPDEST CALLVALUE DUP1 ISZERO PUSH2 0x479 JUMPI PUSH0 PUSH0 REVERT JUMPDEST POP PUSH2 0x25B PUSH2 0x488 CALLDATASIZE PUSH1 0x4 PUSH2 0x1B60 JUMP JUMPDEST PUSH2 0xDC2 JUMP JUMPDEST CALLVALUE DUP1 ISZERO PUSH2 0x498 JUMPI PUSH0 PUSH0 REVERT JUMPDEST POP PUSH2 0x25B PUSH2 0x4A7 CALLDATASIZE PUSH1 0x4 PUSH2 0x1B7B JUMP JUMPDEST PUSH2 0xE48 JUMP JUMPDEST CALLVALUE DUP1 ISZERO PUSH2 0x4B7 JUMPI PUSH0 PUSH0 REVERT JUMPDEST POP PUSH2 0x4CB PUSH2 0x4C6 CALLDATASIZE PUSH1 0x4 PUSH2 0x1BF8 JUMP JUMPDEST PUSH2 0x1001 JUMP JUMPDEST PUSH1 0x40 MLOAD PUSH2 0x2F1 SWAP2 SWAP1 PUSH2 0x1C6F JUMP JUMPDEST CALLVALUE DUP1 ISZERO PUSH2 0x4E3 JUMPI PUSH0 PUSH0 REVERT JUMPDEST POP PUSH0 SLOAD PUSH2 0x437 SWAP1 PUSH1 0x1 PUSH1 0x1 PUSH1 0xA0 SHL SUB AND DUP2 JUMP JUMPDEST CALLVALUE DUP1 ISZERO PUSH2 0x501 JUMPI PUSH0 PUSH0 REVERT JUMPDEST POP PUSH2 0x2E7 PUSH1 0x2 SLOAD DUP2 JUMP JUMPDEST CALLVALUE DUP1 ISZERO PUSH2 0x516 JUMPI PUSH0 PUSH0 REVERT JUMPDEST POP PUSH2 0x25B PUSH2 0x12F3 JUMP JUMPDEST CALLVALUE DUP1 ISZERO PUSH2 0x52A JUMPI PUSH0 PUSH0 REVERT JUMPDEST POP PUSH2 0x4CB PUSH2 0x539 CALLDATASIZE PUSH1 0x4 PUSH2 0x1CA4 JUMP JUMPDEST PUSH2 0x13EE JUMP JUMPDEST CALLVALUE DUP1 ISZERO PUSH2 0x549 JUMPI PUSH0 PUSH0 REVERT JUMPDEST POP PUSH0 SLOAD PUSH1 0x1 SLOAD PUSH1 0x40 DUP1 MLOAD PUSH1 0x1 PUSH1 0x1 PUSH1 0xA0 SHL SUB SWAP4 DUP5 AND DUP2 MSTORE SWAP3 DUP3 AND PUSH1 0x20 DUP5 ADD MSTORE PUSH1 0xFF PUSH1 0x1 PUSH1 0xA0 SHL DUP4 DIV DUP2 AND ISZERO ISZERO SWAP2 DUP5 ADD SWAP2 SWAP1 SWAP2 MSTORE PUSH1 0x1 PUSH1 0xA8 SHL SWAP1 SWAP2 DIV AND ISZERO ISZERO PUSH1 0x60 DUP3 ADD MSTORE PUSH1 0x80 ADD PUSH2 0x2F1 JUMP JUMPDEST CALLVALUE DUP1 ISZERO PUSH2 0x59F JUMPI PUSH0 PUSH0 REVERT JUMPDEST POP PUSH2 0x25B PUSH2 0x5AE CALLDATASIZE PUSH1 0x4 PUSH2 0x1A04 JUMP JUMPDEST PUSH2 0x14EB JUMP JUMPDEST CALLVALUE DUP1 ISZERO PUSH2 0x5BE JUMPI PUSH0 PUSH0 REVERT JUMPDEST POP PUSH2 0x25B PUSH2 0x5CD CALLDATASIZE PUSH1 0x4 PUSH2 0x1CFA JUMP JUMPDEST PUSH2 0x15E4 JUMP JUMPDEST CALLER ADDRESS EQ DUP1 ISZERO SWAP1 PUSH2 0x5ED JUMPI POP PUSH1 0x1 SLOAD PUSH1 0x1 PUSH1 0x1 PUSH1 0xA0 SHL SUB AND CALLER EQ ISZERO JUMPDEST DUP1 ISZERO PUSH2 0x5F9 JUMPI POP CALLER ORIGIN EQ ISZERO JUMPDEST ISZERO PUSH2 0x616 JUMPI PUSH1 0x40 MLOAD PUSH3 0x82B429 PUSH1 0xE8 SHL DUP2 MSTORE PUSH1 0x4 ADD PUSH1 0x40 MLOAD DUP1 SWAP2 SUB SWAP1 REVERT JUMPDEST PUSH0 SLOAD PUSH1 0x1 PUSH1 0x1 PUSH1 0xA0 SHL SUB AND PUSH2 0x63E JUMPI PUSH1 0x40 MLOAD PUSH4 0xD92E233D PUSH1 0xE0 SHL DUP2 MSTORE PUSH1 0x4 ADD PUSH1 0x40 MLOAD DUP1 SWAP2 SUB SWAP1 REVERT JUMPDEST PUSH1 0x40 MLOAD PUSH4 0x70A08231 PUSH1 0xE0 SHL DUP2 MSTORE ADDRESS PUSH1 0x4 DUP3 ADD MSTORE PUSH0 SWAP1 PUSH1 0x1 PUSH1 0x1 PUSH1 0xA0 SHL SUB DUP4 AND SWAP1 PUSH4 0x70A08231 SWAP1 PUSH1 0x24 ADD PUSH1 0x20 PUSH1 0x40 MLOAD DUP1 DUP4 SUB DUP2 DUP7 GAS STATICCALL ISZERO DUP1 ISZERO PUSH2 0x682 JUMPI RETURNDATASIZE PUSH0 PUSH0 RETURNDATACOPY RETURNDATASIZE PUSH0 REVERT JUMPDEST POP POP POP POP PUSH1 0x40 MLOAD RETURNDATASIZE PUSH1 0x1F NOT PUSH1 0x1F DUP3 ADD AND DUP3 ADD DUP1 PUSH1 0x40 MSTORE POP DUP2 ADD SWAP1 PUSH2 0x6A6 SWAP2 SWAP1 PUSH2 0x1D4A JUMP JUMPDEST SWAP1 POP DUP1 PUSH0 SUB PUSH2 0x6C8 JUMPI PUSH1 0x40 MLOAD PUSH4 0x3DBD9B6D PUSH1 0xE1 SHL DUP2 MSTORE PUSH1 0x4 ADD PUSH1 0x40 MLOAD DUP1 SWAP2 SUB SWAP1 REVERT JUMPDEST PUSH0 SLOAD PUSH2 0x6DF SWAP1 DUP4 SWAP1 PUSH1 0x1 PUSH1 0x1 PUSH1 0xA0 SHL SUB AND DUP4 PUSH2 0x1792 JUMP JUMPDEST PUSH0 SLOAD PUSH1 0x40 MLOAD DUP3 DUP2 MSTORE PUSH1 0x1 PUSH1 0x1 PUSH1 0xA0 SHL SUB SWAP2 DUP3 AND SWAP2 DUP5 AND SWAP1 PUSH0 MLOAD PUSH1 0x20 PUSH2 0x1E73 PUSH0 CODECOPY PUSH0 MLOAD SWAP1 PUSH0 MSTORE SWAP1 PUSH1 0x20 ADD JUMPDEST PUSH1 0x40 MLOAD DUP1 SWAP2 SUB SWAP1 LOG3 POP POP JUMP JUMPDEST CALLER ADDRESS EQ DUP1 ISZERO SWAP1 PUSH2 0x725 JUMPI POP CALLER ORIGIN EQ ISZERO JUMPDEST ISZERO PUSH2 0x742 JUMPI PUSH1 0x40 MLOAD PUSH3 0x82B429 PUSH1 0xE8 SHL DUP2 MSTORE PUSH1 0x4 ADD PUSH1 0x40 MLOAD DUP1 SWAP2 SUB SWAP1 REVERT JUMPDEST PUSH1 0x1 PUSH1 0x1 PUSH1 0xA0 SHL SUB DUP4 AND PUSH2 0x769 JUMPI PUSH1 0x40 MLOAD PUSH4 0xD92E233D PUSH1 0xE0 SHL DUP2 MSTORE PUSH1 0x4 ADD PUSH1 0x40 MLOAD DUP1 SWAP2 SUB SWAP1 REVERT JUMPDEST PUSH0 DUP1 SLOAD PUSH1 0x1 PUSH1 0x1 PUSH1 0xA0 SHL SUB DUP1 DUP7 AND PUSH1 0x1 PUSH1 0x1 PUSH1 0xA0 SHL SUB NOT SWAP1 SWAP3 AND DUP3 OR SWAP1 SWAP3 SSTORE PUSH1 0x1 DUP1 SLOAD DUP5 ISZERO ISZERO PUSH1 0x1 PUSH1 0xA0 SHL MUL PUSH1 0x1 PUSH1 0x1 PUSH1 0xA8 SHL SUB NOT SWAP1 SWAP2 AND SWAP4 DUP7 AND SWAP4 DUP5 OR OR SWAP1 SSTORE PUSH1 0x40 MLOAD PUSH0 MLOAD PUSH1 0x20 PUSH2 0x1E93 PUSH0 CODECOPY PUSH0 MLOAD SWAP1 PUSH0 MSTORE SWAP1 PUSH2 0x7CB SWAP1 DUP6 ISZERO ISZERO DUP2 MSTORE PUSH1 0x20 ADD SWAP1 JUMP JUMPDEST PUSH1 0x40 MLOAD DUP1 SWAP2 SUB SWAP1 LOG3 POP POP POP JUMP JUMPDEST PUSH1 0x40 MLOAD PUSH4 0x70A08231 PUSH1 0xE0 SHL DUP2 MSTORE ADDRESS PUSH1 0x4 DUP3 ADD MSTORE PUSH0 SWAP1 PUSH1 0x1 PUSH1 0x1 PUSH1 0xA0 SHL SUB DUP4 AND SWAP1 PUSH4 0x70A08231 SWAP1 PUSH1 0x24 ADD PUSH1 0x20 PUSH1 0x40 MLOAD DUP1 DUP4 SUB DUP2 DUP7 GAS STATICCALL ISZERO DUP1 ISZERO PUSH2 0x81C JUMPI RETURNDATASIZE PUSH0 PUSH0 RETURNDATACOPY RETURNDATASIZE PUSH0 REVERT JUMPDEST POP POP POP POP PUSH1 0x40 MLOAD RETURNDATASIZE PUSH1 0x1F NOT PUSH1 0x1F DUP3 ADD AND DUP3 ADD DUP1 PUSH1 0x40 MSTORE POP DUP2 ADD SWAP1 PUSH2 0x840 SWAP2 SWAP1 PUSH2 0x1D4A JUMP JUMPDEST SWAP3 SWAP2 POP POP JUMP JUMPDEST CALLER ADDRESS EQ DUP1 ISZERO SWAP1 PUSH2 0x856 JUMPI POP CALLER ORIGIN EQ ISZERO JUMPDEST ISZERO PUSH2 0x873 JUMPI PUSH1 0x40 MLOAD PUSH3 0x82B429 PUSH1 0xE8 SHL DUP2 MSTORE PUSH1 0x4 ADD PUSH1 0x40 MLOAD DUP1 SWAP2 SUB SWAP1 REVERT JUMPDEST PUSH1 0x1 DUP1 SLOAD PUSH1 0x1 PUSH1 0x1 PUSH1 0xA0 SHL SUB NOT AND PUSH1 0x1 PUSH1 0x1 PUSH1 0xA0 SHL SUB DUP4 DUP2 AND SWAP2 DUP3 OR SWAP3 DUP4 SWAP1 SSTORE PUSH0 SLOAD PUSH1 0x40 MLOAD PUSH1 0x1 PUSH1 0xA0 SHL SWAP1 SWAP5 DIV PUSH1 0xFF AND ISZERO ISZERO DUP5 MSTORE SWAP2 SWAP3 SWAP2 AND SWAP1 PUSH0 MLOAD PUSH1 0x20 PUSH2 0x1E93 PUSH0 CODECOPY PUSH0 MLOAD SWAP1 PUSH0 MSTORE SWAP1 PUSH1 0x20 ADD JUMPDEST PUSH1 0x40 MLOAD DUP1 SWAP2 SUB SWAP1 LOG3 POP JUMP JUMPDEST CALLER ADDRESS EQ DUP1 ISZERO SWAP1 PUSH2 0x8DA JUMPI POP CALLER ORIGIN EQ ISZERO JUMPDEST ISZERO PUSH2 0x8F7 JUMPI PUSH1 0x40 MLOAD PUSH3 0x82B429 PUSH1 0xE8 SHL DUP2 MSTORE PUSH1 0x4 ADD PUSH1 0x40 MLOAD DUP1 SWAP2 SUB SWAP1 REVERT JUMPDEST DUP5 DUP4 EQ ISZERO DUP1 PUSH2 0x906 JUMPI POP DUP3 DUP2 EQ ISZERO JUMPDEST ISZERO PUSH2 0x927 JUMPI PUSH1 0x40 MLOAD PUSH1 0x1 PUSH3 0x1398B9 PUSH1 0xE3 SHL SUB NOT DUP2 MSTORE PUSH1 0x4 ADD PUSH1 0x40 MLOAD DUP1 SWAP2 SUB SWAP1 REVERT JUMPDEST PUSH0 JUMPDEST DUP6 DUP2 LT ISZERO PUSH2 0xABC JUMPI PUSH0 DUP8 DUP8 DUP4 DUP2 DUP2 LT PUSH2 0x944 JUMPI PUSH2 0x944 PUSH2 0x1D61 JUMP JUMPDEST SWAP1 POP PUSH1 0x20 MUL ADD PUSH1 0x20 DUP2 ADD SWAP1 PUSH2 0x959 SWAP2 SWAP1 PUSH2 0x19D4 JUMP JUMPDEST PUSH1 0x1 PUSH1 0x1 PUSH1 0xA0 SHL SUB AND DUP7 DUP7 DUP5 DUP2 DUP2 LT PUSH2 0x974 JUMPI PUSH2 0x974 PUSH2 0x1D61 JUMP JUMPDEST SWAP1 POP PUSH1 0x20 MUL ADD CALLDATALOAD DUP6 DUP6 DUP6 DUP2 DUP2 LT PUSH2 0x98D JUMPI PUSH2 0x98D PUSH2 0x1D61 JUMP JUMPDEST SWAP1 POP PUSH1 0x20 MUL DUP2 ADD SWAP1 PUSH2 0x99F SWAP2 SWAP1 PUSH2 0x1D75 JUMP JUMPDEST PUSH1 0x40 MLOAD PUSH2 0x9AD SWAP3 SWAP2 SWAP1 PUSH2 0x1DB8 JUMP JUMPDEST PUSH0 PUSH1 0x40 MLOAD DUP1 DUP4 SUB DUP2 DUP6 DUP8 GAS CALL SWAP3 POP POP POP RETURNDATASIZE DUP1 PUSH0 DUP2 EQ PUSH2 0x9E7 JUMPI PUSH1 0x40 MLOAD SWAP2 POP PUSH1 0x1F NOT PUSH1 0x3F RETURNDATASIZE ADD AND DUP3 ADD PUSH1 0x40 MSTORE RETURNDATASIZE DUP3 MSTORE RETURNDATASIZE PUSH0 PUSH1 0x20 DUP5 ADD RETURNDATACOPY PUSH2 0x9EC JUMP JUMPDEST PUSH1 0x60 SWAP2 POP JUMPDEST POP POP SWAP1 POP DUP1 PUSH2 0xA0E JUMPI PUSH1 0x40 MLOAD PUSH4 0x2B3F6D11 PUSH1 0xE2 SHL DUP2 MSTORE PUSH1 0x4 ADD PUSH1 0x40 MLOAD DUP1 SWAP2 SUB SWAP1 REVERT JUMPDEST DUP8 DUP8 DUP4 DUP2 DUP2 LT PUSH2 0xA20 JUMPI PUSH2 0xA20 PUSH2 0x1D61 JUMP JUMPDEST SWAP1 POP PUSH1 0x20 MUL ADD PUSH1 0x20 DUP2 ADD SWAP1 PUSH2 0xA35 SWAP2 SWAP1 PUSH2 0x19D4 JUMP JUMPDEST PUSH1 0x1 PUSH1 0x1 PUSH1 0xA0 SHL SUB AND PUSH32 0xCAF938DE11C367272220BFD1D2BAA99CA46665E7BC4D85F00ADB51B90FE1FA9F DUP8 DUP8 DUP6 DUP2 DUP2 LT PUSH2 0xA71 JUMPI PUSH2 0xA71 PUSH2 0x1D61 JUMP JUMPDEST SWAP1 POP PUSH1 0x20 MUL ADD CALLDATALOAD DUP7 DUP7 DUP7 DUP2 DUP2 LT PUSH2 0xA8A JUMPI PUSH2 0xA8A PUSH2 0x1D61 JUMP JUMPDEST SWAP1 POP PUSH1 0x20 MUL DUP2 ADD SWAP1 PUSH2 0xA9C SWAP2 SWAP1 PUSH2 0x1D75 JUMP JUMPDEST PUSH1 0x40 MLOAD PUSH2 0xAAB SWAP4 SWAP3 SWAP2 SWAP1 PUSH2 0x1DC7 JUMP JUMPDEST PUSH1 0x40 MLOAD DUP1 SWAP2 SUB SWAP1 LOG2 POP PUSH1 0x1 ADD PUSH2 0x929 JUMP JUMPDEST POP POP POP POP POP POP POP JUMP JUMPDEST CALLER ADDRESS EQ DUP1 ISZERO SWAP1 PUSH2 0xAD5 JUMPI POP CALLER ORIGIN EQ ISZERO JUMPDEST ISZERO PUSH2 0xAF2 JUMPI PUSH1 0x40 MLOAD PUSH3 0x82B429 PUSH1 0xE8 SHL DUP2 MSTORE PUSH1 0x4 ADD PUSH1 0x40 MLOAD DUP1 SWAP2 SUB SWAP1 REVERT JUMPDEST PUSH1 0x1 PUSH1 0x1 PUSH1 0xA0 SHL SUB DUP2 AND PUSH2 0xB19 JUMPI PUSH1 0x40 MLOAD PUSH4 0xD92E233D PUSH1 0xE0 SHL DUP2 MSTORE PUSH1 0x4 ADD PUSH1 0x40 MLOAD DUP1 SWAP2 SUB SWAP1 REVERT JUMPDEST PUSH0 DUP1 SLOAD PUSH1 0x1 PUSH1 0x1 PUSH1 0xA0 SHL SUB NOT AND PUSH1 0x1 PUSH1 0x1 PUSH1 0xA0 SHL SUB DUP4 DUP2 AND SWAP2 DUP3 OR SWAP1 SWAP3 SSTORE PUSH1 0x1 SLOAD PUSH1 0x40 MLOAD PUSH1 0x1 PUSH1 0xA0 SHL DUP3 DIV PUSH1 0xFF AND ISZERO ISZERO DUP2 MSTORE SWAP3 AND SWAP2 PUSH0 MLOAD PUSH1 0x20 PUSH2 0x1E93 PUSH0 CODECOPY PUSH0 MLOAD SWAP1 PUSH0 MSTORE SWAP1 PUSH1 0x20 ADD PUSH2 0x8BF JUMP JUMPDEST CALLER ADDRESS EQ DUP1 ISZERO SWAP1 PUSH2 0xB80 JUMPI POP PUSH1 0x1 SLOAD PUSH1 0x1 PUSH1 0x1 PUSH1 0xA0 SHL SUB AND CALLER EQ ISZERO JUMPDEST DUP1 ISZERO PUSH2 0xB8C JUMPI POP CALLER ORIGIN EQ ISZERO JUMPDEST ISZERO PUSH2 0xBA9 JUMPI PUSH1 0x40 MLOAD PUSH3 0x82B429 PUSH1 0xE8 SHL DUP2 MSTORE PUSH1 0x4 ADD PUSH1 0x40 MLOAD DUP1 SWAP2 SUB SWAP1 REVERT JUMPDEST PUSH0 SLOAD PUSH1 0x1 PUSH1 0x1 PUSH1 0xA0 SHL SUB AND PUSH2 0xBD1 JUMPI PUSH1 0x40 MLOAD PUSH4 0xD92E233D PUSH1 0xE0 SHL DUP2 MSTORE PUSH1 0x4 ADD PUSH1 0x40 MLOAD DUP1 SWAP2 SUB SWAP1 REVERT JUMPDEST SELFBALANCE PUSH0 DUP2 SWAP1 SUB PUSH2 0xBDD JUMPI POP JUMP JUMPDEST PUSH0 DUP1 SLOAD PUSH1 0x40 MLOAD PUSH1 0x1 PUSH1 0x1 PUSH1 0xA0 SHL SUB SWAP1 SWAP2 AND SWAP1 DUP4 SWAP1 DUP4 DUP2 DUP2 DUP2 DUP6 DUP8 GAS CALL SWAP3 POP POP POP RETURNDATASIZE DUP1 PUSH0 DUP2 EQ PUSH2 0xC27 JUMPI PUSH1 0x40 MLOAD SWAP2 POP PUSH1 0x1F NOT PUSH1 0x3F RETURNDATASIZE ADD AND DUP3 ADD PUSH1 0x40 MSTORE RETURNDATASIZE DUP3 MSTORE RETURNDATASIZE PUSH0 PUSH1 0x20 DUP5 ADD RETURNDATACOPY PUSH2 0xC2C JUMP JUMPDEST PUSH1 0x60 SWAP2 POP JUMPDEST POP POP SWAP1 POP DUP1 PUSH2 0xC4E JUMPI PUSH1 0x40 MLOAD PUSH4 0x96DC0E1 PUSH1 0xE0 SHL DUP2 MSTORE PUSH1 0x4 ADD PUSH1 0x40 MLOAD DUP1 SWAP2 SUB SWAP1 REVERT JUMPDEST PUSH0 SLOAD PUSH1 0x40 MLOAD DUP4 DUP2 MSTORE PUSH1 0x1 PUSH1 0x1 PUSH1 0xA0 SHL SUB SWAP1 SWAP2 AND SWAP1 ADDRESS SWAP1 PUSH32 0xBA3E71C2881EFE881D169A722215AE66587E85BF64BCC507F2904A7345AFEBA0 SWAP1 PUSH1 0x20 ADD PUSH2 0x709 JUMP JUMPDEST JUMP JUMPDEST CALLER ADDRESS EQ DUP1 ISZERO SWAP1 PUSH2 0xCAB JUMPI POP PUSH1 0x1 SLOAD PUSH1 0x1 PUSH1 0x1 PUSH1 0xA0 SHL SUB AND CALLER EQ ISZERO JUMPDEST DUP1 ISZERO PUSH2 0xCB7 JUMPI POP CALLER ORIGIN EQ ISZERO JUMPDEST ISZERO PUSH2 0xCD4 JUMPI PUSH1 0x40 MLOAD PUSH3 0x82B429 PUSH1 0xE8 SHL DUP2 MSTORE PUSH1 0x4 ADD PUSH1 0x40 MLOAD DUP1 SWAP2 SUB SWAP1 REVERT JUMPDEST PUSH1 0x1 PUSH1 0x1 PUSH1 0xA0 SHL SUB DUP2 AND PUSH2 0xCFB JUMPI PUSH1 0x40 MLOAD PUSH4 0xD92E233D PUSH1 0xE0 SHL DUP2 MSTORE PUSH1 0x4 ADD PUSH1 0x40 MLOAD DUP1 SWAP2 SUB SWAP1 REVERT JUMPDEST PUSH1 0x40 MLOAD PUSH4 0x70A08231 PUSH1 0xE0 SHL DUP2 MSTORE ADDRESS PUSH1 0x4 DUP3 ADD MSTORE PUSH0 SWAP1 PUSH1 0x1 PUSH1 0x1 PUSH1 0xA0 SHL SUB DUP5 AND SWAP1 PUSH4 0x70A08231 SWAP1 PUSH1 0x24 ADD PUSH1 0x20 PUSH1 0x40 MLOAD DUP1 DUP4 SUB DUP2 DUP7 GAS STATICCALL ISZERO DUP1 ISZERO PUSH2 0xD3F JUMPI RETURNDATASIZE PUSH0 PUSH0 RETURNDATACOPY RETURNDATASIZE PUSH0 REVERT JUMPDEST POP POP POP POP PUSH1 0x40 MLOAD RETURNDATASIZE PUSH1 0x1F NOT PUSH1 0x1F DUP3 ADD AND DUP3 ADD DUP1 PUSH1 0x40 MSTORE POP DUP2 ADD SWAP1 PUSH2 0xD63 SWAP2 SWAP1 PUSH2 0x1D4A JUMP JUMPDEST SWAP1 POP DUP1 PUSH0 SUB PUSH2 0xD85 JUMPI PUSH1 0x40 MLOAD PUSH4 0x3DBD9B6D PUSH1 0xE1 SHL DUP2 MSTORE PUSH1 0x4 ADD PUSH1 0x40 MLOAD DUP1 SWAP2 SUB SWAP1 REVERT JUMPDEST PUSH2 0xD90 DUP4 DUP4 DUP4 PUSH2 0x1792 JUMP JUMPDEST DUP2 PUSH1 0x1 PUSH1 0x1 PUSH1 0xA0 SHL SUB AND DUP4 PUSH1 0x1 PUSH1 0x1 PUSH1 0xA0 SHL SUB AND PUSH0 MLOAD PUSH1 0x20 PUSH2 0x1E73 PUSH0 CODECOPY PUSH0 MLOAD SWAP1 PUSH0 MSTORE DUP4 PUSH1 0x40 MLOAD PUSH2 0x7CB SWAP2 DUP2 MSTORE PUSH1 0x20 ADD SWAP1 JUMP JUMPDEST CALLER ADDRESS EQ DUP1 ISZERO SWAP1 PUSH2 0xDD2 JUMPI POP CALLER ORIGIN EQ ISZERO JUMPDEST ISZERO PUSH2 0xDEF JUMPI PUSH1 0x40 MLOAD PUSH3 0x82B429 PUSH1 0xE8 SHL DUP2 MSTORE PUSH1 0x4 ADD PUSH1 0x40 MLOAD DUP1 SWAP2 SUB SWAP1 REVERT JUMPDEST PUSH1 0x1 DUP1 SLOAD DUP3 ISZERO ISZERO PUSH1 0x1 PUSH1 0xA0 SHL SWAP1 DUP2 MUL PUSH1 0xFF PUSH1 0xA0 SHL NOT DUP4 AND DUP2 OR SWAP4 DUP5 SWAP1 SSTORE PUSH0 SLOAD PUSH1 0x40 MLOAD PUSH1 0x1 PUSH1 0x1 PUSH1 0xA0 SHL SUB SWAP3 DUP4 AND SWAP5 DUP4 AND SWAP5 SWAP1 SWAP5 OR SWAP5 SWAP2 AND SWAP3 PUSH0 MLOAD PUSH1 0x20 PUSH2 0x1E93 PUSH0 CODECOPY PUSH0 MLOAD SWAP1 PUSH0 MSTORE SWAP3 PUSH2 0x8BF SWAP3 DIV PUSH1 0xFF AND ISZERO ISZERO DUP2 MSTORE PUSH1 0x20 ADD SWAP1 JUMP JUMPDEST CALLER ADDRESS EQ DUP1 ISZERO SWAP1 PUSH2 0xE63 JUMPI POP PUSH1 0x1 SLOAD PUSH1 0x1 PUSH1 0x1 PUSH1 0xA0 SHL SUB AND CALLER EQ ISZERO JUMPDEST DUP1 ISZERO PUSH2 0xE6F JUMPI POP CALLER ORIGIN EQ ISZERO JUMPDEST ISZERO PUSH2 0xE8C JUMPI PUSH1 0x40 MLOAD PUSH3 0x82B429 PUSH1 0xE8 SHL DUP2 MSTORE PUSH1 0x4 ADD PUSH1 0x40 MLOAD DUP1 SWAP2 SUB SWAP1 REVERT JUMPDEST PUSH0 SLOAD PUSH1 0x1 PUSH1 0x1 PUSH1 0xA0 SHL SUB AND PUSH2 0xEB4 JUMPI PUSH1 0x40 MLOAD PUSH4 0xD92E233D PUSH1 0xE0 SHL DUP2 MSTORE PUSH1 0x4 ADD PUSH1 0x40 MLOAD DUP1 SWAP2 SUB SWAP1 REVERT JUMPDEST PUSH0 JUMPDEST DUP2 DUP2 LT ISZERO PUSH2 0xFFC JUMPI PUSH0 DUP4 DUP4 DUP4 DUP2 DUP2 LT PUSH2 0xED1 JUMPI PUSH2 0xED1 PUSH2 0x1D61 JUMP JUMPDEST SWAP1 POP PUSH1 0x20 MUL ADD PUSH1 0x20 DUP2 ADD SWAP1 PUSH2 0xEE6 SWAP2 SWAP1 PUSH2 0x19D4 JUMP JUMPDEST PUSH1 0x40 MLOAD PUSH4 0x70A08231 PUSH1 0xE0 SHL DUP2 MSTORE ADDRESS PUSH1 0x4 DUP3 ADD MSTORE PUSH1 0x1 PUSH1 0x1 PUSH1 0xA0 SHL SUB SWAP2 SWAP1 SWAP2 AND SWAP1 PUSH4 0x70A08231 SWAP1 PUSH1 0x24 ADD PUSH1 0x20 PUSH1 0x40 MLOAD DUP1 DUP4 SUB DUP2 DUP7 GAS STATICCALL ISZERO DUP1 ISZERO PUSH2 0xF2A JUMPI RETURNDATASIZE PUSH0 PUSH0 RETURNDATACOPY RETURNDATASIZE PUSH0 REVERT JUMPDEST POP POP POP POP PUSH1 0x40 MLOAD RETURNDATASIZE PUSH1 0x1F NOT PUSH1 0x1F DUP3 ADD AND DUP3 ADD DUP1 PUSH1 0x40 MSTORE POP DUP2 ADD SWAP1 PUSH2 0xF4E SWAP2 SWAP1 PUSH2 0x1D4A JUMP JUMPDEST SWAP1 POP DUP1 ISZERO PUSH2 0xFF3 JUMPI PUSH2 0xF91 DUP5 DUP5 DUP5 DUP2 DUP2 LT PUSH2 0xF6B JUMPI PUSH2 0xF6B PUSH2 0x1D61 JUMP JUMPDEST SWAP1 POP PUSH1 0x20 MUL ADD PUSH1 0x20 DUP2 ADD SWAP1 PUSH2 0xF80 SWAP2 SWAP1 PUSH2 0x19D4 JUMP JUMPDEST PUSH0 SLOAD PUSH1 0x1 PUSH1 0x1 PUSH1 0xA0 SHL SUB AND DUP4 PUSH2 0x1792 JUMP JUMPDEST PUSH0 SLOAD PUSH1 0x1 PUSH1 0x1 PUSH1 0xA0 SHL SUB AND DUP5 DUP5 DUP5 DUP2 DUP2 LT PUSH2 0xFAE JUMPI PUSH2 0xFAE PUSH2 0x1D61 JUMP JUMPDEST SWAP1 POP PUSH1 0x20 MUL ADD PUSH1 0x20 DUP2 ADD SWAP1 PUSH2 0xFC3 SWAP2 SWAP1 PUSH2 0x19D4 JUMP JUMPDEST PUSH1 0x1 PUSH1 0x1 PUSH1 0xA0 SHL SUB AND PUSH0 MLOAD PUSH1 0x20 PUSH2 0x1E73 PUSH0 CODECOPY PUSH0 MLOAD SWAP1 PUSH0 MSTORE DUP4 PUSH1 0x40 MLOAD PUSH2 0xFEA SWAP2 DUP2 MSTORE PUSH1 0x20 ADD SWAP1 JUMP JUMPDEST PUSH1 0x40 MLOAD DUP1 SWAP2 SUB SWAP1 LOG3 JUMPDEST POP PUSH1 0x1 ADD PUSH2 0xEB6 JUMP JUMPDEST POP POP POP JUMP JUMPDEST PUSH1 0x60 PUSH0 PUSH32 0x8B320D3F82CB30CEAC499BFB603EBDD270AD1F5E27A1CBE7A0DC0BDCADB6C38A PUSH0 SHL DUP9 DUP9 DUP9 DUP9 PUSH1 0x40 MLOAD PUSH2 0x1039 SWAP3 SWAP2 SWAP1 PUSH2 0x1DB8 JUMP JUMPDEST PUSH1 0x40 MLOAD SWAP1 DUP2 SWAP1 SUB DUP2 KECCAK256 PUSH1 0x2 SLOAD PUSH2 0x107B SWAP6 SWAP5 SWAP4 SWAP3 PUSH1 0x20 ADD SWAP5 DUP6 MSTORE PUSH1 0x1 PUSH1 0x1 PUSH1 0xA0 SHL SUB SWAP4 SWAP1 SWAP4 AND PUSH1 0x20 DUP6 ADD MSTORE PUSH1 0x40 DUP5 ADD SWAP2 SWAP1 SWAP2 MSTORE PUSH1 0x60 DUP4 ADD MSTORE PUSH1 0x80 DUP3 ADD MSTORE PUSH1 0xA0 ADD SWAP1 JUMP JUMPDEST PUSH1 0x40 MLOAD PUSH1 0x20 DUP2 DUP4 SUB SUB DUP2 MSTORE SWAP1 PUSH1 0x40 MSTORE DUP1 MLOAD SWAP1 PUSH1 0x20 ADD KECCAK256 SWAP1 POP PUSH0 PUSH2 0x116C PUSH1 0x40 DUP1 MLOAD DUP1 DUP3 ADD DUP3 MSTORE PUSH1 0x14 DUP2 MSTORE PUSH20 0x22A4A81B9B981920BABA37A337B93BB0B93232B9 PUSH1 0x61 SHL PUSH1 0x20 SWAP2 DUP3 ADD MSTORE DUP2 MLOAD DUP1 DUP4 ADD DUP4 MSTORE PUSH1 0x1 DUP2 MSTORE PUSH1 0x31 PUSH1 0xF8 SHL SWAP1 DUP3 ADD MSTORE DUP2 MLOAD PUSH32 0xC2F8787176B8AC6BF7215B4ADCC1E069BF4AB82D9AB1DF05A57A91D425935B6E DUP2 DUP4 ADD MSTORE PUSH32 0x7EF4872878B04EE4262301FDFC75F3B60AA572501746F630BAB1DB203D799002 DUP2 DUP5 ADD MSTORE PUSH32 0xC89EFDAA54C0F20C7ADF612882DF0950F5A951637E0307CDCB4C672F298B8BC6 PUSH1 0x60 DUP3 ADD MSTORE CHAINID PUSH1 0x80 DUP1 DUP4 ADD SWAP2 SWAP1 SWAP2 MSTORE DUP4 MLOAD DUP1 DUP4 SUB SWAP1 SWAP2 ADD DUP2 MSTORE PUSH1 0xA0 SWAP1 SWAP2 ADD SWAP1 SWAP3 MSTORE DUP2 MLOAD SWAP2 ADD KECCAK256 SWAP1 JUMP JUMPDEST PUSH1 0x40 MLOAD PUSH2 0x1901 PUSH1 0xF0 SHL PUSH1 0x20 DUP3 ADD MSTORE PUSH1 0x22 DUP2 ADD SWAP2 SWAP1 SWAP2 MSTORE PUSH1 0x42 DUP2 ADD DUP4 SWAP1 MSTORE PUSH1 0x62 ADD PUSH1 0x40 MLOAD PUSH1 0x20 DUP2 DUP4 SUB SUB DUP2 MSTORE SWAP1 PUSH1 0x40 MSTORE DUP1 MLOAD SWAP1 PUSH1 0x20 ADD KECCAK256 SWAP1 POP PUSH0 PUSH2 0x11E4 DUP3 DUP8 DUP8 DUP1 DUP1 PUSH1 0x1F ADD PUSH1 0x20 DUP1 SWAP2 DIV MUL PUSH1 0x20 ADD PUSH1 0x40 MLOAD SWAP1 DUP2 ADD PUSH1 0x40 MSTORE DUP1 SWAP4 SWAP3 SWAP2 SWAP1 DUP2 DUP2 MSTORE PUSH1 0x20 ADD DUP4 DUP4 DUP1 DUP3 DUP5 CALLDATACOPY PUSH0 SWAP3 ADD SWAP2 SWAP1 SWAP2 MSTORE POP PUSH2 0x187E SWAP3 POP POP POP JUMP JUMPDEST SWAP1 POP PUSH1 0x1 PUSH1 0x1 PUSH1 0xA0 SHL SUB DUP2 AND PUSH2 0x120C JUMPI PUSH1 0x40 MLOAD PUSH3 0x82B429 PUSH1 0xE8 SHL DUP2 MSTORE PUSH1 0x4 ADD PUSH1 0x40 MLOAD DUP1 SWAP2 SUB SWAP1 REVERT JUMPDEST PUSH1 0x2 DUP1 SLOAD SWAP1 PUSH0 PUSH2 0x121B DUP4 PUSH2 0x1E10 JUMP JUMPDEST SWAP2 SWAP1 POP SSTORE POP PUSH0 PUSH0 DUP12 PUSH1 0x1 PUSH1 0x1 PUSH1 0xA0 SHL SUB AND DUP12 DUP12 DUP12 PUSH1 0x40 MLOAD PUSH2 0x123D SWAP3 SWAP2 SWAP1 PUSH2 0x1DB8 JUMP JUMPDEST PUSH0 PUSH1 0x40 MLOAD DUP1 DUP4 SUB DUP2 DUP6 DUP8 GAS CALL SWAP3 POP POP POP RETURNDATASIZE DUP1 PUSH0 DUP2 EQ PUSH2 0x1277 JUMPI PUSH1 0x40 MLOAD SWAP2 POP PUSH1 0x1F NOT PUSH1 0x3F RETURNDATASIZE ADD AND DUP3 ADD PUSH1 0x40 MSTORE RETURNDATASIZE DUP3 MSTORE RETURNDATASIZE PUSH0 PUSH1 0x20 DUP5 ADD RETURNDATACOPY PUSH2 0x127C JUMP JUMPDEST PUSH1 0x60 SWAP2 POP JUMPDEST POP SWAP2 POP SWAP2 POP DUP2 PUSH2 0x129F JUMPI PUSH1 0x40 MLOAD PUSH4 0x2B3F6D11 PUSH1 0xE2 SHL DUP2 MSTORE PUSH1 0x4 ADD PUSH1 0x40 MLOAD DUP1 SWAP2 SUB SWAP1 REVERT JUMPDEST DUP12 PUSH1 0x1 PUSH1 0x1 PUSH1 0xA0 SHL SUB AND PUSH32 0xCAF938DE11C367272220BFD1D2BAA99CA46665E7BC4D85F00ADB51B90FE1FA9F DUP13 DUP13 DUP13 PUSH1 0x40 MLOAD PUSH2 0x12DC SWAP4 SWAP3 SWAP2 SWAP1 PUSH2 0x1DC7 JUMP JUMPDEST PUSH1 0x40 MLOAD DUP1 SWAP2 SUB SWAP1 LOG2 SWAP12 SWAP11 POP POP POP POP POP POP POP POP POP POP POP JUMP JUMPDEST CALLER ADDRESS EQ DUP1 ISZERO SWAP1 PUSH2 0x1303 JUMPI POP CALLER ORIGIN EQ ISZERO JUMPDEST ISZERO PUSH2 0x1320 JUMPI PUSH1 0x40 MLOAD PUSH3 0x82B429 PUSH1 0xE8 SHL DUP2 MSTORE PUSH1 0x4 ADD PUSH1 0x40 MLOAD DUP1 SWAP2 SUB SWAP1 REVERT JUMPDEST PUSH0 SLOAD PUSH1 0x1 PUSH1 0x1 PUSH1 0xA0 SHL SUB AND ISZERO DUP1 ISZERO SWAP1 PUSH2 0x1338 JUMPI POP PUSH0 SELFBALANCE GT JUMPDEST ISZERO PUSH2 0xC8E JUMPI PUSH0 DUP1 SLOAD PUSH1 0x40 MLOAD PUSH1 0x1 PUSH1 0x1 PUSH1 0xA0 SHL SUB SWAP1 SWAP2 AND SWAP1 SELFBALANCE SWAP1 DUP4 DUP2 DUP2 DUP2 DUP6 DUP8 GAS CALL SWAP3 POP POP POP RETURNDATASIZE DUP1 PUSH0 DUP2 EQ PUSH2 0x1387 JUMPI PUSH1 0x40 MLOAD SWAP2 POP PUSH1 0x1F NOT PUSH1 0x3F RETURNDATASIZE ADD AND DUP3 ADD PUSH1 0x40 MSTORE RETURNDATASIZE DUP3 MSTORE RETURNDATASIZE PUSH0 PUSH1 0x20 DUP5 ADD RETURNDATACOPY PUSH2 0x138C JUMP JUMPDEST PUSH1 0x60 SWAP2 POP JUMPDEST POP POP SWAP1 POP DUP1 PUSH2 0x13AE JUMPI PUSH1 0x40 MLOAD PUSH4 0x96DC0E1 PUSH1 0xE0 SHL DUP2 MSTORE PUSH1 0x4 ADD PUSH1 0x40 MLOAD DUP1 SWAP2 SUB SWAP1 REVERT JUMPDEST PUSH0 SLOAD PUSH1 0x40 MLOAD SELFBALANCE DUP2 MSTORE PUSH1 0x1 PUSH1 0x1 PUSH1 0xA0 SHL SUB SWAP1 SWAP2 AND SWAP1 ADDRESS SWAP1 PUSH32 0xBA3E71C2881EFE881D169A722215AE66587E85BF64BCC507F2904A7345AFEBA0 SWAP1 PUSH1 0x20 ADD PUSH2 0x8BF JUMP JUMPDEST PUSH1 0x60 CALLER ADDRESS EQ DUP1 ISZERO SWAP1 PUSH2 0x1400 JUMPI POP CALLER ORIGIN EQ ISZERO JUMPDEST ISZERO PUSH2 0x141D JUMPI PUSH1 0x40 MLOAD PUSH3 0x82B429 PUSH1 0xE8 SHL DUP2 MSTORE PUSH1 0x4 ADD PUSH1 0x40 MLOAD DUP1 SWAP2 SUB SWAP1 REVERT JUMPDEST PUSH0 PUSH0 DUP7 PUSH1 0x1 PUSH1 0x1 PUSH1 0xA0 SHL SUB AND DUP7 DUP7 DUP7 PUSH1 0x40 MLOAD PUSH2 0x143A SWAP3 SWAP2 SWAP1 PUSH2 0x1DB8 JUMP JUMPDEST PUSH0 PUSH1 0x40 MLOAD DUP1 DUP4 SUB DUP2 DUP6 DUP8 GAS CALL SWAP3 POP POP POP RETURNDATASIZE DUP1 PUSH0 DUP2 EQ PUSH2 0x1474 JUMPI PUSH1 0x40 MLOAD SWAP2 POP PUSH1 0x1F NOT PUSH1 0x3F RETURNDATASIZE ADD AND DUP3 ADD PUSH1 0x40 MSTORE RETURNDATASIZE DUP3 MSTORE RETURNDATASIZE PUSH0 PUSH1 0x20 DUP5 ADD RETURNDATACOPY PUSH2 0x1479 JUMP JUMPDEST PUSH1 0x60 SWAP2 POP JUMPDEST POP SWAP2 POP SWAP2 POP DUP2 PUSH2 0x149C JUMPI PUSH1 0x40 MLOAD PUSH4 0x2B3F6D11 PUSH1 0xE2 SHL DUP2 MSTORE PUSH1 0x4 ADD PUSH1 0x40 MLOAD DUP1 SWAP2 SUB SWAP1 REVERT JUMPDEST DUP7 PUSH1 0x1 PUSH1 0x1 PUSH1 0xA0 SHL SUB AND PUSH32 0xCAF938DE11C367272220BFD1D2BAA99CA46665E7BC4D85F00ADB51B90FE1FA9F DUP8 DUP8 DUP8 PUSH1 0x40 MLOAD PUSH2 0x14D9 SWAP4 SWAP3 SWAP2 SWAP1 PUSH2 0x1DC7 JUMP JUMPDEST PUSH1 0x40 MLOAD DUP1 SWAP2 SUB SWAP1 LOG2 SWAP7 SWAP6 POP POP POP POP POP POP JUMP JUMPDEST CALLER ADDRESS EQ DUP1 ISZERO SWAP1 PUSH2 0x14FB JUMPI POP CALLER ORIGIN EQ ISZERO JUMPDEST ISZERO PUSH2 0x1518 JUMPI PUSH1 0x40 MLOAD PUSH3 0x82B429 PUSH1 0xE8 SHL DUP2 MSTORE PUSH1 0x4 ADD PUSH1 0x40 MLOAD DUP1 SWAP2 SUB SWAP1 REVERT JUMPDEST PUSH1 0x1 SLOAD PUSH1 0x1 PUSH1 0xA8 SHL SWAP1 DIV PUSH1 0xFF AND ISZERO PUSH2 0x1542 JUMPI PUSH1 0x40 MLOAD PUSH3 0xDC149F PUSH1 0xE4 SHL DUP2 MSTORE PUSH1 0x4 ADD PUSH1 0x40 MLOAD DUP1 SWAP2 SUB SWAP1 REVERT JUMPDEST PUSH1 0x1 PUSH1 0x1 PUSH1 0xA0 SHL SUB DUP4 AND PUSH2 0x1569 JUMPI PUSH1 0x40 MLOAD PUSH4 0xD92E233D PUSH1 0xE0 SHL DUP2 MSTORE PUSH1 0x4 ADD PUSH1 0x40 MLOAD DUP1 SWAP2 SUB SWAP1 REVERT JUMPDEST PUSH0 DUP1 SLOAD PUSH1 0x1 PUSH1 0x1 PUSH1 0xA0 SHL SUB NOT AND PUSH1 0x1 PUSH1 0x1 PUSH1 0xA0 SHL SUB DUP6 DUP2 AND SWAP2 DUP3 OR DUP4 SSTORE PUSH1 0x1 DUP1 SLOAD PUSH1 0x1 PUSH1 0xA8 SHL SWAP3 DUP8 AND PUSH1 0x1 PUSH1 0x1 PUSH1 0xA8 SHL SUB NOT SWAP1 SWAP2 AND DUP2 OR PUSH1 0x1 PUSH1 0xA0 SHL DUP8 ISZERO ISZERO MUL OR PUSH1 0xFF PUSH1 0xA8 SHL NOT AND SWAP3 SWAP1 SWAP3 OR SWAP1 SSTORE PUSH1 0x40 MLOAD SWAP1 SWAP3 PUSH32 0x3CD5EC01B1AE7CFEC6CA1863E2CD6AA25D6D1702825803FF2B7CC95010FFFDC2 SWAP2 LOG3 POP POP POP JUMP JUMPDEST CALLER ADDRESS EQ DUP1 ISZERO SWAP1 PUSH2 0x15FF JUMPI POP PUSH1 0x1 SLOAD PUSH1 0x1 PUSH1 0x1 PUSH1 0xA0 SHL SUB AND CALLER EQ ISZERO JUMPDEST DUP1 ISZERO PUSH2 0x160B JUMPI POP CALLER ORIGIN EQ ISZERO JUMPDEST ISZERO PUSH2 0x1628 JUMPI PUSH1 0x40 MLOAD PUSH3 0x82B429 PUSH1 0xE8 SHL DUP2 MSTORE PUSH1 0x4 ADD PUSH1 0x40 MLOAD DUP1 SWAP2 SUB SWAP1 REVERT JUMPDEST PUSH1 0x1 PUSH1 0x1 PUSH1 0xA0 SHL SUB DUP2 AND PUSH2 0x164F JUMPI PUSH1 0x40 MLOAD PUSH4 0xD92E233D PUSH1 0xE0 SHL DUP2 MSTORE PUSH1 0x4 ADD PUSH1 0x40 MLOAD DUP1 SWAP2 SUB SWAP1 REVERT JUMPDEST PUSH0 JUMPDEST DUP3 DUP2 LT ISZERO PUSH2 0x178C JUMPI PUSH0 DUP5 DUP5 DUP4 DUP2 DUP2 LT PUSH2 0x166C JUMPI PUSH2 0x166C PUSH2 0x1D61 JUMP JUMPDEST SWAP1 POP PUSH1 0x20 MUL ADD PUSH1 0x20 DUP2 ADD SWAP1 PUSH2 0x1681 SWAP2 SWAP1 PUSH2 0x19D4 JUMP JUMPDEST PUSH1 0x40 MLOAD PUSH4 0x70A08231 PUSH1 0xE0 SHL DUP2 MSTORE ADDRESS PUSH1 0x4 DUP3 ADD MSTORE PUSH1 0x1 PUSH1 0x1 PUSH1 0xA0 SHL SUB SWAP2 SWAP1 SWAP2 AND SWAP1 PUSH4 0x70A08231 SWAP1 PUSH1 0x24 ADD PUSH1 0x20 PUSH1 0x40 MLOAD DUP1 DUP4 SUB DUP2 DUP7 GAS STATICCALL ISZERO DUP1 ISZERO PUSH2 0x16C5 JUMPI RETURNDATASIZE PUSH0 PUSH0 RETURNDATACOPY RETURNDATASIZE PUSH0 REVERT JUMPDEST POP POP POP POP PUSH1 0x40 MLOAD RETURNDATASIZE PUSH1 0x1F NOT PUSH1 0x1F DUP3 ADD AND DUP3 ADD DUP1 PUSH1 0x40 MSTORE POP DUP2 ADD SWAP1 PUSH2 0x16E9 SWAP2 SWAP1 PUSH2 0x1D4A JUMP JUMPDEST SWAP1 POP DUP1 ISZERO PUSH2 0x1783 JUMPI PUSH2 0x1722 DUP6 DUP6 DUP5 DUP2 DUP2 LT PUSH2 0x1706 JUMPI PUSH2 0x1706 PUSH2 0x1D61 JUMP JUMPDEST SWAP1 POP PUSH1 0x20 MUL ADD PUSH1 0x20 DUP2 ADD SWAP1 PUSH2 0x171B SWAP2 SWAP1 PUSH2 0x19D4 JUMP JUMPDEST DUP5 DUP4 PUSH2 0x1792 JUMP JUMPDEST DUP3 PUSH1 0x1 PUSH1 0x1 PUSH1 0xA0 SHL SUB AND DUP6 DUP6 DUP5 DUP2 DUP2 LT PUSH2 0x173E JUMPI PUSH2 0x173E PUSH2 0x1D61 JUMP JUMPDEST SWAP1 POP PUSH1 0x20 MUL ADD PUSH1 0x20 DUP2 ADD SWAP1 PUSH2 0x1753 SWAP2 SWAP1 PUSH2 0x19D4 JUMP JUMPDEST PUSH1 0x1 PUSH1 0x1 PUSH1 0xA0 SHL SUB AND PUSH0 MLOAD PUSH1 0x20 PUSH2 0x1E73 PUSH0 CODECOPY PUSH0 MLOAD SWAP1 PUSH0 MSTORE DUP4 PUSH1 0x40 MLOAD PUSH2 0x177A SWAP2 DUP2 MSTORE PUSH1 0x20 ADD SWAP1 JUMP JUMPDEST PUSH1 0x40 MLOAD DUP1 SWAP2 SUB SWAP1 LOG3 JUMPDEST POP PUSH1 0x1 ADD PUSH2 0x1651 JUMP JUMPDEST POP POP POP POP JUMP JUMPDEST PUSH1 0x40 DUP1 MLOAD PUSH1 0x1 PUSH1 0x1 PUSH1 0xA0 SHL SUB DUP5 DUP2 AND PUSH1 0x24 DUP4 ADD MSTORE PUSH1 0x44 DUP1 DUP4 ADD DUP6 SWAP1 MSTORE DUP4 MLOAD DUP1 DUP5 SUB SWAP1 SWAP2 ADD DUP2 MSTORE PUSH1 0x64 SWAP1 SWAP3 ADD DUP4 MSTORE PUSH1 0x20 DUP3 ADD DUP1 MLOAD PUSH1 0x1 PUSH1 0x1 PUSH1 0xE0 SHL SUB AND PUSH4 0xA9059CBB PUSH1 0xE0 SHL OR SWAP1 MSTORE SWAP2 MLOAD PUSH0 SWAP3 DUP4 SWAP3 SWAP1 DUP8 AND SWAP2 PUSH2 0x17ED SWAP2 SWAP1 PUSH2 0x1E28 JUMP JUMPDEST PUSH0 PUSH1 0x40 MLOAD DUP1 DUP4 SUB DUP2 PUSH0 DUP7 GAS CALL SWAP2 POP POP RETURNDATASIZE DUP1 PUSH0 DUP2 EQ PUSH2 0x1826 JUMPI PUSH1 0x40 MLOAD SWAP2 POP PUSH1 0x1F NOT PUSH1 0x3F RETURNDATASIZE ADD AND DUP3 ADD PUSH1 0x40 MSTORE RETURNDATASIZE DUP3 MSTORE RETURNDATASIZE PUSH0 PUSH1 0x20 DUP5 ADD RETURNDATACOPY PUSH2 0x182B JUMP JUMPDEST PUSH1 0x60 SWAP2 POP JUMPDEST POP SWAP2 POP SWAP2 POP DUP2 ISZERO DUP1 PUSH2 0x1859 JUMPI POP PUSH0 DUP2 MLOAD GT DUP1 ISZERO PUSH2 0x1859 JUMPI POP DUP1 DUP1 PUSH1 0x20 ADD SWAP1 MLOAD DUP2 ADD SWAP1 PUSH2 0x1857 SWAP2 SWAP1 PUSH2 0x1E3E JUMP JUMPDEST ISZERO JUMPDEST ISZERO PUSH2 0x1877 JUMPI PUSH1 0x40 MLOAD PUSH4 0x22E2581 PUSH1 0xE1 SHL DUP2 MSTORE PUSH1 0x4 ADD PUSH1 0x40 MLOAD DUP1 SWAP2 SUB SWAP1 REVERT JUMPDEST POP POP POP POP POP JUMP JUMPDEST PUSH0 DUP2 MLOAD PUSH1 0x41 EQ PUSH2 0x18D5 JUMPI PUSH1 0x40 MLOAD PUSH3 0x461BCD PUSH1 0xE5 SHL DUP2 MSTORE PUSH1 0x20 PUSH1 0x4 DUP3 ADD MSTORE PUSH1 0x18 PUSH1 0x24 DUP3 ADD MSTORE PUSH32 0x496E76616C6964207369676E6174757265206C656E6774680000000000000000 PUSH1 0x44 DUP3 ADD MSTORE PUSH1 0x64 ADD JUMPDEST PUSH1 0x40 MLOAD DUP1 SWAP2 SUB SWAP1 REVERT JUMPDEST PUSH1 0x20 DUP3 ADD MLOAD PUSH1 0x40 DUP4 ADD MLOAD PUSH1 0x60 DUP5 ADD MLOAD PUSH0 BYTE PUSH1 0x1B DUP2 LT ISZERO PUSH2 0x18FD JUMPI PUSH2 0x18FA PUSH1 0x1B DUP3 PUSH2 0x1E59 JUMP JUMPDEST SWAP1 POP JUMPDEST DUP1 PUSH1 0xFF AND PUSH1 0x1B EQ ISZERO DUP1 ISZERO PUSH2 0x1915 JUMPI POP DUP1 PUSH1 0xFF AND PUSH1 0x1C EQ ISZERO JUMPDEST ISZERO PUSH2 0x1954 JUMPI PUSH1 0x40 MLOAD PUSH3 0x461BCD PUSH1 0xE5 SHL DUP2 MSTORE PUSH1 0x20 PUSH1 0x4 DUP3 ADD MSTORE PUSH1 0xF PUSH1 0x24 DUP3 ADD MSTORE PUSH15 0x496E76616C696420762076616C7565 PUSH1 0x88 SHL PUSH1 0x44 DUP3 ADD MSTORE PUSH1 0x64 ADD PUSH2 0x18CC JUMP JUMPDEST PUSH1 0x40 DUP1 MLOAD PUSH0 DUP2 MSTORE PUSH1 0x20 DUP2 ADD DUP1 DUP4 MSTORE DUP9 SWAP1 MSTORE PUSH1 0xFF DUP4 AND SWAP2 DUP2 ADD SWAP2 SWAP1 SWAP2 MSTORE PUSH1 0x60 DUP2 ADD DUP5 SWAP1 MSTORE PUSH1 0x80 DUP2 ADD DUP4 SWAP1 MSTORE PUSH1 0x1 SWAP1 PUSH1 0xA0 ADD PUSH1 0x20 PUSH1 0x40 MLOAD PUSH1 0x20 DUP2 SUB SWAP1 DUP1 DUP5 SUB SWAP1 DUP6 GAS STATICCALL ISZERO DUP1 ISZERO PUSH2 0x19A4 JUMPI RETURNDATASIZE PUSH0 PUSH0 RETURNDATACOPY RETURNDATASIZE PUSH0 REVERT JUMPDEST POP POP PUSH1 0x40 MLOAD PUSH1 0x1F NOT ADD MLOAD SWAP8 SWAP7 POP POP POP POP POP POP POP JUMP JUMPDEST DUP1 CALLDATALOAD PUSH1 0x1 PUSH1 0x1 PUSH1 0xA0 SHL SUB DUP2 AND DUP2 EQ PUSH2 0x19CF JUMPI PUSH0 PUSH0 REVERT JUMPDEST SWAP2 SWAP1 POP JUMP JUMPDEST PUSH0 PUSH1 0x20 DUP3 DUP5 SUB SLT ISZERO PUSH2 0x19E4 JUMPI PUSH0 PUSH0 REVERT JUMPDEST PUSH2 0x19ED DUP3 PUSH2 0x19B9 JUMP JUMPDEST SWAP4 SWAP3 POP POP POP JUMP JUMPDEST DUP1 ISZERO ISZERO DUP2 EQ PUSH2 0x1A01 JUMPI PUSH0 PUSH0 REVERT JUMPDEST POP JUMP JUMPDEST PUSH0 PUSH0 PUSH0 PUSH1 0x60 DUP5 DUP7 SUB SLT ISZERO PUSH2 0x1A16 JUMPI PUSH0 PUSH0 REVERT JUMPDEST PUSH2 0x1A1F DUP5 PUSH2 0x19B9 JUMP JUMPDEST SWAP3 POP PUSH2 0x1A2D PUSH1 0x20 DUP6 ADD PUSH2 0x19B9 JUMP JUMPDEST SWAP2 POP PUSH1 0x40 DUP5 ADD CALLDATALOAD PUSH2 0x1A3D DUP2 PUSH2 0x19F4 JUMP JUMPDEST DUP1 SWAP2 POP POP SWAP3 POP SWAP3 POP SWAP3 JUMP JUMPDEST PUSH0 PUSH0 DUP4 PUSH1 0x1F DUP5 ADD SLT PUSH2 0x1A58 JUMPI PUSH0 PUSH0 REVERT JUMPDEST POP DUP2 CALLDATALOAD PUSH8 0xFFFFFFFFFFFFFFFF DUP2 GT ISZERO PUSH2 0x1A6F JUMPI PUSH0 PUSH0 REVERT JUMPDEST PUSH1 0x20 DUP4 ADD SWAP2 POP DUP4 PUSH1 0x20 DUP3 PUSH1 0x5 SHL DUP6 ADD ADD GT ISZERO PUSH2 0x1A89 JUMPI PUSH0 PUSH0 REVERT JUMPDEST SWAP3 POP SWAP3 SWAP1 POP JUMP JUMPDEST PUSH0 PUSH0 PUSH0 PUSH0 PUSH0 PUSH0 PUSH1 0x60 DUP8 DUP10 SUB SLT ISZERO PUSH2 0x1AA5 JUMPI PUSH0 PUSH0 REVERT JUMPDEST DUP7 CALLDATALOAD PUSH8 0xFFFFFFFFFFFFFFFF DUP2 GT ISZERO PUSH2 0x1ABB JUMPI PUSH0 PUSH0 REVERT JUMPDEST PUSH2 0x1AC7 DUP10 DUP3 DUP11 ADD PUSH2 0x1A48 JUMP JUMPDEST SWAP1 SWAP8 POP SWAP6 POP POP PUSH1 0x20 DUP8 ADD CALLDATALOAD PUSH8 0xFFFFFFFFFFFFFFFF DUP2 GT ISZERO PUSH2 0x1AE6 JUMPI PUSH0 PUSH0 REVERT JUMPDEST PUSH2 0x1AF2 DUP10 DUP3 DUP11 ADD PUSH2 0x1A48 JUMP JUMPDEST SWAP1 SWAP6 POP SWAP4 POP POP PUSH1 0x40 DUP8 ADD CALLDATALOAD PUSH8 0xFFFFFFFFFFFFFFFF DUP2 GT ISZERO PUSH2 0x1B11 JUMPI PUSH0 PUSH0 REVERT JUMPDEST PUSH2 0x1B1D DUP10 DUP3 DUP11 ADD PUSH2 0x1A48 JUMP JUMPDEST SWAP8 SWAP11 SWAP7 SWAP10 POP SWAP5 SWAP8 POP SWAP3 SWAP6 SWAP4 SWAP5 SWAP3 POP POP POP JUMP JUMPDEST PUSH0 PUSH0 PUSH1 0x40 DUP4 DUP6 SUB SLT ISZERO PUSH2 0x1B40 JUMPI PUSH0 PUSH0 REVERT JUMPDEST PUSH2 0x1B49 DUP4 PUSH2 0x19B9 JUMP JUMPDEST SWAP2 POP PUSH2 0x1B57 PUSH1 0x20 DUP5 ADD PUSH2 0x19B9 JUMP JUMPDEST SWAP1 POP SWAP3 POP SWAP3 SWAP1 POP JUMP JUMPDEST PUSH0 PUSH1 0x20 DUP3 DUP5 SUB SLT ISZERO PUSH2 0x1B70 JUMPI PUSH0 PUSH0 REVERT JUMPDEST DUP2 CALLDATALOAD PUSH2 0x19ED DUP2 PUSH2 0x19F4 JUMP JUMPDEST PUSH0 PUSH0 PUSH1 0x20 DUP4 DUP6 SUB SLT ISZERO PUSH2 0x1B8C JUMPI PUSH0 PUSH0 REVERT JUMPDEST DUP3 CALLDATALOAD PUSH8 0xFFFFFFFFFFFFFFFF DUP2 GT ISZERO PUSH2 0x1BA2 JUMPI PUSH0 PUSH0 REVERT JUMPDEST PUSH2 0x1BAE DUP6 DUP3 DUP7 ADD PUSH2 0x1A48 JUMP JUMPDEST SWAP1 SWAP7 SWAP1 SWAP6 POP SWAP4 POP POP POP POP JUMP JUMPDEST PUSH0 PUSH0 DUP4 PUSH1 0x1F DUP5 ADD SLT PUSH2 0x1BCA JUMPI PUSH0 PUSH0 REVERT JUMPDEST POP DUP2 CALLDATALOAD PUSH8 0xFFFFFFFFFFFFFFFF DUP2 GT ISZERO PUSH2 0x1BE1 JUMPI PUSH0 PUSH0 REVERT JUMPDEST PUSH1 0x20 DUP4 ADD SWAP2 POP DUP4 PUSH1 0x20 DUP3 DUP6 ADD ADD GT ISZERO PUSH2 0x1A89 JUMPI PUSH0 PUSH0 REVERT JUMPDEST PUSH0 PUSH0 PUSH0 PUSH0 PUSH0 PUSH0 PUSH1 0x80 DUP8 DUP10 SUB SLT ISZERO PUSH2 0x1C0D JUMPI PUSH0 PUSH0 REVERT JUMPDEST PUSH2 0x1C16 DUP8 PUSH2 0x19B9 JUMP JUMPDEST SWAP6 POP PUSH1 0x20 DUP8 ADD CALLDATALOAD SWAP5 POP PUSH1 0x40 DUP8 ADD CALLDATALOAD PUSH8 0xFFFFFFFFFFFFFFFF DUP2 GT ISZERO PUSH2 0x1C38 JUMPI PUSH0 PUSH0 REVERT JUMPDEST PUSH2 0x1C44 DUP10 DUP3 DUP11 ADD PUSH2 0x1BBA JUMP JUMPDEST SWAP1 SWAP6 POP SWAP4 POP POP PUSH1 0x60 DUP8 ADD CALLDATALOAD PUSH8 0xFFFFFFFFFFFFFFFF DUP2 GT ISZERO PUSH2 0x1C63 JUMPI PUSH0 PUSH0 REVERT JUMPDEST PUSH2 0x1B1D DUP10 DUP3 DUP11 ADD PUSH2 0x1BBA JUMP JUMPDEST PUSH1 0x20 DUP2 MSTORE PUSH0 DUP3 MLOAD DUP1 PUSH1 0x20 DUP5 ADD MSTORE DUP1 PUSH1 0x20 DUP6 ADD PUSH1 0x40 DUP6 ADD MCOPY PUSH0 PUSH1 0x40 DUP3 DUP6 ADD ADD MSTORE PUSH1 0x40 PUSH1 0x1F NOT PUSH1 0x1F DUP4 ADD AND DUP5 ADD ADD SWAP2 POP POP SWAP3 SWAP2 POP POP JUMP JUMPDEST PUSH0 PUSH0 PUSH0 PUSH0 PUSH1 0x60 DUP6 DUP8 SUB SLT ISZERO PUSH2 0x1CB7 JUMPI PUSH0 PUSH0 REVERT JUMPDEST PUSH2 0x1CC0 DUP6 PUSH2 0x19B9 JUMP JUMPDEST SWAP4 POP PUSH1 0x20 DUP6 ADD CALLDATALOAD SWAP3 POP PUSH1 0x40 DUP6 ADD CALLDATALOAD PUSH8 0xFFFFFFFFFFFFFFFF DUP2 GT ISZERO PUSH2 0x1CE2 JUMPI PUSH0 PUSH0 REVERT JUMPDEST PUSH2 0x1CEE DUP8 DUP3 DUP9 ADD PUSH2 0x1BBA JUMP JUMPDEST SWAP6 SWAP9 SWAP5 SWAP8 POP SWAP6 POP POP POP POP JUMP JUMPDEST PUSH0 PUSH0 PUSH0 PUSH1 0x40 DUP5 DUP7 SUB SLT ISZERO PUSH2 0x1D0C JUMPI PUSH0 PUSH0 REVERT JUMPDEST DUP4 CALLDATALOAD PUSH8 0xFFFFFFFFFFFFFFFF DUP2 GT ISZERO PUSH2 0x1D22 JUMPI PUSH0 PUSH0 REVERT JUMPDEST PUSH2 0x1D2E DUP7 DUP3 DUP8 ADD PUSH2 0x1A48 JUMP JUMPDEST SWAP1 SWAP5 POP SWAP3 POP PUSH2 0x1D41 SWAP1 POP PUSH1 0x20 DUP6 ADD PUSH2 0x19B9 JUMP JUMPDEST SWAP1 POP SWAP3 POP SWAP3 POP SWAP3 JUMP JUMPDEST PUSH0 PUSH1 0x20 DUP3 DUP5 SUB SLT ISZERO PUSH2 0x1D5A JUMPI PUSH0 PUSH0 REVERT JUMPDEST POP MLOAD SWAP2 SWAP1 POP JUMP JUMPDEST PUSH4 0x4E487B71 PUSH1 0xE0 SHL PUSH0 MSTORE PUSH1 0x32 PUSH1 0x4 MSTORE PUSH1 0x24 PUSH0 REVERT JUMPDEST PUSH0 PUSH0 DUP4 CALLDATALOAD PUSH1 0x1E NOT DUP5 CALLDATASIZE SUB ADD DUP2 SLT PUSH2 0x1D8A JUMPI PUSH0 PUSH0 REVERT JUMPDEST DUP4 ADD DUP1 CALLDATALOAD SWAP2 POP PUSH8 0xFFFFFFFFFFFFFFFF DUP3 GT ISZERO PUSH2 0x1DA4 JUMPI PUSH0 PUSH0 REVERT JUMPDEST PUSH1 0x20 ADD SWAP2 POP CALLDATASIZE DUP2 SWAP1 SUB DUP3 SGT ISZERO PUSH2 0x1A89 JUMPI PUSH0 PUSH0 REVERT JUMPDEST DUP2 DUP4 DUP3 CALLDATACOPY PUSH0 SWAP2 ADD SWAP1 DUP2 MSTORE SWAP2 SWAP1 POP JUMP JUMPDEST DUP4 DUP2 MSTORE PUSH1 0x40 PUSH1 0x20 DUP3 ADD MSTORE DUP2 PUSH1 0x40 DUP3 ADD MSTORE DUP2 DUP4 PUSH1 0x60 DUP4 ADD CALLDATACOPY PUSH0 DUP2 DUP4 ADD PUSH1 0x60 SWAP1 DUP2 ADD SWAP2 SWAP1 SWAP2 MSTORE PUSH1 0x1F SWAP1 SWAP3 ADD PUSH1 0x1F NOT AND ADD ADD SWAP3 SWAP2 POP POP JUMP JUMPDEST PUSH4 0x4E487B71 PUSH1 0xE0 SHL PUSH0 MSTORE PUSH1 0x11 PUSH1 0x4 MSTORE PUSH1 0x24 PUSH0 REVERT JUMPDEST PUSH0 PUSH1 0x1 DUP3 ADD PUSH2 0x1E21 JUMPI PUSH2 0x1E21 PUSH2 0x1DFC JUMP JUMPDEST POP PUSH1 0x1 ADD SWAP1 JUMP JUMPDEST PUSH0 DUP3 MLOAD DUP1 PUSH1 0x20 DUP6 ADD DUP5 MCOPY PUSH0 SWAP3 ADD SWAP2 DUP3 MSTORE POP SWAP2 SWAP1 POP JUMP JUMPDEST PUSH0 PUSH1 0x20 DUP3 DUP5 SUB SLT ISZERO PUSH2 0x1E4E JUMPI PUSH0 PUSH0 REVERT JUMPDEST DUP2 MLOAD PUSH2 0x19ED DUP2 PUSH2 0x19F4 JUMP JUMPDEST PUSH1 0xFF DUP2 DUP2 AND DUP4 DUP3 AND ADD SWAP1 DUP2 GT ISZERO PUSH2 0x840 JUMPI PUSH2 0x840 PUSH2 0x1DFC JUMP INVALID GT TSTORE PUSH28 0x5114B5954762CC233B141A7C777A8F79D93F50AF7216D645C87FB488 RETURNDATACOPY DUP16 PUSH24 0x97880CBEED821B47F9836E06B28A74D72DE99667426584D SWAP10 EXTCODEHASH 0xE4 CREATE2 PUSH15 0x80A26469706673582212200F5B56C9 CALLER 0xB4 0x27 0x28 0x1F 0xF9 DUP13 TLOAD 0xAB SWAP5 CHAINID JUMPI PUSH5 0x9901064BA8 CALLVALUE 0xD8 0xB8 PUSH23 0x6174E0F575E764736F6C634300081B0033000000000000 "},"methodIdentifiers":{"autoForwardEnabled()":"32737034","execute(address,uint256,bytes)":"b61d27f6","executeBatch(address[],uint256[],bytes[])":"47e1da2a","forwardAllETH()":"6d3e4481","forwardTarget()":"a94cc1a0","gasSponsor()":"6edfcd23","getBalance()":"12065fe0","getConfig()":"c3f909d4","getTokenBalance(address)":"3aecd0e3","initialize(address,address,bool)":"e4bbb5a8","initialized()":"158ef93e","nonce()":"affed0e0","prepareRevoke()":"b425ef83","setAutoForward(bool)":"76405b93","setForwardTarget(address)":"537244c6","setGasSponsor(address)":"47d5e3ae","sponsoredExecute(address,uint256,bytes,bytes)":"9463f7a6","sweepToken(address)":"1be19560","sweepTokenTo(address,address)":"75e68502","sweepTokens(address[])":"909b19d9","sweepTokensTo(address[],address)":"ef44de42","updateConfig(address,address,bool)":"37a9ba94"}}}}}