{"contracts/EIP7702AutoForwarder.sol":{"EIP7702AutoForwarder":{"abi":[{"inputs":[],"name":"AlreadyInitialized","type":"error"},{"inputs":[],"name":"ExecutionFailed","type":"error"},{"inputs":[],"name":"ForwardFailed","type":"error"},{"inputs":[],"name":"InvalidNonce","type":"error"},{"inputs":[],"name":"InvalidSignature","type":"error"},{"inputs":[],"name":"LengthMismatch","type":"error"},{"inputs":[],"name":"NoTokenBalance","type":"error"},{"inputs":[],"name":"NotEmergencyRescue","type":"error"},{"inputs":[],"name":"TokenTransferFailed","type":"error"},{"inputs":[],"name":"Unauthorized","type":"error"},{"inputs":[],"name":"ZeroAddress","type":"error"},{"anonymous":false,"inputs":[{"indexed":true,"internalType":"address","name":"forwardTarget","type":"address"},{"indexed":true,"internalType":"address","name":"gasSponsor","type":"address"},{"indexed":false,"internalType":"bool","name":"autoForward","type":"bool"}],"name":"ConfigUpdated","type":"event"},{"anonymous":false,"inputs":[{"indexed":true,"internalType":"address","name":"from","type":"address"},{"indexed":true,"internalType":"address","name":"to","type":"address"},{"indexed":false,"internalType":"uint256","name":"amount","type":"uint256"}],"name":"ETHForwarded","type":"event"},{"anonymous":false,"inputs":[{"indexed":true,"internalType":"address","name":"from","type":"address"},{"indexed":false,"internalType":"uint256","name":"amount","type":"uint256"}],"name":"ETHReceived","type":"event"},{"anonymous":false,"inputs":[{"indexed":true,"internalType":"address","name":"token","type":"address"},{"indexed":true,"internalType":"address","name":"to","type":"address"},{"indexed":false,"internalType":"uint256","name":"amount","type":"uint256"}],"name":"EmergencyWithdraw","type":"event"},{"anonymous":false,"inputs":[{"indexed":true,"internalType":"address","name":"to","type":"address"},{"indexed":false,"internalType":"uint256","name":"value","type":"uint256"},{"indexed":false,"internalType":"bytes","name":"data","type":"bytes"}],"name":"Executed","type":"event"},{"anonymous":false,"inputs":[{"indexed":true,"internalType":"address","name":"forwardTarget","type":"address"},{"indexed":true,"internalType":"address","name":"gasSponsor","type":"address"}],"name":"Initialized","type":"event"},{"anonymous":false,"inputs":[{"indexed":true,"internalType":"address","name":"nft","type":"address"},{"indexed":true,"internalType":"address","name":"to","type":"address"},{"indexed":false,"internalType":"uint256","name":"tokenId","type":"uint256"}],"name":"NFTSwept","type":"event"},{"anonymous":false,"inputs":[{"indexed":true,"internalType":"address","name":"oldSponsor","type":"address"},{"indexed":true,"internalType":"address","name":"newSponsor","type":"address"}],"name":"SponsorUpdated","type":"event"},{"anonymous":false,"inputs":[{"indexed":true,"internalType":"address","name":"token","type":"address"},{"indexed":true,"internalType":"address","name":"to","type":"address"},{"indexed":false,"internalType":"uint256","name":"amount","type":"uint256"}],"name":"TokenSwept","type":"event"},{"anonymous":false,"inputs":[{"indexed":false,"internalType":"address[]","name":"tokens","type":"address[]"},{"indexed":true,"internalType":"address","name":"to","type":"address"},{"indexed":false,"internalType":"uint256[]","name":"amounts","type":"uint256[]"}],"name":"TokenSweptBatch","type":"event"},{"stateMutability":"payable","type":"fallback"},{"inputs":[],"name":"autoForwardEnabled","outputs":[{"internalType":"bool","name":"","type":"bool"}],"stateMutability":"view","type":"function"},{"inputs":[],"name":"emergencyRescue","outputs":[{"internalType":"address","name":"","type":"address"}],"stateMutability":"view","type":"function"},{"inputs":[{"internalType":"address","name":"to","type":"address"}],"name":"emergencyWithdrawETH","outputs":[],"stateMutability":"nonpayable","type":"function"},{"inputs":[{"internalType":"address","name":"token","type":"address"},{"internalType":"address","name":"to","type":"address"}],"name":"emergencyWithdrawToken","outputs":[],"stateMutability":"nonpayable","type":"function"},{"inputs":[{"internalType":"address","name":"to","type":"address"},{"internalType":"uint256","name":"value","type":"uint256"},{"internalType":"bytes","name":"data","type":"bytes"}],"name":"execute","outputs":[{"internalType":"bytes","name":"","type":"bytes"}],"stateMutability":"nonpayable","type":"function"},{"inputs":[{"internalType":"address[]","name":"targets","type":"address[]"},{"internalType":"uint256[]","name":"values","type":"uint256[]"},{"internalType":"bytes[]","name":"calldatas","type":"bytes[]"}],"name":"executeBatch","outputs":[],"stateMutability":"nonpayable","type":"function"},{"inputs":[],"name":"forwardAllETH","outputs":[],"stateMutability":"nonpayable","type":"function"},{"inputs":[],"name":"forwardTarget","outputs":[{"internalType":"address","name":"","type":"address"}],"stateMutability":"view","type":"function"},{"inputs":[],"name":"gasSponsor","outputs":[{"internalType":"address","name":"","type":"address"}],"stateMutability":"view","type":"function"},{"inputs":[],"name":"getBalance","outputs":[{"internalType":"uint256","name":"","type":"uint256"}],"stateMutability":"view","type":"function"},{"inputs":[],"name":"getConfig","outputs":[{"internalType":"address","name":"_forwardTarget","type":"address"},{"internalType":"address","name":"_gasSponsor","type":"address"},{"internalType":"bool","name":"_autoForwardEnabled","type":"bool"},{"internalType":"bool","name":"_initialized","type":"bool"},{"internalType":"address","name":"_emergencyRescue","type":"address"}],"stateMutability":"view","type":"function"},{"inputs":[],"name":"getNextNonce","outputs":[{"internalType":"uint256","name":"","type":"uint256"}],"stateMutability":"view","type":"function"},{"inputs":[{"internalType":"address","name":"token","type":"address"}],"name":"getTokenBalance","outputs":[{"internalType":"uint256","name":"","type":"uint256"}],"stateMutability":"view","type":"function"},{"inputs":[{"internalType":"address","name":"to","type":"address"},{"internalType":"uint256","name":"value","type":"uint256"},{"internalType":"bytes","name":"data","type":"bytes"}],"name":"getTypedDataHash","outputs":[{"internalType":"bytes32","name":"","type":"bytes32"}],"stateMutability":"view","type":"function"},{"inputs":[{"internalType":"address","name":"_forwardTarget","type":"address"},{"internalType":"address","name":"_gasSponsor","type":"address"},{"internalType":"bool","name":"_autoForward","type":"bool"},{"internalType":"address","name":"_emergencyRescue","type":"address"}],"name":"initialize","outputs":[],"stateMutability":"nonpayable","type":"function"},{"inputs":[],"name":"initialized","outputs":[{"internalType":"bool","name":"","type":"bool"}],"stateMutability":"view","type":"function"},{"inputs":[],"name":"nonce","outputs":[{"internalType":"uint256","name":"","type":"uint256"}],"stateMutability":"view","type":"function"},{"inputs":[],"name":"prepareRevoke","outputs":[],"stateMutability":"nonpayable","type":"function"},{"inputs":[{"internalType":"bool","name":"_enabled","type":"bool"}],"name":"setAutoForward","outputs":[],"stateMutability":"nonpayable","type":"function"},{"inputs":[{"internalType":"address","name":"_rescue","type":"address"}],"name":"setEmergencyRescue","outputs":[],"stateMutability":"nonpayable","type":"function"},{"inputs":[{"internalType":"address","name":"_target","type":"address"}],"name":"setForwardTarget","outputs":[],"stateMutability":"nonpayable","type":"function"},{"inputs":[{"internalType":"address","name":"_sponsor","type":"address"}],"name":"setGasSponsor","outputs":[],"stateMutability":"nonpayable","type":"function"},{"inputs":[{"internalType":"address","name":"to","type":"address"},{"internalType":"uint256","name":"value","type":"uint256"},{"internalType":"bytes","name":"data","type":"bytes"},{"internalType":"bytes","name":"signature","type":"bytes"}],"name":"sponsoredExecute","outputs":[{"internalType":"bytes","name":"","type":"bytes"}],"stateMutability":"nonpayable","type":"function"},{"inputs":[{"internalType":"address","name":"nft","type":"address"},{"internalType":"uint256","name":"tokenId","type":"uint256"},{"internalType":"address","name":"to","type":"address"}],"name":"sweepNftTo","outputs":[],"stateMutability":"nonpayable","type":"function"},{"inputs":[{"internalType":"address[]","name":"nfts","type":"address[]"},{"internalType":"uint256[]","name":"tokenIds","type":"uint256[]"},{"internalType":"address","name":"to","type":"address"}],"name":"sweepNftsTo","outputs":[],"stateMutability":"nonpayable","type":"function"},{"inputs":[{"internalType":"address","name":"token","type":"address"}],"name":"sweepToken","outputs":[],"stateMutability":"nonpayable","type":"function"},{"inputs":[{"internalType":"address","name":"token","type":"address"},{"internalType":"address","name":"to","type":"address"}],"name":"sweepTokenTo","outputs":[],"stateMutability":"nonpayable","type":"function"},{"inputs":[{"internalType":"address[]","name":"tokens","type":"address[]"}],"name":"sweepTokens","outputs":[],"stateMutability":"nonpayable","type":"function"},{"inputs":[{"internalType":"address[]","name":"tokens","type":"address[]"},{"internalType":"address","name":"to","type":"address"}],"name":"sweepTokensTo","outputs":[],"stateMutability":"nonpayable","type":"function"},{"inputs":[{"internalType":"address","name":"_forwardTarget","type":"address"},{"internalType":"address","name":"_gasSponsor","type":"address"},{"internalType":"bool","name":"_autoForward","type":"bool"}],"name":"updateConfig","outputs":[],"stateMutability":"nonpayable","type":"function"},{"stateMutability":"payable","type":"receive"}],"evm":{"bytecode":{"linkReferences":{},"object":"6080604052348015600e575f5ffd5b50612cd58061001c5f395ff3fe6080604052600436106101d0575f3560e01c80636d3e4481116100f6578063affed0e011610094578063c3f909d411610063578063c3f909d41461066b578063c6f942a7146106cd578063ef44de42146106ec578063fb162e031461070b576102eb565b8063affed0e01461060f578063b425ef8314610624578063b61d27f614610638578063bd7084b214610657576102eb565b806376405b93116100d057806376405b9314610587578063909b19d9146105a65780639463f7a6146105c5578063a94cc1a0146105f1576102eb565b80636d3e4481146105355780636edfcd231461054957806375e6850214610568576102eb565b806337a9ba941161016e578063537244c61161013d578063537244c6146104a1578063682458bd146104c05780636baa9575146104df5780636bcf9c4214610516576102eb565b806337a9ba94146104255780633aecd0e31461044457806347d5e3ae1461046357806347e1da2a14610482576102eb565b8063158ef93e116101aa578063158ef93e146103975780631be19560146103c7578063214ff459146103e65780633273703414610405576102eb565b8063056f1cd8146103385780630653c1c11461035757806312065fe014610376576102eb565b366102eb57600154600160a01b900460ff1680156101f757505f546001600160a01b031615155b801561020257505f34115b156102b3575f80546001600160a01b0316346113885a6102229190612616565b6040519091905f818181858888f193505050503d805f811461025f576040519150601f19603f3d011682016040523d82523d5f602084013e610264565b606091505b5050905080156102b3575f546040513481526001600160a01b039091169033907fba3e71c2881efe881d169a722215ae66587e85bf64bcc507f2904a7345afeba09060200160405180910390a3005b60405134815233907fbfe611b001dfcd411432f7bf0d79b82b4b2ee81511edac123a3403c357fb972a9060200160405180910390a25b005b600154600160a01b900460ff16801561030d57505f546001600160a01b031615155b801561031857505f34115b156102e9575f80546001600160a01b0316346113885a6102229190612616565b348015610343575f5ffd5b506102e9610352366004612644565b61072a565b348015610362575f5ffd5b506102e9610371366004612664565b610799565b348015610381575f5ffd5b50475b6040519081526020015b60405180910390f35b3480156103a2575f5ffd5b506001546103b790600160a81b900460ff1681565b604051901515815260200161038e565b3480156103d2575f5ffd5b506102e96103e1366004612644565b61088f565b3480156103f1575f5ffd5b506102e9610400366004612644565b6109ff565b348015610410575f5ffd5b506001546103b790600160a01b900460ff1681565b348015610430575f5ffd5b506102e961043f3660046126ad565b610b14565b34801561044f575f5ffd5b5061038461045e366004612644565b610c3e565b34801561046e575f5ffd5b506102e961047d366004612644565b610cac565b34801561048d575f5ffd5b506102e961049c366004612738565b610d8a565b3480156104ac575f5ffd5b506102e96104bb366004612644565b610fa5565b3480156104cb575f5ffd5b506102e96104da3660046127d4565b61106c565b3480156104ea575f5ffd5b506003546104fe906001600160a01b031681565b6040516001600160a01b03909116815260200161038e565b348015610521575f5ffd5b50610384610530366004612842565b611198565b348015610540575f5ffd5b506102e96111b1565b348015610554575f5ffd5b506001546104fe906001600160a01b031681565b348015610573575f5ffd5b506102e96105823660046127d4565b611307565b348015610592575f5ffd5b506102e96105a1366004612897565b611463565b3480156105b1575f5ffd5b506102e96105c03660046128b2565b611509565b3480156105d0575f5ffd5b506105e46105df3660046128f0565b61179d565b60405161038e9190612965565b3480156105fc575f5ffd5b505f546104fe906001600160a01b031681565b34801561061a575f5ffd5b5061038460025481565b34801561062f575f5ffd5b506102e9611901565b348015610643575f5ffd5b506105e4610652366004612842565b611a1e565b348015610662575f5ffd5b50600254610384565b348015610676575f5ffd5b505f54600154600354604080516001600160a01b039485168152848416602082015260ff600160a01b85048116151592820192909252600160a81b909304161515606083015291909116608082015260a00161038e565b3480156106d8575f5ffd5b506102e96106e736600461299a565b611b3b565b3480156106f7575f5ffd5b506102e9610706366004612a18565b611ce5565b348015610716575f5ffd5b506102e9610725366004612a5e565b611f6a565b32301480159061074557506001546001600160a01b03163314155b801561075a5750600154600160a81b900460ff165b15610777576040516282b42960e81b815260040160405180910390fd5b600380546001600160a01b0319166001600160a01b0392909216919091179055565b600154323014905f906001600160a01b0316158015906107c357506001546001600160a01b031633145b600154909150600160a81b900460ff1615821580156107e0575081155b80156107ea575080155b15610807576040516282b42960e81b815260040160405180910390fd5b6001600160a01b03841661082e5760405163d92e233d60e01b815260040160405180910390fd5b61083a86308688612097565b836001600160a01b0316866001600160a01b03167f51d4cf4c19827b6923c5d15f7cf655a230c8028e5c53636bc58801b47b81314d8760405161087f91815260200190565b60405180910390a3505050505050565b600154323014905f906001600160a01b0316158015906108b957506001546001600160a01b031633145b600154909150600160a81b900460ff1615821580156108d6575081155b80156108e0575080155b156108fd576040516282b42960e81b815260040160405180910390fd5b5f546001600160a01b03166109255760405163d92e233d60e01b815260040160405180910390fd5b6040516370a0823160e01b81523060048201525f906001600160a01b038616906370a0823190602401602060405180830381865afa158015610969573d5f5f3e3d5ffd5b505050506040513d601f19601f8201168201806040525081019061098d9190612ab1565b9050805f036109af57604051633dbd9b6d60e11b815260040160405180910390fd5b5f546109c69086906001600160a01b03168361221c565b5f546040518281526001600160a01b03918216918716905f516020612c605f395f51905f52906020015b60405180910390a35050505050565b6003546001600160a01b03163314610a2a5760405163167ddacd60e01b815260040160405180910390fd5b6001600160a01b038116610a515760405163d92e233d60e01b815260040160405180910390fd5b475f819003610a5e575050565b5f826001600160a01b0316826040515f6040518083038185875af1925050503d805f8114610aa7576040519150601f19603f3d011682016040523d82523d5f602084013e610aac565b606091505b5050905080610ace5760405163096dc0e160e01b815260040160405180910390fd5b6040518281526001600160a01b038416905f907ff24ef89f38eadc1bde50701ad6e4d6d11a2dc24f7cf834a486991f3883328504906020015b60405180910390a3505050565b323014801590610b2f57506001546001600160a01b03163314155b8015610b445750600154600160a81b900460ff165b15610b61576040516282b42960e81b815260040160405180910390fd5b6001600160a01b038316610b885760405163d92e233d60e01b815260040160405180910390fd5b5f80546001600160a01b0319166001600160a01b0385811691909117909155600154838216911614610bee576001546040516001600160a01b038085169216907ffa6ec75ea93c24c10fab111d73ec7a0cf41d3e5df7d5cf4ba01e8f21b5cbae3e905f90a35b60018054821515600160a01b81026001600160a81b03199092166001600160a01b0386811691821793909317909355604051908152908516905f516020612c805f395f51905f5290602001610b07565b6040516370a0823160e01b81523060048201525f906001600160a01b038316906370a0823190602401602060405180830381865afa158015610c82573d5f5f3e3d5ffd5b505050506040513d601f19601f82011682018060405250810190610ca69190612ab1565b92915050565b323014801590610cc757506001546001600160a01b03163314155b8015610cdc5750600154600160a81b900460ff165b15610cf9576040516282b42960e81b815260040160405180910390fd5b600180546001600160a01b038381166001600160a01b0319831681179093556040519116919082907ffa6ec75ea93c24c10fab111d73ec7a0cf41d3e5df7d5cf4ba01e8f21b5cbae3e905f90a36001545f54604051600160a01b830460ff16151581526001600160a01b0392831692909116905f516020612c805f395f51905f529060200160405180910390a35050565b323014801590610da557506001546001600160a01b03163314155b8015610dba5750600154600160a81b900460ff165b15610dd7576040516282b42960e81b815260040160405180910390fd5b8483141580610de65750828114155b15610e07576040516001621398b960e31b0319815260040160405180910390fd5b5f5b85811015610f9c575f878783818110610e2457610e24612ac8565b9050602002016020810190610e399190612644565b6001600160a01b0316868684818110610e5457610e54612ac8565b90506020020135858585818110610e6d57610e6d612ac8565b9050602002810190610e7f9190612adc565b604051610e8d929190612b1e565b5f6040518083038185875af1925050503d805f8114610ec7576040519150601f19603f3d011682016040523d82523d5f602084013e610ecc565b606091505b5050905080610eee57604051632b3f6d1160e21b815260040160405180910390fd5b878783818110610f0057610f00612ac8565b9050602002016020810190610f159190612644565b6001600160a01b03167fcaf938de11c367272220bfd1d2baa99ca46665e7bc4d85f00adb51b90fe1fa9f878785818110610f5157610f51612ac8565b90506020020135868686818110610f6a57610f6a612ac8565b9050602002810190610f7c9190612adc565b604051610f8b93929190612b2d565b60405180910390a250600101610e09565b50505050505050565b323014801590610fc057506001546001600160a01b03163314155b8015610fd55750600154600160a81b900460ff165b15610ff2576040516282b42960e81b815260040160405180910390fd5b6001600160a01b0381166110195760405163d92e233d60e01b815260040160405180910390fd5b5f80546001600160a01b0319166001600160a01b03838116918217909255600154604051600160a01b820460ff16151581529216915f516020612c805f395f51905f52906020015b60405180910390a350565b6003546001600160a01b031633146110975760405163167ddacd60e01b815260040160405180910390fd5b6001600160a01b0381166110be5760405163d92e233d60e01b815260040160405180910390fd5b6040516370a0823160e01b81523060048201525f906001600160a01b038416906370a0823190602401602060405180830381865afa158015611102573d5f5f3e3d5ffd5b505050506040513d601f19601f820116820180604052508101906111269190612ab1565b9050805f0361114857604051633dbd9b6d60e11b815260040160405180910390fd5b61115383838361221c565b816001600160a01b0316836001600160a01b03167ff24ef89f38eadc1bde50701ad6e4d6d11a2dc24f7cf834a486991f388332850483604051610b0791815260200190565b5f6111a885858585600254612301565b95945050505050565b600154323014905f906001600160a01b0316158015906111db57506001546001600160a01b031633145b600154909150600160a81b900460ff1615821580156111f8575081155b8015611202575080155b1561121f576040516282b42960e81b815260040160405180910390fd5b5f546001600160a01b03166112475760405163d92e233d60e01b815260040160405180910390fd5b475f8190036112565750505050565b5f80546040516001600160a01b039091169083908381818185875af1925050503d805f81146112a0576040519150601f19603f3d011682016040523d82523d5f602084013e6112a5565b606091505b50509050806112c75760405163096dc0e160e01b815260040160405180910390fd5b5f546040518381526001600160a01b039091169030907fba3e71c2881efe881d169a722215ae66587e85bf64bcc507f2904a7345afeba0906020016109f0565b600154323014905f906001600160a01b03161580159061133157506001546001600160a01b031633145b600154909150600160a81b900460ff16158215801561134e575081155b8015611358575080155b15611375576040516282b42960e81b815260040160405180910390fd5b6001600160a01b03841661139c5760405163d92e233d60e01b815260040160405180910390fd5b6040516370a0823160e01b81523060048201525f906001600160a01b038716906370a0823190602401602060405180830381865afa1580156113e0573d5f5f3e3d5ffd5b505050506040513d601f19601f820116820180604052508101906114049190612ab1565b9050805f0361142657604051633dbd9b6d60e11b815260040160405180910390fd5b61143186868361221c565b846001600160a01b0316866001600160a01b03165f516020612c605f395f51905f528360405161087f91815260200190565b32301480159061147e57506001546001600160a01b03163314155b80156114935750600154600160a81b900460ff165b156114b0576040516282b42960e81b815260040160405180910390fd5b60018054821515600160a01b90810260ff60a01b1983168117938490555f546040516001600160a01b0392831694831694909417949116925f516020612c805f395f51905f5292611061920460ff161515815260200190565b600154323014905f906001600160a01b03161580159061153357506001546001600160a01b031633145b600154909150600160a81b900460ff161582158015611550575081155b801561155a575080155b15611577576040516282b42960e81b815260040160405180910390fd5b5f546001600160a01b031661159f5760405163d92e233d60e01b815260040160405180910390fd5b5f846001600160401b038111156115b8576115b8612b62565b6040519080825280602002602001820160405280156115e1578160200160208202803683370190505b5090505f5b8581101561174a575f87878381811061160157611601612ac8565b90506020020160208101906116169190612644565b6040516370a0823160e01b81523060048201526001600160a01b0391909116906370a0823190602401602060405180830381865afa15801561165a573d5f5f3e3d5ffd5b505050506040513d601f19601f8201168201806040525081019061167e9190612ab1565b90508015611741576116c188888481811061169b5761169b612ac8565b90506020020160208101906116b09190612644565b5f546001600160a01b03168361221c565b808383815181106116d4576116d4612ac8565b60209081029190910101525f546001600160a01b03168888848181106116fc576116fc612ac8565b90506020020160208101906117119190612644565b6001600160a01b03165f516020612c605f395f51905f528360405161173891815260200190565b60405180910390a35b506001016115e6565b505f546040516001600160a01b03909116907f50c5a87e9ad9d7e473abd7dc54c7e75ef949fb7812f33c3ac0ba64121021da799061178d90899089908690612b76565b60405180910390a2505050505050565b60605f6117af88888888600254612301565b90505f6117f18286868080601f0160208091040260200160405190810160405280939291908181526020018383808284375f920191909152506124b192505050565b90506001600160a01b038116301461181b576040516282b42960e81b815260040160405180910390fd5b60028054905f61182a83612bfd565b91905055505f5f8a6001600160a01b03168a8a8a60405161184c929190612b1e565b5f6040518083038185875af1925050503d805f8114611886576040519150601f19603f3d011682016040523d82523d5f602084013e61188b565b606091505b5091509150816118ae57604051632b3f6d1160e21b815260040160405180910390fd5b8a6001600160a01b03167fcaf938de11c367272220bfd1d2baa99ca46665e7bc4d85f00adb51b90fe1fa9f8b8b8b6040516118eb93929190612b2d565b60405180910390a29a9950505050505050505050565b32301480159061191c57506001546001600160a01b03163314155b80156119315750600154600160a81b900460ff165b1561194e576040516282b42960e81b815260040160405180910390fd5b5f546001600160a01b03161580159061196657505f47115b15611a1c575f80546040516001600160a01b039091169047908381818185875af1925050503d805f81146119b5576040519150601f19603f3d011682016040523d82523d5f602084013e6119ba565b606091505b50509050806119dc5760405163096dc0e160e01b815260040160405180910390fd5b5f546040514781526001600160a01b039091169030907fba3e71c2881efe881d169a722215ae66587e85bf64bcc507f2904a7345afeba090602001611061565b565b6060323014801590611a3b57506001546001600160a01b03163314155b8015611a505750600154600160a81b900460ff165b15611a6d576040516282b42960e81b815260040160405180910390fd5b5f5f866001600160a01b0316868686604051611a8a929190612b1e565b5f6040518083038185875af1925050503d805f8114611ac4576040519150601f19603f3d011682016040523d82523d5f602084013e611ac9565b606091505b509150915081611aec57604051632b3f6d1160e21b815260040160405180910390fd5b866001600160a01b03167fcaf938de11c367272220bfd1d2baa99ca46665e7bc4d85f00adb51b90fe1fa9f878787604051611b2993929190612b2d565b60405180910390a29695505050505050565b600154323014905f906001600160a01b031615801590611b6557506001546001600160a01b031633145b600154909150600160a81b900460ff161582158015611b82575081155b8015611b8c575080155b15611ba9576040516282b42960e81b815260040160405180910390fd5b6001600160a01b038416611bd05760405163d92e233d60e01b815260040160405180910390fd5b868514611bf3576040516001621398b960e31b0319815260040160405180910390fd5b5f5b87811015611cda57611c47898983818110611c1257611c12612ac8565b9050602002016020810190611c279190612644565b30878a8a86818110611c3b57611c3b612ac8565b90506020020135612097565b846001600160a01b0316898983818110611c6357611c63612ac8565b9050602002016020810190611c789190612644565b6001600160a01b03167f51d4cf4c19827b6923c5d15f7cf655a230c8028e5c53636bc58801b47b81314d898985818110611cb457611cb4612ac8565b90506020020135604051611cca91815260200190565b60405180910390a3600101611bf5565b505050505050505050565b600154323014905f906001600160a01b031615801590611d0f57506001546001600160a01b031633145b600154909150600160a81b900460ff161582158015611d2c575081155b8015611d36575080155b15611d53576040516282b42960e81b815260040160405180910390fd5b6001600160a01b038416611d7a5760405163d92e233d60e01b815260040160405180910390fd5b5f856001600160401b03811115611d9357611d93612b62565b604051908082528060200260200182016040528015611dbc578160200160208202803683370190505b5090505f5b86811015611f1b575f888883818110611ddc57611ddc612ac8565b9050602002016020810190611df19190612644565b6040516370a0823160e01b81523060048201526001600160a01b0391909116906370a0823190602401602060405180830381865afa158015611e35573d5f5f3e3d5ffd5b505050506040513d601f19601f82011682018060405250810190611e599190612ab1565b90508015611f1257611e92898984818110611e7657611e76612ac8565b9050602002016020810190611e8b9190612644565b888361221c565b80838381518110611ea557611ea5612ac8565b602002602001018181525050866001600160a01b0316898984818110611ecd57611ecd612ac8565b9050602002016020810190611ee29190612644565b6001600160a01b03165f516020612c605f395f51905f5283604051611f0991815260200190565b60405180910390a35b50600101611dc1565b50846001600160a01b03167f50c5a87e9ad9d7e473abd7dc54c7e75ef949fb7812f33c3ac0ba64121021da79888884604051611f5993929190612b76565b60405180910390a250505050505050565b323014801590611f8557506001546001600160a01b03163314155b8015611f9a5750600154600160a81b900460ff165b15611fb7576040516282b42960e81b815260040160405180910390fd5b600154600160a81b900460ff1615611fe15760405162dc149f60e41b815260040160405180910390fd5b6001600160a01b0384166120085760405163d92e233d60e01b815260040160405180910390fd5b5f80546001600160a01b03199081166001600160a01b038781169182178455600180546003805490951687841617909455600160a81b9188166001600160a81b03199094168417600160a01b881515021760ff60a81b1916919091179055604051919290917f3cd5ec01b1ae7cfec6ca1863e2cd6aa25d6d1702825803ff2b7cc95010fffdc29190a350505050565b604080516001600160a01b0385811660248301528481166044830152606480830185905283518084039091018152608490920183526020820180516001600160e01b03166323b872dd60e01b17905291515f928716916120f691612c15565b5f604051808303815f865af19150503d805f811461212f576040519150601f19603f3d011682016040523d82523d5f602084013e612134565b606091505b505090508061221557604080516001600160a01b0386811660248301528581166044830152606482018590526001608483015260a060a48301525f60c4808401919091528351808403909101815260e490920183526020820180516001600160e01b0316637921219560e11b1790529151918716916121b39190612c15565b5f604051808303815f865af19150503d805f81146121ec576040519150601f19603f3d011682016040523d82523d5f602084013e6121f1565b606091505b505080915050806122155760405163022e258160e11b815260040160405180910390fd5b5050505050565b604080516001600160a01b038481166024830152604480830185905283518084039091018152606490920183526020820180516001600160e01b031663a9059cbb60e01b17905291515f928392908716916122779190612c15565b5f604051808303815f865af19150503d805f81146122b0576040519150601f19603f3d011682016040523d82523d5f602084013e6122b5565b606091505b50915091508115806122e357505f81511180156122e35750808060200190518101906122e19190612c2b565b155b156122155760405163022e258160e11b815260040160405180910390fd5b5f5f7f8b320d3f82cb30ceac499bfb603ebdd270ad1f5e27a1cbe7a0dc0bdcadb6c38a5f1b87878787604051612338929190612b1e565b6040519081900381206123799493929188906020019485526001600160a01b0393909316602085015260408401919091526060830152608082015260a00190565b60405160208183030381529060405280519060200120905061246f604080518082018252601481527322a4a81b9b981920baba37a337b93bb0b93232b960611b6020918201528151808301835260018152603160f81b9082015281517f8b73c3c69bb8fe3d512ecc4cf759cc79239f7b179b0ffacaa9a75d522b39400f818301527f7ef4872878b04ee4262301fdfc75f3b60aa572501746f630bab1db203d799002818401527fc89efdaa54c0f20c7adf612882df0950f5a951637e0307cdcb4c672f298b8bc660608201524660808201523060a0808301919091528351808303909101815260c0909101909252815191012090565b60405161190160f01b60208201526022810191909152604281018290526062016040516020818303038152906040528051906020012091505095945050505050565b5f81516041146124d457604051638baa579f60e01b815260040160405180910390fd5b6020820151604083015160608401515f1a601b8110156124fc576124f9601b82612c46565b90505b8060ff16601b1415801561251457508060ff16601c14155b1561253257604051638baa579f60e01b815260040160405180910390fd5b7f7fffffffffffffffffffffffffffffff5d576e7357a4501ddfe92f46681b20a082111561257357604051638baa579f60e01b815260040160405180910390fd5b604080515f8082526020820180845289905260ff841692820192909252606081018590526080810184905260019060a0016020604051602081039080840390855afa1580156125c4573d5f5f3e3d5ffd5b5050604051601f1901519150506001600160a01b0381166125f857604051638baa579f60e01b815260040160405180910390fd5b9695505050505050565b634e487b7160e01b5f52601160045260245ffd5b81810381811115610ca657610ca6612602565b80356001600160a01b038116811461263f575f5ffd5b919050565b5f60208284031215612654575f5ffd5b61265d82612629565b9392505050565b5f5f5f60608486031215612676575f5ffd5b61267f84612629565b92506020840135915061269460408501612629565b90509250925092565b80151581146126aa575f5ffd5b50565b5f5f5f606084860312156126bf575f5ffd5b6126c884612629565b92506126d660208501612629565b915060408401356126e68161269d565b809150509250925092565b5f5f83601f840112612701575f5ffd5b5081356001600160401b03811115612717575f5ffd5b6020830191508360208260051b8501011115612731575f5ffd5b9250929050565b5f5f5f5f5f5f6060878903121561274d575f5ffd5b86356001600160401b03811115612762575f5ffd5b61276e89828a016126f1565b90975095505060208701356001600160401b0381111561278c575f5ffd5b61279889828a016126f1565b90955093505060408701356001600160401b038111156127b6575f5ffd5b6127c289828a016126f1565b979a9699509497509295939492505050565b5f5f604083850312156127e5575f5ffd5b6127ee83612629565b91506127fc60208401612629565b90509250929050565b5f5f83601f840112612815575f5ffd5b5081356001600160401b0381111561282b575f5ffd5b602083019150836020828501011115612731575f5ffd5b5f5f5f5f60608587031215612855575f5ffd5b61285e85612629565b93506020850135925060408501356001600160401b0381111561287f575f5ffd5b61288b87828801612805565b95989497509550505050565b5f602082840312156128a7575f5ffd5b813561265d8161269d565b5f5f602083850312156128c3575f5ffd5b82356001600160401b038111156128d8575f5ffd5b6128e4858286016126f1565b90969095509350505050565b5f5f5f5f5f5f60808789031215612905575f5ffd5b61290e87612629565b95506020870135945060408701356001600160401b0381111561292f575f5ffd5b61293b89828a01612805565b90955093505060608701356001600160401b03811115612959575f5ffd5b6127c289828a01612805565b602081525f82518060208401528060208501604085015e5f604082850101526040601f19601f83011684010191505092915050565b5f5f5f5f5f606086880312156129ae575f5ffd5b85356001600160401b038111156129c3575f5ffd5b6129cf888289016126f1565b90965094505060208601356001600160401b038111156129ed575f5ffd5b6129f9888289016126f1565b9094509250612a0c905060408701612629565b90509295509295909350565b5f5f5f60408486031215612a2a575f5ffd5b83356001600160401b03811115612a3f575f5ffd5b612a4b868287016126f1565b9094509250612694905060208501612629565b5f5f5f5f60808587031215612a71575f5ffd5b612a7a85612629565b9350612a8860208601612629565b92506040850135612a988161269d565b9150612aa660608601612629565b905092959194509250565b5f60208284031215612ac1575f5ffd5b5051919050565b634e487b7160e01b5f52603260045260245ffd5b5f5f8335601e19843603018112612af1575f5ffd5b8301803591506001600160401b03821115612b0a575f5ffd5b602001915036819003821315612731575f5ffd5b818382375f9101908152919050565b83815260406020820152816040820152818360608301375f818301606090810191909152601f909201601f1916010192915050565b634e487b7160e01b5f52604160045260245ffd5b604080825281018390525f8460608301825b86811015612bb6576001600160a01b03612ba184612629565b16825260209283019290910190600101612b88565b50838103602080860191909152855180835291810192508501905f5b81811015612bf0578251845260209384019390920191600101612bd2565b5091979650505050505050565b5f60018201612c0e57612c0e612602565b5060010190565b5f82518060208501845e5f920191825250919050565b5f60208284031215612c3b575f5ffd5b815161265d8161269d565b60ff8181168382160190811115610ca657610ca661260256fe115d7b5114b5954762cc233b141a7c777a8f79d93f50af7216d645c87fb4883e8f77097880cbeed821b47f9836e06b28a74d72de99667426584d993fe4f56e80a2646970667358221220f1f982ec7fe6bc571e5e9c7f5859a268d5598ba3510d96949bb5900c7ccd36c764736f6c634300081b0033","opcodes":"PUSH1 0x80 PUSH1 0x40 MSTORE CALLVALUE DUP1 ISZERO PUSH1 0xE JUMPI PUSH0 PUSH0 REVERT JUMPDEST POP PUSH2 0x2CD5 DUP1 PUSH2 0x1C PUSH0 CODECOPY PUSH0 RETURN INVALID PUSH1 0x80 PUSH1 0x40 MSTORE PUSH1 0x4 CALLDATASIZE LT PUSH2 0x1D0 JUMPI PUSH0 CALLDATALOAD PUSH1 0xE0 SHR DUP1 PUSH4 0x6D3E4481 GT PUSH2 0xF6 JUMPI DUP1 PUSH4 0xAFFED0E0 GT PUSH2 0x94 JUMPI DUP1 PUSH4 0xC3F909D4 GT PUSH2 0x63 JUMPI DUP1 PUSH4 0xC3F909D4 EQ PUSH2 0x66B JUMPI DUP1 PUSH4 0xC6F942A7 EQ PUSH2 0x6CD JUMPI DUP1 PUSH4 0xEF44DE42 EQ PUSH2 0x6EC JUMPI DUP1 PUSH4 0xFB162E03 EQ PUSH2 0x70B JUMPI PUSH2 0x2EB JUMP JUMPDEST DUP1 PUSH4 0xAFFED0E0 EQ PUSH2 0x60F JUMPI DUP1 PUSH4 0xB425EF83 EQ PUSH2 0x624 JUMPI DUP1 PUSH4 0xB61D27F6 EQ PUSH2 0x638 JUMPI DUP1 PUSH4 0xBD7084B2 EQ PUSH2 0x657 JUMPI PUSH2 0x2EB JUMP JUMPDEST DUP1 PUSH4 0x76405B93 GT PUSH2 0xD0 JUMPI DUP1 PUSH4 0x76405B93 EQ PUSH2 0x587 JUMPI DUP1 PUSH4 0x909B19D9 EQ PUSH2 0x5A6 JUMPI DUP1 PUSH4 0x9463F7A6 EQ PUSH2 0x5C5 JUMPI DUP1 PUSH4 0xA94CC1A0 EQ PUSH2 0x5F1 JUMPI PUSH2 0x2EB JUMP JUMPDEST DUP1 PUSH4 0x6D3E4481 EQ PUSH2 0x535 JUMPI DUP1 PUSH4 0x6EDFCD23 EQ PUSH2 0x549 JUMPI DUP1 PUSH4 0x75E68502 EQ PUSH2 0x568 JUMPI PUSH2 0x2EB JUMP JUMPDEST DUP1 PUSH4 0x37A9BA94 GT PUSH2 0x16E JUMPI DUP1 PUSH4 0x537244C6 GT PUSH2 0x13D JUMPI DUP1 PUSH4 0x537244C6 EQ PUSH2 0x4A1 JUMPI DUP1 PUSH4 0x682458BD EQ PUSH2 0x4C0 JUMPI DUP1 PUSH4 0x6BAA9575 EQ PUSH2 0x4DF JUMPI DUP1 PUSH4 0x6BCF9C42 EQ PUSH2 0x516 JUMPI PUSH2 0x2EB JUMP JUMPDEST DUP1 PUSH4 0x37A9BA94 EQ PUSH2 0x425 JUMPI DUP1 PUSH4 0x3AECD0E3 EQ PUSH2 0x444 JUMPI DUP1 PUSH4 0x47D5E3AE EQ PUSH2 0x463 JUMPI DUP1 PUSH4 0x47E1DA2A EQ PUSH2 0x482 JUMPI PUSH2 0x2EB JUMP JUMPDEST DUP1 PUSH4 0x158EF93E GT PUSH2 0x1AA JUMPI DUP1 PUSH4 0x158EF93E EQ PUSH2 0x397 JUMPI DUP1 PUSH4 0x1BE19560 EQ PUSH2 0x3C7 JUMPI DUP1 PUSH4 0x214FF459 EQ PUSH2 0x3E6 JUMPI DUP1 PUSH4 0x32737034 EQ PUSH2 0x405 JUMPI PUSH2 0x2EB JUMP JUMPDEST DUP1 PUSH4 0x56F1CD8 EQ PUSH2 0x338 JUMPI DUP1 PUSH4 0x653C1C1 EQ PUSH2 0x357 JUMPI DUP1 PUSH4 0x12065FE0 EQ PUSH2 0x376 JUMPI PUSH2 0x2EB JUMP JUMPDEST CALLDATASIZE PUSH2 0x2EB JUMPI PUSH1 0x1 SLOAD PUSH1 0x1 PUSH1 0xA0 SHL SWAP1 DIV PUSH1 0xFF AND DUP1 ISZERO PUSH2 0x1F7 JUMPI POP PUSH0 SLOAD PUSH1 0x1 PUSH1 0x1 PUSH1 0xA0 SHL SUB AND ISZERO ISZERO JUMPDEST DUP1 ISZERO PUSH2 0x202 JUMPI POP PUSH0 CALLVALUE GT JUMPDEST ISZERO PUSH2 0x2B3 JUMPI PUSH0 DUP1 SLOAD PUSH1 0x1 PUSH1 0x1 PUSH1 0xA0 SHL SUB AND CALLVALUE PUSH2 0x1388 GAS PUSH2 0x222 SWAP2 SWAP1 PUSH2 0x2616 JUMP JUMPDEST PUSH1 0x40 MLOAD SWAP1 SWAP2 SWAP1 PUSH0 DUP2 DUP2 DUP2 DUP6 DUP9 DUP9 CALL SWAP4 POP POP POP POP RETURNDATASIZE DUP1 PUSH0 DUP2 EQ PUSH2 0x25F JUMPI PUSH1 0x40 MLOAD SWAP2 POP PUSH1 0x1F NOT PUSH1 0x3F RETURNDATASIZE ADD AND DUP3 ADD PUSH1 0x40 MSTORE RETURNDATASIZE DUP3 MSTORE RETURNDATASIZE PUSH0 PUSH1 0x20 DUP5 ADD RETURNDATACOPY PUSH2 0x264 JUMP JUMPDEST PUSH1 0x60 SWAP2 POP JUMPDEST POP POP SWAP1 POP DUP1 ISZERO PUSH2 0x2B3 JUMPI PUSH0 SLOAD PUSH1 0x40 MLOAD CALLVALUE DUP2 MSTORE PUSH1 0x1 PUSH1 0x1 PUSH1 0xA0 SHL SUB SWAP1 SWAP2 AND SWAP1 CALLER SWAP1 PUSH32 0xBA3E71C2881EFE881D169A722215AE66587E85BF64BCC507F2904A7345AFEBA0 SWAP1 PUSH1 0x20 ADD PUSH1 0x40 MLOAD DUP1 SWAP2 SUB SWAP1 LOG3 STOP JUMPDEST PUSH1 0x40 MLOAD CALLVALUE DUP2 MSTORE CALLER SWAP1 PUSH32 0xBFE611B001DFCD411432F7BF0D79B82B4B2EE81511EDAC123A3403C357FB972A SWAP1 PUSH1 0x20 ADD PUSH1 0x40 MLOAD DUP1 SWAP2 SUB SWAP1 LOG2 JUMPDEST STOP JUMPDEST PUSH1 0x1 SLOAD PUSH1 0x1 PUSH1 0xA0 SHL SWAP1 DIV PUSH1 0xFF AND DUP1 ISZERO PUSH2 0x30D JUMPI POP PUSH0 SLOAD PUSH1 0x1 PUSH1 0x1 PUSH1 0xA0 SHL SUB AND ISZERO ISZERO JUMPDEST DUP1 ISZERO PUSH2 0x318 JUMPI POP PUSH0 CALLVALUE GT JUMPDEST ISZERO PUSH2 0x2E9 JUMPI PUSH0 DUP1 SLOAD PUSH1 0x1 PUSH1 0x1 PUSH1 0xA0 SHL SUB AND CALLVALUE PUSH2 0x1388 GAS PUSH2 0x222 SWAP2 SWAP1 PUSH2 0x2616 JUMP JUMPDEST CALLVALUE DUP1 ISZERO PUSH2 0x343 JUMPI PUSH0 PUSH0 REVERT JUMPDEST POP PUSH2 0x2E9 PUSH2 0x352 CALLDATASIZE PUSH1 0x4 PUSH2 0x2644 JUMP JUMPDEST PUSH2 0x72A JUMP JUMPDEST CALLVALUE DUP1 ISZERO PUSH2 0x362 JUMPI PUSH0 PUSH0 REVERT JUMPDEST POP PUSH2 0x2E9 PUSH2 0x371 CALLDATASIZE PUSH1 0x4 PUSH2 0x2664 JUMP JUMPDEST PUSH2 0x799 JUMP JUMPDEST CALLVALUE DUP1 ISZERO PUSH2 0x381 JUMPI PUSH0 PUSH0 REVERT JUMPDEST POP SELFBALANCE JUMPDEST PUSH1 0x40 MLOAD SWAP1 DUP2 MSTORE PUSH1 0x20 ADD JUMPDEST PUSH1 0x40 MLOAD DUP1 SWAP2 SUB SWAP1 RETURN JUMPDEST CALLVALUE DUP1 ISZERO PUSH2 0x3A2 JUMPI PUSH0 PUSH0 REVERT JUMPDEST POP PUSH1 0x1 SLOAD PUSH2 0x3B7 SWAP1 PUSH1 0x1 PUSH1 0xA8 SHL SWAP1 DIV PUSH1 0xFF AND DUP2 JUMP JUMPDEST PUSH1 0x40 MLOAD SWAP1 ISZERO ISZERO DUP2 MSTORE PUSH1 0x20 ADD PUSH2 0x38E JUMP JUMPDEST CALLVALUE DUP1 ISZERO PUSH2 0x3D2 JUMPI PUSH0 PUSH0 REVERT JUMPDEST POP PUSH2 0x2E9 PUSH2 0x3E1 CALLDATASIZE PUSH1 0x4 PUSH2 0x2644 JUMP JUMPDEST PUSH2 0x88F JUMP JUMPDEST CALLVALUE DUP1 ISZERO PUSH2 0x3F1 JUMPI PUSH0 PUSH0 REVERT JUMPDEST POP PUSH2 0x2E9 PUSH2 0x400 CALLDATASIZE PUSH1 0x4 PUSH2 0x2644 JUMP JUMPDEST PUSH2 0x9FF JUMP JUMPDEST CALLVALUE DUP1 ISZERO PUSH2 0x410 JUMPI PUSH0 PUSH0 REVERT JUMPDEST POP PUSH1 0x1 SLOAD PUSH2 0x3B7 SWAP1 PUSH1 0x1 PUSH1 0xA0 SHL SWAP1 DIV PUSH1 0xFF AND DUP2 JUMP JUMPDEST CALLVALUE DUP1 ISZERO PUSH2 0x430 JUMPI PUSH0 PUSH0 REVERT JUMPDEST POP PUSH2 0x2E9 PUSH2 0x43F CALLDATASIZE PUSH1 0x4 PUSH2 0x26AD JUMP JUMPDEST PUSH2 0xB14 JUMP JUMPDEST CALLVALUE DUP1 ISZERO PUSH2 0x44F JUMPI PUSH0 PUSH0 REVERT JUMPDEST POP PUSH2 0x384 PUSH2 0x45E CALLDATASIZE PUSH1 0x4 PUSH2 0x2644 JUMP JUMPDEST PUSH2 0xC3E JUMP JUMPDEST CALLVALUE DUP1 ISZERO PUSH2 0x46E JUMPI PUSH0 PUSH0 REVERT JUMPDEST POP PUSH2 0x2E9 PUSH2 0x47D CALLDATASIZE PUSH1 0x4 PUSH2 0x2644 JUMP JUMPDEST PUSH2 0xCAC JUMP JUMPDEST CALLVALUE DUP1 ISZERO PUSH2 0x48D JUMPI PUSH0 PUSH0 REVERT JUMPDEST POP PUSH2 0x2E9 PUSH2 0x49C CALLDATASIZE PUSH1 0x4 PUSH2 0x2738 JUMP JUMPDEST PUSH2 0xD8A JUMP JUMPDEST CALLVALUE DUP1 ISZERO PUSH2 0x4AC JUMPI PUSH0 PUSH0 REVERT JUMPDEST POP PUSH2 0x2E9 PUSH2 0x4BB CALLDATASIZE PUSH1 0x4 PUSH2 0x2644 JUMP JUMPDEST PUSH2 0xFA5 JUMP JUMPDEST CALLVALUE DUP1 ISZERO PUSH2 0x4CB JUMPI PUSH0 PUSH0 REVERT JUMPDEST POP PUSH2 0x2E9 PUSH2 0x4DA CALLDATASIZE PUSH1 0x4 PUSH2 0x27D4 JUMP JUMPDEST PUSH2 0x106C JUMP JUMPDEST CALLVALUE DUP1 ISZERO PUSH2 0x4EA JUMPI PUSH0 PUSH0 REVERT JUMPDEST POP PUSH1 0x3 SLOAD PUSH2 0x4FE SWAP1 PUSH1 0x1 PUSH1 0x1 PUSH1 0xA0 SHL SUB AND DUP2 JUMP JUMPDEST PUSH1 0x40 MLOAD PUSH1 0x1 PUSH1 0x1 PUSH1 0xA0 SHL SUB SWAP1 SWAP2 AND DUP2 MSTORE PUSH1 0x20 ADD PUSH2 0x38E JUMP JUMPDEST CALLVALUE DUP1 ISZERO PUSH2 0x521 JUMPI PUSH0 PUSH0 REVERT JUMPDEST POP PUSH2 0x384 PUSH2 0x530 CALLDATASIZE PUSH1 0x4 PUSH2 0x2842 JUMP JUMPDEST PUSH2 0x1198 JUMP JUMPDEST CALLVALUE DUP1 ISZERO PUSH2 0x540 JUMPI PUSH0 PUSH0 REVERT JUMPDEST POP PUSH2 0x2E9 PUSH2 0x11B1 JUMP JUMPDEST CALLVALUE DUP1 ISZERO PUSH2 0x554 JUMPI PUSH0 PUSH0 REVERT JUMPDEST POP PUSH1 0x1 SLOAD PUSH2 0x4FE SWAP1 PUSH1 0x1 PUSH1 0x1 PUSH1 0xA0 SHL SUB AND DUP2 JUMP JUMPDEST CALLVALUE DUP1 ISZERO PUSH2 0x573 JUMPI PUSH0 PUSH0 REVERT JUMPDEST POP PUSH2 0x2E9 PUSH2 0x582 CALLDATASIZE PUSH1 0x4 PUSH2 0x27D4 JUMP JUMPDEST PUSH2 0x1307 JUMP JUMPDEST CALLVALUE DUP1 ISZERO PUSH2 0x592 JUMPI PUSH0 PUSH0 REVERT JUMPDEST POP PUSH2 0x2E9 PUSH2 0x5A1 CALLDATASIZE PUSH1 0x4 PUSH2 0x2897 JUMP JUMPDEST PUSH2 0x1463 JUMP JUMPDEST CALLVALUE DUP1 ISZERO PUSH2 0x5B1 JUMPI PUSH0 PUSH0 REVERT JUMPDEST POP PUSH2 0x2E9 PUSH2 0x5C0 CALLDATASIZE PUSH1 0x4 PUSH2 0x28B2 JUMP JUMPDEST PUSH2 0x1509 JUMP JUMPDEST CALLVALUE DUP1 ISZERO PUSH2 0x5D0 JUMPI PUSH0 PUSH0 REVERT JUMPDEST POP PUSH2 0x5E4 PUSH2 0x5DF CALLDATASIZE PUSH1 0x4 PUSH2 0x28F0 JUMP JUMPDEST PUSH2 0x179D JUMP JUMPDEST PUSH1 0x40 MLOAD PUSH2 0x38E SWAP2 SWAP1 PUSH2 0x2965 JUMP JUMPDEST CALLVALUE DUP1 ISZERO PUSH2 0x5FC JUMPI PUSH0 PUSH0 REVERT JUMPDEST POP PUSH0 SLOAD PUSH2 0x4FE SWAP1 PUSH1 0x1 PUSH1 0x1 PUSH1 0xA0 SHL SUB AND DUP2 JUMP JUMPDEST CALLVALUE DUP1 ISZERO PUSH2 0x61A JUMPI PUSH0 PUSH0 REVERT JUMPDEST POP PUSH2 0x384 PUSH1 0x2 SLOAD DUP2 JUMP JUMPDEST CALLVALUE DUP1 ISZERO PUSH2 0x62F JUMPI PUSH0 PUSH0 REVERT JUMPDEST POP PUSH2 0x2E9 PUSH2 0x1901 JUMP JUMPDEST CALLVALUE DUP1 ISZERO PUSH2 0x643 JUMPI PUSH0 PUSH0 REVERT JUMPDEST POP PUSH2 0x5E4 PUSH2 0x652 CALLDATASIZE PUSH1 0x4 PUSH2 0x2842 JUMP JUMPDEST PUSH2 0x1A1E JUMP JUMPDEST CALLVALUE DUP1 ISZERO PUSH2 0x662 JUMPI PUSH0 PUSH0 REVERT JUMPDEST POP PUSH1 0x2 SLOAD PUSH2 0x384 JUMP JUMPDEST CALLVALUE DUP1 ISZERO PUSH2 0x676 JUMPI PUSH0 PUSH0 REVERT JUMPDEST POP PUSH0 SLOAD PUSH1 0x1 SLOAD PUSH1 0x3 SLOAD PUSH1 0x40 DUP1 MLOAD PUSH1 0x1 PUSH1 0x1 PUSH1 0xA0 SHL SUB SWAP5 DUP6 AND DUP2 MSTORE DUP5 DUP5 AND PUSH1 0x20 DUP3 ADD MSTORE PUSH1 0xFF PUSH1 0x1 PUSH1 0xA0 SHL DUP6 DIV DUP2 AND ISZERO ISZERO SWAP3 DUP3 ADD SWAP3 SWAP1 SWAP3 MSTORE PUSH1 0x1 PUSH1 0xA8 SHL SWAP1 SWAP4 DIV AND ISZERO ISZERO PUSH1 0x60 DUP4 ADD MSTORE SWAP2 SWAP1 SWAP2 AND PUSH1 0x80 DUP3 ADD MSTORE PUSH1 0xA0 ADD PUSH2 0x38E JUMP JUMPDEST CALLVALUE DUP1 ISZERO PUSH2 0x6D8 JUMPI PUSH0 PUSH0 REVERT JUMPDEST POP PUSH2 0x2E9 PUSH2 0x6E7 CALLDATASIZE PUSH1 0x4 PUSH2 0x299A JUMP JUMPDEST PUSH2 0x1B3B JUMP JUMPDEST CALLVALUE DUP1 ISZERO PUSH2 0x6F7 JUMPI PUSH0 PUSH0 REVERT JUMPDEST POP PUSH2 0x2E9 PUSH2 0x706 CALLDATASIZE PUSH1 0x4 PUSH2 0x2A18 JUMP JUMPDEST PUSH2 0x1CE5 JUMP JUMPDEST CALLVALUE DUP1 ISZERO PUSH2 0x716 JUMPI PUSH0 PUSH0 REVERT JUMPDEST POP PUSH2 0x2E9 PUSH2 0x725 CALLDATASIZE PUSH1 0x4 PUSH2 0x2A5E JUMP JUMPDEST PUSH2 0x1F6A JUMP JUMPDEST ORIGIN ADDRESS EQ DUP1 ISZERO SWAP1 PUSH2 0x745 JUMPI POP PUSH1 0x1 SLOAD PUSH1 0x1 PUSH1 0x1 PUSH1 0xA0 SHL SUB AND CALLER EQ ISZERO JUMPDEST DUP1 ISZERO PUSH2 0x75A JUMPI POP PUSH1 0x1 SLOAD PUSH1 0x1 PUSH1 0xA8 SHL SWAP1 DIV PUSH1 0xFF AND JUMPDEST ISZERO PUSH2 0x777 JUMPI PUSH1 0x40 MLOAD PUSH3 0x82B429 PUSH1 0xE8 SHL DUP2 MSTORE PUSH1 0x4 ADD PUSH1 0x40 MLOAD DUP1 SWAP2 SUB SWAP1 REVERT JUMPDEST PUSH1 0x3 DUP1 SLOAD PUSH1 0x1 PUSH1 0x1 PUSH1 0xA0 SHL SUB NOT AND PUSH1 0x1 PUSH1 0x1 PUSH1 0xA0 SHL SUB SWAP3 SWAP1 SWAP3 AND SWAP2 SWAP1 SWAP2 OR SWAP1 SSTORE JUMP JUMPDEST PUSH1 0x1 SLOAD ORIGIN ADDRESS EQ SWAP1 PUSH0 SWAP1 PUSH1 0x1 PUSH1 0x1 PUSH1 0xA0 SHL SUB AND ISZERO DUP1 ISZERO SWAP1 PUSH2 0x7C3 JUMPI POP PUSH1 0x1 SLOAD PUSH1 0x1 PUSH1 0x1 PUSH1 0xA0 SHL SUB AND CALLER EQ JUMPDEST PUSH1 0x1 SLOAD SWAP1 SWAP2 POP PUSH1 0x1 PUSH1 0xA8 SHL SWAP1 DIV PUSH1 0xFF AND ISZERO DUP3 ISZERO DUP1 ISZERO PUSH2 0x7E0 JUMPI POP DUP2 ISZERO JUMPDEST DUP1 ISZERO PUSH2 0x7EA JUMPI POP DUP1 ISZERO JUMPDEST ISZERO PUSH2 0x807 JUMPI PUSH1 0x40 MLOAD PUSH3 0x82B429 PUSH1 0xE8 SHL DUP2 MSTORE PUSH1 0x4 ADD PUSH1 0x40 MLOAD DUP1 SWAP2 SUB SWAP1 REVERT JUMPDEST PUSH1 0x1 PUSH1 0x1 PUSH1 0xA0 SHL SUB DUP5 AND PUSH2 0x82E JUMPI PUSH1 0x40 MLOAD PUSH4 0xD92E233D PUSH1 0xE0 SHL DUP2 MSTORE PUSH1 0x4 ADD PUSH1 0x40 MLOAD DUP1 SWAP2 SUB SWAP1 REVERT JUMPDEST PUSH2 0x83A DUP7 ADDRESS DUP7 DUP9 PUSH2 0x2097 JUMP JUMPDEST DUP4 PUSH1 0x1 PUSH1 0x1 PUSH1 0xA0 SHL SUB AND DUP7 PUSH1 0x1 PUSH1 0x1 PUSH1 0xA0 SHL SUB AND PUSH32 0x51D4CF4C19827B6923C5D15F7CF655A230C8028E5C53636BC58801B47B81314D DUP8 PUSH1 0x40 MLOAD PUSH2 0x87F SWAP2 DUP2 MSTORE PUSH1 0x20 ADD SWAP1 JUMP JUMPDEST PUSH1 0x40 MLOAD DUP1 SWAP2 SUB SWAP1 LOG3 POP POP POP POP POP POP JUMP JUMPDEST PUSH1 0x1 SLOAD ORIGIN ADDRESS EQ SWAP1 PUSH0 SWAP1 PUSH1 0x1 PUSH1 0x1 PUSH1 0xA0 SHL SUB AND ISZERO DUP1 ISZERO SWAP1 PUSH2 0x8B9 JUMPI POP PUSH1 0x1 SLOAD PUSH1 0x1 PUSH1 0x1 PUSH1 0xA0 SHL SUB AND CALLER EQ JUMPDEST PUSH1 0x1 SLOAD SWAP1 SWAP2 POP PUSH1 0x1 PUSH1 0xA8 SHL SWAP1 DIV PUSH1 0xFF AND ISZERO DUP3 ISZERO DUP1 ISZERO PUSH2 0x8D6 JUMPI POP DUP2 ISZERO JUMPDEST DUP1 ISZERO PUSH2 0x8E0 JUMPI POP DUP1 ISZERO JUMPDEST ISZERO PUSH2 0x8FD JUMPI PUSH1 0x40 MLOAD PUSH3 0x82B429 PUSH1 0xE8 SHL DUP2 MSTORE PUSH1 0x4 ADD PUSH1 0x40 MLOAD DUP1 SWAP2 SUB SWAP1 REVERT JUMPDEST PUSH0 SLOAD PUSH1 0x1 PUSH1 0x1 PUSH1 0xA0 SHL SUB AND PUSH2 0x925 JUMPI PUSH1 0x40 MLOAD PUSH4 0xD92E233D PUSH1 0xE0 SHL DUP2 MSTORE PUSH1 0x4 ADD PUSH1 0x40 MLOAD DUP1 SWAP2 SUB SWAP1 REVERT JUMPDEST PUSH1 0x40 MLOAD PUSH4 0x70A08231 PUSH1 0xE0 SHL DUP2 MSTORE ADDRESS PUSH1 0x4 DUP3 ADD MSTORE PUSH0 SWAP1 PUSH1 0x1 PUSH1 0x1 PUSH1 0xA0 SHL SUB DUP7 AND SWAP1 PUSH4 0x70A08231 SWAP1 PUSH1 0x24 ADD PUSH1 0x20 PUSH1 0x40 MLOAD DUP1 DUP4 SUB DUP2 DUP7 GAS STATICCALL ISZERO DUP1 ISZERO PUSH2 0x969 JUMPI RETURNDATASIZE PUSH0 PUSH0 RETURNDATACOPY RETURNDATASIZE PUSH0 REVERT JUMPDEST POP POP POP POP PUSH1 0x40 MLOAD RETURNDATASIZE PUSH1 0x1F NOT PUSH1 0x1F DUP3 ADD AND DUP3 ADD DUP1 PUSH1 0x40 MSTORE POP DUP2 ADD SWAP1 PUSH2 0x98D SWAP2 SWAP1 PUSH2 0x2AB1 JUMP JUMPDEST SWAP1 POP DUP1 PUSH0 SUB PUSH2 0x9AF JUMPI PUSH1 0x40 MLOAD PUSH4 0x3DBD9B6D PUSH1 0xE1 SHL DUP2 MSTORE PUSH1 0x4 ADD PUSH1 0x40 MLOAD DUP1 SWAP2 SUB SWAP1 REVERT JUMPDEST PUSH0 SLOAD PUSH2 0x9C6 SWAP1 DUP7 SWAP1 PUSH1 0x1 PUSH1 0x1 PUSH1 0xA0 SHL SUB AND DUP4 PUSH2 0x221C JUMP JUMPDEST PUSH0 SLOAD PUSH1 0x40 MLOAD DUP3 DUP2 MSTORE PUSH1 0x1 PUSH1 0x1 PUSH1 0xA0 SHL SUB SWAP2 DUP3 AND SWAP2 DUP8 AND SWAP1 PUSH0 MLOAD PUSH1 0x20 PUSH2 0x2C60 PUSH0 CODECOPY PUSH0 MLOAD SWAP1 PUSH0 MSTORE SWAP1 PUSH1 0x20 ADD JUMPDEST PUSH1 0x40 MLOAD DUP1 SWAP2 SUB SWAP1 LOG3 POP POP POP POP POP JUMP JUMPDEST PUSH1 0x3 SLOAD PUSH1 0x1 PUSH1 0x1 PUSH1 0xA0 SHL SUB AND CALLER EQ PUSH2 0xA2A JUMPI PUSH1 0x40 MLOAD PUSH4 0x167DDACD PUSH1 0xE0 SHL DUP2 MSTORE PUSH1 0x4 ADD PUSH1 0x40 MLOAD DUP1 SWAP2 SUB SWAP1 REVERT JUMPDEST PUSH1 0x1 PUSH1 0x1 PUSH1 0xA0 SHL SUB DUP2 AND PUSH2 0xA51 JUMPI PUSH1 0x40 MLOAD PUSH4 0xD92E233D PUSH1 0xE0 SHL DUP2 MSTORE PUSH1 0x4 ADD PUSH1 0x40 MLOAD DUP1 SWAP2 SUB SWAP1 REVERT JUMPDEST SELFBALANCE PUSH0 DUP2 SWAP1 SUB PUSH2 0xA5E JUMPI POP POP JUMP JUMPDEST PUSH0 DUP3 PUSH1 0x1 PUSH1 0x1 PUSH1 0xA0 SHL SUB AND DUP3 PUSH1 0x40 MLOAD PUSH0 PUSH1 0x40 MLOAD DUP1 DUP4 SUB DUP2 DUP6 DUP8 GAS CALL SWAP3 POP POP POP RETURNDATASIZE DUP1 PUSH0 DUP2 EQ PUSH2 0xAA7 JUMPI PUSH1 0x40 MLOAD SWAP2 POP PUSH1 0x1F NOT PUSH1 0x3F RETURNDATASIZE ADD AND DUP3 ADD PUSH1 0x40 MSTORE RETURNDATASIZE DUP3 MSTORE RETURNDATASIZE PUSH0 PUSH1 0x20 DUP5 ADD RETURNDATACOPY PUSH2 0xAAC JUMP JUMPDEST PUSH1 0x60 SWAP2 POP JUMPDEST POP POP SWAP1 POP DUP1 PUSH2 0xACE JUMPI PUSH1 0x40 MLOAD PUSH4 0x96DC0E1 PUSH1 0xE0 SHL DUP2 MSTORE PUSH1 0x4 ADD PUSH1 0x40 MLOAD DUP1 SWAP2 SUB SWAP1 REVERT JUMPDEST PUSH1 0x40 MLOAD DUP3 DUP2 MSTORE PUSH1 0x1 PUSH1 0x1 PUSH1 0xA0 SHL SUB DUP5 AND SWAP1 PUSH0 SWAP1 PUSH32 0xF24EF89F38EADC1BDE50701AD6E4D6D11A2DC24F7CF834A486991F3883328504 SWAP1 PUSH1 0x20 ADD JUMPDEST PUSH1 0x40 MLOAD DUP1 SWAP2 SUB SWAP1 LOG3 POP POP POP JUMP JUMPDEST ORIGIN ADDRESS EQ DUP1 ISZERO SWAP1 PUSH2 0xB2F JUMPI POP PUSH1 0x1 SLOAD PUSH1 0x1 PUSH1 0x1 PUSH1 0xA0 SHL SUB AND CALLER EQ ISZERO JUMPDEST DUP1 ISZERO PUSH2 0xB44 JUMPI POP PUSH1 0x1 SLOAD PUSH1 0x1 PUSH1 0xA8 SHL SWAP1 DIV PUSH1 0xFF AND JUMPDEST ISZERO PUSH2 0xB61 JUMPI PUSH1 0x40 MLOAD PUSH3 0x82B429 PUSH1 0xE8 SHL DUP2 MSTORE PUSH1 0x4 ADD PUSH1 0x40 MLOAD DUP1 SWAP2 SUB SWAP1 REVERT JUMPDEST PUSH1 0x1 PUSH1 0x1 PUSH1 0xA0 SHL SUB DUP4 AND PUSH2 0xB88 JUMPI PUSH1 0x40 MLOAD PUSH4 0xD92E233D PUSH1 0xE0 SHL DUP2 MSTORE PUSH1 0x4 ADD PUSH1 0x40 MLOAD DUP1 SWAP2 SUB SWAP1 REVERT JUMPDEST PUSH0 DUP1 SLOAD PUSH1 0x1 PUSH1 0x1 PUSH1 0xA0 SHL SUB NOT AND PUSH1 0x1 PUSH1 0x1 PUSH1 0xA0 SHL SUB DUP6 DUP2 AND SWAP2 SWAP1 SWAP2 OR SWAP1 SWAP2 SSTORE PUSH1 0x1 SLOAD DUP4 DUP3 AND SWAP2 AND EQ PUSH2 0xBEE JUMPI PUSH1 0x1 SLOAD PUSH1 0x40 MLOAD PUSH1 0x1 PUSH1 0x1 PUSH1 0xA0 SHL SUB DUP1 DUP6 AND SWAP3 AND SWAP1 PUSH32 0xFA6EC75EA93C24C10FAB111D73EC7A0CF41D3E5DF7D5CF4BA01E8F21B5CBAE3E SWAP1 PUSH0 SWAP1 LOG3 JUMPDEST PUSH1 0x1 DUP1 SLOAD DUP3 ISZERO ISZERO PUSH1 0x1 PUSH1 0xA0 SHL DUP2 MUL PUSH1 0x1 PUSH1 0x1 PUSH1 0xA8 SHL SUB NOT SWAP1 SWAP3 AND PUSH1 0x1 PUSH1 0x1 PUSH1 0xA0 SHL SUB DUP7 DUP2 AND SWAP2 DUP3 OR SWAP4 SWAP1 SWAP4 OR SWAP1 SWAP4 SSTORE PUSH1 0x40 MLOAD SWAP1 DUP2 MSTORE SWAP1 DUP6 AND SWAP1 PUSH0 MLOAD PUSH1 0x20 PUSH2 0x2C80 PUSH0 CODECOPY PUSH0 MLOAD SWAP1 PUSH0 MSTORE SWAP1 PUSH1 0x20 ADD PUSH2 0xB07 JUMP JUMPDEST PUSH1 0x40 MLOAD PUSH4 0x70A08231 PUSH1 0xE0 SHL DUP2 MSTORE ADDRESS PUSH1 0x4 DUP3 ADD MSTORE PUSH0 SWAP1 PUSH1 0x1 PUSH1 0x1 PUSH1 0xA0 SHL SUB DUP4 AND SWAP1 PUSH4 0x70A08231 SWAP1 PUSH1 0x24 ADD PUSH1 0x20 PUSH1 0x40 MLOAD DUP1 DUP4 SUB DUP2 DUP7 GAS STATICCALL ISZERO DUP1 ISZERO PUSH2 0xC82 JUMPI RETURNDATASIZE PUSH0 PUSH0 RETURNDATACOPY RETURNDATASIZE PUSH0 REVERT JUMPDEST POP POP POP POP PUSH1 0x40 MLOAD RETURNDATASIZE PUSH1 0x1F NOT PUSH1 0x1F DUP3 ADD AND DUP3 ADD DUP1 PUSH1 0x40 MSTORE POP DUP2 ADD SWAP1 PUSH2 0xCA6 SWAP2 SWAP1 PUSH2 0x2AB1 JUMP JUMPDEST SWAP3 SWAP2 POP POP JUMP JUMPDEST ORIGIN ADDRESS EQ DUP1 ISZERO SWAP1 PUSH2 0xCC7 JUMPI POP PUSH1 0x1 SLOAD PUSH1 0x1 PUSH1 0x1 PUSH1 0xA0 SHL SUB AND CALLER EQ ISZERO JUMPDEST DUP1 ISZERO PUSH2 0xCDC JUMPI POP PUSH1 0x1 SLOAD PUSH1 0x1 PUSH1 0xA8 SHL SWAP1 DIV PUSH1 0xFF AND JUMPDEST ISZERO PUSH2 0xCF9 JUMPI PUSH1 0x40 MLOAD PUSH3 0x82B429 PUSH1 0xE8 SHL DUP2 MSTORE PUSH1 0x4 ADD PUSH1 0x40 MLOAD DUP1 SWAP2 SUB SWAP1 REVERT JUMPDEST PUSH1 0x1 DUP1 SLOAD PUSH1 0x1 PUSH1 0x1 PUSH1 0xA0 SHL SUB DUP4 DUP2 AND PUSH1 0x1 PUSH1 0x1 PUSH1 0xA0 SHL SUB NOT DUP4 AND DUP2 OR SWAP1 SWAP4 SSTORE PUSH1 0x40 MLOAD SWAP2 AND SWAP2 SWAP1 DUP3 SWAP1 PUSH32 0xFA6EC75EA93C24C10FAB111D73EC7A0CF41D3E5DF7D5CF4BA01E8F21B5CBAE3E SWAP1 PUSH0 SWAP1 LOG3 PUSH1 0x1 SLOAD PUSH0 SLOAD PUSH1 0x40 MLOAD PUSH1 0x1 PUSH1 0xA0 SHL DUP4 DIV PUSH1 0xFF AND ISZERO ISZERO DUP2 MSTORE PUSH1 0x1 PUSH1 0x1 PUSH1 0xA0 SHL SUB SWAP3 DUP4 AND SWAP3 SWAP1 SWAP2 AND SWAP1 PUSH0 MLOAD PUSH1 0x20 PUSH2 0x2C80 PUSH0 CODECOPY PUSH0 MLOAD SWAP1 PUSH0 MSTORE SWAP1 PUSH1 0x20 ADD PUSH1 0x40 MLOAD DUP1 SWAP2 SUB SWAP1 LOG3 POP POP JUMP JUMPDEST ORIGIN ADDRESS EQ DUP1 ISZERO SWAP1 PUSH2 0xDA5 JUMPI POP PUSH1 0x1 SLOAD PUSH1 0x1 PUSH1 0x1 PUSH1 0xA0 SHL SUB AND CALLER EQ ISZERO JUMPDEST DUP1 ISZERO PUSH2 0xDBA JUMPI POP PUSH1 0x1 SLOAD PUSH1 0x1 PUSH1 0xA8 SHL SWAP1 DIV PUSH1 0xFF AND JUMPDEST ISZERO PUSH2 0xDD7 JUMPI PUSH1 0x40 MLOAD PUSH3 0x82B429 PUSH1 0xE8 SHL DUP2 MSTORE PUSH1 0x4 ADD PUSH1 0x40 MLOAD DUP1 SWAP2 SUB SWAP1 REVERT JUMPDEST DUP5 DUP4 EQ ISZERO DUP1 PUSH2 0xDE6 JUMPI POP DUP3 DUP2 EQ ISZERO JUMPDEST ISZERO PUSH2 0xE07 JUMPI PUSH1 0x40 MLOAD PUSH1 0x1 PUSH3 0x1398B9 PUSH1 0xE3 SHL SUB NOT DUP2 MSTORE PUSH1 0x4 ADD PUSH1 0x40 MLOAD DUP1 SWAP2 SUB SWAP1 REVERT JUMPDEST PUSH0 JUMPDEST DUP6 DUP2 LT ISZERO PUSH2 0xF9C JUMPI PUSH0 DUP8 DUP8 DUP4 DUP2 DUP2 LT PUSH2 0xE24 JUMPI PUSH2 0xE24 PUSH2 0x2AC8 JUMP JUMPDEST SWAP1 POP PUSH1 0x20 MUL ADD PUSH1 0x20 DUP2 ADD SWAP1 PUSH2 0xE39 SWAP2 SWAP1 PUSH2 0x2644 JUMP JUMPDEST PUSH1 0x1 PUSH1 0x1 PUSH1 0xA0 SHL SUB AND DUP7 DUP7 DUP5 DUP2 DUP2 LT PUSH2 0xE54 JUMPI PUSH2 0xE54 PUSH2 0x2AC8 JUMP JUMPDEST SWAP1 POP PUSH1 0x20 MUL ADD CALLDATALOAD DUP6 DUP6 DUP6 DUP2 DUP2 LT PUSH2 0xE6D JUMPI PUSH2 0xE6D PUSH2 0x2AC8 JUMP JUMPDEST SWAP1 POP PUSH1 0x20 MUL DUP2 ADD SWAP1 PUSH2 0xE7F SWAP2 SWAP1 PUSH2 0x2ADC JUMP JUMPDEST PUSH1 0x40 MLOAD PUSH2 0xE8D SWAP3 SWAP2 SWAP1 PUSH2 0x2B1E JUMP JUMPDEST PUSH0 PUSH1 0x40 MLOAD DUP1 DUP4 SUB DUP2 DUP6 DUP8 GAS CALL SWAP3 POP POP POP RETURNDATASIZE DUP1 PUSH0 DUP2 EQ PUSH2 0xEC7 JUMPI PUSH1 0x40 MLOAD SWAP2 POP PUSH1 0x1F NOT PUSH1 0x3F RETURNDATASIZE ADD AND DUP3 ADD PUSH1 0x40 MSTORE RETURNDATASIZE DUP3 MSTORE RETURNDATASIZE PUSH0 PUSH1 0x20 DUP5 ADD RETURNDATACOPY PUSH2 0xECC JUMP JUMPDEST PUSH1 0x60 SWAP2 POP JUMPDEST POP POP SWAP1 POP DUP1 PUSH2 0xEEE JUMPI PUSH1 0x40 MLOAD PUSH4 0x2B3F6D11 PUSH1 0xE2 SHL DUP2 MSTORE PUSH1 0x4 ADD PUSH1 0x40 MLOAD DUP1 SWAP2 SUB SWAP1 REVERT JUMPDEST DUP8 DUP8 DUP4 DUP2 DUP2 LT PUSH2 0xF00 JUMPI PUSH2 0xF00 PUSH2 0x2AC8 JUMP JUMPDEST SWAP1 POP PUSH1 0x20 MUL ADD PUSH1 0x20 DUP2 ADD SWAP1 PUSH2 0xF15 SWAP2 SWAP1 PUSH2 0x2644 JUMP JUMPDEST PUSH1 0x1 PUSH1 0x1 PUSH1 0xA0 SHL SUB AND PUSH32 0xCAF938DE11C367272220BFD1D2BAA99CA46665E7BC4D85F00ADB51B90FE1FA9F DUP8 DUP8 DUP6 DUP2 DUP2 LT PUSH2 0xF51 JUMPI PUSH2 0xF51 PUSH2 0x2AC8 JUMP JUMPDEST SWAP1 POP PUSH1 0x20 MUL ADD CALLDATALOAD DUP7 DUP7 DUP7 DUP2 DUP2 LT PUSH2 0xF6A JUMPI PUSH2 0xF6A PUSH2 0x2AC8 JUMP JUMPDEST SWAP1 POP PUSH1 0x20 MUL DUP2 ADD SWAP1 PUSH2 0xF7C SWAP2 SWAP1 PUSH2 0x2ADC JUMP JUMPDEST PUSH1 0x40 MLOAD PUSH2 0xF8B SWAP4 SWAP3 SWAP2 SWAP1 PUSH2 0x2B2D JUMP JUMPDEST PUSH1 0x40 MLOAD DUP1 SWAP2 SUB SWAP1 LOG2 POP PUSH1 0x1 ADD PUSH2 0xE09 JUMP JUMPDEST POP POP POP POP POP POP POP JUMP JUMPDEST ORIGIN ADDRESS EQ DUP1 ISZERO SWAP1 PUSH2 0xFC0 JUMPI POP PUSH1 0x1 SLOAD PUSH1 0x1 PUSH1 0x1 PUSH1 0xA0 SHL SUB AND CALLER EQ ISZERO JUMPDEST DUP1 ISZERO PUSH2 0xFD5 JUMPI POP PUSH1 0x1 SLOAD PUSH1 0x1 PUSH1 0xA8 SHL SWAP1 DIV PUSH1 0xFF AND JUMPDEST ISZERO PUSH2 0xFF2 JUMPI PUSH1 0x40 MLOAD PUSH3 0x82B429 PUSH1 0xE8 SHL DUP2 MSTORE PUSH1 0x4 ADD PUSH1 0x40 MLOAD DUP1 SWAP2 SUB SWAP1 REVERT JUMPDEST PUSH1 0x1 PUSH1 0x1 PUSH1 0xA0 SHL SUB DUP2 AND PUSH2 0x1019 JUMPI PUSH1 0x40 MLOAD PUSH4 0xD92E233D PUSH1 0xE0 SHL DUP2 MSTORE PUSH1 0x4 ADD PUSH1 0x40 MLOAD DUP1 SWAP2 SUB SWAP1 REVERT JUMPDEST PUSH0 DUP1 SLOAD PUSH1 0x1 PUSH1 0x1 PUSH1 0xA0 SHL SUB NOT AND PUSH1 0x1 PUSH1 0x1 PUSH1 0xA0 SHL SUB DUP4 DUP2 AND SWAP2 DUP3 OR SWAP1 SWAP3 SSTORE PUSH1 0x1 SLOAD PUSH1 0x40 MLOAD PUSH1 0x1 PUSH1 0xA0 SHL DUP3 DIV PUSH1 0xFF AND ISZERO ISZERO DUP2 MSTORE SWAP3 AND SWAP2 PUSH0 MLOAD PUSH1 0x20 PUSH2 0x2C80 PUSH0 CODECOPY PUSH0 MLOAD SWAP1 PUSH0 MSTORE SWAP1 PUSH1 0x20 ADD JUMPDEST PUSH1 0x40 MLOAD DUP1 SWAP2 SUB SWAP1 LOG3 POP JUMP JUMPDEST PUSH1 0x3 SLOAD PUSH1 0x1 PUSH1 0x1 PUSH1 0xA0 SHL SUB AND CALLER EQ PUSH2 0x1097 JUMPI PUSH1 0x40 MLOAD PUSH4 0x167DDACD PUSH1 0xE0 SHL DUP2 MSTORE PUSH1 0x4 ADD PUSH1 0x40 MLOAD DUP1 SWAP2 SUB SWAP1 REVERT JUMPDEST PUSH1 0x1 PUSH1 0x1 PUSH1 0xA0 SHL SUB DUP2 AND PUSH2 0x10BE JUMPI PUSH1 0x40 MLOAD PUSH4 0xD92E233D PUSH1 0xE0 SHL DUP2 MSTORE PUSH1 0x4 ADD PUSH1 0x40 MLOAD DUP1 SWAP2 SUB SWAP1 REVERT JUMPDEST PUSH1 0x40 MLOAD PUSH4 0x70A08231 PUSH1 0xE0 SHL DUP2 MSTORE ADDRESS PUSH1 0x4 DUP3 ADD MSTORE PUSH0 SWAP1 PUSH1 0x1 PUSH1 0x1 PUSH1 0xA0 SHL SUB DUP5 AND SWAP1 PUSH4 0x70A08231 SWAP1 PUSH1 0x24 ADD PUSH1 0x20 PUSH1 0x40 MLOAD DUP1 DUP4 SUB DUP2 DUP7 GAS STATICCALL ISZERO DUP1 ISZERO PUSH2 0x1102 JUMPI RETURNDATASIZE PUSH0 PUSH0 RETURNDATACOPY RETURNDATASIZE PUSH0 REVERT JUMPDEST POP POP POP POP PUSH1 0x40 MLOAD RETURNDATASIZE PUSH1 0x1F NOT PUSH1 0x1F DUP3 ADD AND DUP3 ADD DUP1 PUSH1 0x40 MSTORE POP DUP2 ADD SWAP1 PUSH2 0x1126 SWAP2 SWAP1 PUSH2 0x2AB1 JUMP JUMPDEST SWAP1 POP DUP1 PUSH0 SUB PUSH2 0x1148 JUMPI PUSH1 0x40 MLOAD PUSH4 0x3DBD9B6D PUSH1 0xE1 SHL DUP2 MSTORE PUSH1 0x4 ADD PUSH1 0x40 MLOAD DUP1 SWAP2 SUB SWAP1 REVERT JUMPDEST PUSH2 0x1153 DUP4 DUP4 DUP4 PUSH2 0x221C JUMP JUMPDEST DUP2 PUSH1 0x1 PUSH1 0x1 PUSH1 0xA0 SHL SUB AND DUP4 PUSH1 0x1 PUSH1 0x1 PUSH1 0xA0 SHL SUB AND PUSH32 0xF24EF89F38EADC1BDE50701AD6E4D6D11A2DC24F7CF834A486991F3883328504 DUP4 PUSH1 0x40 MLOAD PUSH2 0xB07 SWAP2 DUP2 MSTORE PUSH1 0x20 ADD SWAP1 JUMP JUMPDEST PUSH0 PUSH2 0x11A8 DUP6 DUP6 DUP6 DUP6 PUSH1 0x2 SLOAD PUSH2 0x2301 JUMP JUMPDEST SWAP6 SWAP5 POP POP POP POP POP JUMP JUMPDEST PUSH1 0x1 SLOAD ORIGIN ADDRESS EQ SWAP1 PUSH0 SWAP1 PUSH1 0x1 PUSH1 0x1 PUSH1 0xA0 SHL SUB AND ISZERO DUP1 ISZERO SWAP1 PUSH2 0x11DB JUMPI POP PUSH1 0x1 SLOAD PUSH1 0x1 PUSH1 0x1 PUSH1 0xA0 SHL SUB AND CALLER EQ JUMPDEST PUSH1 0x1 SLOAD SWAP1 SWAP2 POP PUSH1 0x1 PUSH1 0xA8 SHL SWAP1 DIV PUSH1 0xFF AND ISZERO DUP3 ISZERO DUP1 ISZERO PUSH2 0x11F8 JUMPI POP DUP2 ISZERO JUMPDEST DUP1 ISZERO PUSH2 0x1202 JUMPI POP DUP1 ISZERO JUMPDEST ISZERO PUSH2 0x121F JUMPI PUSH1 0x40 MLOAD PUSH3 0x82B429 PUSH1 0xE8 SHL DUP2 MSTORE PUSH1 0x4 ADD PUSH1 0x40 MLOAD DUP1 SWAP2 SUB SWAP1 REVERT JUMPDEST PUSH0 SLOAD PUSH1 0x1 PUSH1 0x1 PUSH1 0xA0 SHL SUB AND PUSH2 0x1247 JUMPI PUSH1 0x40 MLOAD PUSH4 0xD92E233D PUSH1 0xE0 SHL DUP2 MSTORE PUSH1 0x4 ADD PUSH1 0x40 MLOAD DUP1 SWAP2 SUB SWAP1 REVERT JUMPDEST SELFBALANCE PUSH0 DUP2 SWAP1 SUB PUSH2 0x1256 JUMPI POP POP POP POP JUMP JUMPDEST PUSH0 DUP1 SLOAD PUSH1 0x40 MLOAD PUSH1 0x1 PUSH1 0x1 PUSH1 0xA0 SHL SUB SWAP1 SWAP2 AND SWAP1 DUP4 SWAP1 DUP4 DUP2 DUP2 DUP2 DUP6 DUP8 GAS CALL SWAP3 POP POP POP RETURNDATASIZE DUP1 PUSH0 DUP2 EQ PUSH2 0x12A0 JUMPI PUSH1 0x40 MLOAD SWAP2 POP PUSH1 0x1F NOT PUSH1 0x3F RETURNDATASIZE ADD AND DUP3 ADD PUSH1 0x40 MSTORE RETURNDATASIZE DUP3 MSTORE RETURNDATASIZE PUSH0 PUSH1 0x20 DUP5 ADD RETURNDATACOPY PUSH2 0x12A5 JUMP JUMPDEST PUSH1 0x60 SWAP2 POP JUMPDEST POP POP SWAP1 POP DUP1 PUSH2 0x12C7 JUMPI PUSH1 0x40 MLOAD PUSH4 0x96DC0E1 PUSH1 0xE0 SHL DUP2 MSTORE PUSH1 0x4 ADD PUSH1 0x40 MLOAD DUP1 SWAP2 SUB SWAP1 REVERT JUMPDEST PUSH0 SLOAD PUSH1 0x40 MLOAD DUP4 DUP2 MSTORE PUSH1 0x1 PUSH1 0x1 PUSH1 0xA0 SHL SUB SWAP1 SWAP2 AND SWAP1 ADDRESS SWAP1 PUSH32 0xBA3E71C2881EFE881D169A722215AE66587E85BF64BCC507F2904A7345AFEBA0 SWAP1 PUSH1 0x20 ADD PUSH2 0x9F0 JUMP JUMPDEST PUSH1 0x1 SLOAD ORIGIN ADDRESS EQ SWAP1 PUSH0 SWAP1 PUSH1 0x1 PUSH1 0x1 PUSH1 0xA0 SHL SUB AND ISZERO DUP1 ISZERO SWAP1 PUSH2 0x1331 JUMPI POP PUSH1 0x1 SLOAD PUSH1 0x1 PUSH1 0x1 PUSH1 0xA0 SHL SUB AND CALLER EQ JUMPDEST PUSH1 0x1 SLOAD SWAP1 SWAP2 POP PUSH1 0x1 PUSH1 0xA8 SHL SWAP1 DIV PUSH1 0xFF AND ISZERO DUP3 ISZERO DUP1 ISZERO PUSH2 0x134E JUMPI POP DUP2 ISZERO JUMPDEST DUP1 ISZERO PUSH2 0x1358 JUMPI POP DUP1 ISZERO JUMPDEST ISZERO PUSH2 0x1375 JUMPI PUSH1 0x40 MLOAD PUSH3 0x82B429 PUSH1 0xE8 SHL DUP2 MSTORE PUSH1 0x4 ADD PUSH1 0x40 MLOAD DUP1 SWAP2 SUB SWAP1 REVERT JUMPDEST PUSH1 0x1 PUSH1 0x1 PUSH1 0xA0 SHL SUB DUP5 AND PUSH2 0x139C JUMPI PUSH1 0x40 MLOAD PUSH4 0xD92E233D PUSH1 0xE0 SHL DUP2 MSTORE PUSH1 0x4 ADD PUSH1 0x40 MLOAD DUP1 SWAP2 SUB SWAP1 REVERT JUMPDEST PUSH1 0x40 MLOAD PUSH4 0x70A08231 PUSH1 0xE0 SHL DUP2 MSTORE ADDRESS PUSH1 0x4 DUP3 ADD MSTORE PUSH0 SWAP1 PUSH1 0x1 PUSH1 0x1 PUSH1 0xA0 SHL SUB DUP8 AND SWAP1 PUSH4 0x70A08231 SWAP1 PUSH1 0x24 ADD PUSH1 0x20 PUSH1 0x40 MLOAD DUP1 DUP4 SUB DUP2 DUP7 GAS STATICCALL ISZERO DUP1 ISZERO PUSH2 0x13E0 JUMPI RETURNDATASIZE PUSH0 PUSH0 RETURNDATACOPY RETURNDATASIZE PUSH0 REVERT JUMPDEST POP POP POP POP PUSH1 0x40 MLOAD RETURNDATASIZE PUSH1 0x1F NOT PUSH1 0x1F DUP3 ADD AND DUP3 ADD DUP1 PUSH1 0x40 MSTORE POP DUP2 ADD SWAP1 PUSH2 0x1404 SWAP2 SWAP1 PUSH2 0x2AB1 JUMP JUMPDEST SWAP1 POP DUP1 PUSH0 SUB PUSH2 0x1426 JUMPI PUSH1 0x40 MLOAD PUSH4 0x3DBD9B6D PUSH1 0xE1 SHL DUP2 MSTORE PUSH1 0x4 ADD PUSH1 0x40 MLOAD DUP1 SWAP2 SUB SWAP1 REVERT JUMPDEST PUSH2 0x1431 DUP7 DUP7 DUP4 PUSH2 0x221C JUMP JUMPDEST DUP5 PUSH1 0x1 PUSH1 0x1 PUSH1 0xA0 SHL SUB AND DUP7 PUSH1 0x1 PUSH1 0x1 PUSH1 0xA0 SHL SUB AND PUSH0 MLOAD PUSH1 0x20 PUSH2 0x2C60 PUSH0 CODECOPY PUSH0 MLOAD SWAP1 PUSH0 MSTORE DUP4 PUSH1 0x40 MLOAD PUSH2 0x87F SWAP2 DUP2 MSTORE PUSH1 0x20 ADD SWAP1 JUMP JUMPDEST ORIGIN ADDRESS EQ DUP1 ISZERO SWAP1 PUSH2 0x147E JUMPI POP PUSH1 0x1 SLOAD PUSH1 0x1 PUSH1 0x1 PUSH1 0xA0 SHL SUB AND CALLER EQ ISZERO JUMPDEST DUP1 ISZERO PUSH2 0x1493 JUMPI POP PUSH1 0x1 SLOAD PUSH1 0x1 PUSH1 0xA8 SHL SWAP1 DIV PUSH1 0xFF AND JUMPDEST ISZERO PUSH2 0x14B0 JUMPI PUSH1 0x40 MLOAD PUSH3 0x82B429 PUSH1 0xE8 SHL DUP2 MSTORE PUSH1 0x4 ADD PUSH1 0x40 MLOAD DUP1 SWAP2 SUB SWAP1 REVERT JUMPDEST PUSH1 0x1 DUP1 SLOAD DUP3 ISZERO ISZERO PUSH1 0x1 PUSH1 0xA0 SHL SWAP1 DUP2 MUL PUSH1 0xFF PUSH1 0xA0 SHL NOT DUP4 AND DUP2 OR SWAP4 DUP5 SWAP1 SSTORE PUSH0 SLOAD PUSH1 0x40 MLOAD PUSH1 0x1 PUSH1 0x1 PUSH1 0xA0 SHL SUB SWAP3 DUP4 AND SWAP5 DUP4 AND SWAP5 SWAP1 SWAP5 OR SWAP5 SWAP2 AND SWAP3 PUSH0 MLOAD PUSH1 0x20 PUSH2 0x2C80 PUSH0 CODECOPY PUSH0 MLOAD SWAP1 PUSH0 MSTORE SWAP3 PUSH2 0x1061 SWAP3 DIV PUSH1 0xFF AND ISZERO ISZERO DUP2 MSTORE PUSH1 0x20 ADD SWAP1 JUMP JUMPDEST PUSH1 0x1 SLOAD ORIGIN ADDRESS EQ SWAP1 PUSH0 SWAP1 PUSH1 0x1 PUSH1 0x1 PUSH1 0xA0 SHL SUB AND ISZERO DUP1 ISZERO SWAP1 PUSH2 0x1533 JUMPI POP PUSH1 0x1 SLOAD PUSH1 0x1 PUSH1 0x1 PUSH1 0xA0 SHL SUB AND CALLER EQ JUMPDEST PUSH1 0x1 SLOAD SWAP1 SWAP2 POP PUSH1 0x1 PUSH1 0xA8 SHL SWAP1 DIV PUSH1 0xFF AND ISZERO DUP3 ISZERO DUP1 ISZERO PUSH2 0x1550 JUMPI POP DUP2 ISZERO JUMPDEST DUP1 ISZERO PUSH2 0x155A JUMPI POP DUP1 ISZERO JUMPDEST ISZERO PUSH2 0x1577 JUMPI PUSH1 0x40 MLOAD PUSH3 0x82B429 PUSH1 0xE8 SHL DUP2 MSTORE PUSH1 0x4 ADD PUSH1 0x40 MLOAD DUP1 SWAP2 SUB SWAP1 REVERT JUMPDEST PUSH0 SLOAD PUSH1 0x1 PUSH1 0x1 PUSH1 0xA0 SHL SUB AND PUSH2 0x159F JUMPI PUSH1 0x40 MLOAD PUSH4 0xD92E233D PUSH1 0xE0 SHL DUP2 MSTORE PUSH1 0x4 ADD PUSH1 0x40 MLOAD DUP1 SWAP2 SUB SWAP1 REVERT JUMPDEST PUSH0 DUP5 PUSH1 0x1 PUSH1 0x1 PUSH1 0x40 SHL SUB DUP2 GT ISZERO PUSH2 0x15B8 JUMPI PUSH2 0x15B8 PUSH2 0x2B62 JUMP JUMPDEST PUSH1 0x40 MLOAD SWAP1 DUP1 DUP3 MSTORE DUP1 PUSH1 0x20 MUL PUSH1 0x20 ADD DUP3 ADD PUSH1 0x40 MSTORE DUP1 ISZERO PUSH2 0x15E1 JUMPI DUP2 PUSH1 0x20 ADD PUSH1 0x20 DUP3 MUL DUP1 CALLDATASIZE DUP4 CALLDATACOPY ADD SWAP1 POP JUMPDEST POP SWAP1 POP PUSH0 JUMPDEST DUP6 DUP2 LT ISZERO PUSH2 0x174A JUMPI PUSH0 DUP8 DUP8 DUP4 DUP2 DUP2 LT PUSH2 0x1601 JUMPI PUSH2 0x1601 PUSH2 0x2AC8 JUMP JUMPDEST SWAP1 POP PUSH1 0x20 MUL ADD PUSH1 0x20 DUP2 ADD SWAP1 PUSH2 0x1616 SWAP2 SWAP1 PUSH2 0x2644 JUMP JUMPDEST PUSH1 0x40 MLOAD PUSH4 0x70A08231 PUSH1 0xE0 SHL DUP2 MSTORE ADDRESS PUSH1 0x4 DUP3 ADD MSTORE PUSH1 0x1 PUSH1 0x1 PUSH1 0xA0 SHL SUB SWAP2 SWAP1 SWAP2 AND SWAP1 PUSH4 0x70A08231 SWAP1 PUSH1 0x24 ADD PUSH1 0x20 PUSH1 0x40 MLOAD DUP1 DUP4 SUB DUP2 DUP7 GAS STATICCALL ISZERO DUP1 ISZERO PUSH2 0x165A JUMPI RETURNDATASIZE PUSH0 PUSH0 RETURNDATACOPY RETURNDATASIZE PUSH0 REVERT JUMPDEST POP POP POP POP PUSH1 0x40 MLOAD RETURNDATASIZE PUSH1 0x1F NOT PUSH1 0x1F DUP3 ADD AND DUP3 ADD DUP1 PUSH1 0x40 MSTORE POP DUP2 ADD SWAP1 PUSH2 0x167E SWAP2 SWAP1 PUSH2 0x2AB1 JUMP JUMPDEST SWAP1 POP DUP1 ISZERO PUSH2 0x1741 JUMPI PUSH2 0x16C1 DUP9 DUP9 DUP5 DUP2 DUP2 LT PUSH2 0x169B JUMPI PUSH2 0x169B PUSH2 0x2AC8 JUMP JUMPDEST SWAP1 POP PUSH1 0x20 MUL ADD PUSH1 0x20 DUP2 ADD SWAP1 PUSH2 0x16B0 SWAP2 SWAP1 PUSH2 0x2644 JUMP JUMPDEST PUSH0 SLOAD PUSH1 0x1 PUSH1 0x1 PUSH1 0xA0 SHL SUB AND DUP4 PUSH2 0x221C JUMP JUMPDEST DUP1 DUP4 DUP4 DUP2 MLOAD DUP2 LT PUSH2 0x16D4 JUMPI PUSH2 0x16D4 PUSH2 0x2AC8 JUMP JUMPDEST PUSH1 0x20 SWAP1 DUP2 MUL SWAP2 SWAP1 SWAP2 ADD ADD MSTORE PUSH0 SLOAD PUSH1 0x1 PUSH1 0x1 PUSH1 0xA0 SHL SUB AND DUP9 DUP9 DUP5 DUP2 DUP2 LT PUSH2 0x16FC JUMPI PUSH2 0x16FC PUSH2 0x2AC8 JUMP JUMPDEST SWAP1 POP PUSH1 0x20 MUL ADD PUSH1 0x20 DUP2 ADD SWAP1 PUSH2 0x1711 SWAP2 SWAP1 PUSH2 0x2644 JUMP JUMPDEST PUSH1 0x1 PUSH1 0x1 PUSH1 0xA0 SHL SUB AND PUSH0 MLOAD PUSH1 0x20 PUSH2 0x2C60 PUSH0 CODECOPY PUSH0 MLOAD SWAP1 PUSH0 MSTORE DUP4 PUSH1 0x40 MLOAD PUSH2 0x1738 SWAP2 DUP2 MSTORE PUSH1 0x20 ADD SWAP1 JUMP JUMPDEST PUSH1 0x40 MLOAD DUP1 SWAP2 SUB SWAP1 LOG3 JUMPDEST POP PUSH1 0x1 ADD PUSH2 0x15E6 JUMP JUMPDEST POP PUSH0 SLOAD PUSH1 0x40 MLOAD PUSH1 0x1 PUSH1 0x1 PUSH1 0xA0 SHL SUB SWAP1 SWAP2 AND SWAP1 PUSH32 0x50C5A87E9AD9D7E473ABD7DC54C7E75EF949FB7812F33C3AC0BA64121021DA79 SWAP1 PUSH2 0x178D SWAP1 DUP10 SWAP1 DUP10 SWAP1 DUP7 SWAP1 PUSH2 0x2B76 JUMP JUMPDEST PUSH1 0x40 MLOAD DUP1 SWAP2 SUB SWAP1 LOG2 POP POP POP POP POP POP JUMP JUMPDEST PUSH1 0x60 PUSH0 PUSH2 0x17AF DUP9 DUP9 DUP9 DUP9 PUSH1 0x2 SLOAD PUSH2 0x2301 JUMP JUMPDEST SWAP1 POP PUSH0 PUSH2 0x17F1 DUP3 DUP7 DUP7 DUP1 DUP1 PUSH1 0x1F ADD PUSH1 0x20 DUP1 SWAP2 DIV MUL PUSH1 0x20 ADD PUSH1 0x40 MLOAD SWAP1 DUP2 ADD PUSH1 0x40 MSTORE DUP1 SWAP4 SWAP3 SWAP2 SWAP1 DUP2 DUP2 MSTORE PUSH1 0x20 ADD DUP4 DUP4 DUP1 DUP3 DUP5 CALLDATACOPY PUSH0 SWAP3 ADD SWAP2 SWAP1 SWAP2 MSTORE POP PUSH2 0x24B1 SWAP3 POP POP POP JUMP JUMPDEST SWAP1 POP PUSH1 0x1 PUSH1 0x1 PUSH1 0xA0 SHL SUB DUP2 AND ADDRESS EQ PUSH2 0x181B JUMPI PUSH1 0x40 MLOAD PUSH3 0x82B429 PUSH1 0xE8 SHL DUP2 MSTORE PUSH1 0x4 ADD PUSH1 0x40 MLOAD DUP1 SWAP2 SUB SWAP1 REVERT JUMPDEST PUSH1 0x2 DUP1 SLOAD SWAP1 PUSH0 PUSH2 0x182A DUP4 PUSH2 0x2BFD JUMP JUMPDEST SWAP2 SWAP1 POP SSTORE POP PUSH0 PUSH0 DUP11 PUSH1 0x1 PUSH1 0x1 PUSH1 0xA0 SHL SUB AND DUP11 DUP11 DUP11 PUSH1 0x40 MLOAD PUSH2 0x184C SWAP3 SWAP2 SWAP1 PUSH2 0x2B1E JUMP JUMPDEST PUSH0 PUSH1 0x40 MLOAD DUP1 DUP4 SUB DUP2 DUP6 DUP8 GAS CALL SWAP3 POP POP POP RETURNDATASIZE DUP1 PUSH0 DUP2 EQ PUSH2 0x1886 JUMPI PUSH1 0x40 MLOAD SWAP2 POP PUSH1 0x1F NOT PUSH1 0x3F RETURNDATASIZE ADD AND DUP3 ADD PUSH1 0x40 MSTORE RETURNDATASIZE DUP3 MSTORE RETURNDATASIZE PUSH0 PUSH1 0x20 DUP5 ADD RETURNDATACOPY PUSH2 0x188B JUMP JUMPDEST PUSH1 0x60 SWAP2 POP JUMPDEST POP SWAP2 POP SWAP2 POP DUP2 PUSH2 0x18AE JUMPI PUSH1 0x40 MLOAD PUSH4 0x2B3F6D11 PUSH1 0xE2 SHL DUP2 MSTORE PUSH1 0x4 ADD PUSH1 0x40 MLOAD DUP1 SWAP2 SUB SWAP1 REVERT JUMPDEST DUP11 PUSH1 0x1 PUSH1 0x1 PUSH1 0xA0 SHL SUB AND PUSH32 0xCAF938DE11C367272220BFD1D2BAA99CA46665E7BC4D85F00ADB51B90FE1FA9F DUP12 DUP12 DUP12 PUSH1 0x40 MLOAD PUSH2 0x18EB SWAP4 SWAP3 SWAP2 SWAP1 PUSH2 0x2B2D JUMP JUMPDEST PUSH1 0x40 MLOAD DUP1 SWAP2 SUB SWAP1 LOG2 SWAP11 SWAP10 POP POP POP POP POP POP POP POP POP POP JUMP JUMPDEST ORIGIN ADDRESS EQ DUP1 ISZERO SWAP1 PUSH2 0x191C JUMPI POP PUSH1 0x1 SLOAD PUSH1 0x1 PUSH1 0x1 PUSH1 0xA0 SHL SUB AND CALLER EQ ISZERO JUMPDEST DUP1 ISZERO PUSH2 0x1931 JUMPI POP PUSH1 0x1 SLOAD PUSH1 0x1 PUSH1 0xA8 SHL SWAP1 DIV PUSH1 0xFF AND JUMPDEST ISZERO PUSH2 0x194E JUMPI PUSH1 0x40 MLOAD PUSH3 0x82B429 PUSH1 0xE8 SHL DUP2 MSTORE PUSH1 0x4 ADD PUSH1 0x40 MLOAD DUP1 SWAP2 SUB SWAP1 REVERT JUMPDEST PUSH0 SLOAD PUSH1 0x1 PUSH1 0x1 PUSH1 0xA0 SHL SUB AND ISZERO DUP1 ISZERO SWAP1 PUSH2 0x1966 JUMPI POP PUSH0 SELFBALANCE GT JUMPDEST ISZERO PUSH2 0x1A1C JUMPI PUSH0 DUP1 SLOAD PUSH1 0x40 MLOAD PUSH1 0x1 PUSH1 0x1 PUSH1 0xA0 SHL SUB SWAP1 SWAP2 AND SWAP1 SELFBALANCE SWAP1 DUP4 DUP2 DUP2 DUP2 DUP6 DUP8 GAS CALL SWAP3 POP POP POP RETURNDATASIZE DUP1 PUSH0 DUP2 EQ PUSH2 0x19B5 JUMPI PUSH1 0x40 MLOAD SWAP2 POP PUSH1 0x1F NOT PUSH1 0x3F RETURNDATASIZE ADD AND DUP3 ADD PUSH1 0x40 MSTORE RETURNDATASIZE DUP3 MSTORE RETURNDATASIZE PUSH0 PUSH1 0x20 DUP5 ADD RETURNDATACOPY PUSH2 0x19BA JUMP JUMPDEST PUSH1 0x60 SWAP2 POP JUMPDEST POP POP SWAP1 POP DUP1 PUSH2 0x19DC JUMPI PUSH1 0x40 MLOAD PUSH4 0x96DC0E1 PUSH1 0xE0 SHL DUP2 MSTORE PUSH1 0x4 ADD PUSH1 0x40 MLOAD DUP1 SWAP2 SUB SWAP1 REVERT JUMPDEST PUSH0 SLOAD PUSH1 0x40 MLOAD SELFBALANCE DUP2 MSTORE PUSH1 0x1 PUSH1 0x1 PUSH1 0xA0 SHL SUB SWAP1 SWAP2 AND SWAP1 ADDRESS SWAP1 PUSH32 0xBA3E71C2881EFE881D169A722215AE66587E85BF64BCC507F2904A7345AFEBA0 SWAP1 PUSH1 0x20 ADD PUSH2 0x1061 JUMP JUMPDEST JUMP JUMPDEST PUSH1 0x60 ORIGIN ADDRESS EQ DUP1 ISZERO SWAP1 PUSH2 0x1A3B JUMPI POP PUSH1 0x1 SLOAD PUSH1 0x1 PUSH1 0x1 PUSH1 0xA0 SHL SUB AND CALLER EQ ISZERO JUMPDEST DUP1 ISZERO PUSH2 0x1A50 JUMPI POP PUSH1 0x1 SLOAD PUSH1 0x1 PUSH1 0xA8 SHL SWAP1 DIV PUSH1 0xFF AND JUMPDEST ISZERO PUSH2 0x1A6D JUMPI PUSH1 0x40 MLOAD PUSH3 0x82B429 PUSH1 0xE8 SHL DUP2 MSTORE PUSH1 0x4 ADD PUSH1 0x40 MLOAD DUP1 SWAP2 SUB SWAP1 REVERT JUMPDEST PUSH0 PUSH0 DUP7 PUSH1 0x1 PUSH1 0x1 PUSH1 0xA0 SHL SUB AND DUP7 DUP7 DUP7 PUSH1 0x40 MLOAD PUSH2 0x1A8A SWAP3 SWAP2 SWAP1 PUSH2 0x2B1E JUMP JUMPDEST PUSH0 PUSH1 0x40 MLOAD DUP1 DUP4 SUB DUP2 DUP6 DUP8 GAS CALL SWAP3 POP POP POP RETURNDATASIZE DUP1 PUSH0 DUP2 EQ PUSH2 0x1AC4 JUMPI PUSH1 0x40 MLOAD SWAP2 POP PUSH1 0x1F NOT PUSH1 0x3F RETURNDATASIZE ADD AND DUP3 ADD PUSH1 0x40 MSTORE RETURNDATASIZE DUP3 MSTORE RETURNDATASIZE PUSH0 PUSH1 0x20 DUP5 ADD RETURNDATACOPY PUSH2 0x1AC9 JUMP JUMPDEST PUSH1 0x60 SWAP2 POP JUMPDEST POP SWAP2 POP SWAP2 POP DUP2 PUSH2 0x1AEC JUMPI PUSH1 0x40 MLOAD PUSH4 0x2B3F6D11 PUSH1 0xE2 SHL DUP2 MSTORE PUSH1 0x4 ADD PUSH1 0x40 MLOAD DUP1 SWAP2 SUB SWAP1 REVERT JUMPDEST DUP7 PUSH1 0x1 PUSH1 0x1 PUSH1 0xA0 SHL SUB AND PUSH32 0xCAF938DE11C367272220BFD1D2BAA99CA46665E7BC4D85F00ADB51B90FE1FA9F DUP8 DUP8 DUP8 PUSH1 0x40 MLOAD PUSH2 0x1B29 SWAP4 SWAP3 SWAP2 SWAP1 PUSH2 0x2B2D JUMP JUMPDEST PUSH1 0x40 MLOAD DUP1 SWAP2 SUB SWAP1 LOG2 SWAP7 SWAP6 POP POP POP POP POP POP JUMP JUMPDEST PUSH1 0x1 SLOAD ORIGIN ADDRESS EQ SWAP1 PUSH0 SWAP1 PUSH1 0x1 PUSH1 0x1 PUSH1 0xA0 SHL SUB AND ISZERO DUP1 ISZERO SWAP1 PUSH2 0x1B65 JUMPI POP PUSH1 0x1 SLOAD PUSH1 0x1 PUSH1 0x1 PUSH1 0xA0 SHL SUB AND CALLER EQ JUMPDEST PUSH1 0x1 SLOAD SWAP1 SWAP2 POP PUSH1 0x1 PUSH1 0xA8 SHL SWAP1 DIV PUSH1 0xFF AND ISZERO DUP3 ISZERO DUP1 ISZERO PUSH2 0x1B82 JUMPI POP DUP2 ISZERO JUMPDEST DUP1 ISZERO PUSH2 0x1B8C JUMPI POP DUP1 ISZERO JUMPDEST ISZERO PUSH2 0x1BA9 JUMPI PUSH1 0x40 MLOAD PUSH3 0x82B429 PUSH1 0xE8 SHL DUP2 MSTORE PUSH1 0x4 ADD PUSH1 0x40 MLOAD DUP1 SWAP2 SUB SWAP1 REVERT JUMPDEST PUSH1 0x1 PUSH1 0x1 PUSH1 0xA0 SHL SUB DUP5 AND PUSH2 0x1BD0 JUMPI PUSH1 0x40 MLOAD PUSH4 0xD92E233D PUSH1 0xE0 SHL DUP2 MSTORE PUSH1 0x4 ADD PUSH1 0x40 MLOAD DUP1 SWAP2 SUB SWAP1 REVERT JUMPDEST DUP7 DUP6 EQ PUSH2 0x1BF3 JUMPI PUSH1 0x40 MLOAD PUSH1 0x1 PUSH3 0x1398B9 PUSH1 0xE3 SHL SUB NOT DUP2 MSTORE PUSH1 0x4 ADD PUSH1 0x40 MLOAD DUP1 SWAP2 SUB SWAP1 REVERT JUMPDEST PUSH0 JUMPDEST DUP8 DUP2 LT ISZERO PUSH2 0x1CDA JUMPI PUSH2 0x1C47 DUP10 DUP10 DUP4 DUP2 DUP2 LT PUSH2 0x1C12 JUMPI PUSH2 0x1C12 PUSH2 0x2AC8 JUMP JUMPDEST SWAP1 POP PUSH1 0x20 MUL ADD PUSH1 0x20 DUP2 ADD SWAP1 PUSH2 0x1C27 SWAP2 SWAP1 PUSH2 0x2644 JUMP JUMPDEST ADDRESS DUP8 DUP11 DUP11 DUP7 DUP2 DUP2 LT PUSH2 0x1C3B JUMPI PUSH2 0x1C3B PUSH2 0x2AC8 JUMP JUMPDEST SWAP1 POP PUSH1 0x20 MUL ADD CALLDATALOAD PUSH2 0x2097 JUMP JUMPDEST DUP5 PUSH1 0x1 PUSH1 0x1 PUSH1 0xA0 SHL SUB AND DUP10 DUP10 DUP4 DUP2 DUP2 LT PUSH2 0x1C63 JUMPI PUSH2 0x1C63 PUSH2 0x2AC8 JUMP JUMPDEST SWAP1 POP PUSH1 0x20 MUL ADD PUSH1 0x20 DUP2 ADD SWAP1 PUSH2 0x1C78 SWAP2 SWAP1 PUSH2 0x2644 JUMP JUMPDEST PUSH1 0x1 PUSH1 0x1 PUSH1 0xA0 SHL SUB AND PUSH32 0x51D4CF4C19827B6923C5D15F7CF655A230C8028E5C53636BC58801B47B81314D DUP10 DUP10 DUP6 DUP2 DUP2 LT PUSH2 0x1CB4 JUMPI PUSH2 0x1CB4 PUSH2 0x2AC8 JUMP JUMPDEST SWAP1 POP PUSH1 0x20 MUL ADD CALLDATALOAD PUSH1 0x40 MLOAD PUSH2 0x1CCA SWAP2 DUP2 MSTORE PUSH1 0x20 ADD SWAP1 JUMP JUMPDEST PUSH1 0x40 MLOAD DUP1 SWAP2 SUB SWAP1 LOG3 PUSH1 0x1 ADD PUSH2 0x1BF5 JUMP JUMPDEST POP POP POP POP POP POP POP POP POP JUMP JUMPDEST PUSH1 0x1 SLOAD ORIGIN ADDRESS EQ SWAP1 PUSH0 SWAP1 PUSH1 0x1 PUSH1 0x1 PUSH1 0xA0 SHL SUB AND ISZERO DUP1 ISZERO SWAP1 PUSH2 0x1D0F JUMPI POP PUSH1 0x1 SLOAD PUSH1 0x1 PUSH1 0x1 PUSH1 0xA0 SHL SUB AND CALLER EQ JUMPDEST PUSH1 0x1 SLOAD SWAP1 SWAP2 POP PUSH1 0x1 PUSH1 0xA8 SHL SWAP1 DIV PUSH1 0xFF AND ISZERO DUP3 ISZERO DUP1 ISZERO PUSH2 0x1D2C JUMPI POP DUP2 ISZERO JUMPDEST DUP1 ISZERO PUSH2 0x1D36 JUMPI POP DUP1 ISZERO JUMPDEST ISZERO PUSH2 0x1D53 JUMPI PUSH1 0x40 MLOAD PUSH3 0x82B429 PUSH1 0xE8 SHL DUP2 MSTORE PUSH1 0x4 ADD PUSH1 0x40 MLOAD DUP1 SWAP2 SUB SWAP1 REVERT JUMPDEST PUSH1 0x1 PUSH1 0x1 PUSH1 0xA0 SHL SUB DUP5 AND PUSH2 0x1D7A JUMPI PUSH1 0x40 MLOAD PUSH4 0xD92E233D PUSH1 0xE0 SHL DUP2 MSTORE PUSH1 0x4 ADD PUSH1 0x40 MLOAD DUP1 SWAP2 SUB SWAP1 REVERT JUMPDEST PUSH0 DUP6 PUSH1 0x1 PUSH1 0x1 PUSH1 0x40 SHL SUB DUP2 GT ISZERO PUSH2 0x1D93 JUMPI PUSH2 0x1D93 PUSH2 0x2B62 JUMP JUMPDEST PUSH1 0x40 MLOAD SWAP1 DUP1 DUP3 MSTORE DUP1 PUSH1 0x20 MUL PUSH1 0x20 ADD DUP3 ADD PUSH1 0x40 MSTORE DUP1 ISZERO PUSH2 0x1DBC JUMPI DUP2 PUSH1 0x20 ADD PUSH1 0x20 DUP3 MUL DUP1 CALLDATASIZE DUP4 CALLDATACOPY ADD SWAP1 POP JUMPDEST POP SWAP1 POP PUSH0 JUMPDEST DUP7 DUP2 LT ISZERO PUSH2 0x1F1B JUMPI PUSH0 DUP9 DUP9 DUP4 DUP2 DUP2 LT PUSH2 0x1DDC JUMPI PUSH2 0x1DDC PUSH2 0x2AC8 JUMP JUMPDEST SWAP1 POP PUSH1 0x20 MUL ADD PUSH1 0x20 DUP2 ADD SWAP1 PUSH2 0x1DF1 SWAP2 SWAP1 PUSH2 0x2644 JUMP JUMPDEST PUSH1 0x40 MLOAD PUSH4 0x70A08231 PUSH1 0xE0 SHL DUP2 MSTORE ADDRESS PUSH1 0x4 DUP3 ADD MSTORE PUSH1 0x1 PUSH1 0x1 PUSH1 0xA0 SHL SUB SWAP2 SWAP1 SWAP2 AND SWAP1 PUSH4 0x70A08231 SWAP1 PUSH1 0x24 ADD PUSH1 0x20 PUSH1 0x40 MLOAD DUP1 DUP4 SUB DUP2 DUP7 GAS STATICCALL ISZERO DUP1 ISZERO PUSH2 0x1E35 JUMPI RETURNDATASIZE PUSH0 PUSH0 RETURNDATACOPY RETURNDATASIZE PUSH0 REVERT JUMPDEST POP POP POP POP PUSH1 0x40 MLOAD RETURNDATASIZE PUSH1 0x1F NOT PUSH1 0x1F DUP3 ADD AND DUP3 ADD DUP1 PUSH1 0x40 MSTORE POP DUP2 ADD SWAP1 PUSH2 0x1E59 SWAP2 SWAP1 PUSH2 0x2AB1 JUMP JUMPDEST SWAP1 POP DUP1 ISZERO PUSH2 0x1F12 JUMPI PUSH2 0x1E92 DUP10 DUP10 DUP5 DUP2 DUP2 LT PUSH2 0x1E76 JUMPI PUSH2 0x1E76 PUSH2 0x2AC8 JUMP JUMPDEST SWAP1 POP PUSH1 0x20 MUL ADD PUSH1 0x20 DUP2 ADD SWAP1 PUSH2 0x1E8B SWAP2 SWAP1 PUSH2 0x2644 JUMP JUMPDEST DUP9 DUP4 PUSH2 0x221C JUMP JUMPDEST DUP1 DUP4 DUP4 DUP2 MLOAD DUP2 LT PUSH2 0x1EA5 JUMPI PUSH2 0x1EA5 PUSH2 0x2AC8 JUMP JUMPDEST PUSH1 0x20 MUL PUSH1 0x20 ADD ADD DUP2 DUP2 MSTORE POP POP DUP7 PUSH1 0x1 PUSH1 0x1 PUSH1 0xA0 SHL SUB AND DUP10 DUP10 DUP5 DUP2 DUP2 LT PUSH2 0x1ECD JUMPI PUSH2 0x1ECD PUSH2 0x2AC8 JUMP JUMPDEST SWAP1 POP PUSH1 0x20 MUL ADD PUSH1 0x20 DUP2 ADD SWAP1 PUSH2 0x1EE2 SWAP2 SWAP1 PUSH2 0x2644 JUMP JUMPDEST PUSH1 0x1 PUSH1 0x1 PUSH1 0xA0 SHL SUB AND PUSH0 MLOAD PUSH1 0x20 PUSH2 0x2C60 PUSH0 CODECOPY PUSH0 MLOAD SWAP1 PUSH0 MSTORE DUP4 PUSH1 0x40 MLOAD PUSH2 0x1F09 SWAP2 DUP2 MSTORE PUSH1 0x20 ADD SWAP1 JUMP JUMPDEST PUSH1 0x40 MLOAD DUP1 SWAP2 SUB SWAP1 LOG3 JUMPDEST POP PUSH1 0x1 ADD PUSH2 0x1DC1 JUMP JUMPDEST POP DUP5 PUSH1 0x1 PUSH1 0x1 PUSH1 0xA0 SHL SUB AND PUSH32 0x50C5A87E9AD9D7E473ABD7DC54C7E75EF949FB7812F33C3AC0BA64121021DA79 DUP9 DUP9 DUP5 PUSH1 0x40 MLOAD PUSH2 0x1F59 SWAP4 SWAP3 SWAP2 SWAP1 PUSH2 0x2B76 JUMP JUMPDEST PUSH1 0x40 MLOAD DUP1 SWAP2 SUB SWAP1 LOG2 POP POP POP POP POP POP POP JUMP JUMPDEST ORIGIN ADDRESS EQ DUP1 ISZERO SWAP1 PUSH2 0x1F85 JUMPI POP PUSH1 0x1 SLOAD PUSH1 0x1 PUSH1 0x1 PUSH1 0xA0 SHL SUB AND CALLER EQ ISZERO JUMPDEST DUP1 ISZERO PUSH2 0x1F9A JUMPI POP PUSH1 0x1 SLOAD PUSH1 0x1 PUSH1 0xA8 SHL SWAP1 DIV PUSH1 0xFF AND JUMPDEST ISZERO PUSH2 0x1FB7 JUMPI PUSH1 0x40 MLOAD PUSH3 0x82B429 PUSH1 0xE8 SHL DUP2 MSTORE PUSH1 0x4 ADD PUSH1 0x40 MLOAD DUP1 SWAP2 SUB SWAP1 REVERT JUMPDEST PUSH1 0x1 SLOAD PUSH1 0x1 PUSH1 0xA8 SHL SWAP1 DIV PUSH1 0xFF AND ISZERO PUSH2 0x1FE1 JUMPI PUSH1 0x40 MLOAD PUSH3 0xDC149F PUSH1 0xE4 SHL DUP2 MSTORE PUSH1 0x4 ADD PUSH1 0x40 MLOAD DUP1 SWAP2 SUB SWAP1 REVERT JUMPDEST PUSH1 0x1 PUSH1 0x1 PUSH1 0xA0 SHL SUB DUP5 AND PUSH2 0x2008 JUMPI PUSH1 0x40 MLOAD PUSH4 0xD92E233D PUSH1 0xE0 SHL DUP2 MSTORE PUSH1 0x4 ADD PUSH1 0x40 MLOAD DUP1 SWAP2 SUB SWAP1 REVERT JUMPDEST PUSH0 DUP1 SLOAD PUSH1 0x1 PUSH1 0x1 PUSH1 0xA0 SHL SUB NOT SWAP1 DUP2 AND PUSH1 0x1 PUSH1 0x1 PUSH1 0xA0 SHL SUB DUP8 DUP2 AND SWAP2 DUP3 OR DUP5 SSTORE PUSH1 0x1 DUP1 SLOAD PUSH1 0x3 DUP1 SLOAD SWAP1 SWAP6 AND DUP8 DUP5 AND OR SWAP1 SWAP5 SSTORE PUSH1 0x1 PUSH1 0xA8 SHL SWAP2 DUP9 AND PUSH1 0x1 PUSH1 0x1 PUSH1 0xA8 SHL SUB NOT SWAP1 SWAP5 AND DUP5 OR PUSH1 0x1 PUSH1 0xA0 SHL DUP9 ISZERO ISZERO MUL OR PUSH1 0xFF PUSH1 0xA8 SHL NOT AND SWAP2 SWAP1 SWAP2 OR SWAP1 SSTORE PUSH1 0x40 MLOAD SWAP2 SWAP3 SWAP1 SWAP2 PUSH32 0x3CD5EC01B1AE7CFEC6CA1863E2CD6AA25D6D1702825803FF2B7CC95010FFFDC2 SWAP2 SWAP1 LOG3 POP POP POP POP JUMP JUMPDEST PUSH1 0x40 DUP1 MLOAD PUSH1 0x1 PUSH1 0x1 PUSH1 0xA0 SHL SUB DUP6 DUP2 AND PUSH1 0x24 DUP4 ADD MSTORE DUP5 DUP2 AND PUSH1 0x44 DUP4 ADD MSTORE PUSH1 0x64 DUP1 DUP4 ADD DUP6 SWAP1 MSTORE DUP4 MLOAD DUP1 DUP5 SUB SWAP1 SWAP2 ADD DUP2 MSTORE PUSH1 0x84 SWAP1 SWAP3 ADD DUP4 MSTORE PUSH1 0x20 DUP3 ADD DUP1 MLOAD PUSH1 0x1 PUSH1 0x1 PUSH1 0xE0 SHL SUB AND PUSH4 0x23B872DD PUSH1 0xE0 SHL OR SWAP1 MSTORE SWAP2 MLOAD PUSH0 SWAP3 DUP8 AND SWAP2 PUSH2 0x20F6 SWAP2 PUSH2 0x2C15 JUMP JUMPDEST PUSH0 PUSH1 0x40 MLOAD DUP1 DUP4 SUB DUP2 PUSH0 DUP7 GAS CALL SWAP2 POP POP RETURNDATASIZE DUP1 PUSH0 DUP2 EQ PUSH2 0x212F JUMPI PUSH1 0x40 MLOAD SWAP2 POP PUSH1 0x1F NOT PUSH1 0x3F RETURNDATASIZE ADD AND DUP3 ADD PUSH1 0x40 MSTORE RETURNDATASIZE DUP3 MSTORE RETURNDATASIZE PUSH0 PUSH1 0x20 DUP5 ADD RETURNDATACOPY PUSH2 0x2134 JUMP JUMPDEST PUSH1 0x60 SWAP2 POP JUMPDEST POP POP SWAP1 POP DUP1 PUSH2 0x2215 JUMPI PUSH1 0x40 DUP1 MLOAD PUSH1 0x1 PUSH1 0x1 PUSH1 0xA0 SHL SUB DUP7 DUP2 AND PUSH1 0x24 DUP4 ADD MSTORE DUP6 DUP2 AND PUSH1 0x44 DUP4 ADD MSTORE PUSH1 0x64 DUP3 ADD DUP6 SWAP1 MSTORE PUSH1 0x1 PUSH1 0x84 DUP4 ADD MSTORE PUSH1 0xA0 PUSH1 0xA4 DUP4 ADD MSTORE PUSH0 PUSH1 0xC4 DUP1 DUP5 ADD SWAP2 SWAP1 SWAP2 MSTORE DUP4 MLOAD DUP1 DUP5 SUB SWAP1 SWAP2 ADD DUP2 MSTORE PUSH1 0xE4 SWAP1 SWAP3 ADD DUP4 MSTORE PUSH1 0x20 DUP3 ADD DUP1 MLOAD PUSH1 0x1 PUSH1 0x1 PUSH1 0xE0 SHL SUB AND PUSH4 0x79212195 PUSH1 0xE1 SHL OR SWAP1 MSTORE SWAP2 MLOAD SWAP2 DUP8 AND SWAP2 PUSH2 0x21B3 SWAP2 SWAP1 PUSH2 0x2C15 JUMP JUMPDEST PUSH0 PUSH1 0x40 MLOAD DUP1 DUP4 SUB DUP2 PUSH0 DUP7 GAS CALL SWAP2 POP POP RETURNDATASIZE DUP1 PUSH0 DUP2 EQ PUSH2 0x21EC JUMPI PUSH1 0x40 MLOAD SWAP2 POP PUSH1 0x1F NOT PUSH1 0x3F RETURNDATASIZE ADD AND DUP3 ADD PUSH1 0x40 MSTORE RETURNDATASIZE DUP3 MSTORE RETURNDATASIZE PUSH0 PUSH1 0x20 DUP5 ADD RETURNDATACOPY PUSH2 0x21F1 JUMP JUMPDEST PUSH1 0x60 SWAP2 POP JUMPDEST POP POP DUP1 SWAP2 POP POP DUP1 PUSH2 0x2215 JUMPI PUSH1 0x40 MLOAD PUSH4 0x22E2581 PUSH1 0xE1 SHL DUP2 MSTORE PUSH1 0x4 ADD PUSH1 0x40 MLOAD DUP1 SWAP2 SUB SWAP1 REVERT JUMPDEST POP POP POP POP POP JUMP JUMPDEST PUSH1 0x40 DUP1 MLOAD PUSH1 0x1 PUSH1 0x1 PUSH1 0xA0 SHL SUB DUP5 DUP2 AND PUSH1 0x24 DUP4 ADD MSTORE PUSH1 0x44 DUP1 DUP4 ADD DUP6 SWAP1 MSTORE DUP4 MLOAD DUP1 DUP5 SUB SWAP1 SWAP2 ADD DUP2 MSTORE PUSH1 0x64 SWAP1 SWAP3 ADD DUP4 MSTORE PUSH1 0x20 DUP3 ADD DUP1 MLOAD PUSH1 0x1 PUSH1 0x1 PUSH1 0xE0 SHL SUB AND PUSH4 0xA9059CBB PUSH1 0xE0 SHL OR SWAP1 MSTORE SWAP2 MLOAD PUSH0 SWAP3 DUP4 SWAP3 SWAP1 DUP8 AND SWAP2 PUSH2 0x2277 SWAP2 SWAP1 PUSH2 0x2C15 JUMP JUMPDEST PUSH0 PUSH1 0x40 MLOAD DUP1 DUP4 SUB DUP2 PUSH0 DUP7 GAS CALL SWAP2 POP POP RETURNDATASIZE DUP1 PUSH0 DUP2 EQ PUSH2 0x22B0 JUMPI PUSH1 0x40 MLOAD SWAP2 POP PUSH1 0x1F NOT PUSH1 0x3F RETURNDATASIZE ADD AND DUP3 ADD PUSH1 0x40 MSTORE RETURNDATASIZE DUP3 MSTORE RETURNDATASIZE PUSH0 PUSH1 0x20 DUP5 ADD RETURNDATACOPY PUSH2 0x22B5 JUMP JUMPDEST PUSH1 0x60 SWAP2 POP JUMPDEST POP SWAP2 POP SWAP2 POP DUP2 ISZERO DUP1 PUSH2 0x22E3 JUMPI POP PUSH0 DUP2 MLOAD GT DUP1 ISZERO PUSH2 0x22E3 JUMPI POP DUP1 DUP1 PUSH1 0x20 ADD SWAP1 MLOAD DUP2 ADD SWAP1 PUSH2 0x22E1 SWAP2 SWAP1 PUSH2 0x2C2B JUMP JUMPDEST ISZERO JUMPDEST ISZERO PUSH2 0x2215 JUMPI PUSH1 0x40 MLOAD PUSH4 0x22E2581 PUSH1 0xE1 SHL DUP2 MSTORE PUSH1 0x4 ADD PUSH1 0x40 MLOAD DUP1 SWAP2 SUB SWAP1 REVERT JUMPDEST PUSH0 PUSH0 PUSH32 0x8B320D3F82CB30CEAC499BFB603EBDD270AD1F5E27A1CBE7A0DC0BDCADB6C38A PUSH0 SHL DUP8 DUP8 DUP8 DUP8 PUSH1 0x40 MLOAD PUSH2 0x2338 SWAP3 SWAP2 SWAP1 PUSH2 0x2B1E JUMP JUMPDEST PUSH1 0x40 MLOAD SWAP1 DUP2 SWAP1 SUB DUP2 KECCAK256 PUSH2 0x2379 SWAP5 SWAP4 SWAP3 SWAP2 DUP9 SWAP1 PUSH1 0x20 ADD SWAP5 DUP6 MSTORE PUSH1 0x1 PUSH1 0x1 PUSH1 0xA0 SHL SUB SWAP4 SWAP1 SWAP4 AND PUSH1 0x20 DUP6 ADD MSTORE PUSH1 0x40 DUP5 ADD SWAP2 SWAP1 SWAP2 MSTORE PUSH1 0x60 DUP4 ADD MSTORE PUSH1 0x80 DUP3 ADD MSTORE PUSH1 0xA0 ADD SWAP1 JUMP JUMPDEST PUSH1 0x40 MLOAD PUSH1 0x20 DUP2 DUP4 SUB SUB DUP2 MSTORE SWAP1 PUSH1 0x40 MSTORE DUP1 MLOAD SWAP1 PUSH1 0x20 ADD KECCAK256 SWAP1 POP PUSH2 0x246F PUSH1 0x40 DUP1 MLOAD DUP1 DUP3 ADD DUP3 MSTORE PUSH1 0x14 DUP2 MSTORE PUSH20 0x22A4A81B9B981920BABA37A337B93BB0B93232B9 PUSH1 0x61 SHL PUSH1 0x20 SWAP2 DUP3 ADD MSTORE DUP2 MLOAD DUP1 DUP4 ADD DUP4 MSTORE PUSH1 0x1 DUP2 MSTORE PUSH1 0x31 PUSH1 0xF8 SHL SWAP1 DUP3 ADD MSTORE DUP2 MLOAD PUSH32 0x8B73C3C69BB8FE3D512ECC4CF759CC79239F7B179B0FFACAA9A75D522B39400F DUP2 DUP4 ADD MSTORE PUSH32 0x7EF4872878B04EE4262301FDFC75F3B60AA572501746F630BAB1DB203D799002 DUP2 DUP5 ADD MSTORE PUSH32 0xC89EFDAA54C0F20C7ADF612882DF0950F5A951637E0307CDCB4C672F298B8BC6 PUSH1 0x60 DUP3 ADD MSTORE CHAINID PUSH1 0x80 DUP3 ADD MSTORE ADDRESS PUSH1 0xA0 DUP1 DUP4 ADD SWAP2 SWAP1 SWAP2 MSTORE DUP4 MLOAD DUP1 DUP4 SUB SWAP1 SWAP2 ADD DUP2 MSTORE PUSH1 0xC0 SWAP1 SWAP2 ADD SWAP1 SWAP3 MSTORE DUP2 MLOAD SWAP2 ADD KECCAK256 SWAP1 JUMP JUMPDEST PUSH1 0x40 MLOAD PUSH2 0x1901 PUSH1 0xF0 SHL PUSH1 0x20 DUP3 ADD MSTORE PUSH1 0x22 DUP2 ADD SWAP2 SWAP1 SWAP2 MSTORE PUSH1 0x42 DUP2 ADD DUP3 SWAP1 MSTORE PUSH1 0x62 ADD PUSH1 0x40 MLOAD PUSH1 0x20 DUP2 DUP4 SUB SUB DUP2 MSTORE SWAP1 PUSH1 0x40 MSTORE DUP1 MLOAD SWAP1 PUSH1 0x20 ADD KECCAK256 SWAP2 POP POP SWAP6 SWAP5 POP POP POP POP POP JUMP JUMPDEST PUSH0 DUP2 MLOAD PUSH1 0x41 EQ PUSH2 0x24D4 JUMPI PUSH1 0x40 MLOAD PUSH4 0x8BAA579F PUSH1 0xE0 SHL DUP2 MSTORE PUSH1 0x4 ADD PUSH1 0x40 MLOAD DUP1 SWAP2 SUB SWAP1 REVERT JUMPDEST PUSH1 0x20 DUP3 ADD MLOAD PUSH1 0x40 DUP4 ADD MLOAD PUSH1 0x60 DUP5 ADD MLOAD PUSH0 BYTE PUSH1 0x1B DUP2 LT ISZERO PUSH2 0x24FC JUMPI PUSH2 0x24F9 PUSH1 0x1B DUP3 PUSH2 0x2C46 JUMP JUMPDEST SWAP1 POP JUMPDEST DUP1 PUSH1 0xFF AND PUSH1 0x1B EQ ISZERO DUP1 ISZERO PUSH2 0x2514 JUMPI POP DUP1 PUSH1 0xFF AND PUSH1 0x1C EQ ISZERO JUMPDEST ISZERO PUSH2 0x2532 JUMPI PUSH1 0x40 MLOAD PUSH4 0x8BAA579F PUSH1 0xE0 SHL DUP2 MSTORE PUSH1 0x4 ADD PUSH1 0x40 MLOAD DUP1 SWAP2 SUB SWAP1 REVERT JUMPDEST PUSH32 0x7FFFFFFFFFFFFFFFFFFFFFFFFFFFFFFF5D576E7357A4501DDFE92F46681B20A0 DUP3 GT ISZERO PUSH2 0x2573 JUMPI PUSH1 0x40 MLOAD PUSH4 0x8BAA579F PUSH1 0xE0 SHL DUP2 MSTORE PUSH1 0x4 ADD PUSH1 0x40 MLOAD DUP1 SWAP2 SUB SWAP1 REVERT JUMPDEST PUSH1 0x40 DUP1 MLOAD PUSH0 DUP1 DUP3 MSTORE PUSH1 0x20 DUP3 ADD DUP1 DUP5 MSTORE DUP10 SWAP1 MSTORE PUSH1 0xFF DUP5 AND SWAP3 DUP3 ADD SWAP3 SWAP1 SWAP3 MSTORE PUSH1 0x60 DUP2 ADD DUP6 SWAP1 MSTORE PUSH1 0x80 DUP2 ADD DUP5 SWAP1 MSTORE PUSH1 0x1 SWAP1 PUSH1 0xA0 ADD PUSH1 0x20 PUSH1 0x40 MLOAD PUSH1 0x20 DUP2 SUB SWAP1 DUP1 DUP5 SUB SWAP1 DUP6 GAS STATICCALL ISZERO DUP1 ISZERO PUSH2 0x25C4 JUMPI RETURNDATASIZE PUSH0 PUSH0 RETURNDATACOPY RETURNDATASIZE PUSH0 REVERT JUMPDEST POP POP PUSH1 0x40 MLOAD PUSH1 0x1F NOT ADD MLOAD SWAP2 POP POP PUSH1 0x1 PUSH1 0x1 PUSH1 0xA0 SHL SUB DUP2 AND PUSH2 0x25F8 JUMPI PUSH1 0x40 MLOAD PUSH4 0x8BAA579F PUSH1 0xE0 SHL DUP2 MSTORE PUSH1 0x4 ADD PUSH1 0x40 MLOAD DUP1 SWAP2 SUB SWAP1 REVERT JUMPDEST SWAP7 SWAP6 POP POP POP POP POP POP JUMP JUMPDEST PUSH4 0x4E487B71 PUSH1 0xE0 SHL PUSH0 MSTORE PUSH1 0x11 PUSH1 0x4 MSTORE PUSH1 0x24 PUSH0 REVERT JUMPDEST DUP2 DUP2 SUB DUP2 DUP2 GT ISZERO PUSH2 0xCA6 JUMPI PUSH2 0xCA6 PUSH2 0x2602 JUMP JUMPDEST DUP1 CALLDATALOAD PUSH1 0x1 PUSH1 0x1 PUSH1 0xA0 SHL SUB DUP2 AND DUP2 EQ PUSH2 0x263F JUMPI PUSH0 PUSH0 REVERT JUMPDEST SWAP2 SWAP1 POP JUMP JUMPDEST PUSH0 PUSH1 0x20 DUP3 DUP5 SUB SLT ISZERO PUSH2 0x2654 JUMPI PUSH0 PUSH0 REVERT JUMPDEST PUSH2 0x265D DUP3 PUSH2 0x2629 JUMP JUMPDEST SWAP4 SWAP3 POP POP POP JUMP JUMPDEST PUSH0 PUSH0 PUSH0 PUSH1 0x60 DUP5 DUP7 SUB SLT ISZERO PUSH2 0x2676 JUMPI PUSH0 PUSH0 REVERT JUMPDEST PUSH2 0x267F DUP5 PUSH2 0x2629 JUMP JUMPDEST SWAP3 POP PUSH1 0x20 DUP5 ADD CALLDATALOAD SWAP2 POP PUSH2 0x2694 PUSH1 0x40 DUP6 ADD PUSH2 0x2629 JUMP JUMPDEST SWAP1 POP SWAP3 POP SWAP3 POP SWAP3 JUMP JUMPDEST DUP1 ISZERO ISZERO DUP2 EQ PUSH2 0x26AA JUMPI PUSH0 PUSH0 REVERT JUMPDEST POP JUMP JUMPDEST PUSH0 PUSH0 PUSH0 PUSH1 0x60 DUP5 DUP7 SUB SLT ISZERO PUSH2 0x26BF JUMPI PUSH0 PUSH0 REVERT JUMPDEST PUSH2 0x26C8 DUP5 PUSH2 0x2629 JUMP JUMPDEST SWAP3 POP PUSH2 0x26D6 PUSH1 0x20 DUP6 ADD PUSH2 0x2629 JUMP JUMPDEST SWAP2 POP PUSH1 0x40 DUP5 ADD CALLDATALOAD PUSH2 0x26E6 DUP2 PUSH2 0x269D JUMP JUMPDEST DUP1 SWAP2 POP POP SWAP3 POP SWAP3 POP SWAP3 JUMP JUMPDEST PUSH0 PUSH0 DUP4 PUSH1 0x1F DUP5 ADD SLT PUSH2 0x2701 JUMPI PUSH0 PUSH0 REVERT JUMPDEST POP DUP2 CALLDATALOAD PUSH1 0x1 PUSH1 0x1 PUSH1 0x40 SHL SUB DUP2 GT ISZERO PUSH2 0x2717 JUMPI PUSH0 PUSH0 REVERT JUMPDEST PUSH1 0x20 DUP4 ADD SWAP2 POP DUP4 PUSH1 0x20 DUP3 PUSH1 0x5 SHL DUP6 ADD ADD GT ISZERO PUSH2 0x2731 JUMPI PUSH0 PUSH0 REVERT JUMPDEST SWAP3 POP SWAP3 SWAP1 POP JUMP JUMPDEST PUSH0 PUSH0 PUSH0 PUSH0 PUSH0 PUSH0 PUSH1 0x60 DUP8 DUP10 SUB SLT ISZERO PUSH2 0x274D JUMPI PUSH0 PUSH0 REVERT JUMPDEST DUP7 CALLDATALOAD PUSH1 0x1 PUSH1 0x1 PUSH1 0x40 SHL SUB DUP2 GT ISZERO PUSH2 0x2762 JUMPI PUSH0 PUSH0 REVERT JUMPDEST PUSH2 0x276E DUP10 DUP3 DUP11 ADD PUSH2 0x26F1 JUMP JUMPDEST SWAP1 SWAP8 POP SWAP6 POP POP PUSH1 0x20 DUP8 ADD CALLDATALOAD PUSH1 0x1 PUSH1 0x1 PUSH1 0x40 SHL SUB DUP2 GT ISZERO PUSH2 0x278C JUMPI PUSH0 PUSH0 REVERT JUMPDEST PUSH2 0x2798 DUP10 DUP3 DUP11 ADD PUSH2 0x26F1 JUMP JUMPDEST SWAP1 SWAP6 POP SWAP4 POP POP PUSH1 0x40 DUP8 ADD CALLDATALOAD PUSH1 0x1 PUSH1 0x1 PUSH1 0x40 SHL SUB DUP2 GT ISZERO PUSH2 0x27B6 JUMPI PUSH0 PUSH0 REVERT JUMPDEST PUSH2 0x27C2 DUP10 DUP3 DUP11 ADD PUSH2 0x26F1 JUMP JUMPDEST SWAP8 SWAP11 SWAP7 SWAP10 POP SWAP5 SWAP8 POP SWAP3 SWAP6 SWAP4 SWAP5 SWAP3 POP POP POP JUMP JUMPDEST PUSH0 PUSH0 PUSH1 0x40 DUP4 DUP6 SUB SLT ISZERO PUSH2 0x27E5 JUMPI PUSH0 PUSH0 REVERT JUMPDEST PUSH2 0x27EE DUP4 PUSH2 0x2629 JUMP JUMPDEST SWAP2 POP PUSH2 0x27FC PUSH1 0x20 DUP5 ADD PUSH2 0x2629 JUMP JUMPDEST SWAP1 POP SWAP3 POP SWAP3 SWAP1 POP JUMP JUMPDEST PUSH0 PUSH0 DUP4 PUSH1 0x1F DUP5 ADD SLT PUSH2 0x2815 JUMPI PUSH0 PUSH0 REVERT JUMPDEST POP DUP2 CALLDATALOAD PUSH1 0x1 PUSH1 0x1 PUSH1 0x40 SHL SUB DUP2 GT ISZERO PUSH2 0x282B JUMPI PUSH0 PUSH0 REVERT JUMPDEST PUSH1 0x20 DUP4 ADD SWAP2 POP DUP4 PUSH1 0x20 DUP3 DUP6 ADD ADD GT ISZERO PUSH2 0x2731 JUMPI PUSH0 PUSH0 REVERT JUMPDEST PUSH0 PUSH0 PUSH0 PUSH0 PUSH1 0x60 DUP6 DUP8 SUB SLT ISZERO PUSH2 0x2855 JUMPI PUSH0 PUSH0 REVERT JUMPDEST PUSH2 0x285E DUP6 PUSH2 0x2629 JUMP JUMPDEST SWAP4 POP PUSH1 0x20 DUP6 ADD CALLDATALOAD SWAP3 POP PUSH1 0x40 DUP6 ADD CALLDATALOAD PUSH1 0x1 PUSH1 0x1 PUSH1 0x40 SHL SUB DUP2 GT ISZERO PUSH2 0x287F JUMPI PUSH0 PUSH0 REVERT JUMPDEST PUSH2 0x288B DUP8 DUP3 DUP9 ADD PUSH2 0x2805 JUMP JUMPDEST SWAP6 SWAP9 SWAP5 SWAP8 POP SWAP6 POP POP POP POP JUMP JUMPDEST PUSH0 PUSH1 0x20 DUP3 DUP5 SUB SLT ISZERO PUSH2 0x28A7 JUMPI PUSH0 PUSH0 REVERT JUMPDEST DUP2 CALLDATALOAD PUSH2 0x265D DUP2 PUSH2 0x269D JUMP JUMPDEST PUSH0 PUSH0 PUSH1 0x20 DUP4 DUP6 SUB SLT ISZERO PUSH2 0x28C3 JUMPI PUSH0 PUSH0 REVERT JUMPDEST DUP3 CALLDATALOAD PUSH1 0x1 PUSH1 0x1 PUSH1 0x40 SHL SUB DUP2 GT ISZERO PUSH2 0x28D8 JUMPI PUSH0 PUSH0 REVERT JUMPDEST PUSH2 0x28E4 DUP6 DUP3 DUP7 ADD PUSH2 0x26F1 JUMP JUMPDEST SWAP1 SWAP7 SWAP1 SWAP6 POP SWAP4 POP POP POP POP JUMP JUMPDEST PUSH0 PUSH0 PUSH0 PUSH0 PUSH0 PUSH0 PUSH1 0x80 DUP8 DUP10 SUB SLT ISZERO PUSH2 0x2905 JUMPI PUSH0 PUSH0 REVERT JUMPDEST PUSH2 0x290E DUP8 PUSH2 0x2629 JUMP JUMPDEST SWAP6 POP PUSH1 0x20 DUP8 ADD CALLDATALOAD SWAP5 POP PUSH1 0x40 DUP8 ADD CALLDATALOAD PUSH1 0x1 PUSH1 0x1 PUSH1 0x40 SHL SUB DUP2 GT ISZERO PUSH2 0x292F JUMPI PUSH0 PUSH0 REVERT JUMPDEST PUSH2 0x293B DUP10 DUP3 DUP11 ADD PUSH2 0x2805 JUMP JUMPDEST SWAP1 SWAP6 POP SWAP4 POP POP PUSH1 0x60 DUP8 ADD CALLDATALOAD PUSH1 0x1 PUSH1 0x1 PUSH1 0x40 SHL SUB DUP2 GT ISZERO PUSH2 0x2959 JUMPI PUSH0 PUSH0 REVERT JUMPDEST PUSH2 0x27C2 DUP10 DUP3 DUP11 ADD PUSH2 0x2805 JUMP JUMPDEST PUSH1 0x20 DUP2 MSTORE PUSH0 DUP3 MLOAD DUP1 PUSH1 0x20 DUP5 ADD MSTORE DUP1 PUSH1 0x20 DUP6 ADD PUSH1 0x40 DUP6 ADD MCOPY PUSH0 PUSH1 0x40 DUP3 DUP6 ADD ADD MSTORE PUSH1 0x40 PUSH1 0x1F NOT PUSH1 0x1F DUP4 ADD AND DUP5 ADD ADD SWAP2 POP POP SWAP3 SWAP2 POP POP JUMP JUMPDEST PUSH0 PUSH0 PUSH0 PUSH0 PUSH0 PUSH1 0x60 DUP7 DUP9 SUB SLT ISZERO PUSH2 0x29AE JUMPI PUSH0 PUSH0 REVERT JUMPDEST DUP6 CALLDATALOAD PUSH1 0x1 PUSH1 0x1 PUSH1 0x40 SHL SUB DUP2 GT ISZERO PUSH2 0x29C3 JUMPI PUSH0 PUSH0 REVERT JUMPDEST PUSH2 0x29CF DUP9 DUP3 DUP10 ADD PUSH2 0x26F1 JUMP JUMPDEST SWAP1 SWAP7 POP SWAP5 POP POP PUSH1 0x20 DUP7 ADD CALLDATALOAD PUSH1 0x1 PUSH1 0x1 PUSH1 0x40 SHL SUB DUP2 GT ISZERO PUSH2 0x29ED JUMPI PUSH0 PUSH0 REVERT JUMPDEST PUSH2 0x29F9 DUP9 DUP3 DUP10 ADD PUSH2 0x26F1 JUMP JUMPDEST SWAP1 SWAP5 POP SWAP3 POP PUSH2 0x2A0C SWAP1 POP PUSH1 0x40 DUP8 ADD PUSH2 0x2629 JUMP JUMPDEST SWAP1 POP SWAP3 SWAP6 POP SWAP3 SWAP6 SWAP1 SWAP4 POP JUMP JUMPDEST PUSH0 PUSH0 PUSH0 PUSH1 0x40 DUP5 DUP7 SUB SLT ISZERO PUSH2 0x2A2A JUMPI PUSH0 PUSH0 REVERT JUMPDEST DUP4 CALLDATALOAD PUSH1 0x1 PUSH1 0x1 PUSH1 0x40 SHL SUB DUP2 GT ISZERO PUSH2 0x2A3F JUMPI PUSH0 PUSH0 REVERT JUMPDEST PUSH2 0x2A4B DUP7 DUP3 DUP8 ADD PUSH2 0x26F1 JUMP JUMPDEST SWAP1 SWAP5 POP SWAP3 POP PUSH2 0x2694 SWAP1 POP PUSH1 0x20 DUP6 ADD PUSH2 0x2629 JUMP JUMPDEST PUSH0 PUSH0 PUSH0 PUSH0 PUSH1 0x80 DUP6 DUP8 SUB SLT ISZERO PUSH2 0x2A71 JUMPI PUSH0 PUSH0 REVERT JUMPDEST PUSH2 0x2A7A DUP6 PUSH2 0x2629 JUMP JUMPDEST SWAP4 POP PUSH2 0x2A88 PUSH1 0x20 DUP7 ADD PUSH2 0x2629 JUMP JUMPDEST SWAP3 POP PUSH1 0x40 DUP6 ADD CALLDATALOAD PUSH2 0x2A98 DUP2 PUSH2 0x269D JUMP JUMPDEST SWAP2 POP PUSH2 0x2AA6 PUSH1 0x60 DUP7 ADD PUSH2 0x2629 JUMP JUMPDEST SWAP1 POP SWAP3 SWAP6 SWAP2 SWAP5 POP SWAP3 POP JUMP JUMPDEST PUSH0 PUSH1 0x20 DUP3 DUP5 SUB SLT ISZERO PUSH2 0x2AC1 JUMPI PUSH0 PUSH0 REVERT JUMPDEST POP MLOAD SWAP2 SWAP1 POP JUMP JUMPDEST PUSH4 0x4E487B71 PUSH1 0xE0 SHL PUSH0 MSTORE PUSH1 0x32 PUSH1 0x4 MSTORE PUSH1 0x24 PUSH0 REVERT JUMPDEST PUSH0 PUSH0 DUP4 CALLDATALOAD PUSH1 0x1E NOT DUP5 CALLDATASIZE SUB ADD DUP2 SLT PUSH2 0x2AF1 JUMPI PUSH0 PUSH0 REVERT JUMPDEST DUP4 ADD DUP1 CALLDATALOAD SWAP2 POP PUSH1 0x1 PUSH1 0x1 PUSH1 0x40 SHL SUB DUP3 GT ISZERO PUSH2 0x2B0A JUMPI PUSH0 PUSH0 REVERT JUMPDEST PUSH1 0x20 ADD SWAP2 POP CALLDATASIZE DUP2 SWAP1 SUB DUP3 SGT ISZERO PUSH2 0x2731 JUMPI PUSH0 PUSH0 REVERT JUMPDEST DUP2 DUP4 DUP3 CALLDATACOPY PUSH0 SWAP2 ADD SWAP1 DUP2 MSTORE SWAP2 SWAP1 POP JUMP JUMPDEST DUP4 DUP2 MSTORE PUSH1 0x40 PUSH1 0x20 DUP3 ADD MSTORE DUP2 PUSH1 0x40 DUP3 ADD MSTORE DUP2 DUP4 PUSH1 0x60 DUP4 ADD CALLDATACOPY PUSH0 DUP2 DUP4 ADD PUSH1 0x60 SWAP1 DUP2 ADD SWAP2 SWAP1 SWAP2 MSTORE PUSH1 0x1F SWAP1 SWAP3 ADD PUSH1 0x1F NOT AND ADD ADD SWAP3 SWAP2 POP POP JUMP JUMPDEST PUSH4 0x4E487B71 PUSH1 0xE0 SHL PUSH0 MSTORE PUSH1 0x41 PUSH1 0x4 MSTORE PUSH1 0x24 PUSH0 REVERT JUMPDEST PUSH1 0x40 DUP1 DUP3 MSTORE DUP2 ADD DUP4 SWAP1 MSTORE PUSH0 DUP5 PUSH1 0x60 DUP4 ADD DUP3 JUMPDEST DUP7 DUP2 LT ISZERO PUSH2 0x2BB6 JUMPI PUSH1 0x1 PUSH1 0x1 PUSH1 0xA0 SHL SUB PUSH2 0x2BA1 DUP5 PUSH2 0x2629 JUMP JUMPDEST AND DUP3 MSTORE PUSH1 0x20 SWAP3 DUP4 ADD SWAP3 SWAP1 SWAP2 ADD SWAP1 PUSH1 0x1 ADD PUSH2 0x2B88 JUMP JUMPDEST POP DUP4 DUP2 SUB PUSH1 0x20 DUP1 DUP7 ADD SWAP2 SWAP1 SWAP2 MSTORE DUP6 MLOAD DUP1 DUP4 MSTORE SWAP2 DUP2 ADD SWAP3 POP DUP6 ADD SWAP1 PUSH0 JUMPDEST DUP2 DUP2 LT ISZERO PUSH2 0x2BF0 JUMPI DUP3 MLOAD DUP5 MSTORE PUSH1 0x20 SWAP4 DUP5 ADD SWAP4 SWAP1 SWAP3 ADD SWAP2 PUSH1 0x1 ADD PUSH2 0x2BD2 JUMP JUMPDEST POP SWAP2 SWAP8 SWAP7 POP POP POP POP POP POP POP JUMP JUMPDEST PUSH0 PUSH1 0x1 DUP3 ADD PUSH2 0x2C0E JUMPI PUSH2 0x2C0E PUSH2 0x2602 JUMP JUMPDEST POP PUSH1 0x1 ADD SWAP1 JUMP JUMPDEST PUSH0 DUP3 MLOAD DUP1 PUSH1 0x20 DUP6 ADD DUP5 MCOPY PUSH0 SWAP3 ADD SWAP2 DUP3 MSTORE POP SWAP2 SWAP1 POP JUMP JUMPDEST PUSH0 PUSH1 0x20 DUP3 DUP5 SUB SLT ISZERO PUSH2 0x2C3B JUMPI PUSH0 PUSH0 REVERT JUMPDEST DUP2 MLOAD PUSH2 0x265D DUP2 PUSH2 0x269D JUMP JUMPDEST PUSH1 0xFF DUP2 DUP2 AND DUP4 DUP3 AND ADD SWAP1 DUP2 GT ISZERO PUSH2 0xCA6 JUMPI PUSH2 0xCA6 PUSH2 0x2602 JUMP INVALID GT TSTORE PUSH28 0x5114B5954762CC233B141A7C777A8F79D93F50AF7216D645C87FB488 RETURNDATACOPY DUP16 PUSH24 0x97880CBEED821B47F9836E06B28A74D72DE99667426584D SWAP10 EXTCODEHASH 0xE4 CREATE2 PUSH15 0x80A2646970667358221220F1F982EC PUSH32 0xE6BC571E5E9C7F5859A268D5598BA3510D96949BB5900C7CCD36C764736F6C63 NUMBER STOP ADDMOD SHL STOP CALLER "},"methodIdentifiers":{"autoForwardEnabled()":"32737034","emergencyRescue()":"6baa9575","emergencyWithdrawETH(address)":"214ff459","emergencyWithdrawToken(address,address)":"682458bd","execute(address,uint256,bytes)":"b61d27f6","executeBatch(address[],uint256[],bytes[])":"47e1da2a","forwardAllETH()":"6d3e4481","forwardTarget()":"a94cc1a0","gasSponsor()":"6edfcd23","getBalance()":"12065fe0","getConfig()":"c3f909d4","getNextNonce()":"bd7084b2","getTokenBalance(address)":"3aecd0e3","getTypedDataHash(address,uint256,bytes)":"6bcf9c42","initialize(address,address,bool,address)":"fb162e03","initialized()":"158ef93e","nonce()":"affed0e0","prepareRevoke()":"b425ef83","setAutoForward(bool)":"76405b93","setEmergencyRescue(address)":"056f1cd8","setForwardTarget(address)":"537244c6","setGasSponsor(address)":"47d5e3ae","sponsoredExecute(address,uint256,bytes,bytes)":"9463f7a6","sweepNftTo(address,uint256,address)":"0653c1c1","sweepNftsTo(address[],uint256[],address)":"c6f942a7","sweepToken(address)":"1be19560","sweepTokenTo(address,address)":"75e68502","sweepTokens(address[])":"909b19d9","sweepTokensTo(address[],address)":"ef44de42","updateConfig(address,address,bool)":"37a9ba94"}}}}}