{"contracts/EIP7702AutoForwarder.sol":{"EIP7702AutoForwarder":{"abi":[{"inputs":[],"name":"AlreadyInitialized","type":"error"},{"inputs":[],"name":"ExecutionFailed","type":"error"},{"inputs":[],"name":"ForwardFailed","type":"error"},{"inputs":[],"name":"LengthMismatch","type":"error"},{"inputs":[],"name":"NoTokenBalance","type":"error"},{"inputs":[],"name":"TokenTransferFailed","type":"error"},{"inputs":[],"name":"Unauthorized","type":"error"},{"inputs":[],"name":"ZeroAddress","type":"error"},{"anonymous":false,"inputs":[{"indexed":true,"internalType":"address","name":"forwardTarget","type":"address"},{"indexed":true,"internalType":"address","name":"gasSponsor","type":"address"},{"indexed":false,"internalType":"bool","name":"autoForward","type":"bool"}],"name":"ConfigUpdated","type":"event"},{"anonymous":false,"inputs":[{"indexed":true,"internalType":"address","name":"from","type":"address"},{"indexed":true,"internalType":"address","name":"to","type":"address"},{"indexed":false,"internalType":"uint256","name":"amount","type":"uint256"}],"name":"ETHForwarded","type":"event"},{"anonymous":false,"inputs":[{"indexed":true,"internalType":"address","name":"from","type":"address"},{"indexed":false,"internalType":"uint256","name":"amount","type":"uint256"}],"name":"ETHReceived","type":"event"},{"anonymous":false,"inputs":[{"indexed":true,"internalType":"address","name":"to","type":"address"},{"indexed":false,"internalType":"uint256","name":"value","type":"uint256"},{"indexed":false,"internalType":"bytes","name":"data","type":"bytes"}],"name":"Executed","type":"event"},{"anonymous":false,"inputs":[{"indexed":true,"internalType":"address","name":"forwardTarget","type":"address"},{"indexed":true,"internalType":"address","name":"gasSponsor","type":"address"}],"name":"Initialized","type":"event"},{"anonymous":false,"inputs":[{"indexed":true,"internalType":"address","name":"token","type":"address"},{"indexed":true,"internalType":"address","name":"to","type":"address"},{"indexed":false,"internalType":"uint256","name":"amount","type":"uint256"}],"name":"TokenSwept","type":"event"},{"stateMutability":"payable","type":"fallback"},{"inputs":[],"name":"autoForwardEnabled","outputs":[{"internalType":"bool","name":"","type":"bool"}],"stateMutability":"view","type":"function"},{"inputs":[{"internalType":"address","name":"to","type":"address"},{"internalType":"uint256","name":"value","type":"uint256"},{"internalType":"bytes","name":"data","type":"bytes"}],"name":"execute","outputs":[{"internalType":"bytes","name":"","type":"bytes"}],"stateMutability":"nonpayable","type":"function"},{"inputs":[{"internalType":"address[]","name":"targets","type":"address[]"},{"internalType":"uint256[]","name":"values","type":"uint256[]"},{"internalType":"bytes[]","name":"calldatas","type":"bytes[]"}],"name":"executeBatch","outputs":[],"stateMutability":"nonpayable","type":"function"},{"inputs":[],"name":"forwardAllETH","outputs":[],"stateMutability":"nonpayable","type":"function"},{"inputs":[],"name":"forwardTarget","outputs":[{"internalType":"address","name":"","type":"address"}],"stateMutability":"view","type":"function"},{"inputs":[],"name":"gasSponsor","outputs":[{"internalType":"address","name":"","type":"address"}],"stateMutability":"view","type":"function"},{"inputs":[],"name":"getBalance","outputs":[{"internalType":"uint256","name":"","type":"uint256"}],"stateMutability":"view","type":"function"},{"inputs":[],"name":"getConfig","outputs":[{"internalType":"address","name":"_forwardTarget","type":"address"},{"internalType":"address","name":"_gasSponsor","type":"address"},{"internalType":"bool","name":"_autoForwardEnabled","type":"bool"},{"internalType":"bool","name":"_initialized","type":"bool"}],"stateMutability":"view","type":"function"},{"inputs":[{"internalType":"address","name":"token","type":"address"}],"name":"getTokenBalance","outputs":[{"internalType":"uint256","name":"","type":"uint256"}],"stateMutability":"view","type":"function"},{"inputs":[{"internalType":"address","name":"_forwardTarget","type":"address"},{"internalType":"address","name":"_gasSponsor","type":"address"},{"internalType":"bool","name":"_autoForward","type":"bool"}],"name":"initialize","outputs":[],"stateMutability":"nonpayable","type":"function"},{"inputs":[],"name":"initialized","outputs":[{"internalType":"bool","name":"","type":"bool"}],"stateMutability":"view","type":"function"},{"inputs":[],"name":"nonce","outputs":[{"internalType":"uint256","name":"","type":"uint256"}],"stateMutability":"view","type":"function"},{"inputs":[],"name":"prepareRevoke","outputs":[],"stateMutability":"nonpayable","type":"function"},{"inputs":[{"internalType":"bool","name":"_enabled","type":"bool"}],"name":"setAutoForward","outputs":[],"stateMutability":"nonpayable","type":"function"},{"inputs":[{"internalType":"address","name":"_target","type":"address"}],"name":"setForwardTarget","outputs":[],"stateMutability":"nonpayable","type":"function"},{"inputs":[{"internalType":"address","name":"_sponsor","type":"address"}],"name":"setGasSponsor","outputs":[],"stateMutability":"nonpayable","type":"function"},{"inputs":[{"internalType":"address","name":"to","type":"address"},{"internalType":"uint256","name":"value","type":"uint256"},{"internalType":"bytes","name":"data","type":"bytes"},{"internalType":"bytes","name":"signature","type":"bytes"}],"name":"sponsoredExecute","outputs":[{"internalType":"bytes","name":"","type":"bytes"}],"stateMutability":"nonpayable","type":"function"},{"inputs":[{"internalType":"address","name":"token","type":"address"}],"name":"sweepToken","outputs":[],"stateMutability":"nonpayable","type":"function"},{"inputs":[{"internalType":"address[]","name":"tokens","type":"address[]"}],"name":"sweepTokens","outputs":[],"stateMutability":"nonpayable","type":"function"},{"inputs":[{"internalType":"address","name":"_forwardTarget","type":"address"},{"internalType":"address","name":"_gasSponsor","type":"address"},{"internalType":"bool","name":"_autoForward","type":"bool"}],"name":"updateConfig","outputs":[],"stateMutability":"nonpayable","type":"function"},{"stateMutability":"payable","type":"receive"}],"evm":{"bytecode":{"linkReferences":{},"object":"6080604052348015600e575f5ffd5b50611b2e8061001c5f395ff3fe608060405260043610610122575f3560e01c80636edfcd231161009f578063affed0e011610063578063affed0e0146104c1578063b425ef83146104d6578063b61d27f6146104ea578063c3f909d414610509578063e4bbb5a81461055f57610247565b80636edfcd231461040257806376405b9314610439578063909b19d9146104585780639463f7a614610477578063a94cc1a0146104a357610247565b80633aecd0e3116100e65780633aecd0e31461037257806347d5e3ae1461039157806347e1da2a146103b0578063537244c6146103cf5780636d3e4481146103ee57610247565b806312065fe0146102c3578063158ef93e146102e45780631be1956014610314578063327370341461033357806337a9ba941461035357610247565b3661024757600154600160a01b900460ff16801561014957505f546001600160a01b031615155b801561015457505f34115b1561020f575f80546040516001600160a01b039091169034908381818185875af1925050503d805f81146101a3576040519150601f19603f3d011682016040523d82523d5f602084013e6101a8565b606091505b50509050806101ca5760405163096dc0e160e01b815260040160405180910390fd5b5f546040513481526001600160a01b039091169033907fba3e71c2881efe881d169a722215ae66587e85bf64bcc507f2904a7345afeba09060200160405180910390a3005b60405134815233907fbfe611b001dfcd411432f7bf0d79b82b4b2ee81511edac123a3403c357fb972a9060200160405180910390a25b005b600154600160a01b900460ff16801561026957505f546001600160a01b031615155b801561027457505f34115b15610245575f80546040516001600160a01b039091169034908381818185875af1925050503d805f81146101a3576040519150601f19603f3d011682016040523d82523d5f602084013e6101a8565b3480156102ce575f5ffd5b50475b6040519081526020015b60405180910390f35b3480156102ef575f5ffd5b5060015461030490600160a81b900460ff1681565b60405190151581526020016102db565b34801561031f575f5ffd5b5061024561032e3660046116d1565b61057e565b34801561033e575f5ffd5b5060015461030490600160a01b900460ff1681565b34801561035e575f5ffd5b5061024561036d366004611701565b610752565b34801561037d575f5ffd5b506102d161038c3660046116d1565b610808565b34801561039c575f5ffd5b506102456103ab3660046116d1565b610876565b3480156103bb575f5ffd5b506102456103ca36600461178d565b6108fa565b3480156103da575f5ffd5b506102456103e93660046116d1565b610af5565b3480156103f9575f5ffd5b50610245610b95565b34801561040d575f5ffd5b50600154610421906001600160a01b031681565b6040516001600160a01b0390911681526020016102db565b348015610444575f5ffd5b5061024561045336600461182c565b610cc6565b348015610463575f5ffd5b50610245610472366004611847565b610d4c565b348015610482575f5ffd5b506104966104913660046118c4565b610f98565b6040516102db919061193b565b3480156104ae575f5ffd5b505f54610421906001600160a01b031681565b3480156104cc575f5ffd5b506102d160025481565b3480156104e1575f5ffd5b5061024561128a565b3480156104f5575f5ffd5b50610496610504366004611970565b611385565b348015610514575f5ffd5b505f54600154604080516001600160a01b039384168152928216602084015260ff600160a01b83048116151591840191909152600160a81b90910416151560608201526080016102db565b34801561056a575f5ffd5b50610245610579366004611701565b611482565b33301480159061059957506001546001600160a01b03163314155b80156105a55750333214155b156105c2576040516282b42960e81b815260040160405180910390fd5b5f546001600160a01b03166105ea5760405163d92e233d60e01b815260040160405180910390fd5b6040516370a0823160e01b81523060048201525f906001600160a01b038316906370a0823190602401602060405180830381865afa15801561062e573d5f5f3e3d5ffd5b505050506040513d601f19601f8201168201806040525081019061065291906119c6565b9050805f0361067457604051633dbd9b6d60e11b815260040160405180910390fd5b5f805460405163a9059cbb60e01b81526001600160a01b039182166004820152602481018490529084169063a9059cbb906044016020604051808303815f875af11580156106c4573d5f5f3e3d5ffd5b505050506040513d601f19601f820116820180604052508101906106e891906119dd565b9050806107085760405163022e258160e11b815260040160405180910390fd5b5f546040518381526001600160a01b03918216918516907f115d7b5114b5954762cc233b141a7c777a8f79d93f50af7216d645c87fb4883e906020015b60405180910390a3505050565b3330148015906107625750333214155b1561077f576040516282b42960e81b815260040160405180910390fd5b6001600160a01b0383166107a65760405163d92e233d60e01b815260040160405180910390fd5b5f80546001600160a01b038086166001600160a01b0319909216821790925560018054841515600160a01b026001600160a81b03199091169386169384171790556040515f516020611ad95f395f51905f529061074590851515815260200190565b6040516370a0823160e01b81523060048201525f906001600160a01b038316906370a0823190602401602060405180830381865afa15801561084c573d5f5f3e3d5ffd5b505050506040513d601f19601f8201168201806040525081019061087091906119c6565b92915050565b3330148015906108865750333214155b156108a3576040516282b42960e81b815260040160405180910390fd5b600180546001600160a01b0319166001600160a01b03838116918217928390555f54604051600160a01b90940460ff161515845291929116905f516020611ad95f395f51905f52906020015b60405180910390a350565b33301480159061090a5750333214155b15610927576040516282b42960e81b815260040160405180910390fd5b84831415806109365750828114155b15610957576040516001621398b960e31b0319815260040160405180910390fd5b5f5b85811015610aec575f878783818110610974576109746119f8565b905060200201602081019061098991906116d1565b6001600160a01b03168686848181106109a4576109a46119f8565b905060200201358585858181106109bd576109bd6119f8565b90506020028101906109cf9190611a0c565b6040516109dd929190611a4f565b5f6040518083038185875af1925050503d805f8114610a17576040519150601f19603f3d011682016040523d82523d5f602084013e610a1c565b606091505b5050905080610a3e57604051632b3f6d1160e21b815260040160405180910390fd5b878783818110610a5057610a506119f8565b9050602002016020810190610a6591906116d1565b6001600160a01b03167fcaf938de11c367272220bfd1d2baa99ca46665e7bc4d85f00adb51b90fe1fa9f878785818110610aa157610aa16119f8565b90506020020135868686818110610aba57610aba6119f8565b9050602002810190610acc9190611a0c565b604051610adb93929190611a5e565b60405180910390a250600101610959565b50505050505050565b333014801590610b055750333214155b15610b22576040516282b42960e81b815260040160405180910390fd5b6001600160a01b038116610b495760405163d92e233d60e01b815260040160405180910390fd5b5f80546001600160a01b0319166001600160a01b03838116918217909255600154604051600160a01b820460ff16151581529216915f516020611ad95f395f51905f52906020016108ef565b333014801590610bb057506001546001600160a01b03163314155b8015610bbc5750333214155b15610bd9576040516282b42960e81b815260040160405180910390fd5b5f546001600160a01b0316610c015760405163d92e233d60e01b815260040160405180910390fd5b475f819003610c0d5750565b5f80546040516001600160a01b039091169083908381818185875af1925050503d805f8114610c57576040519150601f19603f3d011682016040523d82523d5f602084013e610c5c565b606091505b5050905080610c7e5760405163096dc0e160e01b815260040160405180910390fd5b5f546040518381526001600160a01b039091169030907fba3e71c2881efe881d169a722215ae66587e85bf64bcc507f2904a7345afeba09060200160405180910390a350505b565b333014801590610cd65750333214155b15610cf3576040516282b42960e81b815260040160405180910390fd5b60018054821515600160a01b90810260ff60a01b1983168117938490555f546040516001600160a01b0392831694831694909417949116925f516020611ad95f395f51905f52926108ef920460ff161515815260200190565b333014801590610d6757506001546001600160a01b03163314155b8015610d735750333214155b15610d90576040516282b42960e81b815260040160405180910390fd5b5f546001600160a01b0316610db85760405163d92e233d60e01b815260040160405180910390fd5b5f5b81811015610f93575f838383818110610dd557610dd56119f8565b9050602002016020810190610dea91906116d1565b6040516370a0823160e01b81523060048201526001600160a01b0391909116906370a0823190602401602060405180830381865afa158015610e2e573d5f5f3e3d5ffd5b505050506040513d601f19601f82011682018060405250810190610e5291906119c6565b90508015610f8a575f848484818110610e6d57610e6d6119f8565b9050602002016020810190610e8291906116d1565b5f5460405163a9059cbb60e01b81526001600160a01b0391821660048201526024810185905291169063a9059cbb906044016020604051808303815f875af1158015610ed0573d5f5f3e3d5ffd5b505050506040513d601f19601f82011682018060405250810190610ef491906119dd565b905080610f145760405163022e258160e11b815260040160405180910390fd5b5f546001600160a01b0316858585818110610f3157610f316119f8565b9050602002016020810190610f4691906116d1565b6001600160a01b03167f115d7b5114b5954762cc233b141a7c777a8f79d93f50af7216d645c87fb4883e84604051610f8091815260200190565b60405180910390a3505b50600101610dba565b505050565b60605f7f8b320d3f82cb30ceac499bfb603ebdd270ad1f5e27a1cbe7a0dc0bdcadb6c38a5f1b88888888604051610fd0929190611a4f565b604051908190038120600254611012959493926020019485526001600160a01b0393909316602085015260408401919091526060830152608082015260a00190565b6040516020818303038152906040528051906020012090505f611103604080518082018252601481527322a4a81b9b981920baba37a337b93bb0b93232b960611b6020918201528151808301835260018152603160f81b9082015281517fc2f8787176b8ac6bf7215b4adcc1e069bf4ab82d9ab1df05a57a91d425935b6e818301527f7ef4872878b04ee4262301fdfc75f3b60aa572501746f630bab1db203d799002818401527fc89efdaa54c0f20c7adf612882df0950f5a951637e0307cdcb4c672f298b8bc66060820152466080808301919091528351808303909101815260a0909101909252815191012090565b60405161190160f01b60208201526022810191909152604281018390526062016040516020818303038152906040528051906020012090505f61117b8287878080601f0160208091040260200160405190810160405280939291908181526020018383808284375f9201919091525061157b92505050565b90506001600160a01b0381166111a3576040516282b42960e81b815260040160405180910390fd5b60028054905f6111b283611aa7565b91905055505f5f8b6001600160a01b03168b8b8b6040516111d4929190611a4f565b5f6040518083038185875af1925050503d805f811461120e576040519150601f19603f3d011682016040523d82523d5f602084013e611213565b606091505b50915091508161123657604051632b3f6d1160e21b815260040160405180910390fd5b8b6001600160a01b03167fcaf938de11c367272220bfd1d2baa99ca46665e7bc4d85f00adb51b90fe1fa9f8c8c8c60405161127393929190611a5e565b60405180910390a29b9a5050505050505050505050565b33301480159061129a5750333214155b156112b7576040516282b42960e81b815260040160405180910390fd5b5f546001600160a01b0316158015906112cf57505f47115b15610cc4575f80546040516001600160a01b039091169047908381818185875af1925050503d805f811461131e576040519150601f19603f3d011682016040523d82523d5f602084013e611323565b606091505b50509050806113455760405163096dc0e160e01b815260040160405180910390fd5b5f546040514781526001600160a01b039091169030907fba3e71c2881efe881d169a722215ae66587e85bf64bcc507f2904a7345afeba0906020016108ef565b60603330148015906113975750333214155b156113b4576040516282b42960e81b815260040160405180910390fd5b5f5f866001600160a01b03168686866040516113d1929190611a4f565b5f6040518083038185875af1925050503d805f811461140b576040519150601f19603f3d011682016040523d82523d5f602084013e611410565b606091505b50915091508161143357604051632b3f6d1160e21b815260040160405180910390fd5b866001600160a01b03167fcaf938de11c367272220bfd1d2baa99ca46665e7bc4d85f00adb51b90fe1fa9f87878760405161147093929190611a5e565b60405180910390a29695505050505050565b3330148015906114925750333214155b156114af576040516282b42960e81b815260040160405180910390fd5b600154600160a81b900460ff16156114d95760405162dc149f60e41b815260040160405180910390fd5b6001600160a01b0383166115005760405163d92e233d60e01b815260040160405180910390fd5b5f80546001600160a01b0319166001600160a01b03858116918217835560018054600160a81b9287166001600160a81b03199091168117600160a01b871515021760ff60a81b191692909217905560405190927f3cd5ec01b1ae7cfec6ca1863e2cd6aa25d6d1702825803ff2b7cc95010fffdc291a3505050565b5f81516041146115d25760405162461bcd60e51b815260206004820152601860248201527f496e76616c6964207369676e6174757265206c656e677468000000000000000060448201526064015b60405180910390fd5b6020820151604083015160608401515f1a601b8110156115fa576115f7601b82611abf565b90505b8060ff16601b1415801561161257508060ff16601c14155b156116515760405162461bcd60e51b815260206004820152600f60248201526e496e76616c696420762076616c756560881b60448201526064016115c9565b604080515f81526020810180835288905260ff831691810191909152606081018490526080810183905260019060a0016020604051602081039080840390855afa1580156116a1573d5f5f3e3d5ffd5b5050604051601f190151979650505050505050565b80356001600160a01b03811681146116cc575f5ffd5b919050565b5f602082840312156116e1575f5ffd5b6116ea826116b6565b9392505050565b80151581146116fe575f5ffd5b50565b5f5f5f60608486031215611713575f5ffd5b61171c846116b6565b925061172a602085016116b6565b9150604084013561173a816116f1565b809150509250925092565b5f5f83601f840112611755575f5ffd5b50813567ffffffffffffffff81111561176c575f5ffd5b6020830191508360208260051b8501011115611786575f5ffd5b9250929050565b5f5f5f5f5f5f606087890312156117a2575f5ffd5b863567ffffffffffffffff8111156117b8575f5ffd5b6117c489828a01611745565b909750955050602087013567ffffffffffffffff8111156117e3575f5ffd5b6117ef89828a01611745565b909550935050604087013567ffffffffffffffff81111561180e575f5ffd5b61181a89828a01611745565b979a9699509497509295939492505050565b5f6020828403121561183c575f5ffd5b81356116ea816116f1565b5f5f60208385031215611858575f5ffd5b823567ffffffffffffffff81111561186e575f5ffd5b61187a85828601611745565b90969095509350505050565b5f5f83601f840112611896575f5ffd5b50813567ffffffffffffffff8111156118ad575f5ffd5b602083019150836020828501011115611786575f5ffd5b5f5f5f5f5f5f608087890312156118d9575f5ffd5b6118e2876116b6565b955060208701359450604087013567ffffffffffffffff811115611904575f5ffd5b61191089828a01611886565b909550935050606087013567ffffffffffffffff81111561192f575f5ffd5b61181a89828a01611886565b602081525f82518060208401528060208501604085015e5f604082850101526040601f19601f83011684010191505092915050565b5f5f5f5f60608587031215611983575f5ffd5b61198c856116b6565b935060208501359250604085013567ffffffffffffffff8111156119ae575f5ffd5b6119ba87828801611886565b95989497509550505050565b5f602082840312156119d6575f5ffd5b5051919050565b5f602082840312156119ed575f5ffd5b81516116ea816116f1565b634e487b7160e01b5f52603260045260245ffd5b5f5f8335601e19843603018112611a21575f5ffd5b83018035915067ffffffffffffffff821115611a3b575f5ffd5b602001915036819003821315611786575f5ffd5b818382375f9101908152919050565b83815260406020820152816040820152818360608301375f818301606090810191909152601f909201601f1916010192915050565b634e487b7160e01b5f52601160045260245ffd5b5f60018201611ab857611ab8611a93565b5060010190565b60ff818116838216019081111561087057610870611a9356fe8f77097880cbeed821b47f9836e06b28a74d72de99667426584d993fe4f56e80a26469706673582212205688ed7fd243c7a2186486ceea6016209fe9d4bb0966f31c77db712d78a6df5764736f6c634300081b0033","opcodes":"PUSH1 0x80 PUSH1 0x40 MSTORE CALLVALUE DUP1 ISZERO PUSH1 0xE JUMPI PUSH0 PUSH0 REVERT JUMPDEST POP PUSH2 0x1B2E DUP1 PUSH2 0x1C PUSH0 CODECOPY PUSH0 RETURN INVALID PUSH1 0x80 PUSH1 0x40 MSTORE PUSH1 0x4 CALLDATASIZE LT PUSH2 0x122 JUMPI PUSH0 CALLDATALOAD PUSH1 0xE0 SHR DUP1 PUSH4 0x6EDFCD23 GT PUSH2 0x9F JUMPI DUP1 PUSH4 0xAFFED0E0 GT PUSH2 0x63 JUMPI DUP1 PUSH4 0xAFFED0E0 EQ PUSH2 0x4C1 JUMPI DUP1 PUSH4 0xB425EF83 EQ PUSH2 0x4D6 JUMPI DUP1 PUSH4 0xB61D27F6 EQ PUSH2 0x4EA JUMPI DUP1 PUSH4 0xC3F909D4 EQ PUSH2 0x509 JUMPI DUP1 PUSH4 0xE4BBB5A8 EQ PUSH2 0x55F JUMPI PUSH2 0x247 JUMP JUMPDEST DUP1 PUSH4 0x6EDFCD23 EQ PUSH2 0x402 JUMPI DUP1 PUSH4 0x76405B93 EQ PUSH2 0x439 JUMPI DUP1 PUSH4 0x909B19D9 EQ PUSH2 0x458 JUMPI DUP1 PUSH4 0x9463F7A6 EQ PUSH2 0x477 JUMPI DUP1 PUSH4 0xA94CC1A0 EQ PUSH2 0x4A3 JUMPI PUSH2 0x247 JUMP JUMPDEST DUP1 PUSH4 0x3AECD0E3 GT PUSH2 0xE6 JUMPI DUP1 PUSH4 0x3AECD0E3 EQ PUSH2 0x372 JUMPI DUP1 PUSH4 0x47D5E3AE EQ PUSH2 0x391 JUMPI DUP1 PUSH4 0x47E1DA2A EQ PUSH2 0x3B0 JUMPI DUP1 PUSH4 0x537244C6 EQ PUSH2 0x3CF JUMPI DUP1 PUSH4 0x6D3E4481 EQ PUSH2 0x3EE JUMPI PUSH2 0x247 JUMP JUMPDEST DUP1 PUSH4 0x12065FE0 EQ PUSH2 0x2C3 JUMPI DUP1 PUSH4 0x158EF93E EQ PUSH2 0x2E4 JUMPI DUP1 PUSH4 0x1BE19560 EQ PUSH2 0x314 JUMPI DUP1 PUSH4 0x32737034 EQ PUSH2 0x333 JUMPI DUP1 PUSH4 0x37A9BA94 EQ PUSH2 0x353 JUMPI PUSH2 0x247 JUMP JUMPDEST CALLDATASIZE PUSH2 0x247 JUMPI PUSH1 0x1 SLOAD PUSH1 0x1 PUSH1 0xA0 SHL SWAP1 DIV PUSH1 0xFF AND DUP1 ISZERO PUSH2 0x149 JUMPI POP PUSH0 SLOAD PUSH1 0x1 PUSH1 0x1 PUSH1 0xA0 SHL SUB AND ISZERO ISZERO JUMPDEST DUP1 ISZERO PUSH2 0x154 JUMPI POP PUSH0 CALLVALUE GT JUMPDEST ISZERO PUSH2 0x20F JUMPI PUSH0 DUP1 SLOAD PUSH1 0x40 MLOAD PUSH1 0x1 PUSH1 0x1 PUSH1 0xA0 SHL SUB SWAP1 SWAP2 AND SWAP1 CALLVALUE SWAP1 DUP4 DUP2 DUP2 DUP2 DUP6 DUP8 GAS CALL SWAP3 POP POP POP RETURNDATASIZE DUP1 PUSH0 DUP2 EQ PUSH2 0x1A3 JUMPI PUSH1 0x40 MLOAD SWAP2 POP PUSH1 0x1F NOT PUSH1 0x3F RETURNDATASIZE ADD AND DUP3 ADD PUSH1 0x40 MSTORE RETURNDATASIZE DUP3 MSTORE RETURNDATASIZE PUSH0 PUSH1 0x20 DUP5 ADD RETURNDATACOPY PUSH2 0x1A8 JUMP JUMPDEST PUSH1 0x60 SWAP2 POP JUMPDEST POP POP SWAP1 POP DUP1 PUSH2 0x1CA JUMPI PUSH1 0x40 MLOAD PUSH4 0x96DC0E1 PUSH1 0xE0 SHL DUP2 MSTORE PUSH1 0x4 ADD PUSH1 0x40 MLOAD DUP1 SWAP2 SUB SWAP1 REVERT JUMPDEST PUSH0 SLOAD PUSH1 0x40 MLOAD CALLVALUE DUP2 MSTORE PUSH1 0x1 PUSH1 0x1 PUSH1 0xA0 SHL SUB SWAP1 SWAP2 AND SWAP1 CALLER SWAP1 PUSH32 0xBA3E71C2881EFE881D169A722215AE66587E85BF64BCC507F2904A7345AFEBA0 SWAP1 PUSH1 0x20 ADD PUSH1 0x40 MLOAD DUP1 SWAP2 SUB SWAP1 LOG3 STOP JUMPDEST PUSH1 0x40 MLOAD CALLVALUE DUP2 MSTORE CALLER SWAP1 PUSH32 0xBFE611B001DFCD411432F7BF0D79B82B4B2EE81511EDAC123A3403C357FB972A SWAP1 PUSH1 0x20 ADD PUSH1 0x40 MLOAD DUP1 SWAP2 SUB SWAP1 LOG2 JUMPDEST STOP JUMPDEST PUSH1 0x1 SLOAD PUSH1 0x1 PUSH1 0xA0 SHL SWAP1 DIV PUSH1 0xFF AND DUP1 ISZERO PUSH2 0x269 JUMPI POP PUSH0 SLOAD PUSH1 0x1 PUSH1 0x1 PUSH1 0xA0 SHL SUB AND ISZERO ISZERO JUMPDEST DUP1 ISZERO PUSH2 0x274 JUMPI POP PUSH0 CALLVALUE GT JUMPDEST ISZERO PUSH2 0x245 JUMPI PUSH0 DUP1 SLOAD PUSH1 0x40 MLOAD PUSH1 0x1 PUSH1 0x1 PUSH1 0xA0 SHL SUB SWAP1 SWAP2 AND SWAP1 CALLVALUE SWAP1 DUP4 DUP2 DUP2 DUP2 DUP6 DUP8 GAS CALL SWAP3 POP POP POP RETURNDATASIZE DUP1 PUSH0 DUP2 EQ PUSH2 0x1A3 JUMPI PUSH1 0x40 MLOAD SWAP2 POP PUSH1 0x1F NOT PUSH1 0x3F RETURNDATASIZE ADD AND DUP3 ADD PUSH1 0x40 MSTORE RETURNDATASIZE DUP3 MSTORE RETURNDATASIZE PUSH0 PUSH1 0x20 DUP5 ADD RETURNDATACOPY PUSH2 0x1A8 JUMP JUMPDEST CALLVALUE DUP1 ISZERO PUSH2 0x2CE JUMPI PUSH0 PUSH0 REVERT JUMPDEST POP SELFBALANCE JUMPDEST PUSH1 0x40 MLOAD SWAP1 DUP2 MSTORE PUSH1 0x20 ADD JUMPDEST PUSH1 0x40 MLOAD DUP1 SWAP2 SUB SWAP1 RETURN JUMPDEST CALLVALUE DUP1 ISZERO PUSH2 0x2EF JUMPI PUSH0 PUSH0 REVERT JUMPDEST POP PUSH1 0x1 SLOAD PUSH2 0x304 SWAP1 PUSH1 0x1 PUSH1 0xA8 SHL SWAP1 DIV PUSH1 0xFF AND DUP2 JUMP JUMPDEST PUSH1 0x40 MLOAD SWAP1 ISZERO ISZERO DUP2 MSTORE PUSH1 0x20 ADD PUSH2 0x2DB JUMP JUMPDEST CALLVALUE DUP1 ISZERO PUSH2 0x31F JUMPI PUSH0 PUSH0 REVERT JUMPDEST POP PUSH2 0x245 PUSH2 0x32E CALLDATASIZE PUSH1 0x4 PUSH2 0x16D1 JUMP JUMPDEST PUSH2 0x57E JUMP JUMPDEST CALLVALUE DUP1 ISZERO PUSH2 0x33E JUMPI PUSH0 PUSH0 REVERT JUMPDEST POP PUSH1 0x1 SLOAD PUSH2 0x304 SWAP1 PUSH1 0x1 PUSH1 0xA0 SHL SWAP1 DIV PUSH1 0xFF AND DUP2 JUMP JUMPDEST CALLVALUE DUP1 ISZERO PUSH2 0x35E JUMPI PUSH0 PUSH0 REVERT JUMPDEST POP PUSH2 0x245 PUSH2 0x36D CALLDATASIZE PUSH1 0x4 PUSH2 0x1701 JUMP JUMPDEST PUSH2 0x752 JUMP JUMPDEST CALLVALUE DUP1 ISZERO PUSH2 0x37D JUMPI PUSH0 PUSH0 REVERT JUMPDEST POP PUSH2 0x2D1 PUSH2 0x38C CALLDATASIZE PUSH1 0x4 PUSH2 0x16D1 JUMP JUMPDEST PUSH2 0x808 JUMP JUMPDEST CALLVALUE DUP1 ISZERO PUSH2 0x39C JUMPI PUSH0 PUSH0 REVERT JUMPDEST POP PUSH2 0x245 PUSH2 0x3AB CALLDATASIZE PUSH1 0x4 PUSH2 0x16D1 JUMP JUMPDEST PUSH2 0x876 JUMP JUMPDEST CALLVALUE DUP1 ISZERO PUSH2 0x3BB JUMPI PUSH0 PUSH0 REVERT JUMPDEST POP PUSH2 0x245 PUSH2 0x3CA CALLDATASIZE PUSH1 0x4 PUSH2 0x178D JUMP JUMPDEST PUSH2 0x8FA JUMP JUMPDEST CALLVALUE DUP1 ISZERO PUSH2 0x3DA JUMPI PUSH0 PUSH0 REVERT JUMPDEST POP PUSH2 0x245 PUSH2 0x3E9 CALLDATASIZE PUSH1 0x4 PUSH2 0x16D1 JUMP JUMPDEST PUSH2 0xAF5 JUMP JUMPDEST CALLVALUE DUP1 ISZERO PUSH2 0x3F9 JUMPI PUSH0 PUSH0 REVERT JUMPDEST POP PUSH2 0x245 PUSH2 0xB95 JUMP JUMPDEST CALLVALUE DUP1 ISZERO PUSH2 0x40D JUMPI PUSH0 PUSH0 REVERT JUMPDEST POP PUSH1 0x1 SLOAD PUSH2 0x421 SWAP1 PUSH1 0x1 PUSH1 0x1 PUSH1 0xA0 SHL SUB AND DUP2 JUMP JUMPDEST PUSH1 0x40 MLOAD PUSH1 0x1 PUSH1 0x1 PUSH1 0xA0 SHL SUB SWAP1 SWAP2 AND DUP2 MSTORE PUSH1 0x20 ADD PUSH2 0x2DB JUMP JUMPDEST CALLVALUE DUP1 ISZERO PUSH2 0x444 JUMPI PUSH0 PUSH0 REVERT JUMPDEST POP PUSH2 0x245 PUSH2 0x453 CALLDATASIZE PUSH1 0x4 PUSH2 0x182C JUMP JUMPDEST PUSH2 0xCC6 JUMP JUMPDEST CALLVALUE DUP1 ISZERO PUSH2 0x463 JUMPI PUSH0 PUSH0 REVERT JUMPDEST POP PUSH2 0x245 PUSH2 0x472 CALLDATASIZE PUSH1 0x4 PUSH2 0x1847 JUMP JUMPDEST PUSH2 0xD4C JUMP JUMPDEST CALLVALUE DUP1 ISZERO PUSH2 0x482 JUMPI PUSH0 PUSH0 REVERT JUMPDEST POP PUSH2 0x496 PUSH2 0x491 CALLDATASIZE PUSH1 0x4 PUSH2 0x18C4 JUMP JUMPDEST PUSH2 0xF98 JUMP JUMPDEST PUSH1 0x40 MLOAD PUSH2 0x2DB SWAP2 SWAP1 PUSH2 0x193B JUMP JUMPDEST CALLVALUE DUP1 ISZERO PUSH2 0x4AE JUMPI PUSH0 PUSH0 REVERT JUMPDEST POP PUSH0 SLOAD PUSH2 0x421 SWAP1 PUSH1 0x1 PUSH1 0x1 PUSH1 0xA0 SHL SUB AND DUP2 JUMP JUMPDEST CALLVALUE DUP1 ISZERO PUSH2 0x4CC JUMPI PUSH0 PUSH0 REVERT JUMPDEST POP PUSH2 0x2D1 PUSH1 0x2 SLOAD DUP2 JUMP JUMPDEST CALLVALUE DUP1 ISZERO PUSH2 0x4E1 JUMPI PUSH0 PUSH0 REVERT JUMPDEST POP PUSH2 0x245 PUSH2 0x128A JUMP JUMPDEST CALLVALUE DUP1 ISZERO PUSH2 0x4F5 JUMPI PUSH0 PUSH0 REVERT JUMPDEST POP PUSH2 0x496 PUSH2 0x504 CALLDATASIZE PUSH1 0x4 PUSH2 0x1970 JUMP JUMPDEST PUSH2 0x1385 JUMP JUMPDEST CALLVALUE DUP1 ISZERO PUSH2 0x514 JUMPI PUSH0 PUSH0 REVERT JUMPDEST POP PUSH0 SLOAD PUSH1 0x1 SLOAD PUSH1 0x40 DUP1 MLOAD PUSH1 0x1 PUSH1 0x1 PUSH1 0xA0 SHL SUB SWAP4 DUP5 AND DUP2 MSTORE SWAP3 DUP3 AND PUSH1 0x20 DUP5 ADD MSTORE PUSH1 0xFF PUSH1 0x1 PUSH1 0xA0 SHL DUP4 DIV DUP2 AND ISZERO ISZERO SWAP2 DUP5 ADD SWAP2 SWAP1 SWAP2 MSTORE PUSH1 0x1 PUSH1 0xA8 SHL SWAP1 SWAP2 DIV AND ISZERO ISZERO PUSH1 0x60 DUP3 ADD MSTORE PUSH1 0x80 ADD PUSH2 0x2DB JUMP JUMPDEST CALLVALUE DUP1 ISZERO PUSH2 0x56A JUMPI PUSH0 PUSH0 REVERT JUMPDEST POP PUSH2 0x245 PUSH2 0x579 CALLDATASIZE PUSH1 0x4 PUSH2 0x1701 JUMP JUMPDEST PUSH2 0x1482 JUMP JUMPDEST CALLER ADDRESS EQ DUP1 ISZERO SWAP1 PUSH2 0x599 JUMPI POP PUSH1 0x1 SLOAD PUSH1 0x1 PUSH1 0x1 PUSH1 0xA0 SHL SUB AND CALLER EQ ISZERO JUMPDEST DUP1 ISZERO PUSH2 0x5A5 JUMPI POP CALLER ORIGIN EQ ISZERO JUMPDEST ISZERO PUSH2 0x5C2 JUMPI PUSH1 0x40 MLOAD PUSH3 0x82B429 PUSH1 0xE8 SHL DUP2 MSTORE PUSH1 0x4 ADD PUSH1 0x40 MLOAD DUP1 SWAP2 SUB SWAP1 REVERT JUMPDEST PUSH0 SLOAD PUSH1 0x1 PUSH1 0x1 PUSH1 0xA0 SHL SUB AND PUSH2 0x5EA JUMPI PUSH1 0x40 MLOAD PUSH4 0xD92E233D PUSH1 0xE0 SHL DUP2 MSTORE PUSH1 0x4 ADD PUSH1 0x40 MLOAD DUP1 SWAP2 SUB SWAP1 REVERT JUMPDEST PUSH1 0x40 MLOAD PUSH4 0x70A08231 PUSH1 0xE0 SHL DUP2 MSTORE ADDRESS PUSH1 0x4 DUP3 ADD MSTORE PUSH0 SWAP1 PUSH1 0x1 PUSH1 0x1 PUSH1 0xA0 SHL SUB DUP4 AND SWAP1 PUSH4 0x70A08231 SWAP1 PUSH1 0x24 ADD PUSH1 0x20 PUSH1 0x40 MLOAD DUP1 DUP4 SUB DUP2 DUP7 GAS STATICCALL ISZERO DUP1 ISZERO PUSH2 0x62E JUMPI RETURNDATASIZE PUSH0 PUSH0 RETURNDATACOPY RETURNDATASIZE PUSH0 REVERT JUMPDEST POP POP POP POP PUSH1 0x40 MLOAD RETURNDATASIZE PUSH1 0x1F NOT PUSH1 0x1F DUP3 ADD AND DUP3 ADD DUP1 PUSH1 0x40 MSTORE POP DUP2 ADD SWAP1 PUSH2 0x652 SWAP2 SWAP1 PUSH2 0x19C6 JUMP JUMPDEST SWAP1 POP DUP1 PUSH0 SUB PUSH2 0x674 JUMPI PUSH1 0x40 MLOAD PUSH4 0x3DBD9B6D PUSH1 0xE1 SHL DUP2 MSTORE PUSH1 0x4 ADD PUSH1 0x40 MLOAD DUP1 SWAP2 SUB SWAP1 REVERT JUMPDEST PUSH0 DUP1 SLOAD PUSH1 0x40 MLOAD PUSH4 0xA9059CBB PUSH1 0xE0 SHL DUP2 MSTORE PUSH1 0x1 PUSH1 0x1 PUSH1 0xA0 SHL SUB SWAP2 DUP3 AND PUSH1 0x4 DUP3 ADD MSTORE PUSH1 0x24 DUP2 ADD DUP5 SWAP1 MSTORE SWAP1 DUP5 AND SWAP1 PUSH4 0xA9059CBB SWAP1 PUSH1 0x44 ADD PUSH1 0x20 PUSH1 0x40 MLOAD DUP1 DUP4 SUB DUP2 PUSH0 DUP8 GAS CALL ISZERO DUP1 ISZERO PUSH2 0x6C4 JUMPI RETURNDATASIZE PUSH0 PUSH0 RETURNDATACOPY RETURNDATASIZE PUSH0 REVERT JUMPDEST POP POP POP POP PUSH1 0x40 MLOAD RETURNDATASIZE PUSH1 0x1F NOT PUSH1 0x1F DUP3 ADD AND DUP3 ADD DUP1 PUSH1 0x40 MSTORE POP DUP2 ADD SWAP1 PUSH2 0x6E8 SWAP2 SWAP1 PUSH2 0x19DD JUMP JUMPDEST SWAP1 POP DUP1 PUSH2 0x708 JUMPI PUSH1 0x40 MLOAD PUSH4 0x22E2581 PUSH1 0xE1 SHL DUP2 MSTORE PUSH1 0x4 ADD PUSH1 0x40 MLOAD DUP1 SWAP2 SUB SWAP1 REVERT JUMPDEST PUSH0 SLOAD PUSH1 0x40 MLOAD DUP4 DUP2 MSTORE PUSH1 0x1 PUSH1 0x1 PUSH1 0xA0 SHL SUB SWAP2 DUP3 AND SWAP2 DUP6 AND SWAP1 PUSH32 0x115D7B5114B5954762CC233B141A7C777A8F79D93F50AF7216D645C87FB4883E SWAP1 PUSH1 0x20 ADD JUMPDEST PUSH1 0x40 MLOAD DUP1 SWAP2 SUB SWAP1 LOG3 POP POP POP JUMP JUMPDEST CALLER ADDRESS EQ DUP1 ISZERO SWAP1 PUSH2 0x762 JUMPI POP CALLER ORIGIN EQ ISZERO JUMPDEST ISZERO PUSH2 0x77F JUMPI PUSH1 0x40 MLOAD PUSH3 0x82B429 PUSH1 0xE8 SHL DUP2 MSTORE PUSH1 0x4 ADD PUSH1 0x40 MLOAD DUP1 SWAP2 SUB SWAP1 REVERT JUMPDEST PUSH1 0x1 PUSH1 0x1 PUSH1 0xA0 SHL SUB DUP4 AND PUSH2 0x7A6 JUMPI PUSH1 0x40 MLOAD PUSH4 0xD92E233D PUSH1 0xE0 SHL DUP2 MSTORE PUSH1 0x4 ADD PUSH1 0x40 MLOAD DUP1 SWAP2 SUB SWAP1 REVERT JUMPDEST PUSH0 DUP1 SLOAD PUSH1 0x1 PUSH1 0x1 PUSH1 0xA0 SHL SUB DUP1 DUP7 AND PUSH1 0x1 PUSH1 0x1 PUSH1 0xA0 SHL SUB NOT SWAP1 SWAP3 AND DUP3 OR SWAP1 SWAP3 SSTORE PUSH1 0x1 DUP1 SLOAD DUP5 ISZERO ISZERO PUSH1 0x1 PUSH1 0xA0 SHL MUL PUSH1 0x1 PUSH1 0x1 PUSH1 0xA8 SHL SUB NOT SWAP1 SWAP2 AND SWAP4 DUP7 AND SWAP4 DUP5 OR OR SWAP1 SSTORE PUSH1 0x40 MLOAD PUSH0 MLOAD PUSH1 0x20 PUSH2 0x1AD9 PUSH0 CODECOPY PUSH0 MLOAD SWAP1 PUSH0 MSTORE SWAP1 PUSH2 0x745 SWAP1 DUP6 ISZERO ISZERO DUP2 MSTORE PUSH1 0x20 ADD SWAP1 JUMP JUMPDEST PUSH1 0x40 MLOAD PUSH4 0x70A08231 PUSH1 0xE0 SHL DUP2 MSTORE ADDRESS PUSH1 0x4 DUP3 ADD MSTORE PUSH0 SWAP1 PUSH1 0x1 PUSH1 0x1 PUSH1 0xA0 SHL SUB DUP4 AND SWAP1 PUSH4 0x70A08231 SWAP1 PUSH1 0x24 ADD PUSH1 0x20 PUSH1 0x40 MLOAD DUP1 DUP4 SUB DUP2 DUP7 GAS STATICCALL ISZERO DUP1 ISZERO PUSH2 0x84C JUMPI RETURNDATASIZE PUSH0 PUSH0 RETURNDATACOPY RETURNDATASIZE PUSH0 REVERT JUMPDEST POP POP POP POP PUSH1 0x40 MLOAD RETURNDATASIZE PUSH1 0x1F NOT PUSH1 0x1F DUP3 ADD AND DUP3 ADD DUP1 PUSH1 0x40 MSTORE POP DUP2 ADD SWAP1 PUSH2 0x870 SWAP2 SWAP1 PUSH2 0x19C6 JUMP JUMPDEST SWAP3 SWAP2 POP POP JUMP JUMPDEST CALLER ADDRESS EQ DUP1 ISZERO SWAP1 PUSH2 0x886 JUMPI POP CALLER ORIGIN EQ ISZERO JUMPDEST ISZERO PUSH2 0x8A3 JUMPI PUSH1 0x40 MLOAD PUSH3 0x82B429 PUSH1 0xE8 SHL DUP2 MSTORE PUSH1 0x4 ADD PUSH1 0x40 MLOAD DUP1 SWAP2 SUB SWAP1 REVERT JUMPDEST PUSH1 0x1 DUP1 SLOAD PUSH1 0x1 PUSH1 0x1 PUSH1 0xA0 SHL SUB NOT AND PUSH1 0x1 PUSH1 0x1 PUSH1 0xA0 SHL SUB DUP4 DUP2 AND SWAP2 DUP3 OR SWAP3 DUP4 SWAP1 SSTORE PUSH0 SLOAD PUSH1 0x40 MLOAD PUSH1 0x1 PUSH1 0xA0 SHL SWAP1 SWAP5 DIV PUSH1 0xFF AND ISZERO ISZERO DUP5 MSTORE SWAP2 SWAP3 SWAP2 AND SWAP1 PUSH0 MLOAD PUSH1 0x20 PUSH2 0x1AD9 PUSH0 CODECOPY PUSH0 MLOAD SWAP1 PUSH0 MSTORE SWAP1 PUSH1 0x20 ADD JUMPDEST PUSH1 0x40 MLOAD DUP1 SWAP2 SUB SWAP1 LOG3 POP JUMP JUMPDEST CALLER ADDRESS EQ DUP1 ISZERO SWAP1 PUSH2 0x90A JUMPI POP CALLER ORIGIN EQ ISZERO JUMPDEST ISZERO PUSH2 0x927 JUMPI PUSH1 0x40 MLOAD PUSH3 0x82B429 PUSH1 0xE8 SHL DUP2 MSTORE PUSH1 0x4 ADD PUSH1 0x40 MLOAD DUP1 SWAP2 SUB SWAP1 REVERT JUMPDEST DUP5 DUP4 EQ ISZERO DUP1 PUSH2 0x936 JUMPI POP DUP3 DUP2 EQ ISZERO JUMPDEST ISZERO PUSH2 0x957 JUMPI PUSH1 0x40 MLOAD PUSH1 0x1 PUSH3 0x1398B9 PUSH1 0xE3 SHL SUB NOT DUP2 MSTORE PUSH1 0x4 ADD PUSH1 0x40 MLOAD DUP1 SWAP2 SUB SWAP1 REVERT JUMPDEST PUSH0 JUMPDEST DUP6 DUP2 LT ISZERO PUSH2 0xAEC JUMPI PUSH0 DUP8 DUP8 DUP4 DUP2 DUP2 LT PUSH2 0x974 JUMPI PUSH2 0x974 PUSH2 0x19F8 JUMP JUMPDEST SWAP1 POP PUSH1 0x20 MUL ADD PUSH1 0x20 DUP2 ADD SWAP1 PUSH2 0x989 SWAP2 SWAP1 PUSH2 0x16D1 JUMP JUMPDEST PUSH1 0x1 PUSH1 0x1 PUSH1 0xA0 SHL SUB AND DUP7 DUP7 DUP5 DUP2 DUP2 LT PUSH2 0x9A4 JUMPI PUSH2 0x9A4 PUSH2 0x19F8 JUMP JUMPDEST SWAP1 POP PUSH1 0x20 MUL ADD CALLDATALOAD DUP6 DUP6 DUP6 DUP2 DUP2 LT PUSH2 0x9BD JUMPI PUSH2 0x9BD PUSH2 0x19F8 JUMP JUMPDEST SWAP1 POP PUSH1 0x20 MUL DUP2 ADD SWAP1 PUSH2 0x9CF SWAP2 SWAP1 PUSH2 0x1A0C JUMP JUMPDEST PUSH1 0x40 MLOAD PUSH2 0x9DD SWAP3 SWAP2 SWAP1 PUSH2 0x1A4F JUMP JUMPDEST PUSH0 PUSH1 0x40 MLOAD DUP1 DUP4 SUB DUP2 DUP6 DUP8 GAS CALL SWAP3 POP POP POP RETURNDATASIZE DUP1 PUSH0 DUP2 EQ PUSH2 0xA17 JUMPI PUSH1 0x40 MLOAD SWAP2 POP PUSH1 0x1F NOT PUSH1 0x3F RETURNDATASIZE ADD AND DUP3 ADD PUSH1 0x40 MSTORE RETURNDATASIZE DUP3 MSTORE RETURNDATASIZE PUSH0 PUSH1 0x20 DUP5 ADD RETURNDATACOPY PUSH2 0xA1C JUMP JUMPDEST PUSH1 0x60 SWAP2 POP JUMPDEST POP POP SWAP1 POP DUP1 PUSH2 0xA3E JUMPI PUSH1 0x40 MLOAD PUSH4 0x2B3F6D11 PUSH1 0xE2 SHL DUP2 MSTORE PUSH1 0x4 ADD PUSH1 0x40 MLOAD DUP1 SWAP2 SUB SWAP1 REVERT JUMPDEST DUP8 DUP8 DUP4 DUP2 DUP2 LT PUSH2 0xA50 JUMPI PUSH2 0xA50 PUSH2 0x19F8 JUMP JUMPDEST SWAP1 POP PUSH1 0x20 MUL ADD PUSH1 0x20 DUP2 ADD SWAP1 PUSH2 0xA65 SWAP2 SWAP1 PUSH2 0x16D1 JUMP JUMPDEST PUSH1 0x1 PUSH1 0x1 PUSH1 0xA0 SHL SUB AND PUSH32 0xCAF938DE11C367272220BFD1D2BAA99CA46665E7BC4D85F00ADB51B90FE1FA9F DUP8 DUP8 DUP6 DUP2 DUP2 LT PUSH2 0xAA1 JUMPI PUSH2 0xAA1 PUSH2 0x19F8 JUMP JUMPDEST SWAP1 POP PUSH1 0x20 MUL ADD CALLDATALOAD DUP7 DUP7 DUP7 DUP2 DUP2 LT PUSH2 0xABA JUMPI PUSH2 0xABA PUSH2 0x19F8 JUMP JUMPDEST SWAP1 POP PUSH1 0x20 MUL DUP2 ADD SWAP1 PUSH2 0xACC SWAP2 SWAP1 PUSH2 0x1A0C JUMP JUMPDEST PUSH1 0x40 MLOAD PUSH2 0xADB SWAP4 SWAP3 SWAP2 SWAP1 PUSH2 0x1A5E JUMP JUMPDEST PUSH1 0x40 MLOAD DUP1 SWAP2 SUB SWAP1 LOG2 POP PUSH1 0x1 ADD PUSH2 0x959 JUMP JUMPDEST POP POP POP POP POP POP POP JUMP JUMPDEST CALLER ADDRESS EQ DUP1 ISZERO SWAP1 PUSH2 0xB05 JUMPI POP CALLER ORIGIN EQ ISZERO JUMPDEST ISZERO PUSH2 0xB22 JUMPI PUSH1 0x40 MLOAD PUSH3 0x82B429 PUSH1 0xE8 SHL DUP2 MSTORE PUSH1 0x4 ADD PUSH1 0x40 MLOAD DUP1 SWAP2 SUB SWAP1 REVERT JUMPDEST PUSH1 0x1 PUSH1 0x1 PUSH1 0xA0 SHL SUB DUP2 AND PUSH2 0xB49 JUMPI PUSH1 0x40 MLOAD PUSH4 0xD92E233D PUSH1 0xE0 SHL DUP2 MSTORE PUSH1 0x4 ADD PUSH1 0x40 MLOAD DUP1 SWAP2 SUB SWAP1 REVERT JUMPDEST PUSH0 DUP1 SLOAD PUSH1 0x1 PUSH1 0x1 PUSH1 0xA0 SHL SUB NOT AND PUSH1 0x1 PUSH1 0x1 PUSH1 0xA0 SHL SUB DUP4 DUP2 AND SWAP2 DUP3 OR SWAP1 SWAP3 SSTORE PUSH1 0x1 SLOAD PUSH1 0x40 MLOAD PUSH1 0x1 PUSH1 0xA0 SHL DUP3 DIV PUSH1 0xFF AND ISZERO ISZERO DUP2 MSTORE SWAP3 AND SWAP2 PUSH0 MLOAD PUSH1 0x20 PUSH2 0x1AD9 PUSH0 CODECOPY PUSH0 MLOAD SWAP1 PUSH0 MSTORE SWAP1 PUSH1 0x20 ADD PUSH2 0x8EF JUMP JUMPDEST CALLER ADDRESS EQ DUP1 ISZERO SWAP1 PUSH2 0xBB0 JUMPI POP PUSH1 0x1 SLOAD PUSH1 0x1 PUSH1 0x1 PUSH1 0xA0 SHL SUB AND CALLER EQ ISZERO JUMPDEST DUP1 ISZERO PUSH2 0xBBC JUMPI POP CALLER ORIGIN EQ ISZERO JUMPDEST ISZERO PUSH2 0xBD9 JUMPI PUSH1 0x40 MLOAD PUSH3 0x82B429 PUSH1 0xE8 SHL DUP2 MSTORE PUSH1 0x4 ADD PUSH1 0x40 MLOAD DUP1 SWAP2 SUB SWAP1 REVERT JUMPDEST PUSH0 SLOAD PUSH1 0x1 PUSH1 0x1 PUSH1 0xA0 SHL SUB AND PUSH2 0xC01 JUMPI PUSH1 0x40 MLOAD PUSH4 0xD92E233D PUSH1 0xE0 SHL DUP2 MSTORE PUSH1 0x4 ADD PUSH1 0x40 MLOAD DUP1 SWAP2 SUB SWAP1 REVERT JUMPDEST SELFBALANCE PUSH0 DUP2 SWAP1 SUB PUSH2 0xC0D JUMPI POP JUMP JUMPDEST PUSH0 DUP1 SLOAD PUSH1 0x40 MLOAD PUSH1 0x1 PUSH1 0x1 PUSH1 0xA0 SHL SUB SWAP1 SWAP2 AND SWAP1 DUP4 SWAP1 DUP4 DUP2 DUP2 DUP2 DUP6 DUP8 GAS CALL SWAP3 POP POP POP RETURNDATASIZE DUP1 PUSH0 DUP2 EQ PUSH2 0xC57 JUMPI PUSH1 0x40 MLOAD SWAP2 POP PUSH1 0x1F NOT PUSH1 0x3F RETURNDATASIZE ADD AND DUP3 ADD PUSH1 0x40 MSTORE RETURNDATASIZE DUP3 MSTORE RETURNDATASIZE PUSH0 PUSH1 0x20 DUP5 ADD RETURNDATACOPY PUSH2 0xC5C JUMP JUMPDEST PUSH1 0x60 SWAP2 POP JUMPDEST POP POP SWAP1 POP DUP1 PUSH2 0xC7E JUMPI PUSH1 0x40 MLOAD PUSH4 0x96DC0E1 PUSH1 0xE0 SHL DUP2 MSTORE PUSH1 0x4 ADD PUSH1 0x40 MLOAD DUP1 SWAP2 SUB SWAP1 REVERT JUMPDEST PUSH0 SLOAD PUSH1 0x40 MLOAD DUP4 DUP2 MSTORE PUSH1 0x1 PUSH1 0x1 PUSH1 0xA0 SHL SUB SWAP1 SWAP2 AND SWAP1 ADDRESS SWAP1 PUSH32 0xBA3E71C2881EFE881D169A722215AE66587E85BF64BCC507F2904A7345AFEBA0 SWAP1 PUSH1 0x20 ADD PUSH1 0x40 MLOAD DUP1 SWAP2 SUB SWAP1 LOG3 POP POP JUMPDEST JUMP JUMPDEST CALLER ADDRESS EQ DUP1 ISZERO SWAP1 PUSH2 0xCD6 JUMPI POP CALLER ORIGIN EQ ISZERO JUMPDEST ISZERO PUSH2 0xCF3 JUMPI PUSH1 0x40 MLOAD PUSH3 0x82B429 PUSH1 0xE8 SHL DUP2 MSTORE PUSH1 0x4 ADD PUSH1 0x40 MLOAD DUP1 SWAP2 SUB SWAP1 REVERT JUMPDEST PUSH1 0x1 DUP1 SLOAD DUP3 ISZERO ISZERO PUSH1 0x1 PUSH1 0xA0 SHL SWAP1 DUP2 MUL PUSH1 0xFF PUSH1 0xA0 SHL NOT DUP4 AND DUP2 OR SWAP4 DUP5 SWAP1 SSTORE PUSH0 SLOAD PUSH1 0x40 MLOAD PUSH1 0x1 PUSH1 0x1 PUSH1 0xA0 SHL SUB SWAP3 DUP4 AND SWAP5 DUP4 AND SWAP5 SWAP1 SWAP5 OR SWAP5 SWAP2 AND SWAP3 PUSH0 MLOAD PUSH1 0x20 PUSH2 0x1AD9 PUSH0 CODECOPY PUSH0 MLOAD SWAP1 PUSH0 MSTORE SWAP3 PUSH2 0x8EF SWAP3 DIV PUSH1 0xFF AND ISZERO ISZERO DUP2 MSTORE PUSH1 0x20 ADD SWAP1 JUMP JUMPDEST CALLER ADDRESS EQ DUP1 ISZERO SWAP1 PUSH2 0xD67 JUMPI POP PUSH1 0x1 SLOAD PUSH1 0x1 PUSH1 0x1 PUSH1 0xA0 SHL SUB AND CALLER EQ ISZERO JUMPDEST DUP1 ISZERO PUSH2 0xD73 JUMPI POP CALLER ORIGIN EQ ISZERO JUMPDEST ISZERO PUSH2 0xD90 JUMPI PUSH1 0x40 MLOAD PUSH3 0x82B429 PUSH1 0xE8 SHL DUP2 MSTORE PUSH1 0x4 ADD PUSH1 0x40 MLOAD DUP1 SWAP2 SUB SWAP1 REVERT JUMPDEST PUSH0 SLOAD PUSH1 0x1 PUSH1 0x1 PUSH1 0xA0 SHL SUB AND PUSH2 0xDB8 JUMPI PUSH1 0x40 MLOAD PUSH4 0xD92E233D PUSH1 0xE0 SHL DUP2 MSTORE PUSH1 0x4 ADD PUSH1 0x40 MLOAD DUP1 SWAP2 SUB SWAP1 REVERT JUMPDEST PUSH0 JUMPDEST DUP2 DUP2 LT ISZERO PUSH2 0xF93 JUMPI PUSH0 DUP4 DUP4 DUP4 DUP2 DUP2 LT PUSH2 0xDD5 JUMPI PUSH2 0xDD5 PUSH2 0x19F8 JUMP JUMPDEST SWAP1 POP PUSH1 0x20 MUL ADD PUSH1 0x20 DUP2 ADD SWAP1 PUSH2 0xDEA SWAP2 SWAP1 PUSH2 0x16D1 JUMP JUMPDEST PUSH1 0x40 MLOAD PUSH4 0x70A08231 PUSH1 0xE0 SHL DUP2 MSTORE ADDRESS PUSH1 0x4 DUP3 ADD MSTORE PUSH1 0x1 PUSH1 0x1 PUSH1 0xA0 SHL SUB SWAP2 SWAP1 SWAP2 AND SWAP1 PUSH4 0x70A08231 SWAP1 PUSH1 0x24 ADD PUSH1 0x20 PUSH1 0x40 MLOAD DUP1 DUP4 SUB DUP2 DUP7 GAS STATICCALL ISZERO DUP1 ISZERO PUSH2 0xE2E JUMPI RETURNDATASIZE PUSH0 PUSH0 RETURNDATACOPY RETURNDATASIZE PUSH0 REVERT JUMPDEST POP POP POP POP PUSH1 0x40 MLOAD RETURNDATASIZE PUSH1 0x1F NOT PUSH1 0x1F DUP3 ADD AND DUP3 ADD DUP1 PUSH1 0x40 MSTORE POP DUP2 ADD SWAP1 PUSH2 0xE52 SWAP2 SWAP1 PUSH2 0x19C6 JUMP JUMPDEST SWAP1 POP DUP1 ISZERO PUSH2 0xF8A JUMPI PUSH0 DUP5 DUP5 DUP5 DUP2 DUP2 LT PUSH2 0xE6D JUMPI PUSH2 0xE6D PUSH2 0x19F8 JUMP JUMPDEST SWAP1 POP PUSH1 0x20 MUL ADD PUSH1 0x20 DUP2 ADD SWAP1 PUSH2 0xE82 SWAP2 SWAP1 PUSH2 0x16D1 JUMP JUMPDEST PUSH0 SLOAD PUSH1 0x40 MLOAD PUSH4 0xA9059CBB PUSH1 0xE0 SHL DUP2 MSTORE PUSH1 0x1 PUSH1 0x1 PUSH1 0xA0 SHL SUB SWAP2 DUP3 AND PUSH1 0x4 DUP3 ADD MSTORE PUSH1 0x24 DUP2 ADD DUP6 SWAP1 MSTORE SWAP2 AND SWAP1 PUSH4 0xA9059CBB SWAP1 PUSH1 0x44 ADD PUSH1 0x20 PUSH1 0x40 MLOAD DUP1 DUP4 SUB DUP2 PUSH0 DUP8 GAS CALL ISZERO DUP1 ISZERO PUSH2 0xED0 JUMPI RETURNDATASIZE PUSH0 PUSH0 RETURNDATACOPY RETURNDATASIZE PUSH0 REVERT JUMPDEST POP POP POP POP PUSH1 0x40 MLOAD RETURNDATASIZE PUSH1 0x1F NOT PUSH1 0x1F DUP3 ADD AND DUP3 ADD DUP1 PUSH1 0x40 MSTORE POP DUP2 ADD SWAP1 PUSH2 0xEF4 SWAP2 SWAP1 PUSH2 0x19DD JUMP JUMPDEST SWAP1 POP DUP1 PUSH2 0xF14 JUMPI PUSH1 0x40 MLOAD PUSH4 0x22E2581 PUSH1 0xE1 SHL DUP2 MSTORE PUSH1 0x4 ADD PUSH1 0x40 MLOAD DUP1 SWAP2 SUB SWAP1 REVERT JUMPDEST PUSH0 SLOAD PUSH1 0x1 PUSH1 0x1 PUSH1 0xA0 SHL SUB AND DUP6 DUP6 DUP6 DUP2 DUP2 LT PUSH2 0xF31 JUMPI PUSH2 0xF31 PUSH2 0x19F8 JUMP JUMPDEST SWAP1 POP PUSH1 0x20 MUL ADD PUSH1 0x20 DUP2 ADD SWAP1 PUSH2 0xF46 SWAP2 SWAP1 PUSH2 0x16D1 JUMP JUMPDEST PUSH1 0x1 PUSH1 0x1 PUSH1 0xA0 SHL SUB AND PUSH32 0x115D7B5114B5954762CC233B141A7C777A8F79D93F50AF7216D645C87FB4883E DUP5 PUSH1 0x40 MLOAD PUSH2 0xF80 SWAP2 DUP2 MSTORE PUSH1 0x20 ADD SWAP1 JUMP JUMPDEST PUSH1 0x40 MLOAD DUP1 SWAP2 SUB SWAP1 LOG3 POP JUMPDEST POP PUSH1 0x1 ADD PUSH2 0xDBA JUMP JUMPDEST POP POP POP JUMP JUMPDEST PUSH1 0x60 PUSH0 PUSH32 0x8B320D3F82CB30CEAC499BFB603EBDD270AD1F5E27A1CBE7A0DC0BDCADB6C38A PUSH0 SHL DUP9 DUP9 DUP9 DUP9 PUSH1 0x40 MLOAD PUSH2 0xFD0 SWAP3 SWAP2 SWAP1 PUSH2 0x1A4F JUMP JUMPDEST PUSH1 0x40 MLOAD SWAP1 DUP2 SWAP1 SUB DUP2 KECCAK256 PUSH1 0x2 SLOAD PUSH2 0x1012 SWAP6 SWAP5 SWAP4 SWAP3 PUSH1 0x20 ADD SWAP5 DUP6 MSTORE PUSH1 0x1 PUSH1 0x1 PUSH1 0xA0 SHL SUB SWAP4 SWAP1 SWAP4 AND PUSH1 0x20 DUP6 ADD MSTORE PUSH1 0x40 DUP5 ADD SWAP2 SWAP1 SWAP2 MSTORE PUSH1 0x60 DUP4 ADD MSTORE PUSH1 0x80 DUP3 ADD MSTORE PUSH1 0xA0 ADD SWAP1 JUMP JUMPDEST PUSH1 0x40 MLOAD PUSH1 0x20 DUP2 DUP4 SUB SUB DUP2 MSTORE SWAP1 PUSH1 0x40 MSTORE DUP1 MLOAD SWAP1 PUSH1 0x20 ADD KECCAK256 SWAP1 POP PUSH0 PUSH2 0x1103 PUSH1 0x40 DUP1 MLOAD DUP1 DUP3 ADD DUP3 MSTORE PUSH1 0x14 DUP2 MSTORE PUSH20 0x22A4A81B9B981920BABA37A337B93BB0B93232B9 PUSH1 0x61 SHL PUSH1 0x20 SWAP2 DUP3 ADD MSTORE DUP2 MLOAD DUP1 DUP4 ADD DUP4 MSTORE PUSH1 0x1 DUP2 MSTORE PUSH1 0x31 PUSH1 0xF8 SHL SWAP1 DUP3 ADD MSTORE DUP2 MLOAD PUSH32 0xC2F8787176B8AC6BF7215B4ADCC1E069BF4AB82D9AB1DF05A57A91D425935B6E DUP2 DUP4 ADD MSTORE PUSH32 0x7EF4872878B04EE4262301FDFC75F3B60AA572501746F630BAB1DB203D799002 DUP2 DUP5 ADD MSTORE PUSH32 0xC89EFDAA54C0F20C7ADF612882DF0950F5A951637E0307CDCB4C672F298B8BC6 PUSH1 0x60 DUP3 ADD MSTORE CHAINID PUSH1 0x80 DUP1 DUP4 ADD SWAP2 SWAP1 SWAP2 MSTORE DUP4 MLOAD DUP1 DUP4 SUB SWAP1 SWAP2 ADD DUP2 MSTORE PUSH1 0xA0 SWAP1 SWAP2 ADD SWAP1 SWAP3 MSTORE DUP2 MLOAD SWAP2 ADD KECCAK256 SWAP1 JUMP JUMPDEST PUSH1 0x40 MLOAD PUSH2 0x1901 PUSH1 0xF0 SHL PUSH1 0x20 DUP3 ADD MSTORE PUSH1 0x22 DUP2 ADD SWAP2 SWAP1 SWAP2 MSTORE PUSH1 0x42 DUP2 ADD DUP4 SWAP1 MSTORE PUSH1 0x62 ADD PUSH1 0x40 MLOAD PUSH1 0x20 DUP2 DUP4 SUB SUB DUP2 MSTORE SWAP1 PUSH1 0x40 MSTORE DUP1 MLOAD SWAP1 PUSH1 0x20 ADD KECCAK256 SWAP1 POP PUSH0 PUSH2 0x117B DUP3 DUP8 DUP8 DUP1 DUP1 PUSH1 0x1F ADD PUSH1 0x20 DUP1 SWAP2 DIV MUL PUSH1 0x20 ADD PUSH1 0x40 MLOAD SWAP1 DUP2 ADD PUSH1 0x40 MSTORE DUP1 SWAP4 SWAP3 SWAP2 SWAP1 DUP2 DUP2 MSTORE PUSH1 0x20 ADD DUP4 DUP4 DUP1 DUP3 DUP5 CALLDATACOPY PUSH0 SWAP3 ADD SWAP2 SWAP1 SWAP2 MSTORE POP PUSH2 0x157B SWAP3 POP POP POP JUMP JUMPDEST SWAP1 POP PUSH1 0x1 PUSH1 0x1 PUSH1 0xA0 SHL SUB DUP2 AND PUSH2 0x11A3 JUMPI PUSH1 0x40 MLOAD PUSH3 0x82B429 PUSH1 0xE8 SHL DUP2 MSTORE PUSH1 0x4 ADD PUSH1 0x40 MLOAD DUP1 SWAP2 SUB SWAP1 REVERT JUMPDEST PUSH1 0x2 DUP1 SLOAD SWAP1 PUSH0 PUSH2 0x11B2 DUP4 PUSH2 0x1AA7 JUMP JUMPDEST SWAP2 SWAP1 POP SSTORE POP PUSH0 PUSH0 DUP12 PUSH1 0x1 PUSH1 0x1 PUSH1 0xA0 SHL SUB AND DUP12 DUP12 DUP12 PUSH1 0x40 MLOAD PUSH2 0x11D4 SWAP3 SWAP2 SWAP1 PUSH2 0x1A4F JUMP JUMPDEST PUSH0 PUSH1 0x40 MLOAD DUP1 DUP4 SUB DUP2 DUP6 DUP8 GAS CALL SWAP3 POP POP POP RETURNDATASIZE DUP1 PUSH0 DUP2 EQ PUSH2 0x120E JUMPI PUSH1 0x40 MLOAD SWAP2 POP PUSH1 0x1F NOT PUSH1 0x3F RETURNDATASIZE ADD AND DUP3 ADD PUSH1 0x40 MSTORE RETURNDATASIZE DUP3 MSTORE RETURNDATASIZE PUSH0 PUSH1 0x20 DUP5 ADD RETURNDATACOPY PUSH2 0x1213 JUMP JUMPDEST PUSH1 0x60 SWAP2 POP JUMPDEST POP SWAP2 POP SWAP2 POP DUP2 PUSH2 0x1236 JUMPI PUSH1 0x40 MLOAD PUSH4 0x2B3F6D11 PUSH1 0xE2 SHL DUP2 MSTORE PUSH1 0x4 ADD PUSH1 0x40 MLOAD DUP1 SWAP2 SUB SWAP1 REVERT JUMPDEST DUP12 PUSH1 0x1 PUSH1 0x1 PUSH1 0xA0 SHL SUB AND PUSH32 0xCAF938DE11C367272220BFD1D2BAA99CA46665E7BC4D85F00ADB51B90FE1FA9F DUP13 DUP13 DUP13 PUSH1 0x40 MLOAD PUSH2 0x1273 SWAP4 SWAP3 SWAP2 SWAP1 PUSH2 0x1A5E JUMP JUMPDEST PUSH1 0x40 MLOAD DUP1 SWAP2 SUB SWAP1 LOG2 SWAP12 SWAP11 POP POP POP POP POP POP POP POP POP POP POP JUMP JUMPDEST CALLER ADDRESS EQ DUP1 ISZERO SWAP1 PUSH2 0x129A JUMPI POP CALLER ORIGIN EQ ISZERO JUMPDEST ISZERO PUSH2 0x12B7 JUMPI PUSH1 0x40 MLOAD PUSH3 0x82B429 PUSH1 0xE8 SHL DUP2 MSTORE PUSH1 0x4 ADD PUSH1 0x40 MLOAD DUP1 SWAP2 SUB SWAP1 REVERT JUMPDEST PUSH0 SLOAD PUSH1 0x1 PUSH1 0x1 PUSH1 0xA0 SHL SUB AND ISZERO DUP1 ISZERO SWAP1 PUSH2 0x12CF JUMPI POP PUSH0 SELFBALANCE GT JUMPDEST ISZERO PUSH2 0xCC4 JUMPI PUSH0 DUP1 SLOAD PUSH1 0x40 MLOAD PUSH1 0x1 PUSH1 0x1 PUSH1 0xA0 SHL SUB SWAP1 SWAP2 AND SWAP1 SELFBALANCE SWAP1 DUP4 DUP2 DUP2 DUP2 DUP6 DUP8 GAS CALL SWAP3 POP POP POP RETURNDATASIZE DUP1 PUSH0 DUP2 EQ PUSH2 0x131E JUMPI PUSH1 0x40 MLOAD SWAP2 POP PUSH1 0x1F NOT PUSH1 0x3F RETURNDATASIZE ADD AND DUP3 ADD PUSH1 0x40 MSTORE RETURNDATASIZE DUP3 MSTORE RETURNDATASIZE PUSH0 PUSH1 0x20 DUP5 ADD RETURNDATACOPY PUSH2 0x1323 JUMP JUMPDEST PUSH1 0x60 SWAP2 POP JUMPDEST POP POP SWAP1 POP DUP1 PUSH2 0x1345 JUMPI PUSH1 0x40 MLOAD PUSH4 0x96DC0E1 PUSH1 0xE0 SHL DUP2 MSTORE PUSH1 0x4 ADD PUSH1 0x40 MLOAD DUP1 SWAP2 SUB SWAP1 REVERT JUMPDEST PUSH0 SLOAD PUSH1 0x40 MLOAD SELFBALANCE DUP2 MSTORE PUSH1 0x1 PUSH1 0x1 PUSH1 0xA0 SHL SUB SWAP1 SWAP2 AND SWAP1 ADDRESS SWAP1 PUSH32 0xBA3E71C2881EFE881D169A722215AE66587E85BF64BCC507F2904A7345AFEBA0 SWAP1 PUSH1 0x20 ADD PUSH2 0x8EF JUMP JUMPDEST PUSH1 0x60 CALLER ADDRESS EQ DUP1 ISZERO SWAP1 PUSH2 0x1397 JUMPI POP CALLER ORIGIN EQ ISZERO JUMPDEST ISZERO PUSH2 0x13B4 JUMPI PUSH1 0x40 MLOAD PUSH3 0x82B429 PUSH1 0xE8 SHL DUP2 MSTORE PUSH1 0x4 ADD PUSH1 0x40 MLOAD DUP1 SWAP2 SUB SWAP1 REVERT JUMPDEST PUSH0 PUSH0 DUP7 PUSH1 0x1 PUSH1 0x1 PUSH1 0xA0 SHL SUB AND DUP7 DUP7 DUP7 PUSH1 0x40 MLOAD PUSH2 0x13D1 SWAP3 SWAP2 SWAP1 PUSH2 0x1A4F JUMP JUMPDEST PUSH0 PUSH1 0x40 MLOAD DUP1 DUP4 SUB DUP2 DUP6 DUP8 GAS CALL SWAP3 POP POP POP RETURNDATASIZE DUP1 PUSH0 DUP2 EQ PUSH2 0x140B JUMPI PUSH1 0x40 MLOAD SWAP2 POP PUSH1 0x1F NOT PUSH1 0x3F RETURNDATASIZE ADD AND DUP3 ADD PUSH1 0x40 MSTORE RETURNDATASIZE DUP3 MSTORE RETURNDATASIZE PUSH0 PUSH1 0x20 DUP5 ADD RETURNDATACOPY PUSH2 0x1410 JUMP JUMPDEST PUSH1 0x60 SWAP2 POP JUMPDEST POP SWAP2 POP SWAP2 POP DUP2 PUSH2 0x1433 JUMPI PUSH1 0x40 MLOAD PUSH4 0x2B3F6D11 PUSH1 0xE2 SHL DUP2 MSTORE PUSH1 0x4 ADD PUSH1 0x40 MLOAD DUP1 SWAP2 SUB SWAP1 REVERT JUMPDEST DUP7 PUSH1 0x1 PUSH1 0x1 PUSH1 0xA0 SHL SUB AND PUSH32 0xCAF938DE11C367272220BFD1D2BAA99CA46665E7BC4D85F00ADB51B90FE1FA9F DUP8 DUP8 DUP8 PUSH1 0x40 MLOAD PUSH2 0x1470 SWAP4 SWAP3 SWAP2 SWAP1 PUSH2 0x1A5E JUMP JUMPDEST PUSH1 0x40 MLOAD DUP1 SWAP2 SUB SWAP1 LOG2 SWAP7 SWAP6 POP POP POP POP POP POP JUMP JUMPDEST CALLER ADDRESS EQ DUP1 ISZERO SWAP1 PUSH2 0x1492 JUMPI POP CALLER ORIGIN EQ ISZERO JUMPDEST ISZERO PUSH2 0x14AF JUMPI PUSH1 0x40 MLOAD PUSH3 0x82B429 PUSH1 0xE8 SHL DUP2 MSTORE PUSH1 0x4 ADD PUSH1 0x40 MLOAD DUP1 SWAP2 SUB SWAP1 REVERT JUMPDEST PUSH1 0x1 SLOAD PUSH1 0x1 PUSH1 0xA8 SHL SWAP1 DIV PUSH1 0xFF AND ISZERO PUSH2 0x14D9 JUMPI PUSH1 0x40 MLOAD PUSH3 0xDC149F PUSH1 0xE4 SHL DUP2 MSTORE PUSH1 0x4 ADD PUSH1 0x40 MLOAD DUP1 SWAP2 SUB SWAP1 REVERT JUMPDEST PUSH1 0x1 PUSH1 0x1 PUSH1 0xA0 SHL SUB DUP4 AND PUSH2 0x1500 JUMPI PUSH1 0x40 MLOAD PUSH4 0xD92E233D PUSH1 0xE0 SHL DUP2 MSTORE PUSH1 0x4 ADD PUSH1 0x40 MLOAD DUP1 SWAP2 SUB SWAP1 REVERT JUMPDEST PUSH0 DUP1 SLOAD PUSH1 0x1 PUSH1 0x1 PUSH1 0xA0 SHL SUB NOT AND PUSH1 0x1 PUSH1 0x1 PUSH1 0xA0 SHL SUB DUP6 DUP2 AND SWAP2 DUP3 OR DUP4 SSTORE PUSH1 0x1 DUP1 SLOAD PUSH1 0x1 PUSH1 0xA8 SHL SWAP3 DUP8 AND PUSH1 0x1 PUSH1 0x1 PUSH1 0xA8 SHL SUB NOT SWAP1 SWAP2 AND DUP2 OR PUSH1 0x1 PUSH1 0xA0 SHL DUP8 ISZERO ISZERO MUL OR PUSH1 0xFF PUSH1 0xA8 SHL NOT AND SWAP3 SWAP1 SWAP3 OR SWAP1 SSTORE PUSH1 0x40 MLOAD SWAP1 SWAP3 PUSH32 0x3CD5EC01B1AE7CFEC6CA1863E2CD6AA25D6D1702825803FF2B7CC95010FFFDC2 SWAP2 LOG3 POP POP POP JUMP JUMPDEST PUSH0 DUP2 MLOAD PUSH1 0x41 EQ PUSH2 0x15D2 JUMPI PUSH1 0x40 MLOAD PUSH3 0x461BCD PUSH1 0xE5 SHL DUP2 MSTORE PUSH1 0x20 PUSH1 0x4 DUP3 ADD MSTORE PUSH1 0x18 PUSH1 0x24 DUP3 ADD MSTORE PUSH32 0x496E76616C6964207369676E6174757265206C656E6774680000000000000000 PUSH1 0x44 DUP3 ADD MSTORE PUSH1 0x64 ADD JUMPDEST PUSH1 0x40 MLOAD DUP1 SWAP2 SUB SWAP1 REVERT JUMPDEST PUSH1 0x20 DUP3 ADD MLOAD PUSH1 0x40 DUP4 ADD MLOAD PUSH1 0x60 DUP5 ADD MLOAD PUSH0 BYTE PUSH1 0x1B DUP2 LT ISZERO PUSH2 0x15FA JUMPI PUSH2 0x15F7 PUSH1 0x1B DUP3 PUSH2 0x1ABF JUMP JUMPDEST SWAP1 POP JUMPDEST DUP1 PUSH1 0xFF AND PUSH1 0x1B EQ ISZERO DUP1 ISZERO PUSH2 0x1612 JUMPI POP DUP1 PUSH1 0xFF AND PUSH1 0x1C EQ ISZERO JUMPDEST ISZERO PUSH2 0x1651 JUMPI PUSH1 0x40 MLOAD PUSH3 0x461BCD PUSH1 0xE5 SHL DUP2 MSTORE PUSH1 0x20 PUSH1 0x4 DUP3 ADD MSTORE PUSH1 0xF PUSH1 0x24 DUP3 ADD MSTORE PUSH15 0x496E76616C696420762076616C7565 PUSH1 0x88 SHL PUSH1 0x44 DUP3 ADD MSTORE PUSH1 0x64 ADD PUSH2 0x15C9 JUMP JUMPDEST PUSH1 0x40 DUP1 MLOAD PUSH0 DUP2 MSTORE PUSH1 0x20 DUP2 ADD DUP1 DUP4 MSTORE DUP9 SWAP1 MSTORE PUSH1 0xFF DUP4 AND SWAP2 DUP2 ADD SWAP2 SWAP1 SWAP2 MSTORE PUSH1 0x60 DUP2 ADD DUP5 SWAP1 MSTORE PUSH1 0x80 DUP2 ADD DUP4 SWAP1 MSTORE PUSH1 0x1 SWAP1 PUSH1 0xA0 ADD PUSH1 0x20 PUSH1 0x40 MLOAD PUSH1 0x20 DUP2 SUB SWAP1 DUP1 DUP5 SUB SWAP1 DUP6 GAS STATICCALL ISZERO DUP1 ISZERO PUSH2 0x16A1 JUMPI RETURNDATASIZE PUSH0 PUSH0 RETURNDATACOPY RETURNDATASIZE PUSH0 REVERT JUMPDEST POP POP PUSH1 0x40 MLOAD PUSH1 0x1F NOT ADD MLOAD SWAP8 SWAP7 POP POP POP POP POP POP POP JUMP JUMPDEST DUP1 CALLDATALOAD PUSH1 0x1 PUSH1 0x1 PUSH1 0xA0 SHL SUB DUP2 AND DUP2 EQ PUSH2 0x16CC JUMPI PUSH0 PUSH0 REVERT JUMPDEST SWAP2 SWAP1 POP JUMP JUMPDEST PUSH0 PUSH1 0x20 DUP3 DUP5 SUB SLT ISZERO PUSH2 0x16E1 JUMPI PUSH0 PUSH0 REVERT JUMPDEST PUSH2 0x16EA DUP3 PUSH2 0x16B6 JUMP JUMPDEST SWAP4 SWAP3 POP POP POP JUMP JUMPDEST DUP1 ISZERO ISZERO DUP2 EQ PUSH2 0x16FE JUMPI PUSH0 PUSH0 REVERT JUMPDEST POP JUMP JUMPDEST PUSH0 PUSH0 PUSH0 PUSH1 0x60 DUP5 DUP7 SUB SLT ISZERO PUSH2 0x1713 JUMPI PUSH0 PUSH0 REVERT JUMPDEST PUSH2 0x171C DUP5 PUSH2 0x16B6 JUMP JUMPDEST SWAP3 POP PUSH2 0x172A PUSH1 0x20 DUP6 ADD PUSH2 0x16B6 JUMP JUMPDEST SWAP2 POP PUSH1 0x40 DUP5 ADD CALLDATALOAD PUSH2 0x173A DUP2 PUSH2 0x16F1 JUMP JUMPDEST DUP1 SWAP2 POP POP SWAP3 POP SWAP3 POP SWAP3 JUMP JUMPDEST PUSH0 PUSH0 DUP4 PUSH1 0x1F DUP5 ADD SLT PUSH2 0x1755 JUMPI PUSH0 PUSH0 REVERT JUMPDEST POP DUP2 CALLDATALOAD PUSH8 0xFFFFFFFFFFFFFFFF DUP2 GT ISZERO PUSH2 0x176C JUMPI PUSH0 PUSH0 REVERT JUMPDEST PUSH1 0x20 DUP4 ADD SWAP2 POP DUP4 PUSH1 0x20 DUP3 PUSH1 0x5 SHL DUP6 ADD ADD GT ISZERO PUSH2 0x1786 JUMPI PUSH0 PUSH0 REVERT JUMPDEST SWAP3 POP SWAP3 SWAP1 POP JUMP JUMPDEST PUSH0 PUSH0 PUSH0 PUSH0 PUSH0 PUSH0 PUSH1 0x60 DUP8 DUP10 SUB SLT ISZERO PUSH2 0x17A2 JUMPI PUSH0 PUSH0 REVERT JUMPDEST DUP7 CALLDATALOAD PUSH8 0xFFFFFFFFFFFFFFFF DUP2 GT ISZERO PUSH2 0x17B8 JUMPI PUSH0 PUSH0 REVERT JUMPDEST PUSH2 0x17C4 DUP10 DUP3 DUP11 ADD PUSH2 0x1745 JUMP JUMPDEST SWAP1 SWAP8 POP SWAP6 POP POP PUSH1 0x20 DUP8 ADD CALLDATALOAD PUSH8 0xFFFFFFFFFFFFFFFF DUP2 GT ISZERO PUSH2 0x17E3 JUMPI PUSH0 PUSH0 REVERT JUMPDEST PUSH2 0x17EF DUP10 DUP3 DUP11 ADD PUSH2 0x1745 JUMP JUMPDEST SWAP1 SWAP6 POP SWAP4 POP POP PUSH1 0x40 DUP8 ADD CALLDATALOAD PUSH8 0xFFFFFFFFFFFFFFFF DUP2 GT ISZERO PUSH2 0x180E JUMPI PUSH0 PUSH0 REVERT JUMPDEST PUSH2 0x181A DUP10 DUP3 DUP11 ADD PUSH2 0x1745 JUMP JUMPDEST SWAP8 SWAP11 SWAP7 SWAP10 POP SWAP5 SWAP8 POP SWAP3 SWAP6 SWAP4 SWAP5 SWAP3 POP POP POP JUMP JUMPDEST PUSH0 PUSH1 0x20 DUP3 DUP5 SUB SLT ISZERO PUSH2 0x183C JUMPI PUSH0 PUSH0 REVERT JUMPDEST DUP2 CALLDATALOAD PUSH2 0x16EA DUP2 PUSH2 0x16F1 JUMP JUMPDEST PUSH0 PUSH0 PUSH1 0x20 DUP4 DUP6 SUB SLT ISZERO PUSH2 0x1858 JUMPI PUSH0 PUSH0 REVERT JUMPDEST DUP3 CALLDATALOAD PUSH8 0xFFFFFFFFFFFFFFFF DUP2 GT ISZERO PUSH2 0x186E JUMPI PUSH0 PUSH0 REVERT JUMPDEST PUSH2 0x187A DUP6 DUP3 DUP7 ADD PUSH2 0x1745 JUMP JUMPDEST SWAP1 SWAP7 SWAP1 SWAP6 POP SWAP4 POP POP POP POP JUMP JUMPDEST PUSH0 PUSH0 DUP4 PUSH1 0x1F DUP5 ADD SLT PUSH2 0x1896 JUMPI PUSH0 PUSH0 REVERT JUMPDEST POP DUP2 CALLDATALOAD PUSH8 0xFFFFFFFFFFFFFFFF DUP2 GT ISZERO PUSH2 0x18AD JUMPI PUSH0 PUSH0 REVERT JUMPDEST PUSH1 0x20 DUP4 ADD SWAP2 POP DUP4 PUSH1 0x20 DUP3 DUP6 ADD ADD GT ISZERO PUSH2 0x1786 JUMPI PUSH0 PUSH0 REVERT JUMPDEST PUSH0 PUSH0 PUSH0 PUSH0 PUSH0 PUSH0 PUSH1 0x80 DUP8 DUP10 SUB SLT ISZERO PUSH2 0x18D9 JUMPI PUSH0 PUSH0 REVERT JUMPDEST PUSH2 0x18E2 DUP8 PUSH2 0x16B6 JUMP JUMPDEST SWAP6 POP PUSH1 0x20 DUP8 ADD CALLDATALOAD SWAP5 POP PUSH1 0x40 DUP8 ADD CALLDATALOAD PUSH8 0xFFFFFFFFFFFFFFFF DUP2 GT ISZERO PUSH2 0x1904 JUMPI PUSH0 PUSH0 REVERT JUMPDEST PUSH2 0x1910 DUP10 DUP3 DUP11 ADD PUSH2 0x1886 JUMP JUMPDEST SWAP1 SWAP6 POP SWAP4 POP POP PUSH1 0x60 DUP8 ADD CALLDATALOAD PUSH8 0xFFFFFFFFFFFFFFFF DUP2 GT ISZERO PUSH2 0x192F JUMPI PUSH0 PUSH0 REVERT JUMPDEST PUSH2 0x181A DUP10 DUP3 DUP11 ADD PUSH2 0x1886 JUMP JUMPDEST PUSH1 0x20 DUP2 MSTORE PUSH0 DUP3 MLOAD DUP1 PUSH1 0x20 DUP5 ADD MSTORE DUP1 PUSH1 0x20 DUP6 ADD PUSH1 0x40 DUP6 ADD MCOPY PUSH0 PUSH1 0x40 DUP3 DUP6 ADD ADD MSTORE PUSH1 0x40 PUSH1 0x1F NOT PUSH1 0x1F DUP4 ADD AND DUP5 ADD ADD SWAP2 POP POP SWAP3 SWAP2 POP POP JUMP JUMPDEST PUSH0 PUSH0 PUSH0 PUSH0 PUSH1 0x60 DUP6 DUP8 SUB SLT ISZERO PUSH2 0x1983 JUMPI PUSH0 PUSH0 REVERT JUMPDEST PUSH2 0x198C DUP6 PUSH2 0x16B6 JUMP JUMPDEST SWAP4 POP PUSH1 0x20 DUP6 ADD CALLDATALOAD SWAP3 POP PUSH1 0x40 DUP6 ADD CALLDATALOAD PUSH8 0xFFFFFFFFFFFFFFFF DUP2 GT ISZERO PUSH2 0x19AE JUMPI PUSH0 PUSH0 REVERT JUMPDEST PUSH2 0x19BA DUP8 DUP3 DUP9 ADD PUSH2 0x1886 JUMP JUMPDEST SWAP6 SWAP9 SWAP5 SWAP8 POP SWAP6 POP POP POP POP JUMP JUMPDEST PUSH0 PUSH1 0x20 DUP3 DUP5 SUB SLT ISZERO PUSH2 0x19D6 JUMPI PUSH0 PUSH0 REVERT JUMPDEST POP MLOAD SWAP2 SWAP1 POP JUMP JUMPDEST PUSH0 PUSH1 0x20 DUP3 DUP5 SUB SLT ISZERO PUSH2 0x19ED JUMPI PUSH0 PUSH0 REVERT JUMPDEST DUP2 MLOAD PUSH2 0x16EA DUP2 PUSH2 0x16F1 JUMP JUMPDEST PUSH4 0x4E487B71 PUSH1 0xE0 SHL PUSH0 MSTORE PUSH1 0x32 PUSH1 0x4 MSTORE PUSH1 0x24 PUSH0 REVERT JUMPDEST PUSH0 PUSH0 DUP4 CALLDATALOAD PUSH1 0x1E NOT DUP5 CALLDATASIZE SUB ADD DUP2 SLT PUSH2 0x1A21 JUMPI PUSH0 PUSH0 REVERT JUMPDEST DUP4 ADD DUP1 CALLDATALOAD SWAP2 POP PUSH8 0xFFFFFFFFFFFFFFFF DUP3 GT ISZERO PUSH2 0x1A3B JUMPI PUSH0 PUSH0 REVERT JUMPDEST PUSH1 0x20 ADD SWAP2 POP CALLDATASIZE DUP2 SWAP1 SUB DUP3 SGT ISZERO PUSH2 0x1786 JUMPI PUSH0 PUSH0 REVERT JUMPDEST DUP2 DUP4 DUP3 CALLDATACOPY PUSH0 SWAP2 ADD SWAP1 DUP2 MSTORE SWAP2 SWAP1 POP JUMP JUMPDEST DUP4 DUP2 MSTORE PUSH1 0x40 PUSH1 0x20 DUP3 ADD MSTORE DUP2 PUSH1 0x40 DUP3 ADD MSTORE DUP2 DUP4 PUSH1 0x60 DUP4 ADD CALLDATACOPY PUSH0 DUP2 DUP4 ADD PUSH1 0x60 SWAP1 DUP2 ADD SWAP2 SWAP1 SWAP2 MSTORE PUSH1 0x1F SWAP1 SWAP3 ADD PUSH1 0x1F NOT AND ADD ADD SWAP3 SWAP2 POP POP JUMP JUMPDEST PUSH4 0x4E487B71 PUSH1 0xE0 SHL PUSH0 MSTORE PUSH1 0x11 PUSH1 0x4 MSTORE PUSH1 0x24 PUSH0 REVERT JUMPDEST PUSH0 PUSH1 0x1 DUP3 ADD PUSH2 0x1AB8 JUMPI PUSH2 0x1AB8 PUSH2 0x1A93 JUMP JUMPDEST POP PUSH1 0x1 ADD SWAP1 JUMP JUMPDEST PUSH1 0xFF DUP2 DUP2 AND DUP4 DUP3 AND ADD SWAP1 DUP2 GT ISZERO PUSH2 0x870 JUMPI PUSH2 0x870 PUSH2 0x1A93 JUMP INVALID DUP16 PUSH24 0x97880CBEED821B47F9836E06B28A74D72DE99667426584D SWAP10 EXTCODEHASH 0xE4 CREATE2 PUSH15 0x80A26469706673582212205688ED7F 0xD2 NUMBER 0xC7 LOG2 XOR PUSH5 0x86CEEA6016 KECCAK256 SWAP16 0xE9 0xD4 0xBB MULMOD PUSH7 0xF31C77DB712D78 0xA6 0xDF JUMPI PUSH5 0x736F6C6343 STOP ADDMOD SHL STOP CALLER "},"methodIdentifiers":{"autoForwardEnabled()":"32737034","execute(address,uint256,bytes)":"b61d27f6","executeBatch(address[],uint256[],bytes[])":"47e1da2a","forwardAllETH()":"6d3e4481","forwardTarget()":"a94cc1a0","gasSponsor()":"6edfcd23","getBalance()":"12065fe0","getConfig()":"c3f909d4","getTokenBalance(address)":"3aecd0e3","initialize(address,address,bool)":"e4bbb5a8","initialized()":"158ef93e","nonce()":"affed0e0","prepareRevoke()":"b425ef83","setAutoForward(bool)":"76405b93","setForwardTarget(address)":"537244c6","setGasSponsor(address)":"47d5e3ae","sponsoredExecute(address,uint256,bytes,bytes)":"9463f7a6","sweepToken(address)":"1be19560","sweepTokens(address[])":"909b19d9","updateConfig(address,address,bool)":"37a9ba94"}}}}}