{
  "_format": "hh-sol-artifact-1",
  "contractName": "EIP7702AutoForwarder",
  "sourceName": "contracts/EIP7702AutoForwarder.sol",
  "abi": [
    {
      "inputs": [],
      "name": "AlreadyInitialized",
      "type": "error"
    },
    {
      "inputs": [],
      "name": "ExecutionFailed",
      "type": "error"
    },
    {
      "inputs": [],
      "name": "ForwardFailed",
      "type": "error"
    },
    {
      "inputs": [],
      "name": "LengthMismatch",
      "type": "error"
    },
    {
      "inputs": [],
      "name": "NoTokenBalance",
      "type": "error"
    },
    {
      "inputs": [],
      "name": "TokenTransferFailed",
      "type": "error"
    },
    {
      "inputs": [],
      "name": "Unauthorized",
      "type": "error"
    },
    {
      "inputs": [],
      "name": "ZeroAddress",
      "type": "error"
    },
    {
      "anonymous": false,
      "inputs": [
        {
          "indexed": true,
          "internalType": "address",
          "name": "forwardTarget",
          "type": "address"
        },
        {
          "indexed": true,
          "internalType": "address",
          "name": "gasSponsor",
          "type": "address"
        },
        {
          "indexed": false,
          "internalType": "bool",
          "name": "autoForward",
          "type": "bool"
        }
      ],
      "name": "ConfigUpdated",
      "type": "event"
    },
    {
      "anonymous": false,
      "inputs": [
        {
          "indexed": true,
          "internalType": "address",
          "name": "from",
          "type": "address"
        },
        {
          "indexed": true,
          "internalType": "address",
          "name": "to",
          "type": "address"
        },
        {
          "indexed": false,
          "internalType": "uint256",
          "name": "amount",
          "type": "uint256"
        }
      ],
      "name": "ETHForwarded",
      "type": "event"
    },
    {
      "anonymous": false,
      "inputs": [
        {
          "indexed": true,
          "internalType": "address",
          "name": "from",
          "type": "address"
        },
        {
          "indexed": false,
          "internalType": "uint256",
          "name": "amount",
          "type": "uint256"
        }
      ],
      "name": "ETHReceived",
      "type": "event"
    },
    {
      "anonymous": false,
      "inputs": [
        {
          "indexed": true,
          "internalType": "address",
          "name": "to",
          "type": "address"
        },
        {
          "indexed": false,
          "internalType": "uint256",
          "name": "value",
          "type": "uint256"
        },
        {
          "indexed": false,
          "internalType": "bytes",
          "name": "data",
          "type": "bytes"
        }
      ],
      "name": "Executed",
      "type": "event"
    },
    {
      "anonymous": false,
      "inputs": [
        {
          "indexed": true,
          "internalType": "address",
          "name": "forwardTarget",
          "type": "address"
        },
        {
          "indexed": true,
          "internalType": "address",
          "name": "gasSponsor",
          "type": "address"
        }
      ],
      "name": "Initialized",
      "type": "event"
    },
    {
      "anonymous": false,
      "inputs": [
        {
          "indexed": true,
          "internalType": "address",
          "name": "token",
          "type": "address"
        },
        {
          "indexed": true,
          "internalType": "address",
          "name": "to",
          "type": "address"
        },
        {
          "indexed": false,
          "internalType": "uint256",
          "name": "amount",
          "type": "uint256"
        }
      ],
      "name": "TokenSwept",
      "type": "event"
    },
    {
      "stateMutability": "payable",
      "type": "fallback"
    },
    {
      "inputs": [],
      "name": "autoForwardEnabled",
      "outputs": [
        {
          "internalType": "bool",
          "name": "",
          "type": "bool"
        }
      ],
      "stateMutability": "view",
      "type": "function"
    },
    {
      "inputs": [
        {
          "internalType": "address",
          "name": "to",
          "type": "address"
        },
        {
          "internalType": "uint256",
          "name": "value",
          "type": "uint256"
        },
        {
          "internalType": "bytes",
          "name": "data",
          "type": "bytes"
        }
      ],
      "name": "execute",
      "outputs": [
        {
          "internalType": "bytes",
          "name": "",
          "type": "bytes"
        }
      ],
      "stateMutability": "nonpayable",
      "type": "function"
    },
    {
      "inputs": [
        {
          "internalType": "address[]",
          "name": "targets",
          "type": "address[]"
        },
        {
          "internalType": "uint256[]",
          "name": "values",
          "type": "uint256[]"
        },
        {
          "internalType": "bytes[]",
          "name": "calldatas",
          "type": "bytes[]"
        }
      ],
      "name": "executeBatch",
      "outputs": [],
      "stateMutability": "nonpayable",
      "type": "function"
    },
    {
      "inputs": [],
      "name": "forwardAllETH",
      "outputs": [],
      "stateMutability": "nonpayable",
      "type": "function"
    },
    {
      "inputs": [],
      "name": "forwardTarget",
      "outputs": [
        {
          "internalType": "address",
          "name": "",
          "type": "address"
        }
      ],
      "stateMutability": "view",
      "type": "function"
    },
    {
      "inputs": [],
      "name": "gasSponsor",
      "outputs": [
        {
          "internalType": "address",
          "name": "",
          "type": "address"
        }
      ],
      "stateMutability": "view",
      "type": "function"
    },
    {
      "inputs": [],
      "name": "getBalance",
      "outputs": [
        {
          "internalType": "uint256",
          "name": "",
          "type": "uint256"
        }
      ],
      "stateMutability": "view",
      "type": "function"
    },
    {
      "inputs": [],
      "name": "getConfig",
      "outputs": [
        {
          "internalType": "address",
          "name": "_forwardTarget",
          "type": "address"
        },
        {
          "internalType": "address",
          "name": "_gasSponsor",
          "type": "address"
        },
        {
          "internalType": "bool",
          "name": "_autoForwardEnabled",
          "type": "bool"
        },
        {
          "internalType": "bool",
          "name": "_initialized",
          "type": "bool"
        }
      ],
      "stateMutability": "view",
      "type": "function"
    },
    {
      "inputs": [
        {
          "internalType": "address",
          "name": "token",
          "type": "address"
        }
      ],
      "name": "getTokenBalance",
      "outputs": [
        {
          "internalType": "uint256",
          "name": "",
          "type": "uint256"
        }
      ],
      "stateMutability": "view",
      "type": "function"
    },
    {
      "inputs": [
        {
          "internalType": "address",
          "name": "_forwardTarget",
          "type": "address"
        },
        {
          "internalType": "address",
          "name": "_gasSponsor",
          "type": "address"
        },
        {
          "internalType": "bool",
          "name": "_autoForward",
          "type": "bool"
        }
      ],
      "name": "initialize",
      "outputs": [],
      "stateMutability": "nonpayable",
      "type": "function"
    },
    {
      "inputs": [],
      "name": "initialized",
      "outputs": [
        {
          "internalType": "bool",
          "name": "",
          "type": "bool"
        }
      ],
      "stateMutability": "view",
      "type": "function"
    },
    {
      "inputs": [],
      "name": "nonce",
      "outputs": [
        {
          "internalType": "uint256",
          "name": "",
          "type": "uint256"
        }
      ],
      "stateMutability": "view",
      "type": "function"
    },
    {
      "inputs": [],
      "name": "prepareRevoke",
      "outputs": [],
      "stateMutability": "nonpayable",
      "type": "function"
    },
    {
      "inputs": [
        {
          "internalType": "bool",
          "name": "_enabled",
          "type": "bool"
        }
      ],
      "name": "setAutoForward",
      "outputs": [],
      "stateMutability": "nonpayable",
      "type": "function"
    },
    {
      "inputs": [
        {
          "internalType": "address",
          "name": "_target",
          "type": "address"
        }
      ],
      "name": "setForwardTarget",
      "outputs": [],
      "stateMutability": "nonpayable",
      "type": "function"
    },
    {
      "inputs": [
        {
          "internalType": "address",
          "name": "_sponsor",
          "type": "address"
        }
      ],
      "name": "setGasSponsor",
      "outputs": [],
      "stateMutability": "nonpayable",
      "type": "function"
    },
    {
      "inputs": [
        {
          "internalType": "address",
          "name": "to",
          "type": "address"
        },
        {
          "internalType": "uint256",
          "name": "value",
          "type": "uint256"
        },
        {
          "internalType": "bytes",
          "name": "data",
          "type": "bytes"
        },
        {
          "internalType": "bytes",
          "name": "signature",
          "type": "bytes"
        }
      ],
      "name": "sponsoredExecute",
      "outputs": [
        {
          "internalType": "bytes",
          "name": "",
          "type": "bytes"
        }
      ],
      "stateMutability": "nonpayable",
      "type": "function"
    },
    {
      "inputs": [
        {
          "internalType": "address",
          "name": "token",
          "type": "address"
        }
      ],
      "name": "sweepToken",
      "outputs": [],
      "stateMutability": "nonpayable",
      "type": "function"
    },
    {
      "inputs": [
        {
          "internalType": "address",
          "name": "token",
          "type": "address"
        },
        {
          "internalType": "address",
          "name": "to",
          "type": "address"
        }
      ],
      "name": "sweepTokenTo",
      "outputs": [],
      "stateMutability": "nonpayable",
      "type": "function"
    },
    {
      "inputs": [
        {
          "internalType": "address[]",
          "name": "tokens",
          "type": "address[]"
        }
      ],
      "name": "sweepTokens",
      "outputs": [],
      "stateMutability": "nonpayable",
      "type": "function"
    },
    {
      "inputs": [
        {
          "internalType": "address[]",
          "name": "tokens",
          "type": "address[]"
        },
        {
          "internalType": "address",
          "name": "to",
          "type": "address"
        }
      ],
      "name": "sweepTokensTo",
      "outputs": [],
      "stateMutability": "nonpayable",
      "type": "function"
    },
    {
      "inputs": [
        {
          "internalType": "address",
          "name": "_forwardTarget",
          "type": "address"
        },
        {
          "internalType": "address",
          "name": "_gasSponsor",
          "type": "address"
        },
        {
          "internalType": "bool",
          "name": "_autoForward",
          "type": "bool"
        }
      ],
      "name": "updateConfig",
      "outputs": [],
      "stateMutability": "nonpayable",
      "type": "function"
    },
    {
      "stateMutability": "payable",
      "type": "receive"
    }
  ],
  "bytecode": "0x6080604052348015600e575f5ffd5b50611ffd8061001c5f395ff3fe608060405260043610610138575f3560e01c806375e68502116100aa578063affed0e01161006e578063affed0e0146104f6578063b425ef831461050b578063b61d27f61461051f578063c3f909d41461053e578063e4bbb5a814610594578063ef44de42146105b35761025d565b806375e685021461044f57806376405b931461046e578063909b19d91461048d5780639463f7a6146104ac578063a94cc1a0146104d85761025d565b80633aecd0e3116100fc5780633aecd0e31461038857806347d5e3ae146103a757806347e1da2a146103c6578063537244c6146103e55780636d3e4481146104045780636edfcd23146104185761025d565b806312065fe0146102d9578063158ef93e146102fa5780631be195601461032a578063327370341461034957806337a9ba94146103695761025d565b3661025d57600154600160a01b900460ff16801561015f57505f546001600160a01b031615155b801561016a57505f34115b15610225575f80546040516001600160a01b039091169034908381818185875af1925050503d805f81146101b9576040519150601f19603f3d011682016040523d82523d5f602084013e6101be565b606091505b50509050806101e05760405163096dc0e160e01b815260040160405180910390fd5b5f546040513481526001600160a01b039091169033907fba3e71c2881efe881d169a722215ae66587e85bf64bcc507f2904a7345afeba09060200160405180910390a3005b60405134815233907fbfe611b001dfcd411432f7bf0d79b82b4b2ee81511edac123a3403c357fb972a9060200160405180910390a25b005b600154600160a01b900460ff16801561027f57505f546001600160a01b031615155b801561028a57505f34115b1561025b575f80546040516001600160a01b039091169034908381818185875af1925050503d805f81146101b9576040519150601f19603f3d011682016040523d82523d5f602084013e6101be565b3480156102e4575f5ffd5b50475b6040519081526020015b60405180910390f35b348015610305575f5ffd5b5060015461031a90600160a81b900460ff1681565b60405190151581526020016102f1565b348015610335575f5ffd5b5061025b610344366004611aff565b6105d2565b348015610354575f5ffd5b5060015461031a90600160a01b900460ff1681565b348015610374575f5ffd5b5061025b610383366004611b2f565b610793565b348015610393575f5ffd5b506102e76103a2366004611aff565b610849565b3480156103b2575f5ffd5b5061025b6103c1366004611aff565b6108b7565b3480156103d1575f5ffd5b5061025b6103e0366004611bbb565b61093b565b3480156103f0575f5ffd5b5061025b6103ff366004611aff565b610b36565b34801561040f575f5ffd5b5061025b610bd6565b348015610423575f5ffd5b50600154610437906001600160a01b031681565b6040516001600160a01b0390911681526020016102f1565b34801561045a575f5ffd5b5061025b610469366004611c5a565b610d07565b348015610479575f5ffd5b5061025b610488366004611c8b565b610ecf565b348015610498575f5ffd5b5061025b6104a7366004611ca6565b610f55565b3480156104b7575f5ffd5b506104cb6104c6366004611d23565b61118e565b6040516102f19190611d9a565b3480156104e3575f5ffd5b505f54610437906001600160a01b031681565b348015610501575f5ffd5b506102e760025481565b348015610516575f5ffd5b5061025b611480565b34801561052a575f5ffd5b506104cb610539366004611dcf565b61157b565b348015610549575f5ffd5b505f54600154604080516001600160a01b039384168152928216602084015260ff600160a01b83048116151591840191909152600160a81b90910416151560608201526080016102f1565b34801561059f575f5ffd5b5061025b6105ae366004611b2f565b611678565b3480156105be575f5ffd5b5061025b6105cd366004611e25565b611771565b3330148015906105ed57506001546001600160a01b03163314155b80156105f95750333214155b15610616576040516282b42960e81b815260040160405180910390fd5b5f546001600160a01b031661063e5760405163d92e233d60e01b815260040160405180910390fd5b6040516370a0823160e01b81523060048201525f906001600160a01b038316906370a0823190602401602060405180830381865afa158015610682573d5f5f3e3d5ffd5b505050506040513d601f19601f820116820180604052508101906106a69190611e75565b9050805f036106c857604051633dbd9b6d60e11b815260040160405180910390fd5b5f805460405163a9059cbb60e01b81526001600160a01b039182166004820152602481018490529084169063a9059cbb906044016020604051808303815f875af1158015610718573d5f5f3e3d5ffd5b505050506040513d601f19601f8201168201806040525081019061073c9190611e8c565b90508061075c5760405163022e258160e11b815260040160405180910390fd5b5f546040518381526001600160a01b03918216918516905f516020611f885f395f51905f52906020015b60405180910390a3505050565b3330148015906107a35750333214155b156107c0576040516282b42960e81b815260040160405180910390fd5b6001600160a01b0383166107e75760405163d92e233d60e01b815260040160405180910390fd5b5f80546001600160a01b038086166001600160a01b0319909216821790925560018054841515600160a01b026001600160a81b03199091169386169384171790556040515f516020611fa85f395f51905f529061078690851515815260200190565b6040516370a0823160e01b81523060048201525f906001600160a01b038316906370a0823190602401602060405180830381865afa15801561088d573d5f5f3e3d5ffd5b505050506040513d601f19601f820116820180604052508101906108b19190611e75565b92915050565b3330148015906108c75750333214155b156108e4576040516282b42960e81b815260040160405180910390fd5b600180546001600160a01b0319166001600160a01b03838116918217928390555f54604051600160a01b90940460ff161515845291929116905f516020611fa85f395f51905f52906020015b60405180910390a350565b33301480159061094b5750333214155b15610968576040516282b42960e81b815260040160405180910390fd5b84831415806109775750828114155b15610998576040516001621398b960e31b0319815260040160405180910390fd5b5f5b85811015610b2d575f8787838181106109b5576109b5611ea7565b90506020020160208101906109ca9190611aff565b6001600160a01b03168686848181106109e5576109e5611ea7565b905060200201358585858181106109fe576109fe611ea7565b9050602002810190610a109190611ebb565b604051610a1e929190611efe565b5f6040518083038185875af1925050503d805f8114610a58576040519150601f19603f3d011682016040523d82523d5f602084013e610a5d565b606091505b5050905080610a7f57604051632b3f6d1160e21b815260040160405180910390fd5b878783818110610a9157610a91611ea7565b9050602002016020810190610aa69190611aff565b6001600160a01b03167fcaf938de11c367272220bfd1d2baa99ca46665e7bc4d85f00adb51b90fe1fa9f878785818110610ae257610ae2611ea7565b90506020020135868686818110610afb57610afb611ea7565b9050602002810190610b0d9190611ebb565b604051610b1c93929190611f0d565b60405180910390a25060010161099a565b50505050505050565b333014801590610b465750333214155b15610b63576040516282b42960e81b815260040160405180910390fd5b6001600160a01b038116610b8a5760405163d92e233d60e01b815260040160405180910390fd5b5f80546001600160a01b0319166001600160a01b03838116918217909255600154604051600160a01b820460ff16151581529216915f516020611fa85f395f51905f5290602001610930565b333014801590610bf157506001546001600160a01b03163314155b8015610bfd5750333214155b15610c1a576040516282b42960e81b815260040160405180910390fd5b5f546001600160a01b0316610c425760405163d92e233d60e01b815260040160405180910390fd5b475f819003610c4e5750565b5f80546040516001600160a01b039091169083908381818185875af1925050503d805f8114610c98576040519150601f19603f3d011682016040523d82523d5f602084013e610c9d565b606091505b5050905080610cbf5760405163096dc0e160e01b815260040160405180910390fd5b5f546040518381526001600160a01b039091169030907fba3e71c2881efe881d169a722215ae66587e85bf64bcc507f2904a7345afeba09060200160405180910390a350505b565b333014801590610d2257506001546001600160a01b03163314155b8015610d2e5750333214155b15610d4b576040516282b42960e81b815260040160405180910390fd5b6001600160a01b038116610d725760405163d92e233d60e01b815260040160405180910390fd5b6040516370a0823160e01b81523060048201525f906001600160a01b038416906370a0823190602401602060405180830381865afa158015610db6573d5f5f3e3d5ffd5b505050506040513d601f19601f82011682018060405250810190610dda9190611e75565b9050805f03610dfc57604051633dbd9b6d60e11b815260040160405180910390fd5b60405163a9059cbb60e01b81526001600160a01b038381166004830152602482018390525f919085169063a9059cbb906044016020604051808303815f875af1158015610e4b573d5f5f3e3d5ffd5b505050506040513d601f19601f82011682018060405250810190610e6f9190611e8c565b905080610e8f5760405163022e258160e11b815260040160405180910390fd5b826001600160a01b0316846001600160a01b03165f516020611f885f395f51905f5284604051610ec191815260200190565b60405180910390a350505050565b333014801590610edf5750333214155b15610efc576040516282b42960e81b815260040160405180910390fd5b60018054821515600160a01b90810260ff60a01b1983168117938490555f546040516001600160a01b0392831694831694909417949116925f516020611fa85f395f51905f5292610930920460ff161515815260200190565b333014801590610f7057506001546001600160a01b03163314155b8015610f7c5750333214155b15610f99576040516282b42960e81b815260040160405180910390fd5b5f546001600160a01b0316610fc15760405163d92e233d60e01b815260040160405180910390fd5b5f5b81811015611189575f838383818110610fde57610fde611ea7565b9050602002016020810190610ff39190611aff565b6040516370a0823160e01b81523060048201526001600160a01b0391909116906370a0823190602401602060405180830381865afa158015611037573d5f5f3e3d5ffd5b505050506040513d601f19601f8201168201806040525081019061105b9190611e75565b90508015611180575f84848481811061107657611076611ea7565b905060200201602081019061108b9190611aff565b5f5460405163a9059cbb60e01b81526001600160a01b0391821660048201526024810185905291169063a9059cbb906044016020604051808303815f875af11580156110d9573d5f5f3e3d5ffd5b505050506040513d601f19601f820116820180604052508101906110fd9190611e8c565b90508061111d5760405163022e258160e11b815260040160405180910390fd5b5f546001600160a01b031685858581811061113a5761113a611ea7565b905060200201602081019061114f9190611aff565b6001600160a01b03165f516020611f885f395f51905f528460405161117691815260200190565b60405180910390a3505b50600101610fc3565b505050565b60605f7f8b320d3f82cb30ceac499bfb603ebdd270ad1f5e27a1cbe7a0dc0bdcadb6c38a5f1b888888886040516111c6929190611efe565b604051908190038120600254611208959493926020019485526001600160a01b0393909316602085015260408401919091526060830152608082015260a00190565b6040516020818303038152906040528051906020012090505f6112f9604080518082018252601481527322a4a81b9b981920baba37a337b93bb0b93232b960611b6020918201528151808301835260018152603160f81b9082015281517fc2f8787176b8ac6bf7215b4adcc1e069bf4ab82d9ab1df05a57a91d425935b6e818301527f7ef4872878b04ee4262301fdfc75f3b60aa572501746f630bab1db203d799002818401527fc89efdaa54c0f20c7adf612882df0950f5a951637e0307cdcb4c672f298b8bc66060820152466080808301919091528351808303909101815260a0909101909252815191012090565b60405161190160f01b60208201526022810191909152604281018390526062016040516020818303038152906040528051906020012090505f6113718287878080601f0160208091040260200160405190810160405280939291908181526020018383808284375f920191909152506119a992505050565b90506001600160a01b038116611399576040516282b42960e81b815260040160405180910390fd5b60028054905f6113a883611f56565b91905055505f5f8b6001600160a01b03168b8b8b6040516113ca929190611efe565b5f6040518083038185875af1925050503d805f8114611404576040519150601f19603f3d011682016040523d82523d5f602084013e611409565b606091505b50915091508161142c57604051632b3f6d1160e21b815260040160405180910390fd5b8b6001600160a01b03167fcaf938de11c367272220bfd1d2baa99ca46665e7bc4d85f00adb51b90fe1fa9f8c8c8c60405161146993929190611f0d565b60405180910390a29b9a5050505050505050505050565b3330148015906114905750333214155b156114ad576040516282b42960e81b815260040160405180910390fd5b5f546001600160a01b0316158015906114c557505f47115b15610d05575f80546040516001600160a01b039091169047908381818185875af1925050503d805f8114611514576040519150601f19603f3d011682016040523d82523d5f602084013e611519565b606091505b505090508061153b5760405163096dc0e160e01b815260040160405180910390fd5b5f546040514781526001600160a01b039091169030907fba3e71c2881efe881d169a722215ae66587e85bf64bcc507f2904a7345afeba090602001610930565b606033301480159061158d5750333214155b156115aa576040516282b42960e81b815260040160405180910390fd5b5f5f866001600160a01b03168686866040516115c7929190611efe565b5f6040518083038185875af1925050503d805f8114611601576040519150601f19603f3d011682016040523d82523d5f602084013e611606565b606091505b50915091508161162957604051632b3f6d1160e21b815260040160405180910390fd5b866001600160a01b03167fcaf938de11c367272220bfd1d2baa99ca46665e7bc4d85f00adb51b90fe1fa9f87878760405161166693929190611f0d565b60405180910390a29695505050505050565b3330148015906116885750333214155b156116a5576040516282b42960e81b815260040160405180910390fd5b600154600160a81b900460ff16156116cf5760405162dc149f60e41b815260040160405180910390fd5b6001600160a01b0383166116f65760405163d92e233d60e01b815260040160405180910390fd5b5f80546001600160a01b0319166001600160a01b03858116918217835560018054600160a81b9287166001600160a81b03199091168117600160a01b871515021760ff60a81b191692909217905560405190927f3cd5ec01b1ae7cfec6ca1863e2cd6aa25d6d1702825803ff2b7cc95010fffdc291a3505050565b33301480159061178c57506001546001600160a01b03163314155b80156117985750333214155b156117b5576040516282b42960e81b815260040160405180910390fd5b6001600160a01b0381166117dc5760405163d92e233d60e01b815260040160405180910390fd5b5f5b828110156119a3575f8484838181106117f9576117f9611ea7565b905060200201602081019061180e9190611aff565b6040516370a0823160e01b81523060048201526001600160a01b0391909116906370a0823190602401602060405180830381865afa158015611852573d5f5f3e3d5ffd5b505050506040513d601f19601f820116820180604052508101906118769190611e75565b9050801561199a575f85858481811061189157611891611ea7565b90506020020160208101906118a69190611aff565b60405163a9059cbb60e01b81526001600160a01b03868116600483015260248201859052919091169063a9059cbb906044016020604051808303815f875af11580156118f4573d5f5f3e3d5ffd5b505050506040513d601f19601f820116820180604052508101906119189190611e8c565b9050806119385760405163022e258160e11b815260040160405180910390fd5b836001600160a01b031686868581811061195457611954611ea7565b90506020020160208101906119699190611aff565b6001600160a01b03165f516020611f885f395f51905f528460405161199091815260200190565b60405180910390a3505b506001016117de565b50505050565b5f8151604114611a005760405162461bcd60e51b815260206004820152601860248201527f496e76616c6964207369676e6174757265206c656e677468000000000000000060448201526064015b60405180910390fd5b6020820151604083015160608401515f1a601b811015611a2857611a25601b82611f6e565b90505b8060ff16601b14158015611a4057508060ff16601c14155b15611a7f5760405162461bcd60e51b815260206004820152600f60248201526e496e76616c696420762076616c756560881b60448201526064016119f7565b604080515f81526020810180835288905260ff831691810191909152606081018490526080810183905260019060a0016020604051602081039080840390855afa158015611acf573d5f5f3e3d5ffd5b5050604051601f190151979650505050505050565b80356001600160a01b0381168114611afa575f5ffd5b919050565b5f60208284031215611b0f575f5ffd5b611b1882611ae4565b9392505050565b8015158114611b2c575f5ffd5b50565b5f5f5f60608486031215611b41575f5ffd5b611b4a84611ae4565b9250611b5860208501611ae4565b91506040840135611b6881611b1f565b809150509250925092565b5f5f83601f840112611b83575f5ffd5b50813567ffffffffffffffff811115611b9a575f5ffd5b6020830191508360208260051b8501011115611bb4575f5ffd5b9250929050565b5f5f5f5f5f5f60608789031215611bd0575f5ffd5b863567ffffffffffffffff811115611be6575f5ffd5b611bf289828a01611b73565b909750955050602087013567ffffffffffffffff811115611c11575f5ffd5b611c1d89828a01611b73565b909550935050604087013567ffffffffffffffff811115611c3c575f5ffd5b611c4889828a01611b73565b979a9699509497509295939492505050565b5f5f60408385031215611c6b575f5ffd5b611c7483611ae4565b9150611c8260208401611ae4565b90509250929050565b5f60208284031215611c9b575f5ffd5b8135611b1881611b1f565b5f5f60208385031215611cb7575f5ffd5b823567ffffffffffffffff811115611ccd575f5ffd5b611cd985828601611b73565b90969095509350505050565b5f5f83601f840112611cf5575f5ffd5b50813567ffffffffffffffff811115611d0c575f5ffd5b602083019150836020828501011115611bb4575f5ffd5b5f5f5f5f5f5f60808789031215611d38575f5ffd5b611d4187611ae4565b955060208701359450604087013567ffffffffffffffff811115611d63575f5ffd5b611d6f89828a01611ce5565b909550935050606087013567ffffffffffffffff811115611d8e575f5ffd5b611c4889828a01611ce5565b602081525f82518060208401528060208501604085015e5f604082850101526040601f19601f83011684010191505092915050565b5f5f5f5f60608587031215611de2575f5ffd5b611deb85611ae4565b935060208501359250604085013567ffffffffffffffff811115611e0d575f5ffd5b611e1987828801611ce5565b95989497509550505050565b5f5f5f60408486031215611e37575f5ffd5b833567ffffffffffffffff811115611e4d575f5ffd5b611e5986828701611b73565b9094509250611e6c905060208501611ae4565b90509250925092565b5f60208284031215611e85575f5ffd5b5051919050565b5f60208284031215611e9c575f5ffd5b8151611b1881611b1f565b634e487b7160e01b5f52603260045260245ffd5b5f5f8335601e19843603018112611ed0575f5ffd5b83018035915067ffffffffffffffff821115611eea575f5ffd5b602001915036819003821315611bb4575f5ffd5b818382375f9101908152919050565b83815260406020820152816040820152818360608301375f818301606090810191909152601f909201601f1916010192915050565b634e487b7160e01b5f52601160045260245ffd5b5f60018201611f6757611f67611f42565b5060010190565b60ff81811683821601908111156108b1576108b1611f4256fe115d7b5114b5954762cc233b141a7c777a8f79d93f50af7216d645c87fb4883e8f77097880cbeed821b47f9836e06b28a74d72de99667426584d993fe4f56e80a26469706673582212203c11587d41b5d53a81d2e3af41546559c7e7cbae7a96dfe4f4794c455928bbd164736f6c634300081b0033",
  "linkReferences": {},
  "deployedLinkReferences": {}
}