{
  "_format": "hh-sol-artifact-1",
  "contractName": "EIP7702AutoForwarder",
  "sourceName": "contracts/EIP7702AutoForwarder.sol",
  "abi": [
    {
      "inputs": [],
      "name": "AlreadyInitialized",
      "type": "error"
    },
    {
      "inputs": [],
      "name": "ExecutionFailed",
      "type": "error"
    },
    {
      "inputs": [],
      "name": "ForwardFailed",
      "type": "error"
    },
    {
      "inputs": [],
      "name": "LengthMismatch",
      "type": "error"
    },
    {
      "inputs": [],
      "name": "NoTokenBalance",
      "type": "error"
    },
    {
      "inputs": [],
      "name": "TokenTransferFailed",
      "type": "error"
    },
    {
      "inputs": [],
      "name": "Unauthorized",
      "type": "error"
    },
    {
      "inputs": [],
      "name": "ZeroAddress",
      "type": "error"
    },
    {
      "anonymous": false,
      "inputs": [
        {
          "indexed": true,
          "internalType": "address",
          "name": "forwardTarget",
          "type": "address"
        },
        {
          "indexed": true,
          "internalType": "address",
          "name": "gasSponsor",
          "type": "address"
        },
        {
          "indexed": false,
          "internalType": "bool",
          "name": "autoForward",
          "type": "bool"
        }
      ],
      "name": "ConfigUpdated",
      "type": "event"
    },
    {
      "anonymous": false,
      "inputs": [
        {
          "indexed": true,
          "internalType": "address",
          "name": "from",
          "type": "address"
        },
        {
          "indexed": true,
          "internalType": "address",
          "name": "to",
          "type": "address"
        },
        {
          "indexed": false,
          "internalType": "uint256",
          "name": "amount",
          "type": "uint256"
        }
      ],
      "name": "ETHForwarded",
      "type": "event"
    },
    {
      "anonymous": false,
      "inputs": [
        {
          "indexed": true,
          "internalType": "address",
          "name": "from",
          "type": "address"
        },
        {
          "indexed": false,
          "internalType": "uint256",
          "name": "amount",
          "type": "uint256"
        }
      ],
      "name": "ETHReceived",
      "type": "event"
    },
    {
      "anonymous": false,
      "inputs": [
        {
          "indexed": true,
          "internalType": "address",
          "name": "to",
          "type": "address"
        },
        {
          "indexed": false,
          "internalType": "uint256",
          "name": "value",
          "type": "uint256"
        },
        {
          "indexed": false,
          "internalType": "bytes",
          "name": "data",
          "type": "bytes"
        }
      ],
      "name": "Executed",
      "type": "event"
    },
    {
      "anonymous": false,
      "inputs": [
        {
          "indexed": true,
          "internalType": "address",
          "name": "forwardTarget",
          "type": "address"
        },
        {
          "indexed": true,
          "internalType": "address",
          "name": "gasSponsor",
          "type": "address"
        }
      ],
      "name": "Initialized",
      "type": "event"
    },
    {
      "anonymous": false,
      "inputs": [
        {
          "indexed": true,
          "internalType": "address",
          "name": "token",
          "type": "address"
        },
        {
          "indexed": true,
          "internalType": "address",
          "name": "to",
          "type": "address"
        },
        {
          "indexed": false,
          "internalType": "uint256",
          "name": "amount",
          "type": "uint256"
        }
      ],
      "name": "TokenSwept",
      "type": "event"
    },
    {
      "stateMutability": "payable",
      "type": "fallback"
    },
    {
      "inputs": [],
      "name": "autoForwardEnabled",
      "outputs": [
        {
          "internalType": "bool",
          "name": "",
          "type": "bool"
        }
      ],
      "stateMutability": "view",
      "type": "function"
    },
    {
      "inputs": [
        {
          "internalType": "address",
          "name": "to",
          "type": "address"
        },
        {
          "internalType": "uint256",
          "name": "value",
          "type": "uint256"
        },
        {
          "internalType": "bytes",
          "name": "data",
          "type": "bytes"
        }
      ],
      "name": "execute",
      "outputs": [
        {
          "internalType": "bytes",
          "name": "",
          "type": "bytes"
        }
      ],
      "stateMutability": "nonpayable",
      "type": "function"
    },
    {
      "inputs": [
        {
          "internalType": "address[]",
          "name": "targets",
          "type": "address[]"
        },
        {
          "internalType": "uint256[]",
          "name": "values",
          "type": "uint256[]"
        },
        {
          "internalType": "bytes[]",
          "name": "calldatas",
          "type": "bytes[]"
        }
      ],
      "name": "executeBatch",
      "outputs": [],
      "stateMutability": "nonpayable",
      "type": "function"
    },
    {
      "inputs": [],
      "name": "forwardAllETH",
      "outputs": [],
      "stateMutability": "nonpayable",
      "type": "function"
    },
    {
      "inputs": [],
      "name": "forwardTarget",
      "outputs": [
        {
          "internalType": "address",
          "name": "",
          "type": "address"
        }
      ],
      "stateMutability": "view",
      "type": "function"
    },
    {
      "inputs": [],
      "name": "gasSponsor",
      "outputs": [
        {
          "internalType": "address",
          "name": "",
          "type": "address"
        }
      ],
      "stateMutability": "view",
      "type": "function"
    },
    {
      "inputs": [],
      "name": "getBalance",
      "outputs": [
        {
          "internalType": "uint256",
          "name": "",
          "type": "uint256"
        }
      ],
      "stateMutability": "view",
      "type": "function"
    },
    {
      "inputs": [],
      "name": "getConfig",
      "outputs": [
        {
          "internalType": "address",
          "name": "_forwardTarget",
          "type": "address"
        },
        {
          "internalType": "address",
          "name": "_gasSponsor",
          "type": "address"
        },
        {
          "internalType": "bool",
          "name": "_autoForwardEnabled",
          "type": "bool"
        },
        {
          "internalType": "bool",
          "name": "_initialized",
          "type": "bool"
        }
      ],
      "stateMutability": "view",
      "type": "function"
    },
    {
      "inputs": [
        {
          "internalType": "address",
          "name": "token",
          "type": "address"
        }
      ],
      "name": "getTokenBalance",
      "outputs": [
        {
          "internalType": "uint256",
          "name": "",
          "type": "uint256"
        }
      ],
      "stateMutability": "view",
      "type": "function"
    },
    {
      "inputs": [
        {
          "internalType": "address",
          "name": "_forwardTarget",
          "type": "address"
        },
        {
          "internalType": "address",
          "name": "_gasSponsor",
          "type": "address"
        },
        {
          "internalType": "bool",
          "name": "_autoForward",
          "type": "bool"
        }
      ],
      "name": "initialize",
      "outputs": [],
      "stateMutability": "nonpayable",
      "type": "function"
    },
    {
      "inputs": [],
      "name": "initialized",
      "outputs": [
        {
          "internalType": "bool",
          "name": "",
          "type": "bool"
        }
      ],
      "stateMutability": "view",
      "type": "function"
    },
    {
      "inputs": [],
      "name": "nonce",
      "outputs": [
        {
          "internalType": "uint256",
          "name": "",
          "type": "uint256"
        }
      ],
      "stateMutability": "view",
      "type": "function"
    },
    {
      "inputs": [],
      "name": "prepareRevoke",
      "outputs": [],
      "stateMutability": "nonpayable",
      "type": "function"
    },
    {
      "inputs": [
        {
          "internalType": "bool",
          "name": "_enabled",
          "type": "bool"
        }
      ],
      "name": "setAutoForward",
      "outputs": [],
      "stateMutability": "nonpayable",
      "type": "function"
    },
    {
      "inputs": [
        {
          "internalType": "address",
          "name": "_target",
          "type": "address"
        }
      ],
      "name": "setForwardTarget",
      "outputs": [],
      "stateMutability": "nonpayable",
      "type": "function"
    },
    {
      "inputs": [
        {
          "internalType": "address",
          "name": "_sponsor",
          "type": "address"
        }
      ],
      "name": "setGasSponsor",
      "outputs": [],
      "stateMutability": "nonpayable",
      "type": "function"
    },
    {
      "inputs": [
        {
          "internalType": "address",
          "name": "token",
          "type": "address"
        }
      ],
      "name": "sweepToken",
      "outputs": [],
      "stateMutability": "nonpayable",
      "type": "function"
    },
    {
      "inputs": [
        {
          "internalType": "address[]",
          "name": "tokens",
          "type": "address[]"
        }
      ],
      "name": "sweepTokens",
      "outputs": [],
      "stateMutability": "nonpayable",
      "type": "function"
    },
    {
      "inputs": [
        {
          "internalType": "address",
          "name": "_forwardTarget",
          "type": "address"
        },
        {
          "internalType": "address",
          "name": "_gasSponsor",
          "type": "address"
        },
        {
          "internalType": "bool",
          "name": "_autoForward",
          "type": "bool"
        }
      ],
      "name": "updateConfig",
      "outputs": [],
      "stateMutability": "nonpayable",
      "type": "function"
    },
    {
      "stateMutability": "payable",
      "type": "receive"
    }
  ],
  "bytecode": "0x6080604052348015600e575f5ffd5b506115768061001c5f395ff3fe608060405260043610610117575f3560e01c80636d3e44811161009f578063affed0e011610063578063affed0e01461048a578063b425ef831461049f578063b61d27f6146104b3578063c3f909d4146104df578063e4bbb5a8146105355761023c565b80636d3e4481146103e35780636edfcd23146103f757806376405b931461042e578063909b19d91461044d578063a94cc1a01461046c5761023c565b806337a9ba94116100e657806337a9ba94146103485780633aecd0e31461036757806347d5e3ae1461038657806347e1da2a146103a5578063537244c6146103c45761023c565b806312065fe0146102b8578063158ef93e146102d95780631be195601461030957806332737034146103285761023c565b3661023c57600154600160a01b900460ff16801561013e57505f546001600160a01b031615155b801561014957505f34115b15610204575f80546040516001600160a01b039091169034908381818185875af1925050503d805f8114610198576040519150601f19603f3d011682016040523d82523d5f602084013e61019d565b606091505b50509050806101bf5760405163096dc0e160e01b815260040160405180910390fd5b5f546040513481526001600160a01b039091169033907fba3e71c2881efe881d169a722215ae66587e85bf64bcc507f2904a7345afeba09060200160405180910390a3005b60405134815233907fbfe611b001dfcd411432f7bf0d79b82b4b2ee81511edac123a3403c357fb972a9060200160405180910390a25b005b600154600160a01b900460ff16801561025e57505f546001600160a01b031615155b801561026957505f34115b1561023a575f80546040516001600160a01b039091169034908381818185875af1925050503d805f8114610198576040519150601f19603f3d011682016040523d82523d5f602084013e61019d565b3480156102c3575f5ffd5b50475b6040519081526020015b60405180910390f35b3480156102e4575f5ffd5b506001546102f990600160a81b900460ff1681565b60405190151581526020016102d0565b348015610314575f5ffd5b5061023a6103233660046111e6565b610554565b348015610333575f5ffd5b506001546102f990600160a01b900460ff1681565b348015610353575f5ffd5b5061023a610362366004611216565b61071c565b348015610372575f5ffd5b506102c66103813660046111e6565b6107c4565b348015610391575f5ffd5b5061023a6103a03660046111e6565b610832565b3480156103b0575f5ffd5b5061023a6103bf3660046112a2565b6108a8565b3480156103cf575f5ffd5b5061023a6103de3660046111e6565b610a95565b3480156103ee575f5ffd5b5061023a610b27565b348015610402575f5ffd5b50600154610416906001600160a01b031681565b6040516001600160a01b0390911681526020016102d0565b348015610439575f5ffd5b5061023a610448366004611341565b610c4c565b348015610458575f5ffd5b5061023a61046736600461135c565b610cc4565b348015610477575f5ffd5b505f54610416906001600160a01b031681565b348015610495575f5ffd5b506102c660025481565b3480156104aa575f5ffd5b5061023a610f04565b3480156104be575f5ffd5b506104d26104cd36600461139b565b610ff1565b6040516102d0919061141e565b3480156104ea575f5ffd5b505f54600154604080516001600160a01b039384168152928216602084015260ff600160a01b83048116151591840191909152600160a81b90910416151560608201526080016102d0565b348015610540575f5ffd5b5061023a61054f366004611216565b6110e0565b33301480159061056f57506001546001600160a01b03163314155b1561058c576040516282b42960e81b815260040160405180910390fd5b5f546001600160a01b03166105b45760405163d92e233d60e01b815260040160405180910390fd5b6040516370a0823160e01b81523060048201525f906001600160a01b038316906370a0823190602401602060405180830381865afa1580156105f8573d5f5f3e3d5ffd5b505050506040513d601f19601f8201168201806040525081019061061c9190611453565b9050805f0361063e57604051633dbd9b6d60e11b815260040160405180910390fd5b5f805460405163a9059cbb60e01b81526001600160a01b039182166004820152602481018490529084169063a9059cbb906044016020604051808303815f875af115801561068e573d5f5f3e3d5ffd5b505050506040513d601f19601f820116820180604052508101906106b2919061146a565b9050806106d25760405163022e258160e11b815260040160405180910390fd5b5f546040518381526001600160a01b03918216918516907f115d7b5114b5954762cc233b141a7c777a8f79d93f50af7216d645c87fb4883e906020015b60405180910390a3505050565b33301461073b576040516282b42960e81b815260040160405180910390fd5b6001600160a01b0383166107625760405163d92e233d60e01b815260040160405180910390fd5b5f80546001600160a01b038086166001600160a01b0319909216821790925560018054841515600160a01b026001600160a81b03199091169386169384171790556040515f5160206115215f395f51905f529061070f90851515815260200190565b6040516370a0823160e01b81523060048201525f906001600160a01b038316906370a0823190602401602060405180830381865afa158015610808573d5f5f3e3d5ffd5b505050506040513d601f19601f8201168201806040525081019061082c9190611453565b92915050565b333014610851576040516282b42960e81b815260040160405180910390fd5b600180546001600160a01b0319166001600160a01b03838116918217928390555f54604051600160a01b90940460ff161515845291929116905f5160206115215f395f51905f52906020015b60405180910390a350565b3330146108c7576040516282b42960e81b815260040160405180910390fd5b84831415806108d65750828114155b156108f7576040516001621398b960e31b0319815260040160405180910390fd5b5f5b85811015610a8c575f87878381811061091457610914611485565b905060200201602081019061092991906111e6565b6001600160a01b031686868481811061094457610944611485565b9050602002013585858581811061095d5761095d611485565b905060200281019061096f9190611499565b60405161097d9291906114dc565b5f6040518083038185875af1925050503d805f81146109b7576040519150601f19603f3d011682016040523d82523d5f602084013e6109bc565b606091505b50509050806109de57604051632b3f6d1160e21b815260040160405180910390fd5b8787838181106109f0576109f0611485565b9050602002016020810190610a0591906111e6565b6001600160a01b03167fcaf938de11c367272220bfd1d2baa99ca46665e7bc4d85f00adb51b90fe1fa9f878785818110610a4157610a41611485565b90506020020135868686818110610a5a57610a5a611485565b9050602002810190610a6c9190611499565b604051610a7b939291906114eb565b60405180910390a2506001016108f9565b50505050505050565b333014610ab4576040516282b42960e81b815260040160405180910390fd5b6001600160a01b038116610adb5760405163d92e233d60e01b815260040160405180910390fd5b5f80546001600160a01b0319166001600160a01b03838116918217909255600154604051600160a01b820460ff16151581529216915f5160206115215f395f51905f529060200161089d565b333014801590610b4257506001546001600160a01b03163314155b15610b5f576040516282b42960e81b815260040160405180910390fd5b5f546001600160a01b0316610b875760405163d92e233d60e01b815260040160405180910390fd5b475f819003610b935750565b5f80546040516001600160a01b039091169083908381818185875af1925050503d805f8114610bdd576040519150601f19603f3d011682016040523d82523d5f602084013e610be2565b606091505b5050905080610c045760405163096dc0e160e01b815260040160405180910390fd5b5f546040518381526001600160a01b039091169030907fba3e71c2881efe881d169a722215ae66587e85bf64bcc507f2904a7345afeba09060200160405180910390a350505b565b333014610c6b576040516282b42960e81b815260040160405180910390fd5b60018054821515600160a01b90810260ff60a01b1983168117938490555f546040516001600160a01b0392831694831694909417949116925f5160206115215f395f51905f529261089d920460ff161515815260200190565b333014801590610cdf57506001546001600160a01b03163314155b15610cfc576040516282b42960e81b815260040160405180910390fd5b5f546001600160a01b0316610d245760405163d92e233d60e01b815260040160405180910390fd5b5f5b81811015610eff575f838383818110610d4157610d41611485565b9050602002016020810190610d5691906111e6565b6040516370a0823160e01b81523060048201526001600160a01b0391909116906370a0823190602401602060405180830381865afa158015610d9a573d5f5f3e3d5ffd5b505050506040513d601f19601f82011682018060405250810190610dbe9190611453565b90508015610ef6575f848484818110610dd957610dd9611485565b9050602002016020810190610dee91906111e6565b5f5460405163a9059cbb60e01b81526001600160a01b0391821660048201526024810185905291169063a9059cbb906044016020604051808303815f875af1158015610e3c573d5f5f3e3d5ffd5b505050506040513d601f19601f82011682018060405250810190610e60919061146a565b905080610e805760405163022e258160e11b815260040160405180910390fd5b5f546001600160a01b0316858585818110610e9d57610e9d611485565b9050602002016020810190610eb291906111e6565b6001600160a01b03167f115d7b5114b5954762cc233b141a7c777a8f79d93f50af7216d645c87fb4883e84604051610eec91815260200190565b60405180910390a3505b50600101610d26565b505050565b333014610f23576040516282b42960e81b815260040160405180910390fd5b5f546001600160a01b031615801590610f3b57505f47115b15610c4a575f80546040516001600160a01b039091169047908381818185875af1925050503d805f8114610f8a576040519150601f19603f3d011682016040523d82523d5f602084013e610f8f565b606091505b5050905080610fb15760405163096dc0e160e01b815260040160405180910390fd5b5f546040514781526001600160a01b039091169030907fba3e71c2881efe881d169a722215ae66587e85bf64bcc507f2904a7345afeba09060200161089d565b6060333014611012576040516282b42960e81b815260040160405180910390fd5b5f5f866001600160a01b031686868660405161102f9291906114dc565b5f6040518083038185875af1925050503d805f8114611069576040519150601f19603f3d011682016040523d82523d5f602084013e61106e565b606091505b50915091508161109157604051632b3f6d1160e21b815260040160405180910390fd5b866001600160a01b03167fcaf938de11c367272220bfd1d2baa99ca46665e7bc4d85f00adb51b90fe1fa9f8787876040516110ce939291906114eb565b60405180910390a29695505050505050565b3330146110ff576040516282b42960e81b815260040160405180910390fd5b600154600160a81b900460ff16156111295760405162dc149f60e41b815260040160405180910390fd5b6001600160a01b0383166111505760405163d92e233d60e01b815260040160405180910390fd5b5f80546001600160a01b0319166001600160a01b03858116918217835560018054600160a81b9287166001600160a81b03199091168117600160a01b871515021760ff60a81b191692909217905560405190927f3cd5ec01b1ae7cfec6ca1863e2cd6aa25d6d1702825803ff2b7cc95010fffdc291a3505050565b80356001600160a01b03811681146111e1575f5ffd5b919050565b5f602082840312156111f6575f5ffd5b6111ff826111cb565b9392505050565b8015158114611213575f5ffd5b50565b5f5f5f60608486031215611228575f5ffd5b611231846111cb565b925061123f602085016111cb565b9150604084013561124f81611206565b809150509250925092565b5f5f83601f84011261126a575f5ffd5b50813567ffffffffffffffff811115611281575f5ffd5b6020830191508360208260051b850101111561129b575f5ffd5b9250929050565b5f5f5f5f5f5f606087890312156112b7575f5ffd5b863567ffffffffffffffff8111156112cd575f5ffd5b6112d989828a0161125a565b909750955050602087013567ffffffffffffffff8111156112f8575f5ffd5b61130489828a0161125a565b909550935050604087013567ffffffffffffffff811115611323575f5ffd5b61132f89828a0161125a565b979a9699509497509295939492505050565b5f60208284031215611351575f5ffd5b81356111ff81611206565b5f5f6020838503121561136d575f5ffd5b823567ffffffffffffffff811115611383575f5ffd5b61138f8582860161125a565b90969095509350505050565b5f5f5f5f606085870312156113ae575f5ffd5b6113b7856111cb565b935060208501359250604085013567ffffffffffffffff8111156113d9575f5ffd5b8501601f810187136113e9575f5ffd5b803567ffffffffffffffff8111156113ff575f5ffd5b876020828401011115611410575f5ffd5b949793965060200194505050565b602081525f82518060208401528060208501604085015e5f604082850101526040601f19601f83011684010191505092915050565b5f60208284031215611463575f5ffd5b5051919050565b5f6020828403121561147a575f5ffd5b81516111ff81611206565b634e487b7160e01b5f52603260045260245ffd5b5f5f8335601e198436030181126114ae575f5ffd5b83018035915067ffffffffffffffff8211156114c8575f5ffd5b60200191503681900382131561129b575f5ffd5b818382375f9101908152919050565b83815260406020820152816040820152818360608301375f818301606090810191909152601f909201601f191601019291505056fe8f77097880cbeed821b47f9836e06b28a74d72de99667426584d993fe4f56e80a2646970667358221220e68c59881edb45b054957b0418100db7b7a6f45784a0f3774180a33c74eb1d4564736f6c634300081b0033",
  "linkReferences": {},
  "deployedLinkReferences": {}
}